:020000040000FA
:06000000020B3E0202BEED
:03002B000207E9E0
:030043000204EDC7
:0300530002019611
:1000830002021F010105030101FF0F10FEFFFE26FF
:1000930000000000962600000000FF000000FF00A3
:1000A300017017761700007C1700000000000000A5
:1000B30000000000008217941700000000000000F9
:1000C300000000000000000000000000000000002D
:1000D300000000000000000000000000000000001D
:1000E300000000000000000000083C0500000010B4
:1000F30020202020202020202020202020202020FD
:1001030001080401030400086D80049D800020FDA4
:1001130000020000EE1A000000000000541B000063
:1001230000000000C41A00000000000000000000EE
:10013300000000000000000000000000000006FFB7
:100143000101010402001019000000E8030000FF90
:10015300FFD91903E803000064006400B801A0BBE1
:100163000D00A0BB0D00020200F8FF070502070403
:1001730001051E02051E020A0A0102080803B80B44
:1001830002803E0102FEFFE8030A050001FFFF0AA9
:100193001401E0C0E0C0D0E8C0E0E9C0E0EAC0E09C
:1001A300EBC0E0ECC0E0EDC0E0EEC0E0EFC0E0C0CB
:1001B30008C009C082C083C0F0A2AFE433F509D2FE
:1001C300AF85A708AFA1EF5508FE74105E60061255
:1001D30018A275A1EF74085E60081218A875A1F73C
:1001E3008024EFA2E092F0E508A2E082F05017909D
:1001F3006198E0F890079DE0C398A2D265D0335090
:1002030002E8F075A1FEE509A2E092AFD0F0D08339
:10021300D082D009D008D0E0FF0202A4C0E0C0D051
:10022300E8C0E0E9C0E0EAC0E0EBC0E0ECC0E0ED2C
:10023300C0E0EEC0E0C082C083C0F0A2AFE433FEF2
:10024300D2AF9061A4E0F8759B00E5915854086023
:10025300087591F71218E48023E59158541060084B
:100263007591EF1218EA8014E591A2E092F0E8A2EA
:10027300E082F05007E0C2E0F0121A1C9061A3E0A4
:10028300F8E5E9585404600E1219FE75E9FB906114
:1002930093E0A2E640F2EEA2E092AFD0F0D083D09A
:1002A30082D0E0FED0E0FDD0E0FCD0E0FBD0E0FA6D
:1002B300D0E0F9D0E0F8D0D0D0E032C0E0C0D0E850
:1002C300C0E0E9C0E0EAC0E0EBC0E0ECC0E0EDC0B4
:1002D300E0EEC0E0C082C083C0F0A2AFE433FED240
:1002E300AF9061A5E0F8E5BF585404600675BFFB05
:1002F300121A2880A1C3E498F8E499F9120339800B
:1003030026C3E49AFAE49BFBE920E7E9120339E404
:1003130098F8E499F922C3E498F8E499F9120339B7
:10032300E498F8E499F9C3E49AFAE49BFB22EB20FE
:10033300E7CFE920E7E0B90010BB0008E88AF084C2
:10034300F8AAF022E4FBC8FA22EB70227B10C83330
:10035300C8C933C9335007C39AC3DBF280069A5026
:10036300012ADBEAC833F4C8C933F4C9FA2275F0A9
:1003730008E4C833C8C933C933C99AC99B5004C9EF
:100383002AC93BD5F0ECFBC833F4C8E4C9FA220808
:100393000808EAC0E0EBC0E086F0E7A4FA18098693
:1003A300F0E7A42AFA180986F0E7A42AFA180986BE
:1003B300F0E7A42AFA1986F0E7A4FBE5F02AFA1974
:1003C3000886F0E7A42BFBE5F03AFA190886F0E774
:1003D300A42BFBE5F03AFA18180986F0E7A4C5F058
:1003E3002BFBE43AFA1908E7C5F0C6A426F6E5F0B4
:1003F3003BFBE43AFA1886F0E7A4F6E5F00826F6A4
:10040300E43B08F6E43A08F6D0E0FBD0E0FA22E455
:10041300CFC0E0E4CEC0E0E4CDC0E0E4CCC0E07502
:10042300F020E626F608E633F608E633F608E63368
:10043300F6181818EC33FCED33FDEE33FEEF33FF03
:10044300C3EC9709ED9709EE9709EF97191919402E
:100453000FFFEC97FC09ED97FD09EE97FE191906BE
:10046300D5F0BFECF709EDF709EEF709EFF7191926
:1004730019D0E0FCD0E0FDD0E0FED0E0FF2225184B
:10048300C582C0E0E51934FFC583C0E0E518C39514
:100493008224F810AF088583198582188008858324
:1004A30019858218D2AFCEF0A3E520F0A37808E631
:1004B30008F0A3DEFAEFF0A3E58124FAF8E608F0EA
:1004C300A3E608F0A3E608F0A30808E608F0A3E60D
:1004D30008F0A315811581D0E0FED0E0F815811551
:1004E300811581E8C0E0EEC0E022C0E0C0D0E8C0E2
:1004F300E0E9C0E0EAC0E0EBC0E0ECC0E0EDC0E062
:10050300EEC0E0C082C083C0F0A2AFE433FED2AF3E
:10051300C2C0E5D1A2E45003121824EEA2E092AFC8
:10052300D0F0D083D082D0E0FED0E0FDD0E0FCD08C
:10053300E0FBD0E0FAD0E0F9D0E0F8D0D0D0E03260
:10054300120BD0B90003020582E4900301787E798F
:10055300188002F0A3D8FCD9FA7A7E7B1A90008621
:10056300781179028015E493A3AD82AE838A828BDE
:1005730083F0A3AA82AB838D828E83D8E9D9E775F2
:10058300821E75839474061208CF758206758324C0
:1005930074001208CF75F0108E1A8F1B85821F8589
:1005A300831E851882851983E0CEA3E0CF851F8241
:1005B300851E83EBC9EAC8EDCBECCAC3E833C8E9AF
:1005C30033C9EA33CAEB33CBC3EA9EF51DEB9FF580
:1005D3001CB35004AB1CAA1DEC33CCED33CDD5F0CA
:1005E300DAAE1AAF1B22D083D082ECC0E0EDC0E0BC
:1005F300E493A3FCE493A3FDED4C600D1206C1EC60
:1006030024FFFCED34FFFD80EFE493A3FCE493A30C
:10061300FDED4C600D120794EC24FFFCED34FFFD5F
:1006230080EFD0E0FDD0E0FCE493A3C0E0E493C00E
:10063300E022851983851882E0A3FEE0A3F52078E4
:1006430008E0A3F608DFFAE0A3FFE0A3C0E0E0A31D
:10065300C0E0E0A3C0E0E0A3C0E0E0A3C0E010AFCF
:10066300088582188583198008858218858319D2A5
:10067300AFD083D0820208D5D083D082E9C0E0E432
:1006830093A3C386F0C5F095F0F908E493A386F02D
:10069300C5F095F0700BE493A3C3994005E904807A
:1006A30002A3E475F002A42582F582E5F03583F513
:1006B30083D0E0F9E493A3C0E0E493C0E022C0E078
:1006C300C3E49396087401939618400FE4936670FD
:1006D3000808740193661870007019A3A3C3E49308
:1006E30096087401939618A3A3400DD0E0D0E0D0F0
:1006F300E0020625A3A3A3A3A3A3D0E022D083D023
:1007030082C5F0E493A3C5F0C395F0F5F0E493A399
:10071300C395F04005E5F0048001E475F002A425DB
:1007230082F582E5F03583F583E493A3C0E0E49397
:10073300C0E0227404800474028000CCC0E0EDC0E9
:10074300E0E518C39CCCAD1950011D10AF068C1801
:100753008D1980068C188D19D2AF120831D0E0FDA7
:10076300D0E0FC2274028000CCC0E0EDC0E0E518CC
:10077300C39CCCAD1950011D10AF068C188D198088
:10078300068C188D19D2AF12080FD0E0FDD0E0FC13
:1007930022C0E0C0F088F0E4936670080874019307
:1007A30066187000A8F0A3A3700BD0F0D0E0D0E0DF
:1007B300D0E0020625A3A3D0F0D0E022D083D082DC
:1007C300CCC0E0E493A360061208911470FAE4939A
:1007D300A360061209891470FAD0E0FCE493A3C065
:1007E300E0E493C0E022C0E0C0D0E8C0E0E9C0E0AC
:1007F300A9A8D2AFC2C7E9A2E7E433F8E9A2E79216
:10080300AFD0E0F9D0E0F8D0D0D0E032CAC0E0E415
:1008130093A3C582CCC582C583CDC583F0A3C5820E
:10082300CCC582C583CDC583DAE5D0E0CA22CAC070
:10083300E0E0A3C582CCC582C583CDC583F0A3C543
:1008430082CCC582C583CDC583DAE6D0E0CA222532
:1008530018F8E43519F9222518FAE43519FB22258D
:1008630018FCE43519FD222518FEE43519FF227022
:1008730009080808226016181818C6C333C608C624
:1008830033C608C633C608C633C6D5E0EA22C0E07D
:10089300E493A3D39C5010E493A3C39C400AD0E0F9
:1008A300D0E0D0E00207DCA3A3A3D0E022C008C3BA
:1008B300E096F50808A3E096420808A3E0964208EC
:1008C30008A3E09645087001D3D00822C09FF59F86
:1008D300E473D09F22D083D082C09FE493C0E0749E
:1008E3000193C0E0740293F59F227404800A740399
:1008F3008006740280027401C0E0F404120908D077
:10090300E0120B7B222518F58210AF08F518400C76
:1009130015198008F51840021519D2AF85198322DD
:1009230000C0D0251810AF08F518500C0519800821
:10093300F51850020519D2AFD0D022BB0102E7222D
:10094300C082C08389828A83BB0003E08002E49370
:10095300D083D082226016080808C6C313C618C6FF
:1009630013C618C613C618C613C6D5E0EA22C3E0D9
:10097300C696F608A3E0C696F608A3E0C696F60860
:10098300A3E0C696F622C0E0E493A36C7009D0E01E
:10099300D0E0D0E00207DCA3A3D0E022251810AFFB
:1009A30008F518400C15198008F51840021519D2DE
:1009B300AF22E76670100809E766700A0809E76660
:1009C30070040809E76622E066701008A3E0667009
:1009D3000A08A3E066700408A3E06622C3E0960851
:1009E300A3E09608A3E09608A3E096A2D265D033CD
:1009F30022C3E697F60809E697F60809E697F6088C
:100A030009E697F622C3E096F008A3E096F008A360
:100A1300E096F008A3E096F022C3E49396087401ED
:100A230093960874029396087403939622E657F6F6
:100A33000809E657F60809E657F60809E657F622C5
:100A4300E026F608A3E036F608A3E036F608A3E0AE
:100A530036F622700422600D18C6C333C608C633A7
:100A6300C6D5E0F41822E493F608740193F60874EB
:100A73000293F608740393F622E056F008A3E056B7
:100A8300F008A3E056F008A3E056F022E647F60884
:100A930009E647F60809E647F60809E647F622E0BD
:100AA30056F608A3E056F608A3E056F608A3E05668
:100AB300F622E627F60809E637F60809E637F608C8
:100AC30009E637F622E026F008A3E036F008A3E0B3
:100AD30036F008A3E036F02206E6700D0806E6704D
:100AE300080806E670030806E622E4C396F608E45F
:100AF30096F608E496F608E496F622600D08C6A278
:100B0300E713C618C613C6D5E0F322C6F4C608C653
:100B1300F4C608C6F4C608C6F4C622C3E796080995
:100B2300E7960809E7960809E79622C3E09608A323
:100B3300E09608A3E09608A3E0962275D00075819D
:100B43003F75180175190300020543E6F008A3E693
:100B5300F008A3E6F008A3E6F022600C08C6C3136E
:100B6300C618C613C6D5E0F422E0F608A3E0F608DB
:100B7300A3E0F608A3E0F622CAC0E0E6F0A308DA91
:100B8300FAD0E0FA22E8F0A3E9F0A3EAF0A3EBF04D
:100B930022E0F8A3E0F9A3E0FAA3E0FB22ECF0A340
:100BA300EDF0A3EEF0A3EFF022E0FCA3E0FDA3E061
:100BB300FEA3E0FF22EAF0A3EBF0A3ECF0A3EDF039
:100BC30022E0FAA3E0FBA3E0FCA3E0FD22E5C75487
:100BD300F84401F5C77901222518F582E43519F5A2
:100BE3008322C2AF75D69F020000221208D83AA210
:100BF300021208D855A3021208D891A3021208D8EA
:100C03006BA5021208D828A9021208D83CA902121F
:100C130008D846A9021208D850A9021208D85AA91E
:100C2300021208D864A9021208D87DA9021208D8B2
:100C330087A9021208D8F4A9021208D8FFA9021240
:100C430008D827AA021208D832AA021208D897AAEB
:100C5300021208D8A1AA021208D8ACAA021208D814
:100C6300D0AA021208D8F4AA021208D866AB02125C
:100C730008D8AFAB021208D8CBAB021208D83CACF1
:100C8300021208D888AC021208D8D1AC021208D8D4
:100C93000FAD021208D890AD021208D837AE021277
:100CA30008D806B0021208D86BB0021208D899B15E
:100CB300021208D8BFB1021208D807B3021208D82B
:100CC30041B6021208D83FB8021208D80ABA021273
:100CD30008D8A3BA021208D8A4BC021208D859BD76
:100CE300021208D892BD021208D8F8BD021208D821
:100CF30002BE021208D82BC0021208D86AC102121F
:100D030008D8C1C1021208D86CC2021208D81CC488
:100D1300021208D869C5021208D889C5021208D878
:100D2300DEC5021208D8DFC6021208D807C70212AE
:100D330008D866C7021208D85EC8021208D8D5C8F8
:100D4300021208D8E8C9021208D856CA021208D8F3
:100D530055CB021208D8AFCD021208D8D8CD021253
:100D630008D83ECF021208D8C0D0021208D817D133
:100D7300021208D8C5D1021208D86AD2021208D8C2
:100D8300C3D2021208D881D3021208D813D4021294
:100D930008D872D4021208D8B4D4021208D8E5D401
:100DA300021208D83CD6021208D8282B001208D801
:100DB3005A2B001208D8932B001208D8512D001279
:100DC30008D8952D001208D86B2E001208D8CA2E09
:100DD300001208D8E02F001208D82C30001208D8CF
:100DE300BA32001208D89435001208D8DB36001244
:100DF30008D87337001208D87F37001208D8C837CD
:100E0300001208D80A39001208D8003A001208D88C
:100E13002A3A001208D8803A001208D8D93A0012A8
:100E230008D84C3B001208D8823D001208D8043F72
:100E3300001208D8EF3F001208D83941001208D831
:100E43007143001208D86E46001208D87D4600127E
:100E530008D81147001208D8BC47001208D8FF472A
:100E6300001208D86748001208D88348001208D82F
:100E7300B248001208D8F148001208D8EC49001211
:100E830008D89B4A001208D8184D001208D84A4EB9
:100E9300001208D8224F001208D8A44F001208D815
:100EA300D953001208D80854001208D8635400120A
:100EB30008D89654001208D80E55001208D8415588
:100EC300001208D8A255001208D8F255001208D80B
:100ED300BF56001208D87857001208D83C580012A1
:100EE30008D8B65A001208D8185C001208D8695DF1
:100EF300001208D88D5E001208D8905E001208D840
:100F0300BF5E001208D8B760001208D876610012DD
:100F130008D8A561001208D83263001208D8A2636A
:100F2300001208D83564001208D8A864001208D843
:100F3300D166001208D83067001208D884670012FF
:100F430008D8B369001208D8966A001208D8526B01
:100F5300001208D8666B001208D87A6B001208D802
:100F6300A76B001208D8D76B001208D8DE6D0012E9
:100F730008D88A6E001208D8F86E001208D81F6FBE
:100F8300001208D8E76F001208D88D70001208D835
:100F93001372001208D89E72001208D8E57200126C
:100FA30008D85773001208D8AC74001208D85575C6
:100FB300001208D88975001208D8A175001208D844
:100FC3004476001208D8C078001208D8687A001254
:100FD30008D8867A001208D8A47A001208D8707B41
:100FE300001208D8BE7E001208D8DD80011208D88E
:100FF3001581011208D81586011208D85B860112E3
:1010030008D89187011208D8F687011208D86B898E
:10101300011208D8758C011208D8A08D011208D8C6
:10102300B397011208D84398011208D82D9B0112D7
:1010330008D83A9C011208D8AD9C011208D8119E19
:10104300011208D8F09E011208D85EA1011208D837
:10105300F0A2011208D87DA3011208D8A4A401129A
:1010630008D8AEA4011208D8D6A4011208D876A5D0
:10107300011208D861A6011208D82EA7011208D8B8
:101083004BA7011208D874A7011208D8A1A701120F
:1010930008D8E8A9011208D8B7AA011208D8F6AAF5
:1010A300011208D878AB011208D819AC011208D87C
:1010B3004BAC011208D892AC011208D8C5AC01128E
:1010C30008D809AD011208D858AD011208D85DAD92
:1010D300011208D8B9AD011208D8FDAD011208D824
:1010E300D7AE011208D83CAF011208D8A2AF011243
:1010F30008D81DB0011208D885B3011208D888B4E6
:10110300011208D806B6011208D81CB9011208D872
:10111300BEB9011208D807BC011208D8C2BC01121B
:1011230008D801BD011208D8D9BE011208D8F6BEED
:10113300011208D8FFBE011208D808BF011208D84F
:1011430013BF011208D832BF011208D8D6C001124A
:1011530008D833C1011208D83DC1011208D847C1CC
:10116300011208D8A8C1011208D8F2C1011208D887
:10117300F3C2011208D84AC3011208D85BC4011292
:1011830008D8A4C4011208D85EC5011208D875C6D0
:10119300011208D84AC7011208D891C8011208D809
:1011A30095C9011208D88ECA011208D8A6CA01121D
:1011B30008D8DDCA011208D8E7CA011208D8F1CA53
:1011C300011208D8FCCA011208D81ACB011208D898
:1011D30062CB011208D8C0CB011208D8E7CB0112A9
:1011E30008D8F9CB011208D8AECC011208D8E7CC45
:1011F300011208D809CE011208D85CCE011208D812
:1012030042CF011208D869CF011208D8D9CF0112F1
:1012130008D855D0011208D8B1D1011208D8D8D2B4
:10122300011208D89AD3011208D868D4011208D839
:1012330026D5011208D80ED6011208D8B8D6011245
:1012430008D820D7011208D8D5D7011208D831D829
:10125300011208D889D8011208D84FD9011208D829
:1012630072D9011208D82DDA011208D84FDA011207
:1012730008D8B0DA011208D8E0DC011208D8D9DDA9
:10128300011208D885DE011208D8A6E0011208D899
:10129300EFE0011208D83AE1011208D896E10112F1
:1012A30008D8F4E1011208D818E2011208D83CE288
:1012B300011208D871E2011208D899E2011208D884
:1012C300DEE2011208D832E3011208D88BE30112DF
:1012D30008D885E4011208D823E6011208D868E685
:1012E300011208D891E6011208D81AE7011208D8AA
:1012F3008DE7011208D89BE7011208D8BFE7011256
:1013030008D815E8011208D830E8011208D8EBE82C
:10131300011208D817E9011208D85AE9011208D8AE
:10132300BDE9011208D8CBEB011208D8F7EB011283
:1013330008D8B2EC011208D896ED011208D82AEEAB
:10134300011208D8EEBA051208D826BB051208D830
:1013530047BB051208D889BB051208D8EDBB051297
:1013630008D8F7BB051208D807BC051208D83EBC3D
:10137300051208D8E7BF051208D8AFC1051208D86F
:1013830093C3051208D835C4051208D8BFC4051283
:1013930008D85080031208D8F980031208D8D881DE
:1013A300031208D8E482031208D80483031208D86E
:1013B3002684031208D8D685031208D8438603125D
:1013C30008D81487031208D81A88031208D89288F9
:1013D300031208D8CD88031208D82689031208D827
:1013E3006189031208D8AA89031208D83E8A031216
:1013F30008D8D48A031208D8A98B031208D87C8C86
:10140300031208D80A8D031208D8308D031208D8A6
:101413005D8D031208D88E8D031208D85B8E0312DC
:1014230008D86B8E031208D8BE8E031208D8CB8E51
:10143300031208D8D88E031208D8E18E031208D8F5
:10144300458F031208D8A38F031208D8EE8F031217
:1014530008D80990031208D83090031208D84D9089
:10146300031208D85990031208D8EA91031208D836
:101473000392031208D87F92031208D892920312A0
:1014830008D8A292031208D84693031208D8B2943C
:10149300031208D8C595031208D86596031208D815
:1014A3006F96031208D8EE96031208D8FF9603121C
:1014B30008D83E97031208D86C97031208D83998B6
:1014C300031208D89098031208D8C998031208D8B1
:1014D3001F99031208D83D99031208D88B99031258
:1014E30008D8569A031208D8A49A031208D8F19A76
:1014F300031208D8749B031208D89E9B031208D8C2
:10150300D49B031208D8E39B031208D8429C03120E
:1015130008D8BA9C031208D8FB9C031208D84B9D29
:10152300031208D8769D031208D8909D031208D899
:10153300AA9D031208D87F9E031208D8899E03121E
:1015430008D8C49E031208D8D49E031208D8259F36
:10155300031208D8399F031208D85BA0031208D8D6
:1015630070A0031208D803A1031208D877A10312AD
:1015730008D81CA2031208D827A2031208D88AA3EA
:10158300031208D8A6A3031208D8F2A3031208D89B
:1015930060A4031208D892A4031208D8ACA40312BF
:1015A30008D80CA5031208D8ABA5031208D8F6A5D2
:1015B300031208D849A8031208D8E1A8031208D8CF
:1015C30058A9031208D8B5AB031208D8CDAB031240
:1015D30008D8D0AB031208D8DCAB031208D8F0ABA1
:1015E300031208D8F8AB031208D82FAC031208D89B
:1015F30023AD031208D8ADAD031208D82FAE0312E2
:1016030008D8AFAE031208D886AF031208D8A8AF24
:10161300031208D841B0031208D89EB0031208D8A9
:10162300A1B0031208D810B1031208D85CB2031298
:1016330008D86FB3031208D8FAB3031208D80DB54C
:10164300031208D8D4B5031208D805B6031208D874
:101653002BB6031208D834B6031208D863B60312A4
:1016630008D813B7031208D8C3B7031208D836B87B
:10167300031208D8D9B8031208D84CB9031208D8F2
:101683008BB9031208D8D4B9031208D806EF031292
:1016930008D8C5EF031208D846F0031208D8F4F0AF
:1016A300031208D800F1031208D87DF4031208D8F6
:1016B3001CF7031208D8B2FA031208D8ECFA031283
:1016C30008D876FB031208D8A2FB031208D8CCFB78
:1016D300031208D80CFC031208D863FC031208D8C1
:1016E300EBEE011208D867EF011208D8A1EF01123F
:1016F30008D89FF1011208D8B7F1011208D808F2EF
:10170300011208D88AF2011208D889F3011208D805
:10171300DAF4011208D862F5011208D8E6F50112CD
:1017230008D863F6011208D8B7F6011208D8DFF615
:10173300011208D8CF9A021208D804F8011208D867
:1017430057F8011208D8E4F8011208D822F9011257
:1017530008D8F0FA011208D8D1FB011208D8A1FC6D
:10176300011208D8FDA1061208D88AA2061208D8C9
:1017730024FD041208D827FD041208D82AFD0412F8
:1017830008D82DFD041208D8C0FD041208D8F5FEB0
:10179300041208D8FAFE041208D8CEA8061208D8F4
:1017A300BBA1021208D879A9061208D8F5FF0312C3
:1017B30008D8E7FF041208D8CDA5061208D8D9A582
:1017C300061208D8F2A5061208D88AA6061208D867
:1017D30098A6061208D8D7A6061208D85DA706123F
:1017E30008D8C3A7061208D81DAB061208D8DC7E9A
:1017F300001208D8F97E001208D8167F001208D804
:10180300B27F001208D8E6A9061208D87CD50512C3
:1018130008D834D6051208D89ED7051208D89AD905
:10182300051208D8EDD9051208D838DA051208D8F8
:10183300A5DA051208D8B5DA051208D83DDB05127A
:1018430008D853DB051208D85DDB051208D8B2DBD4
:10185300051208D8DDDB051208D81BDF051208D8EE
:10186300F6DF051208D817E0051208D833E0051291
:1018730008D84CE0051208D8EF99061208D8259A23
:10188300061208D8609A061208D8D89A061208D801
:101893000E9B061208D8419B061208D89E9B06127F
:1018A30008D8A19B061208D8B49B061208D8C09B7F
:1018B300061208D8188E061208D86C8E061208D89D
:1018C300BC8E061208D82A8F061208D86B8F061210
:1018D30008D8C48F061208D8EC8F061208D8DC90FB
:1018E300061208D8E990061208D8FA90061208D80A
:1018F30048FF051208D860FF051208D88CFF0512AF
:1019030008D86DF1051208D8D6F2051208D8E4F20A
:10191300051208D8F8F2051208D815F3051208D8ED
:101923002AF3051208D83DF3051208D80AF4051264
:1019330008D880F4051208D802F5051208D8DBF59B
:10194300051208D8EBF5051208D8FAF5051208D8E0
:101953004CFF041208D871FF041208D89AFF04122E
:1019630008D8C2FF041208D885FD011208D8ACFDBF
:10197300011208D828FE011208D85787061208D882
:101983007087061208D88E87061208D8A287061217
:1019930008D8C087061208D8CA87061208D8D48781
:1019A300061208D8E787061208D8D588061208D881
:1019B3004189061208D87289061208D8C08906120E
:1019C30008D80D8A061208D8288A061208D8328A3F
:1019D300061208D87D8A061208D89BA9061208D8D1
:1019E3005DA4051208D891A4051208D8B9A405125C
:1019F30008D8D3A4051208D8EDA4051208D85EA50B
:101A0300051208D891A5051208D870AB051208D89D
:101A130000AD051208D87FAD051208D817AF05121F
:101A230008D832AF051208D8A5AF051208D80A980E
:101A3300061208D81A98061208D84B98061208D826
:101A43006398061208D8E998061208D81499061262
:101A530008D84C99061208D8A199061208D8BB9940
:101A6300061208D8B4FF011208D805EC051208D8ED
:101A73000CEC051208D8D4ED051208D8FDED0512BB
:101A830008D88BEE051208D875EF051208D8D9EFE0
:101A9300051208D87FF0051208D8D1F0051208D82E
:101AA3001796061208D83596061208D89796061286
:101AB30008D87B97061208D8D697061208D8DCA751
:101AC300061208D848A3061208D8C0A3061208D8DD
:101AD300CE83061208D8DD83061208D88C86061238
:101AE30008D8A09D061208D8F39E061208D8C6AFE0
:101AF300051208D806B4051208D8FBB5051208D894
:101B03002DB7051208D807B8051208D89EB90512D3
:101B130008D871BA051208D8C5BA051208D8C99BE6
:101B2300061208D8EA9B061208D8299D061208D87F
:101B3300539D061208D82891061208D89D910612C3
:101B430008D8A891061208D8C391061208D831CC38
:101B5300041208D869CC041208D869D5041208D82D
:101B6300EAD6041208D885D8041208D886D90412F4
:101B730008D861DA041208D864DB041208D861DCDF
:101B8300041208D826DD041208D856DD041208D83A
:101B930093DF041208D815E0041208D82EE00412CB
:101BA30008D8C1E1041208D89AE2041208D82BE33A
:101BB300041208D8FBE3041208D87BE4041208D803
:101BC30027E5041208D8BDE5041208D84A9F061277
:101BD30008D86A9F061208D87EA0061208D881A0EA
:101BE300061208D8C1AA061208D8F3AA061208D802
:101BF3006EC5051208D8ABC5051208D810C6051264
:101C030008D82FC6051208D848C6051208D8FFC63B
:101C1300051208D809C7051208D85AC7051208D8EB
:101C230088C7051208D86FC8051208D88DC90512D0
:101C330008D8DAC9051208D824CA051208D884CAF4
:101C4300051208D8BACA051208D82FCB051208D82E
:101C53008BCB051208D8CECB051208D817CC0512AA
:101C630008D829CC051208D83BCC051208D85ACC81
:101C7300051208D863CC051208D822CD051208D85E
:101C830073CD051208D8ADCD051208D85CFA02123F
:101C930008D8EDFB021208D816FC021208D827FC5C
:101CA300021208D842FE021208D8A7FF021208D86F
:101CB300C08A061208D8F68A061208D84E8C061275
:101CC30008D8A78D061208D898D6021208D864DD62
:101CD300021208D87DE4021208D868E7021208D875
:101CE300CBE9021208D866EA021208D841EC0212C4
:101CF30008D87EEE021208D8B1F1021208D8BFF15B
:101D0300021208D865F2021208D806F3021208D8A4
:101D1300D2F8021208D87DF9021208D8FDAA0612D9
:101D230008D813AB061208D8D3FA051208D8E8FA74
:101D3300051208D8D0FB051208D803FC051208D8F1
:101D430050FC051208D8AEFC051208D821FD051277
:101D530008D83BFF051208D891A4061208D819A584
:101D6300061208D86FA5061208D8AEA5061208D821
:101D73004C92051208D85892051208D8FD92051204
:101D830008D88093051208D88994051208D89E9420
:101D9300051208D83195051208D8C695051208D83A
:101DA3000896051208D80798051208D81E98051238
:101DB30008D8A1A0051208D8A7A1051208D83FA2E8
:101DC300051208D808A3051208D87EA3051208D85F
:101DD30024A4051208D8BDFC031208D8CBFC0312B7
:101DE30008D8AEA0061208D84AA1061208D837AA06
:101DF300061208D80080051208D8BD80051208D83D
:101E03007981051208D89A81051208D8FA82051239
:101E130008D80F84051208D8F884051208D8C0889A
:101E2300051208D8E38B051208D8298C051208D8A7
:101E3300738F051208D80190051208D88C900512EB
:101E430008D8DEAD041208D85EB0041208D8EBB08F
:101E5300041208D8C4B3041208D814B5041208D85D
:101E63003DB6041208D88EB6041208D8A0B70412DF
:101E730008D8FBB8041208D820BA041208D84DBBFE
:101E8300041208D8B2BB041208D80FBD041208D834
:101E930030BE041208D83BBE041208D8ABBE0412ED
:101EA30008D83EBF041208D86DBF041208D80FC269
:101EB300041208D83EC2041208D8D4C2041208D8A7
:101EC30006C3041208D8F3C3041208D820C50412A9
:101ED30008D867C5041208D8E2C5041208D8AEC6EC
:101EE300041208D8B1C6041208D8BFC6041208D811
:101EF300C8C6041208D81AC7041208D899C704120E
:101F030008D8EBC7041208D82BC8041208D835C860
:101F1300041208D876C8041208D89FC8041208D837
:101F2300C6C8041208D817C9041208D88FCA0412E5
:101F330008D8DECB041208D8FDCB041208D815CC80
:101F4300041208D87CAA061208D899E1051208D809
:101F5300F0E1051208D889E2051208D894E30512C6
:101F630008D8DCE5051208D859E6051208D8D7CDFC
:101F7300051208D826CE051208D87CD0051208D839
:101F830067D2051208D863D3051208D877D405128F
:101F930008D8CBD4051208D84CD5051208D809BAED
:101FA300031208D828BA031208D8B8BA031208D8FB
:101FB30001BB031208D8BCBB031208D854BC0312DC
:101FC30008D8E7BC031208D871BD031208D822BE93
:101FD300031208D8C2BE031208D886C5031208D854
:101FE30002C8031208D837C8031208D8A0C80312BE
:101FF30008D80BCC031208D8B5CC031208D85ACE94
:10200300031208D86DCF031208D890D0031208D852
:1020130003D1031208D8D4D1031208D85BD2031218
:1020230008D869D2031208D844D3031208D888D435
:10203300031208D8D3D6031208D812D9031208D82A
:10204300E8D9031208D84BE0031208D815E10312AC
:1020530008D843E2031208D8F8E5031208D81EE9AA
:10206300031208D811EB031208D8DDEB031208D8CA
:102073000DED031208D850ED031208D8B4ED031286
:1020830008D852EE031208D80080041208D80A8137
:10209300041208D8B681041208D8C082041208D8E2
:1020A3006183041208D82885041208D8DE85041237
:1020B30008D8FC86041208D8B987041208D8878880
:1020C300041208D8B389041208D83C8D041208D826
:1020D3003D8F041208D82F90041208D8EF920412EF
:1020E30008D84694041208D87F95041208D8749629
:1020F300041208D86D97041208D83899041208D826
:10210300AC9A041208D8629B041208D8119C0412DA
:1021130008D8AB9D041208D8989E041208D8B49F1F
:10212300041208D8C1A1041208D8A5A4041208D81F
:10213300A6A6041208D8AFA8041208D843AA04120A
:1021430008D8DEAA041208D84FAB041208D86AAC28
:10215300041208D8DBE5041208D840E6041208D8B4
:10216300A1E6041208D88AE8041208D88DE90412FB
:1021730008D8BBEA041208D853EB041208D865EC5C
:10218300041208D8EDED041208D81DEE041208D885
:102193004AEE041208D861EE041208D8CBEF0412F9
:1021A30008D854F0041208D872F0041208D873F156
:1021B300041208D828F2041208D8A5F2041208D889
:1021C3009FF4041208D87DF5041208D893F604127C
:1021D30008D8B7F7041208D8E3F8041208D8EAF9C4
:1021E300041208D893FA041208D8E0FA041208D8A3
:1021F300E2FB041208D883FC041208D82BF605125C
:1022030008D89FF8051208D85FF9051208D8C3F952
:10221300051208D84EFA051208D80080061208D80D
:102223005980061208D88180061208D8A8800612A1
:1022330008D8C080061208D8D880061208D8F080C3
:10224300061208D8C181061208D80382061208D8DC
:102253002583061208D82E83061208D83783061260
:1022630008D84083061208D84A83061208D8DAE64B
:10227300051208D8F2EB051208D800EC051208D8AD
:102283009F94061208D8D1FF051208D85D9A02124E
:1022930008D8389A021208D85499021208D87098AC
:1022A300021208D88695021208D84394021208D85D
:1022B300AA91021208D86591021208D80B91021252
:1022C30008D86C90021208D81790021208D8448FCD
:1022D300021208D87E8E021208D8428E021208D843
:1022E300D58D021208D8CD8D021208D8428D021264
:1022F30008D8D28C021208D8238C021208D8188C62
:10230300021208D8098C021208D8E88B021208D8E6
:10231300B48B021208D8888B021208D85A8A021288
:1023230008D88DA0021208D84E88021208D87DA0C2
:10233300021208D85B9F021208D8B49E021208D872
:10234300A59E021208D8329E021208D8169E0212C7
:1023530008D8F89D021208D8E09C021208D81F88FA
:10236300021208D80388021208D8AD87021208D8CF
:102373007487021208D8BB9C021208D8EC8602129A
:1023830008D8A086021208D85986021208D88C856C
:10239300021208D8CB9B021208D81085021208D863
:1023A300DFA8061208D86884021208D8C183021273
:1023B30008D86383021208D83883021208D8E98246
:1023C300021208D8AB82021208D88982021208D8F6
:1023D3006682021208D84D82021208D805820212C0
:1023E30008D84F81021208D8C380021208D8578038
:1023F300021208D8669B021208D80080021208D87D
:1024030071F70100000080FBE47387000100741A78
:10241300350004004F1B25000200531B2600020059
:10242300551B27000200571B28000100611B2900D0
:102433000100621B84000400631B86000100671B0C
:102443002A000100681B2B000100691B2C000100FE
:102453006D1B2D0008005B1A2E0001006E1B2F0060
:1024630001006F1B30000100701B31000100711B64
:1024730032000100631A33000100641A34000100C2
:10248300721B36000100651A38000100731B390006
:1024930001006C1B83000200881B63000100711A9A
:1024A300640001006A1B650001006B1B6D000100E5
:1024B300721A71000800531A66000100871B43005B
:1024C3000100781B44000200791B450001007B1BBF
:1024D300460002007C1B47000800691A48000100FF
:1024E3007E1B4B0001007F1B040001008A1BA1001F
:1024F30001008D1B370001008C1B880001008B1B22
:102503003C000100661A3D000100741B49000200F3
:10251300801B67000100731A4D000200821B4E00EE
:102523000100841B4F000200851B3E000100681A56
:1025330051000100751B52000100761B530001007E
:10254300771B54000100671A00000000000000011F
:1025530036360101000102010001030100010401FB
:10256300060605020000070100340801000F0904F4
:1025730001010D0100FF0E08000017020000190100
:1025830000FF1A0100011B0100FE1C0100081D02CF
:1025930000001F01000120010001210200002301AE
:1025A300000F240200002601000127010008280271
:1025B30000FF2A0100072B0102402C0100002D011E
:1025C30000012E0100012F0100FF30010B1D310816
:1025D30000003A0100083B01000F3C0100013D01EE
:1025E30000FF3E04000042040000460400004A04C9
:1025F30000004E04000052040000560400005A0478
:1026030000000000210100010021020000012366F7
:10261300000101236700020123680003012369000D
:102623000401216A000501216B000601212C010729
:1026330001212D010801212E010901212F010A0188
:102643002130010B012131010C0121C8000D0121B1
:10265300C9000E0121CA000F0121CB00100121CCBA
:1026630000110121CD00120121CE001301213201FD
:102673001401213301150121CF0016012134011763
:102683000121D000180121D100190121D2001A0122
:1026930021D30001037103010301030103010301BA
:1026A30003220302030103100300030003000300DA
:1026B3000300030003000342030003240306030093
:1026C3000300030403120325032303250323030445
:1026D3000304030003000300034403000300032374
:1026E3000300036503210035038103000305030091
:1026F30003000300030003250323030300710030D9
:1027030001600011007000310220035004800010AA
:102713000061000000140063007300720062004354
:102723000000001300060000000000040012000077
:102733000000000000000004000400370037003CE4
:1027430002440000000000000000006500000035A6
:1027530000810000000500000083000000010171FA
:102763000101010101110101013101010101018097
:1027730001100161013B00140063017301720162E6
:102783000143010001130106013D0135000401125B
:1027930001000100010001000104010401330133C0
:1027A300013C0144013201360000010001650100D2
:1027B300013500810100010501820183010001034C
:1027C3000271023001600211027002010202020270
:1027D300028002100261023A004100630273027236
:1027E30002620243020002130238000002000204E4
:1027F3000212020002000200020002040204023775
:102803000037003C02440200023900000200026566
:1028130002000235028102000205028202830200E5
:10282300020304710402046004110470040204022C
:102833000401040204100461040004140463047317
:102843000472046204430400041304060400040035
:10285300040404120400040004000400045104648A
:102863000000040004000444040004000400040005
:102873000465040004350481046400050400048332
:1028830004000436000100060000000F00000000F1
:1028930000000000000000000003FFFF000004032D
:1028A300FFFF0000FFFF0FF4010005C40403200035
:1028B3000100000B000000000000000003010F00F6
:1028C3000000000000000000000000000000000005
:1028D30000000000000000000000000000000000F5
:1028E30000000000000000000000000000000000E5
:1028F30000000000000000000000000000000000D5
:1029030000000000000000000000000000D01D8255
:102913001D00000000000000000000000000000097
:1029230000000000000000000000000000000000A4
:10293300000000000000000000000000000000C4D0
:102943002013002E201F0034201F803A200100C4D2
:10295300200200BC1F0300C21F0400C81F0500CED5
:102963001F0600D41F3000F21F3100EC1F3200FE9F
:102973001F3300042035000A2034001020360016CF
:102983002011002220140028201500E61FFFFF005D
:1029930000000003002001DA80000000002001DBBA
:1029A300800000040042015C800000050042014BEE
:1029B300800000060042013A80000007002001D990
:1029C30080000010004203EA1A00001100200349AE
:1029D30005000012001003FB1A0300000021034A44
:1029E300050A0000000200000004000000080000C7
:1029F30000100000002000000040000000800000E4
:102A030000000100000002000000040000000800B4
:102A1300000010000000200000004000000126100C
:102A23000656100850100B6810105C0D022C100590
:102A330044100732100C0E100D1A1064C222FF004E
:102A43000007ECFDFDFDECDCDCCCBCACAC9C9C8C51
:102A53007C7C6C6C5C5C5C4C4C3C3C2C2C1C1C03EC
:102A6300EAF5E5D5D5C5B5A59595858575756565EE
:102A7300555545453535252515150500160F000017
:102A83000B150B020002220F3300000E0103050792
:102A9300090B0D0F00020406080A0C0D5A69674260
:102AA3006565416C6C69616E636530393030171848
:102AB3001921301B1D1F3000393D3F373C3C362C5C
:102AC300442D303016181920231A1C1E300C0E0208
:102AD3000B040B0A0708000F00034A49434E181A58
:102AE30025050200011916181616182303000204FF
:102AF30002010101010902E803000000BE040A0EFD
:102B030000000000007F00E8030C0A030308010033
:102B1300040010FF1E1E08050C03040428100508FA
:102B23001509090A0CC082C0831216E090032874A9
:102B3300C8F0A3740DF090032A74CEF0A3740DF0C3
:102B430090032C74D4F0A3740DF090032E74DAF078
:102B5300A3740DF002619E74F7120481E9FE9003E1
:102B63001AE4F0EE900319F0901B7C12553A125EB2
:102B7300897C697D1A7A1D7B03121D6A901B7EE096
:102B8300900325F09003267453F0A3741A023A7C41
:102B930074F01204818A088B09EB54807003022CB1
:102BA300EB900319E0F9121C268A0A8B0BAE0AAFCD
:102BB3000BEE4F7003022CE212530F707EEE241FB4
:102BC30012568464137002A3E070708E828F83A305
:102BD300A3E0F50EA3E0F50F900338125B8A750AA4
:102BE30000750B00800D1238F3125E89121CC2AA05
:102BF3000CAB0DEA4B60448A828B83E0650E700454
:102C0300A3E0650F70288A828B83A3A3A3A3125327
:102C130022E50A450B8A828B83A3A3A3A360C71271
:102C23004859850A82850B83A3A3A3A380BB8A0A81
:102C33008B0B8A828B83125B8680B8EE242A125612
:102C430084F912697C900338123D6EA3A3A3A3A356
:102C5300A3A3A3E0640270378A828B83125B8A800A
:102C6300078C828D83123FCEEC4D60208C828D8346
:102C7300E06A7003A3E06B70E88C828D83A3A3E00A
:102C83006970DE901B84124CA7F0804C120E048EE8
:102C9300828F83E064017034EE2418122D491208E8
:102CA300F91246F6120736EE2412122D491208F9CC
:102CB3001246EA1208F512641A12073AEE241712A2
:102CC30046FE1216A4740A120923800CE0640270F3
:102CD30007EEFAEFFB120F24EEFAEFFB121C1AAA0F
:102CE30008E5096480FB805BEAA2E050149003309E
:102CF300125AA16006126D4F12240BE5086401807D
:102D0300395402600C901A837401F0EA6402FA8069
:102D130032EA54086029120DFE8B0BEA450B70163C
:102D230090033AE4F0A3F0A3F0A3F07A08FB900336
:102D330019E0F9121D40E5086408FAAB0980047A2A
:102D4300007B00024134125390F50A780A2274F48E
:102D5300120481EA4B9003306026ECF0A3EDF08A75
:102D6300088B09E4F50AF50B78081208ED7A017B64
:102D730000900319E0F9121D347404120923800F23
:102D8300E4F0A3F07A01FB900319E0F9121D40026D
:102D930037C374F41204818A088B098A828B8312E5
:102DA30066701245EE38F583E02409FA7B00121CA5
:102DB300148A0A8B0BAE0AAF0BEE4F7003022E5927
:102DC3008E828F837402F0A3E4126E73A3A3A3A372
:102DD300E8F0A3E91269A4A3A3A3A3A3A3A3F0E523
:102DE300082403F8E43509125E2C1245EE3AF58304
:102DF300123D67F0EE2409FAE43FFB8E828F83A332
:102E0300A3126322F5838882E0A2E58E828F83A3D7
:102E1300A3A3A3A3500474018001E4F0E5082403F1
:102E2300F888828983125B8AEA1245E23BF58312B2
:102E33002E5E1208F1EA24101264228E828F83120E
:102E43005B88121BF07403120923EEFAEFFB900365
:102E530019E0F9121C200237C3A3A3E0F508A3E08D
:102E6300F509750A0078082274F21204818A088B26
:102E730009ECFAEDFB740E120BDBE0FC1217048A6B
:102E83000C8B0DAE0CAF0DEE4F6030AC08AD0912DC
:102E930016F8E96026AC08AD09EEFAEFFB1216FE50
:102EA300E970148E828F8312484DFAEFFB1216F2EB
:102EB300AA08AB0912171C7900800279B4800312A7
:102EC30009237F0602063574EE12048174F7120992
:102ED3009F8A0A8B0BECFEEDFF750CB3750D007525
:102EE3000E008002050E902B1DE493F8E50EC398A7
:102EF3004003022FD9AA0E7B0012173A8A088B09C6
:102F0300EA450960DF8A828B83A3A3A3A3A3E025F9
:102F13000DF50DF8C3E50A98E50B940050C67C1532
:102F23007D007900EEFAEFFB121BFC850882850910
:102F330083A3A3A3A3A3E0F8E50AC3950D2825E083
:102F4300F8E433F9E50828F582E50939F583123BFE
:102F53003D125E891211288A0A8B0BAC0AAD0BEE67
:102F6300FAEFFB121D6A850882850983A3E06401D9
:102F7300700B1246F67401127A53A3803DAC18AD60
:102F830019850882850983125B88121722E9602D4F
:102F93007408120BDBE0C0E01246F6D0E0F07408D0
:102FA300120BDBE06403700CAC18AD19123D5F1219
:102FB3001D6A8009851882851983125E7D850882C2
:102FC300850983124116A3A3126DC9C0E0124325DC
:102FD300D0E0F0750C00A90C74090271F274F712B9
:102FE3000481E9FE8A828B83A3A3A3A3A3A3E05452
:102FF3000860338A828B83A3A3A3A3A3A3E0540211
:1030030060218A828B83A3A3A3A3A3A3A3A3A3E087
:103013006406600F74E96E600A74CD6E600574F027
:103023006E7003120DE6024F1D74E812048174F8EA
:1030330012099F7406120BDB125361ECFEEDFF893C
:103043001775150012329E1217108A0A8B0BEA4568
:103053000B700302324BEE2410125684FAA90A12A3
:103063000C668A128B13EA4513700302324BEE246B
:1030730003F50CE43FF50DEE2406F508E43FF509EE
:103083007C008508821246421217168A108B11851E
:103093000C82850D83123293125C0B851282851389
:1030A30083A3A3A3A3125771123293A3A3A3A312BF
:1030B3005AB1851282851383A3A3A3A3A3A3127179
:1030C300EA126DAE1208F1EE1245EE3F1264268548
:1030D3001282851383A3125B82121BF074031209FD
:1030E300237428120BDB124859E512124C9935133D
:1030F300125E87742A120BDBE0C0E0E5121245E290
:103103003513F583D0E0F07514007423120BDBE064
:10311300F5167424120BDB780C120B6C0231D2857A
:103123001082851183125B8812172885088285090E
:1031330083A3EAF0A3EB1232B5A3A3126A6512329A
:10314300AFA2E6500F850882850983A3A3A3A3A397
:10315300E0D2E1F0E515706685088285098312489F
:103163005890036FE0687003A3E06970518508828B
:10317300850983A3A3A3123EFE75100078101208DD
:10318300F9780C1208EDE516F51078101208F974A9
:1031930026120BDB12073A90037C12073A7900746C
:1031A30010120BDB126984120F66740A120923854D
:1031B3000882850983A3A3A3A3A3E04405F07401B4
:1031C3002514FC12329E1217168A108B110514E572
:1031D300104511604EC3E514950AE4950B5044E580
:1031E3001475F006A4F8A9F0E51228F8E51339F9E7
:1031F300E8240FF508E439F509850882F583E4121C
:103203007E73E06401600302312275150185088233
:1032130085098374011232B51255E4A3E8F0A3E9DA
:10322300023139AA12AB13120C6C78121208F5ADE5
:10323300167424120BDBE0FCA917EEFAEFFB120D58
:10324300E07402120923803E8E828F83A3A3A3E03E
:10325300C0E07403120BDBD0E0F0EE2412125684AC
:10326300C0E07404120BDBD0E0F0E50A450B7009F3
:103273007405120BDB74B980077405120BDB741031
:1032830012642F120F6074081209237F100206358F
:10329300E0851282851383A3A3A3228E828F8312D8
:1032A3005B8E8E828F83A3A3A3E0F922A3126B23E9
:1032B300E022127E77A32274E812048174F21209C9
:1032C3009FE9851882851983F08A0C8B0D8C168DE6
:1032D300177426120BDB125A6FAA08FB120C5AE959
:1032E300F514AA08AB09120C60E9F515E51470038F
:1032F300023577751300800F8E828F83A3A3A3A358
:10330300A3E0D2E3F0051312432FE0F8E513C398CB
:10331300400302356EE514700302356EE51375F054
:1033230006A4F8A9F0E50828F8E50939F9E8240F17
:10333300FEE439FF8E828F83A3A3A3A3A3E0A2E0BD
:1033430040C3750E008E828F83E07043125B891237
:1033530023048A0A8B0BA80AA90BE84960318882E7
:103363008983A3A3A3A3E06401600D88828983A357
:10337300A3A3A3E0640370178E828F83A3A3A3A3E5
:10338300A3E0D2E7F0750E01E5157003023308756B
:103393000F00750A08750B00E5176003750F207C95
:1033A300087D007900740112085A121BFC8E828F6B
:1033B30083E060449003BFE06401701CE50FD2E337
:1033C300F50F750B101248547401120BDBE8F0A3D0
:1033D300E91249D974FF803E430F0C750A0C8E82A3
:1033E3008F83A312358AA3A3A3A3125E8974011248
:1033F3000BDB74FFF0A3801E851882851983E060C0
:1034030009E50FD2E6F50F750A0A12485474011242
:103413000BDBE8F0A3E9F07403120BDBE50FF0120A
:1034230045EC350DF583E0C0E07405120BDBD0E00D
:10343300F07406120BDB7401F012085A120F2A748F
:103443000D120BDBE060030235497409120BDB122A
:103453005BF78E828F83A3A3A3A3F07409120BDB04
:1034630012534AE50AF0A3E50BF0125305E51612D1
:1034730032B060119003BFE0C0E07409120BDB129D
:10348300533AD0E0F07409120BDB12433FA3A3A31A
:1034930012357C241C12535B1272DD12357C1252DE
:1034A300FCEAF0A3EB126D7CC0E01252F2D0E01202
:1034B3006DBAC0E07409120BDB124E39D0E012660C
:1034C300C6C0E07409120BDB124E2DD0E0F0740974
:1034D300120BDB12358A124E1C1236CB12357C24AA
:1034E3002C12535BE50C124C79350DF583E0C0E0EB
:1034F300124E14D0E0F07409120BDB125B8A850CB8
:1035030082850D831235812428F582E43B125E8780
:10351300E50C1245E2350DF583127202751200783F
:10352300101208F11245EC350D126426EA126645B5
:103533003BF583125B8A121BF07403120923740197
:1035430012085A120F308E828F83A3A3A3A3A3E082
:10355300D2E0F0740D120BDBE060030232FBE50EE8
:10356300A2E05002151515140233087900AA08AB1E
:1035730009120DEC740E02328B125B94E822A3A3A2
:10358300A3A312485DEA2212485D850C82850D8350
:103593002274EE12048174E912099F8A088B098947
:1035A3000A8A828B83A3A3A3A3A3A3A3A3E0F912F1
:1035B3000C848A0C8B0DEA450D700302365A125A9D
:1035C3003B123FE9E50A600302365F7C048508820B
:1035D300850983A3A3A3A3A3A3A3A3E0F9120C8A3E
:1035E300EE4F60738E828F83A3A3A3124858740691
:1035F300120BDB1263051248587408120BDB1262BC
:10360300E3C0E07410120BDBD0E01236CB12485843
:10361300740E120BDB125E897411120BDBE4125B66
:10362300FCC8241FF582E438F583125838C41313F9
:103633005403FC70027C048E828F83E0F9780C12B1
:1036430008F5742059FD744059F9740212085A128E
:103653000DE0740212092374170271F27C088508C5
:1036630082850983A3A3A3A3A3A3A3A3E0F9120CB5
:103673008A8B0FEA450F70030235E3EE4F60D8E5FE
:103683000AF50B780B1208F9850C82850D83A3A329
:10369300A3A3A3A3A3E0F50B780B1208F98A828BEB
:1036A30083A3A3A3E0FB8A82850F83123FD18A827F
:1036B300850F83E0FA8E828F83A3A3E0F912169815
:1036C30074021209230235E7F0850C82850D83A36A
:1036D300A3A3A3A3A3A3A32274F712048174FA12CE
:1036E300099FE9FE7C017D017F0080037D000F12AD
:1036F3005679E0F8EFC3985028EF75F006A4F885E3
:10370300F008A908EA28F8EB39F9E824141260173D
:10371300A2E050D8540C60D4E0A2E250D17C0080E7
:10372300CD8A828B83A3A3A3A3A3A3E0703DEDA2C1
:10373300E0400574016E70338A828B83A3A3A3A335
:10374300A3A37401124CE1E0C0E07403120BDBD0BD
:10375300E0124CD9E0C0E07404120BDBD0E0F0744B
:1037630005120BDBEC12642F120F607406024F1A62
:10377300C082C0837901120DEC02619E74F41204BD
:1037830081EA4B901A836022E4F08A088B09F50AD8
:10379300F50B78081208ED7A027B00900319E0F923
:1037A300121D347404120923800F7401F07A027B12
:1037B30000900319E0F9121D4080057402120923D9
:1037C3007F0402063574E812048174FC12099F74A5
:1037D30002120BDBE4F0A3F0900338123FE98518E3
:1037E30082851983E4F0A3F0751401900369E0A2C4
:1037F300E3500302387F121D528A088B098C0A8D0D
:103803000B8A0C8B0D8C0E8D0F90033A780C1209DA
:10381300711238FA7810790C120B1E50077A017B5B
:10382300000238EE850C14850D15850E16850F17CD
:1038330078147910120412A814A915901B84E0C3FC
:1038430098E4995003E08001E8F5141238FA780CF3
:103853007910120412E4F512F5137808791012099D
:10386300F490033A7808120B4E80111238F3125E6B
:1038730089EEFAEFFB121CC2AE08AF09EE4F60638C
:103883008E828F83A3A3A3E0F8E514C3985029EE97
:103893002403F582E43FF583A814E0C398F0602184
:1038A3007402120BDB1249D01253BBEEF0A3EF12DA
:1038B30066CBFEA3E0FF80C48E828F83A3A3A3E421
:1038C300F08E828F83125A6B851882851983125A60
:1038D300A18E828F83A3A3A3A36090126996125E25
:1038E30047808B7402120BDB125B8A740402328BE7
:1038F30012485D90033822901B82E0F510A3E0F597
:1039030011E4F512F5132274F21204818A0A8B0B67
:10391300E9FE7A007B00900338125A6F9003381245
:103923005AA1601E0A850882850983A3A3A3A31253
:103933005AA1600E0AEA70010B88088909E8450953
:1039430070E3901B85124859C3EA98EB9940030230
:1039530039FD7A067B00121CBC8A0C8B0DA80CA9BE
:103963000DE84970030239FD88828983E50AF0A3D3
:10397300E50BF0EE88828983A3A3F0901B84126089
:1039830089A3A3A3124D09A3A3A3E4F0A3F0900377
:1039930038124861600F850882850983A3A3A3A316
:1039A300125E89801F900338125E89900369E0A23A
:1039B300E34011121D52EAF8EBF9ECFAEDFB900328
:1039C3003A120B88900369E0A2E3502E7A087B0039
:1039D300900319E0F9121D46EA4B4C4D701C901BE5
:1039E300821278B778081208ED7A087B00900319E1
:1039F300E0F9121D3A7404120923022EC5C082C0D5
:103A030083E9901A84F09003327422F0A3740EF0C9
:103A13009003347434F0A3740EF09003367446F0BC
:103A2300A3740EF002619E74F7120481EAFEEBFFA9
:103A33008908EE4F70031217AC90033E125AA1701F
:103A43000890033E802212485988828983A3A3A346
:103A5300A3A3A3A3A3A312486188828983A3A3A3D7
:103A6300A3A3A3A3A3A370DEEEF0A3EF126A81A323
:103A7300A3A3E4F0126A80E508F0024F1D74F71265
:103A8300048190033E800D8E828F83A3A3A3A3A3FF
:103A9300A3A3A3A3123FE9EE4F60348E828F83A3C7
:103AA300A3A3A3A3A3A3E06970DD8E828F83A3A343
:103AB300A3A3E06A7003A3E06B70CC8E828F83A311
:103AC300A3A3A3A3A3E06C70BEEEFAEFFB80047A7A
:103AD300007B00024F1D74F712048190033E123FD6
:103AE300E990033E123585687002EB69701EE0C8E9
:103AF3002409F582E438F58312485990033E125E97
:103B03008990033E123FE98027123FDCEE4F60208D
:103B13008E828F83A3A3A3A3A3123581687002EBC4
:103B23006970E68A828B83A3A3A3123B3D125E894D
:103B3300121CC2EEFAEFFB024F1DA3A3A3A3A3A380
:103B430012434BA3A3A3A3A32274F012048174FA18
:103B530012099F8A088B098A828B83A3A3A3A3A339
:103B6300A3A3A3E060336401602F8A828B83125B7B
:103B73008A1211CAE97022850882850983A3A3A347
:103B8300A3A3A3A3A3E0640370147404120862AA9A
:103B930008AB09120EC4E970167902023D48850884
:103BA300828509831248597404120BDB125E891251
:103BB3006FD124341262FE121CBC8A0A8B0BAE0A2C
:103BC300AF0BEE4F7003023D467C347D007900124B
:103BD3001BFC740212085A850882850983A3A3A3D8
:103BE300A3A3A3A3A3A3E0F91216DA7402120BDBB7
:103BF300E0C0E0123D57D0E0F0EE242EF50AE43F9A
:103C0300F50B7403120BDBE0850A82850B83F079D5
:103C130001EEFAEFFB120E1085080C85090D750EE7
:103C230000780C1208F17C1E7D00123D5F121BF020
:103C33007403120923EE243212410C2434F8E43FB6
:103C4300F98A828B83125E89E5082411F8E4350929
:103C5300F9E8FCE9FD8C828D831253562430125E01
:103C630083124104127B6A1208F18C828D83123D08
:103C73006E125B8A121BF074031209237404120B75
:103C8300DB124347125E8990031A123D67A3A3A375
:103C9300F090031AE004F0121D528E828F831253A8
:103CA300A5242C124617750D00850A82850B83E027
:103CB300780C120A568A828B83E50CF0123D4DE58F
:103CC3000C1253BBE4F0E5082415126FD5A2E0747F
:103CD300015007120BDB74018004120BDBE4F0EEDE
:103CE3002429125A62AA18AB191216C2E924FE85B6
:103CF3000882850983F0EE2430F8E43FF9E8FCE913
:103D0300FD123D76120339E88E828F83A3A3A3A30A
:103D1300A3A3A3A3F0123D761203398B09EA450945
:103D2300600F8E828F83A3A3A3A3A3A3A3A3E00403
:103D3300F0EE24201256844408124663121C507974
:103D430000800279107406024131EE242BF582E4DF
:103D53003FF58322EE1266453FF58322EE240BFAEC
:103D6300E43FFB221269ACA3A3A322123FD68A82AB
:103D73008B83228C828D831255E8E0FA7B002274B8
:103D8300F4120481EAFEEBFF121D528E828F83121E
:103D93005361901B78E0F8EE242D125684C39840AB
:103DA30003023EE31246237012EE242D12568404BE
:103DB3001256B7C0E0123D4DD0E0F0EE242A125661
:103DC30084FC7900800109EE242E125684F8E9C39D
:103DD300985026750801750900E97808120A5612E9
:103DE3004623550860E0E92CFC750801750900E9D4
:103DF3007808120A56E04508F0EE2429125684FA90
:103E0300EE2430F582E43FF583EC8AF0A4F8ABF0BE
:103E1300E42BF9E098F8A3E099F9C3E89AE9940050
:103E2300EE40312429125684F8124623602C123DA9
:103E330057123EFEA3E4F0EC7047EE2420125684A2
:103E430044201262E7C0E01256A5D0E01256AFFA42
:103E5300A3E08052123D4E74FFF090035FE0FA90AE
:103E63001B7B123EF5ABF075F064A4FAADF075F070
:103E730064EBA42DFB8E828F83A3A3EAF0A3EB80D4
:103E8300B5EE242012568454DF1256A0ECF0FAEE5D
:103E93002429F582E43FF583123EF5FAABF0EE12E6
:103EA30052EC3F124639FB126D92EAF0A3EB126A11
:103EB30090C0E0EE2425F582E43FF583D0E0125371
:103EC30072E8125AB1900340125AA1600BECF91236
:103ED3006D4F12240BE97017123D5F120E9A800F7B
:103EE3007BE9124122121692EEFAEFFB120E1C022C
:103EF30037C3E0F508EA8508F0A4221269ACA3F001
:103F03002274F412048190033E123FE9121D528A77
:103F13000A8B0B78FF79FF8020E0C39AFCA3E09B18
:103F2300FDC3EC98ED99500E8E828F83A3A3E0C35B
:103F33009AF8A3E09BF9123FDCEE4F605C8E828F10
:103F430083125B8AE50AC39AFAE50B9BFB8E828F89
:103F530083123FD0C3EA9CEB9D8E828F83A3A34041
:103F6300B8A3A3A3A3E06402701AEE240B1246269F
:103F73006009124602125B8A121C1AEEFAEFFB1258
:103F83000E1C8007EEFAEFFB120E287A017B0090DD
:103F93001A84E0F9121C50802974FF68700374FFBF
:103FA30069601F88088909E4F50AF50B7808120887
:103FB300ED7A017B00901A84E0F9121D3474041227
:103FC30009230237C3A3A3A3A3A3A3A3A3A3A31256
:103FD3003FD622E0FCA3E0FD228E828F83A3A3A31E
:103FE300A3A3A3A3A3A3E0FEA3E0FF2274F0120400
:103FF300818A088B09ECFAEDFB890A7C01126FD1E7
:10400300F9120E168A0C8B0DAE0CAF0DEE4F70032A
:104013000240F8E50A60030240F812410412411A13
:104023006860030240F8124104E0FAEE242E1256AF
:1040330084F8EA28FAE43400FB8E828F83A3A3A3D7
:10404300A3A3A3A3A3E0F8EA98EB9400C365D0333A
:10405300401CE5082414126FD5F470127B00124142
:1040630022121692EEFAEFFB120E1C0240F8E5083C
:104073002414126FD5F47042EE242B12410C242E1B
:10408300F8E43FF9E8FCE9FD7508FF7509008C8247
:104093008D83E07808120A568A828B83E508F01232
:1040A30040FAE508F08C828D8312411A28F0EE2441
:1040B3002DF582E43FF583E4801BE5082414F8E43E
:1040C3003509F9E0C0E01240FAD0E0126317C0E00E
:1040D300123D4DD0E0F0121D528E828F831253A5F4
:1040E300123D58124116A3125AB17A01FB901A8459
:1040F300E0F9121C50803AEE242CF582E43FF5835C
:1041030022E508241312433722F8E43FF9E8FAE9D9
:10411300FBEE221269AC22E0F8EE12602EE022EEF2
:104123002422125390FAEE2414125390F922120906
:10413300237F0802063574EC12048174FE12099F72
:104143008A0A8B0B8C0E8D0F89108A828B83A3A313
:10415300E0F91216B68A088B09AE08AF09EE4F7064
:10416300077A007B0002431B7A127B00121CBC8A75
:10417300088B09EA450970030243177C127D007915
:1041830000121BFCAA18AB19850A82850B83A3A313
:10419300E0F91216DAE508240FF50CE43509F50DFC
:1041A3007401120BDBE0850C82850D83F07902AA82
:1041B30008AB09120E10850E82850F8312433F123E
:1041C300435D1245D6126A5CF07512FF75130085C4
:1041D3000C82850D83E07812120A561272DDE51205
:1041E300124E45126D4DE0C0E012432FD0E0F012A5
:1041F30045F8F50CE508240D1272E1E50CF0E50A2B
:1042030012460A850CF0A4A9F02427FAE439FB121C
:104213001C148A0C8B0DAE0CAF0DE508126D25EE48
:10422300F0A3EFF0EE4F700302430A8E828F837484
:104233001A125AB18E828F83A3A3F0A3124363127F
:104243004347125E89AC0EAD0F126D9C1216D485D6
:104253000A82850B83A3A3A3E0C0E012582ED0E00B
:10426300F090037C125356241012435712534435D3
:104273000B125354126411E8F0A3E9124363A3A38E
:10428300A3A31253562412125E83850A82850B83DD
:10429300A3A3E0C0E0124325D0E0F0E50A124C9955
:1042A3001245DDE0C0E012677CD0E0F07416120B1B
:1042B300DB126D55C0E0126FBFD0E0126A7BC0E025
:1042C300126D2BD0E0126D5EC0E0126D35D0E0129E
:1042D3005367E510F07418120BDB120B94EE241ADB
:1042E300F582E43FF583120B88EE2427F8E43FF9C7
:1042F300EE24221243571262EC1245DDE0C0E012B5
:104303006DA4D0E0F0800DAA08AB09120E1C75084D
:1043130000750900AA08AB0974021209237F0C0275
:104323000635EE2414F582E43FF58322124333224B
:10433300E508240BF582E43509F583221255E8A339
:10434300A3A3A32212434B22126B388E828F83A323
:10435300A3A3A322F582E43FF5831253D3E50A22F4
:10436300F0850A82850B83A3A3A3A3A3A32274EDE1
:104373001204818A0A8B0B8C108D11891275090026
:10438300EA12460AF508900340125AA1600EA908E2
:10439300126D4F12240BE960030245D17C02851094
:1043A30082851183125B8AE50A1245D6E0F9120E63
:1043B300168A0C8B0DAE0CAF0DEE4F7054850A822E
:1043C300850B83A3E0A2E040030245D17415120BD1
:1043D300DB1207367417120BDB12073AA912AC1063
:1043E300AD11AA0AAB0B120E3A74061209238A0CFA
:1043F3008B0DAE0CAF0DEE4F70030245D18E828F45
:1044030083A3A3A3A3A3A3A3A3E508124663121C38
:1044130050A8088E828F83A3A3A3A3A3A3A3A3E07F
:1044230024FFFAE434FFFBEA684B7003750901EEDD
:10443300240B1246267003024586850A82850B8368
:10444300A3E0A2E05003750800124650E5089AE481
:104453009BC365D033401CE0F8EE240E125684282B
:10446300F0750CFF750D00E8780C120A561262A263
:10447300E50CF0E50A1245E21245DD126E4A120818
:10448300F1E50A1245EE350B126426EE240D1256A1
:1044930084F50CE508850CF0A4FAABF01246021281
:1044A30066732422F582E438124639FB121BF0743A
:1044B30003120923750C0112462B780C120A5612AB
:1044C3005681450CF0E509A2E05063EE240C124638
:1044D3001712462B04780C120A568A828B83E04506
:1044E3000C12538585080C850CF0A4F8A9F012452D
:1044F300F8FCE82CFCE439FD124602126673242012
:10450300F582E438F583ECF0A3ED1253ACF4701E9E
:10451300EE240BF50CE43FF50DEE1245EE3F12468B
:1045230042121C20850C82850D8374FF8054121D5A
:10453300528E828F8312536190035FE0FA901B7B4C
:10454300E0F50CEA850CF0A4FAABF0F8EBF9901B5C
:1045530078E0F50CE8850CF0A4F8ACF0850CF0E9F4
:10456300A42CF9EA28F8EB39F9E875F064A4F8AA61
:10457300F075F064E9A42AF98E828F83A3A3E8F08F
:10458300A3E9F0A808124650EA24FF1AEB34FFFB14
:10459300EA687001EB600EEE240C1246266006E515
:1045A30009A2E05029E50A12460FECF0125681C029
:1045B300E0E50A2414F582E41245DDD0E0F0AC0A0C
:1045C300AD0B851082851183125B8A120E887F0BD7
:1045D300020635124C791245DD22350BF583221282
:1045E30045E622240EF582E422E50C1245F222244C
:1045F30010F582E422E50A1245F21245DDE022EECF
:104603001245F23FF5832212460FE022124C733516
:104613000BF58322F8E43FF9E8FAE9FB750CFF2276
:10462300EE242B125390F422750D0012538DF5F0E6
:10463300E50884E5F022F583E02AFAA3E03B22F5BE
:1046430083125B94850C82850D83E0F922EE240EA0
:10465300125390FC12538DFAEC2AFAE43400FB2235
:10466300F07A017B00901A84E0F922C082C0839023
:104673001A84E0F9121C2002619E74F41204818AE8
:10468300088B09EB5480703BEAA2E05053120E2EC4
:10469300E5086401FAAB09804B8E828F83E06401E5
:1046A300701A1246F61207361246EA1208F5EE247D
:1046B300121246FE120E407406120923EEFAEFFBA5
:1046C300121C1A901A84E0F9121C268A0A8B0BAE6C
:1046D3000AAF0BEE4F70C2AA08E5096480FB8004A1
:1046E3007A007B000237C3EE240FF50AE43FF50B93
:1046F300780A22EE124C733FF58322125390F9EE9F
:104703002402FCE43FFDEE2419FAE43FFB2274F19A
:10471300120481890A8A088B098A828B83125B8A35
:10472300120E588B0DEA450D600579B80247B91290
:104733000E64E9F8902B20E493F9E8C399400479D7
:10474300B280737A157B00121CBC8A0C8B0DAE0CE5
:10475300AF0DEE4F70047910805C8E828F83E4F08E
:10476300A3126B1EA3E50A126D6F1208F17C127D72
:1047730000EE2403FAE43FFB121BF0740312092337
:10478300900342125AA19003427006EEF0A3EF8009
:104793001FE0FAA3E08003E8FAE9FB8A828B831225
:1047A3005AA170F3EEF8EFF98A828B83E8F0A3E95C
:1047B300F0120E767900025D5FC082C083900342DF
:1047C30080048C828D83123FD2EC4D60288C828DC5
:1047D30083A3A3E069600574FF6970E68C828D830F
:1047E300A3A3A3E06A7003A3E06B70D6EC2403FADF
:1047F300E43DFB80047A007B0002619E74F712049F
:1048030081E9FD74FE6D70047C0180027C009003DD
:104813004280096D70027C0188828983125AA160EB
:104823001F88828983A3A3A3E06A7003A3E06B704C
:10483300E7ECA2E088828983A3A3E050D6F9800243
:1048430079FE024F1DEEF9024D13A3A3125A73EE24
:10485300228E828F83A312485D22126B3822125B51
:1048630094EA4B22C082C0837900900342800109FD
:10487300125B8A8A828B83E582458370F202619E92
:1048830074F6120481E4F508F50978081208F59026
:104893002B20E49375F013A4A9F01249C5121CFE52
:1048A3007402120923E9FE6003120E700248487471
:1048B300F612048174FE12099F851882851983E418
:1048C300F0A3F0A818A9198808890978081208F52F
:1048D30075080275090078081208F57C007D007AD6
:1048E300427B00121D0A7404120923024D0E74F553
:1048F30012048174EB12099F851882851983E4F0F1
:10490300A3F0900342E0FEA3E0807E8E828F83A318
:10491300A3E0C0E07402120BDBD0E01249D9A982F4
:10492300AA8389088A09750A0078081208F17C129B
:104933007D007406120BDBAA82AB83121BF0740397
:104943001209237402120852880889097808120888
:10495300F575081375090078081208F57404120B2D
:10496300DB125A7F75F013A4F8AAF075F013E9125D
:1049730049C1121D0A7404120923851882851983FB
:104983001249D0126EEDE8FEE9FFEE4F60030249D3
:104993000EA818A9198808890978081208F5750856
:1049A3000275090078081208F57C007D007A427BC5
:1049B30000121D0A7404120923741502734FA42AEA
:1049C300F9E82402FCE439FD7A427B0022E0240169
:1049D300F0A3E03400221249DD221249E1221249F8
:1049E300E522126B23A3A3A32274F412048174EBB4
:1049F30012099F7E007F00A818A9198808890978E1
:104A0300081208F57508028E0978081208F57C006B
:104A13007D007A427B00121D107404120923E97091
:104A23006E8E0880587402120852880A890B780A1D
:104A33001208F5750A13750B00780A1208F5E508D4
:104A430075F013A4F8AAF075F013E5091249C11221
:104A53001D107404120923E9701B7403120BDBAAE3
:104A630082AB837402120BDBE0F9120E52E970057C
:104A73000EEE70010F0508E508700205098518821E
:104A8300851983124859C3E50898E509994096EEBC
:104A9300FAEFFB74150237C074F61204818C828D11
:104AA30083A3A3124CCFF0EA2417F582E43BF583EA
:104AB300E0C0E0124C9FD0E0F0124C7F1248591234
:104AC3004C89124CCFA3F0A3F0EA241FF582E43BF8
:104AD300F583123FE9EC1253443DF583EEF0A3EF67
:104AE300F0EA12629C3BF583124CB0A3A3A3A3A3E9
:104AF300A3EEF0A3EF126317FE8C828D83124CF9A1
:104B030074035EFEC394034003024C66EE600574B7
:104B1300026E70798C828D83E0540CFE740C6E707F
:104B230003024BCDE0A2E4400D88828983E08C82AE
:104B33008D83A3124D0174086E6003024BCD124C9A
:104B4300917401F08A828B83A3A3A3A3A3125D5460
:104B530070148C828D83E0440C124CD9A3A3124CA5
:104B6300B0EEF0A3EFF08C828D83E0A2E4401E123E
:104B73004CBE124CEA500109124CBEA3A3124CEADC
:104B830050010988828983124CA7124CF9888289C3
:104B930083E0C0E0EC124C793DF583D0E0124CF990
:104BA3008C828D83E0A2E7507888828983E0FE8C33
:104BB300828D83124D0174FC5E700C8C828D83A3F5
:104BC300E054036403701B024C66124C91E4F074CE
:104BD3000C6E6003024B47124CBE124CEC5087091B
:104BE30080848C828D83A3E0540360388882898318
:104BF300E0C0E0EC124C733DF583D0E0124D028C23
:104C0300828D83E054036402701A88828983E0C032
:104C1300E0EC2414F582E43DF583D0E0124D0280EC
:104C230003A3E4F0EC1245E23D125E87EC2410FE90
:104C3300E43DFF124C7FE0F5088E828F83E0C3983A
:104C43002508F508F0EA2417F8E43BF988828983FC
:104C5300E0C39508C0E0124C89D0E0126317C395F6
:104C630008500A124C89E4F0124C9FE4F0024D13F1
:104C73002413F582E4222411F582E422EA241DF5AB
:104C830082E43BF58322EC12629C3DF58322EC1215
:104C93004C993DF58322240CF582E422EC1245F273
:104CA3003DF58322E08C828D83A3A3A322E0FEA3A0
:104CB300E0FF8C828D83A3A3A3A32288828983E050
:104CC300F508A3E0FFE5088C828D8322E4F08C8253
:104CD3008D83A3A3A322124CE1A3A3A3A322F08A4F
:104CE300828B83A3A3A322A3A3A3A3A3A3F0A3EFD2
:104CF300F0E82402F822124D09A882A98322A31204
:104D03004D0908A9832212631CA3227402120923EA
:104D13007F0202063574F412048174F312099F8A28
:104D23000A8B0BECFEEDFF8E828F83E0540CF508AB
:104D3300E0A2E75006E508D2E7F508E508D2E1F579
:104D430008125D547006E508D2E4F508E0A2E550C8
:104D530006E508D2E5F5087C087D007900AA18ABC2
:104D630019121BFC7402120BDBE508124E45C0E05E
:104D73007403120BDBD0E01253BBE50AF0A3E50B7F
:104D8300F07405120BDB12642D120F2A740C120B34
:104D9300DBE070787408120BDB1266731262EC3876
:104DA300126B48C0E07408120BDB124E39D0E012CC
:104DB30066C6C0E07408120BDB124E2DD0E0F0740F
:104DC30008120BDB125506124E1C1262E71253989F
:104DD3002411125684C0E0124E14D0E0F0EE2414D5
:104DE300125684C0E07408120BDB1266732435F587
:104DF30082E438F583D0E012537DC0E07408120BCF
:104E0300DB12532ED0E012642F120F30740D0237D1
:104E1300C0E81252EC39F58322125B8EE8242AF59E
:104E230082E439F583EAF0A3EB221266C12427F565
:104E330082E438F583221266C12426F582E438F52C
:104E43008322126B1EE02274F71204817E008A8291
:104E53008B83A3A3A3A3A3A3A3A3A3E064046003DB
:104E6300024EF6125C10E06003024EF6124EFA3B5D
:104E7300125A9F607E88828983E054037075E82408
:104E83000C126017FA8C828D83A3A3E0FBA3E0CB03
:104E9300124C793BF583E06A705988828983A3A316
:104EA300A3A3A3124F05E06A7003A3E06B704488C9
:104EB300828983124F05A3A31260442406125684E9
:104EC3006A7003A3E06B702B88828983A3A3E0F845
:104ED3008C828D83A3A3E0F9A3E0F5838982A3A346
:104EE300E068600D8C828D83125836540C64047014
:104EF300027E01EEF98023EA124EFF22240FF5828F
:104F0300E422A3A3A3A3125B948C828D8322740C4B
:104F1300120BDBE0F9740D1209237F0102063574CD
:104F2300F612048174FC12099FEAFEEBFFECFAED22
:104F3300FB8A828B83A3E054036016900334125AD6
:104F4300A160597900EEFCEFFD126D4F12240B8026
:104F53004B851882851983EEF0A3EFF07402120BD0
:104F6300DB125361AC18AD197A8E7B0E1210C28A14
:104F7300088B09A808A909E849602188828983A3C5
:104F8300A3A3A3A3A3A3A3A37406F07A008882898F
:104F93008312667312664BE0F91210027404024D19
:104FA3001074F212048174F312099FEAFEEBFF8E70
:104FB300828F83A3A3A3A3A3A3A3A3A3A3E0F50A1D
:104FC300901A83E0700579BA0252E77508017509F2
:104FD30000750C00750D007C087D007900AA18ABE4
:104FE30019121BFC7405120BDB74011253B3540426
:104FF30060127402120BDBE0D2E61253B354087052
:1050030003750803E05410600674404508F508E092
:10501300540860227402120BDBE044C01253B354F1
:1050230020600A7403120BDBE0D2E08008740312E1
:105033000BDBE0D2E1F0EE24151256841253167006
:1050430003740169700674084508F5088E828F831E
:10505300A3A3A3A3A3A3A3A3E0701612112E8518E1
:10506300828519831253617402120BDBE0D2E28052
:105073002C640F70107402120BDB1253C3740445BB
:1050830008F508807B8E828F83A3A3A3A3A3A3A386
:10509300A3E064028E828F8370061262DBF080606D
:1050A300A3A3A3A3A3A3A3A3E06403700DAC18ADB0
:1050B30019EEFAEFFB120EC480468E828F83A3A3F0
:1050C300A3A3A3A3A3A3E0640170359003BFE0608F
:1050D300107402120BDB1253C3750910750AFF809B
:1050E300187402120BDBE0440C1253BB74FDF0A3E3
:1050F30074FFF074044508F5088E828F83125322DF
:10510300EE2415125684A2E0503F7402120BDBE02A
:10511300540C701B8E828F83125B8A1221A8E97054
:105123000579BB0252E77402120BDBE0D2E5F0EE25
:105133002415125684A2E050107402120BDBE054C3
:105143000C64047004E0D2E5F0EE2411125684C01E
:10515300E07404120BDBD0E012642F120F2A740CDC
:10516300120BDBE060030252E07408120BDB1253F4
:105173004AE508F0A3E509F0EE2418125684C0E0CE
:10518300125305D0E0125367E0C0E07408120BDB42
:10519300126673124C7338F583D0E01262E7640130
:1051A30070119003BFE0C0E07408120BDB12533A96
:1051B300D0E0F07408120BDB1253562417125684F6
:1051C300FAE8241CF582E439F583EA125AB1EE2495
:1051D30015FAE43FFB8A828B83123FD2E81252FC1A
:1051E300ECF0A3ED125372E0C0E01252F2D0E012E1
:1051F30053AC125316700374016970137408120BC5
:10520300DB125BF7FAEE241D125684F9120C908E12
:10521300828F83A3A3A3A3A3A3A3A3A3E0C0E07448
:1052230008120BDB124E39D0E0F07408120BDB12BC
:105233004E2DE50AF07408120BDB125A7F2428F571
:1052430082E439F583E50CF0A3E50D125385FAA347
:10525300E0FBE8242A12539F240F1256841253981A
:105263002417125684C0E0E82433F582E439F58329
:10527300D0E0F012530FC0E07408120BDB12532E70
:10528300D0E0F0EE241A125684C0E07408120BDB4F
:105293001266731252EC38F583D0E012537D122E4E
:1052A3005F1208F1126D1D123FD2740B120BDB1249
:1052B30062C3121BF07403120923EE2415125684E1
:1052C3005440601290034E125AA1600AAA18AB19F7
:1052D300126D4F12240BAA18AB19120F30740C1253
:1052E3000BDBE0F9740D022EC22432F582E422E8CE
:1052F3002420F582E439F58322241EF582E439F56E
:105303008322E82412F582E439F58322EE241B126A
:105313005390225480F8A3E05401F9748068221258
:10532300532622E0F50CA3E0F50D221266C12434C6
:10533300F582E438F583221266C112534438F583AB
:10534300222415F582E422125A83124EFF39F58383
:1053530022F58312485DEE22F582E439F583EAF003
:10536300A3EBF022F0EE2419F582E43FF58322F05B
:10537300EE241CF582E43FF58322F0EE241312534E
:105383009022F0EE240D12539022EE240FF582E4C6
:105393003FF583E022FAA3E0FBE8242CF582E4390D
:1053A300F583EAF0A3EBF0EE22F08A828B83E0220E
:1053B300F0EE241512539022F0851882851983226A
:1053C300E0D2E3126EF11253CD2285188285198340
:1053D300E8F0A3E9F02274F71204817E638A828BDA
:1053E30083E0600C7905120FD2E9F87456C398FE76
:1053F300900367E0600CF9120FD2E9F8EEC398242A
:10540300F2FE024EF674F612048174FE12099F85B1
:105413001882851983125361E9FEECFAEDFB9005BE
:105423002E125AA16035A818A91988088909780885
:105433001208F57D01740E120BDBE0FCEEF990050A
:105443002E12666712240B74021209238B09EA4594
:105453000960047900800679B2800279B6024D0EA4
:1054630074F7120481E9FE900328125AA1601F7495
:1054730009120BDBE0F50878081208F9EEF990033E
:105483002812666712240B7401120923800279B66D
:10549300024F1D74F71204818908ECFEEDFF79B504
:1054A300E508245F600C14603114601224F8604531
:1054B300804E90031B125506E8F0A3E9801990056E
:1054C30030124861603A90053012666712240B8EE1
:1054D300828F83EAF0A3EBF0802490032A123FD259
:1054E300EC4D601CEEFCEFFD90032A12666712245C
:1054F3000BE9F9800B900326126984121D6A790067
:10550300024F1D12485D8E828F832274F71204812D
:10551300E979B5245F600624F6600E80178C828DCE
:105523008312553A125E898009900326125B8A1210
:105533001D6A7900024F1D12485D90031B2274F20D
:105543001204818A088B09ECFEEDFF750A019003B2
:105553006FE065087004A3E0650970141211288ACE
:10556300088B09AC08AD09EEFAEFFB121D6A802A1D
:105573001211348A0C8B0DE508650C7004E509657E
:105583000D7009EEFAEFFB12113A800EEEFCEFFDFF
:10559300AA08AB091223C4E9F50AA90A022EC574A5
:1055A300F2120481EAFEEBFF8C088D09750A0112E1
:1055B30011288A0C8B0DAC0CAD0DEEFAEFFB121D0E
:1055C30064E96401700B90036F1255E4125E8980E5
:1055D3000EAC08AD09EEFAEFFB1223BEE9F50A8023
:1055E300B91255E822126B38850882850983227423
:1055F300F6120481EAFEEBFF7A0D7B00121CBCEA73
:105603004B6070EE2424126F13F0EE2425126F13F7
:10561300A31256A0126F19A3A3126D64125688F039
:10562300EE12602A1248598A828B83A3A3A3A3E8AC
:10563300F0A3E91256B7125691125E89EE242EF5A5
:1056430082E43FF583125688A3A3A3A3A3F0EE2419
:1056530033125684C0E0125679D0E0126B4C1256C6
:1056630091A3A3A3E8F0A3E91256AFC0E0125C1024
:10567300D0E0F0024D13EA1260243BF58322EE24BE
:105683000C12539022E08A828B83A3A3A322F8A354
:10569300E0F98A828B83A3A3A3A3A3A322F01256C8
:1056A300A522EE2426F582E43FF58322F0EE243290
:1056B30012539022F0EE242C1253902274F412040D
:1056C3008174FE12099FECFEEDFFEE241612568440
:1056D30064057010EE2406FCE43FFD120EBEE97073
:1056E3000302576CAC18AD19126D9C1221AE8518CC
:1056F30082851983125AA1606C8E828F83E06401C4
:105703007059E875F009A4F8AAF075F009E9A42A1C
:10571300F9742A28F8740839F9E8FAE9FB8A828BC4
:10572300837808120B6C126D3F7808120B2E4027FA
:1057330085188285198312535612582F1257717880
:1057430008120B6C9080BB7808120A438A828B8301
:105753007808120B4E800A79A28010EE240F125E95
:10576300837900800679A1800279C80237BE12537B
:10577300D3126D432274F01204818A088B09ECFE64
:10578300EDFF12582EE4F0A3F09080CF780C120BAB
:105793006C126D3F780C1209CA7003025826EE246E
:1057A3000E1256846401703678B3900366E0702A53
:1057B300900398E064017022EE2411125684F912CA
:1057C3000FBA8A088B09A808A909EE240F125E8371
:1057D300E84960047800800278A1880A8048E07074
:1057E30017120ED0E9F50A603D8E828F83A3A312B0
:1057F30058365403700E802E64027015120ED0E9D1
:10580300F50A6022EEFCEFFDAA08AB091221CC8059
:1058130008E064037008120ED0E9F50A8008750ADF
:10582300A18003750AA3A90A024134EE124EFF3F79
:10583300F58322A3A312649D2274F012048174F5EC
:1058430012099FEAFEEBFFEE240AF508E43F850800
:1058530082F583125A6F125A4374031208628E82BE
:105863008F83125B8A120EBEE9700302592B7401F7
:10587300120862740312085A1221AE7401120BDB70
:10588300125AA1700302592BE875F009A4F8AAF083
:1058930075F009E9A42AF9742628F8740839F9E897
:1058A300FCE9FD1271FAE4F004120BDB124859E52E
:1058B30008124EFB3509125E878C828D83120B947E
:1058C300125A4F120B889080BB7808120B6C8C8293
:1058D3008D837808120AC88C828D837808120B6C2A
:1058E3009080D3780C120B6C7808790C120412E5B3
:1058F3000C450D450E450F702F7401120BDB125A28
:105903007F75F009A4F8AAF075F009E9A42AF974DF
:105913002E28F582740839F5837401F07A007B0828
:10592300901910E0F9121C50125A57E02406FCA3F8
:10593300E03400FD8E828F83125B8A120EBE8508CF
:1059430082850983125A967052125BCB121D64E949
:10595300701D1211288A088B09AC08AD0990032623
:10596300125B8A121D64E97006120F54E9602C8ED3
:10597300828F83123FC88E828F83125B8A1221D259
:10598300E960138E828F83A3A312666B124EFB38DA
:10599300F583E4F0A3F0125E60E4F0125A8860032A
:1059A300025A368E828F83A3A3A3A3A3A3125A6B97
:1059B300900366E07072900398E06401706A750A60
:1059C3003A750B00780A1208F57402120852880A15
:1059D300890B780A1208F57C017D007A007B00129E
:1059E30013147404120923E9703B1271FA7401123F
:1059F30053BBE0C0E0E50824111272E1D0E0F012DD
:105A03005A3B743A125AB1900350120B94125A4FE4
:105A1300120B889080BB7808120B6C9003507808A7
:105A2300120AC88003125A43125A8870061262A2DD
:105A330074A1F0740B024131E508240F124337229D
:105A4300E508240F124337E4F0A3F022E5082412FB
:105A530012433722EE240A125A628882F58322F80F
:105A6300E43FF98808890922A3A3A3A3125A732246
:105A7300E0F508A3E0F509228C828D83125A832274
:105A8300126B38E8228E828F83A3A3A3A3A3A3A3BD
:105A9300A3A3A31266C1240FF582E438F583125A37
:105AA3008349221266C1124EFF38F5837404F0A3B2
:105AB300E4F02274F6120481EAFEEBFFEE240A12EC
:105AC3005A627A187B00121CBC850882850983EA16
:105AD300F0A3EB125C0BE8497003025B77EEFAEF7D
:105AE300FB120EDC125A886074125BE964018E8229
:105AF3008F83A3A3A3A3A3A37007125BBB740E801E
:105B030020125AA1700F125BCB121D64E9700612AA
:105B13000F54E96007125BB1740D8005125BB17419
:105B230005126B4C540364017007125B9A74058071
:105B33000B900367E0C0E0125B9AD0E0125BFCF5C8
