:020000040000FA
:06000000020A7202020672
:03002B0002074782
:0300530002013B6C
:1000830002019A010105030101FF0F10FEFF17276B
:1000930000000000EB2500000000FF000000FF004F
:1000A300011020202020202020202020202020207C
:1000B3002020010020FD000206FF010401000100D1
:1000C300056B80011E813216381600000000000007
:1000D30044161A1C0000000000000000000000008D
:1000E3000000000000000101010400F416000000FC
:1000F300E8030000FFFFBF17E8030000640064008B
:10010300B801A0BB0D00A0BB0D00020200F8FF0761
:100113000502070401051E02051E020A0A01020860
:100123000803B80B02803E0102FEFFE8030A050044
:1001330001FFFF010A1401E0C0E074F112041DA2E3
:10014300AFE433F509D2AF85A708AFA1EF5508FE99
:1001530074105E600612181275A1EF74085E6008D1
:1001630012181875A1F78024EFA2E092F0E508A217
:10017300E082F05017906198E0F8900587E0C3980B
:10018300A2D265D0335002E8F075A1FEE509A2E0E2
:1001930092AF7F0202047CC0E074F212041DA2AF8E
:1001A300E433FED2AF9061A4E0F8759B00E591586B
:1001B300540860087591F71218608023E59158542C
:1001C3001060087591EF1218668014E591A2E09211
:1001D300F0E8A2E082F05007E0C2E0F01219BC9010
:1001E30061A3E0F8E5E9585404600E12199275E929
:1001F300FB906193E0A2E640F2EEA2E092AF7F01B2
:1002030002047CC0E074F212041DA2AFE433FED2F8
:10021300AF9061A5E0F8E5BF585404600675BFFBD5
:100223001219D480D4C3E498F8E499F912026980CE
:1002330026C3E49AFAE49BFBE920E7E9120269E4A6
:1002430098F8E499F922C3E498F8E499F912026959
:10025300E498F8E499F9C3E49AFAE49BFB22EB20CF
:10026300E7CFE920E7E0B90010BB0008E88AF08493
:10027300F8AAF022E4FBC8FA22EB70227B10C83301
:10028300C8C933C9335007C39AC3DBF280069A50F7
:10029300012ADBEAC833F4C8C933F4C9FA2275F07A
:1002A30008E4C833C8C933C933C99AC99B5004C9C0
:1002B3002AC93BD5F0ECFBC833F4C8E4C9FA2208D9
:1002C3000808EAC0E0EBC0E086F0E7A4FA18098664
:1002D300F0E7A42AFA180986F0E7A42AFA1809868F
:1002E300F0E7A42AFA1986F0E7A4FBE5F02AFA1945
:1002F3000886F0E7A42BFBE5F03AFA190886F0E745
:10030300A42BFBE5F03AFA18180986F0E7A4C5F028
:100313002BFBE43AFA1908E7C5F0C6A426F6E5F084
:100323003BFBE43AFA1886F0E7A4F6E5F00826F674
:10033300E43B08F6E43A08F6D0E0FBD0E0FA22E426
:10034300CFC0E0E4CEC0E0E4CDC0E0E4CCC0E075D3
:10035300F020E626F608E633F608E633F608E63339
:10036300F6181818EC33FCED33FDEE33FEEF33FFD4
:10037300C3EC9709ED9709EE9709EF9719191940FF
:100383000FFFEC97FC09ED97FD09EE97FE1919068F
:10039300D5F0BFECF709EDF709EEF709EFF71919F7
:1003A30019D0E0FCD0E0FDD0E0FED0E0FF2225181C
:1003B300C582C0E0E51934FFC583C0E0E518C395E5
:1003C3008224F810AF0885831985821880088583F5
:1003D30019858218D2AFCEF0A3E520F0A37808E602
:1003E30008F0A3DEFAEFF0A3E58124FAF8E608F0BB
:1003F300A3E608F0A3E608F0A30808E608F0A3E6DE
:1004030008F0A315811581D0E0FED0E0F815811521
:10041300811581E8C0E0EEC0E022C0D02518C58276
:10042300C0E0E51934FFC583C0E0E518C395822415
:10043300F310AF0885831985821880088583198591
:100443008218D2AFC8F0A3E9F0A3EAF0A3EBF0A3BC
:100453007908E709F0A3D8FAECF0A3EDF0A3EEF0E6
:10046300A3EFF0A3D0E0F0A3D0E0F0A3D0E0F0A39B
:10047300E520F0A3E5F0F0A322851983851882E037
:10048300C0E0A3E0F9A3E0FAA3E0FBA37808E0F659
:1004930008A3DFFAE0FCA3E0FDA3E0FEA3E0FFA3D3
:1004A300E0C0E0A3E0C0E0A3E0F5D0A3E0F520A323
:1004B300E0A3F5F010AF08858319858218800885BD
:1004C3008319858218D2AFD082D083D0E0F8D0E0F0
:1004D30032120B04B90003020513E490030178649C
:1004E30079168002F0A3D8FCD9FA7A647B189000BD
:1004F3008678B679018015E493A3AD82AE838A82B0
:100503008B83F0A3AA82AB838D828E83D8E9D9E74C
:100513007582F97583FD740412080D7582E875837D
:1005230023740012080DE4731075F0108E1A8F1BDC
:1005330085821F85831E851882851983E0CEA3E0FB
:10054300CF851F82851E83EBC9EAC8EDCBECCAC3F6
:10055300E833C8E933C9EA33CAEB33CBC3EA9EF5C0
:100563001DEB9FF51CB35004AB1CAA1DEC33CCED63
:1005730033CDD5F0DAAE1AAF1B22D083D082ECC0D4
:10058300E0EDC0E0E493A3FCE493A3FDED4C600D28
:10059300120655EC24FFFCED34FFFD80EFE493A33A
:1005A300FCE493A3FDED4C600D1206F2EC24FFFC7A
:1005B300ED34FFFD80EFD0E0FDD0E0FCE493A3C079
:1005C300E0E493C0E022D083D082E9C0E0E493A3C7
:1005D300C386F0C5F095F0F908E493A386F0C5F05F
:1005E30095F0700BE493A3C3994005E9048002A33B
:1005F300E475F002A42582F582E5F03583F583D016
:10060300E0F9E493A3C0E0E493C0E0228519838575
:100613001882E0A3FEE0A3F5207808E0A3F608DF44
:10062300FAE0A3FFE0A3C0E0E0A3C0E0E0A3C0E0E2
:10063300E0A3C0E0E0A3C0E010AF08858218858383
:10064300198008858218858319D2AFD083D082029E
:100653000813C0E0C3E49396087401939618400FFF
:10066300E49366700808740193661870007019A308
:10067300A3C3E49396087401939618A3A3400DD0E3
:10068300E0D0E0D0E00205B9A3A3A3A3A3A3D0E0E5
:10069300227404800474028000CCC0E0EDC0E0E565
:1006A30018C39CCCAD1950011D10AF068C188D19C1
:1006B30080068C188D19D2AF12078FD0E0FDD0E0E1
:1006C300FC2274028000CCC0E0EDC0E0E518C39CBE
:1006D300CCAD1950011D10AF068C188D1980068CF6
:1006E300188D19D2AF12076DD0E0FDD0E0FC22C007
:1006F300E0C0F088F0E4936670080874019366180C
:100703007000A8F0A3A3700BD0F0D0E0D0E0D0E04D
:100713000205B9A3A3D0F0D0E022D083D082CCC00D
:10072300E0E493A360061207B01470FAE493A360A5
:10073300061208DF1470FAD0E0FCE493A3C0E0E4EF
:1007430093C0E022C0E0C0D0E8C0E0E9C0E0A9A8BF
:10075300D2AFC2C7E9A2E7E433F8E9A2E792AFD088
:10076300E0F9D0E0F8D0D0D0E032CAC0E0E493A3FF
:10077300C582CCC582C583CDC583F0A3C582CCC554
:1007830082C583CDC583DAE5D0E0CA22CAC0E0E0E2
:10079300A3C582CCC582C583CDC583F0A3C582CC56
:1007A300C582C583CDC583DAE6D0E0CA22C0E0E4C2
:1007B30093A3D39C5010E493A3C39C400AD0E0D0EE
:1007C300E0D0E002073AA3A3A3D0E022C008C3E02D
:1007D30096F50808A3E096420808A3E096420808A5
:1007E300A3E09645087001D3D008227009080808D1
:1007F300226016181818C6C333C608C633C608C6FF
:1008030033C608C633C6D5E0EA22C09FF59FE4731A
:10081300D09F22D083D082C09FE493C0E074019321
:10082300C0E0740293F59F227404800A7403800667
:10083300740280027401C0E0F404120846D0E0128E
:100843000AAF222518F58210AF08F518400C1519C8
:100853008008F51840021519D2AF8519832200C00C
:10086300D0251810AF08F518500C05198008F51895
:1008730050020519D2AFD0D022BB0102E722C082B9
:10088300C08389828A83BB0003E08002E493D08320
:10089300D082226016080808C6C313C618C613C63A
:1008A30018C613C618C613C6D5E0EA22C3E0C69617
:1008B300F608A3E0C696F608A3E0C696F608A3E0FA
:1008C300C696F6222518F8E43519F9222518FAE414
:1008D3003519FB222518FCE43519FD22C0E0E49309
:1008E300A36C7009D0E0D0E0D0E002073AA3A3D014
:1008F300E022251810AF08F518400C15198008F5EB
:100903001840021519D2AF22C3E09608A3E0960857
:10091300A3E09608A3E096A2D265D03322E06670E6
:100923001008A3E066700A08A3E066700408A3E059
:100933006622E76670100809E766700A0809E76629
:1009430070040809E76622C3E096F008A3E096F076
:1009530008A3E096F008A3E096F022C3E697F60812
:1009630009E697F60809E697F60809E697F622C31B
:10097300E49396087401939608740293960874039B
:10098300939622E627F60809E637F60809E637F6CE
:100993000809E637F622700422600D18C6C333C671
:1009A30008C633C6D5E0F41822E493F6087401931D
:1009B300F608740293F608740393F622E657F608D2
:1009C30009E657F60809E657F60809E657F622E05E
:1009D30056F608A3E056F608A3E056F608A3E05639
:1009E300F622E056F008A3E056F008A3E056F0081C
:1009F300A3E056F022E026F008A3E036F008A3E0D7
:100A030036F008A3E036F022E647F60809E647F693
:100A13000809E647F60809E647F622E026F608A3A2
:100A2300E036F608A3E036F608A3E036F622E4C380
:100A330096F608E496F608E496F608E496F622C6D7
:100A4300F4C608C6F4C608C6F4C608C6F4C622C36C
:100A5300E7960809E7960809E7960809E79622C387
:100A6300E09608A3E09608A3E09608A3E096227513
:100A7300D00075813F751801751903000204D4E68F
:100A8300F008A3E6F008A3E6F008A3E6F022600C62
:100A930008C6C313C618C613C6D5E0F422E0F60889
:100AA300A3E0F608A3E0F608A3E0F622CAC0E0E656
:100AB300F0A308DAFAD0E0FA22E8F0A3E9F0A3EA17
:100AC300F0A3EBF022E0F8A3E0F9A3E0FAA3E0FB44
:100AD30022ECF0A3EDF0A3EEF0A3EFF022E0FCA3F1
:100AE300E0FDA3E0FEA3E0FF22EAF0A3EBF0A3EC1A
:100AF300F0A3EDF022E0FAA3E0FBA3E0FCA3E0FD0A
:100B030022E5C754F84401F5C77901222518F58277
:100B1300E43519F58322C2AF75D69F020000221275
:100B2300081690A103120816A0A103120816CEA25C
:100B33000312081652A3031208168EA303120816F3
:100B430068A50312081625A90312081639A903126A
:100B5300081643A9031208164DA90312081657A92C
:100B63000312081670A9031208167AA903120816AD
:100B7300E7A903120816F2A9031208161AAA031208
:100B8300081625AA031208168AAA0312081695AA9C
:100B930003120816B9AA03120816DDAA03120816CF
:100BA3004FAB0312081698AB03120816B4AB03122B
:100BB300081625AC0312081671AC03120816BAAC5A
:100BC30003120816F8AC0312081679AD03120816BF
:100BD30020AE03120816EFAF0312081654B0031227
:100BE300081682B103120816A8B103120816F0B250
:100BF300031208162AB60312081628B80312081699
:100C0300F3B9031208168CBA031208168DBC03122B
:100C1300081642BD031208167BBD03120816E1BD78
:100C230003120816EBBD0312081614C003120816AC
:100C330053C103120816AAC10312081655C20312A0
:100C4300081605C40312081652C50312081672C506
:100C530003120816C7C503120816C8C603120816DE
:100C6300F0C6031208164FC70312081647C803122B
:100C73000816BEC803120816D1C9031208163FCAC4
:100C8300031208163ECB0312081698CD031208165A
:100C9300C1CD0312081627CF03120816A9D00312D9
:100CA300081600D103120816AED10312081653D248
:100CB30003120816ACD2031208166AD303120816DD
:100CC300FCD3031208165BD4031208169DD4031237
:100CD3000816CED40312081625D603120816008070
:100CE300021208163280021208166B8002120816CE
:100CF300298202120816FF82021208165E8302126C
:100D03000816748402120816C084021208164E874D
:100D130002120816288A021208166F8B021208168E
:100D2300078C02120816138C021208165C8C02122E
:100D330008169E8D02120816948E02120816BE8E95
:100D430002120816148F021208166D8F021208166B
:100D5300E08F0212081616920212081698930212D6
:100D63000816839402120816CD95021208160598E8
:100D730002120816029B02120816119B0212081691
:100D8300A59B02120816509C02120816939C02128D
:100D93000816DC9C021208162C9D02120816909D60
:100DA30002120816029E021208161E9E021208164E
:100DB3004D9E021208168C9E02120816879F02127D
:100DC300081636A002120816B3A202120816E5A3EB
:100DD30002120816BDA4021208163FA50212081635
:100DE30074A902120816A3A902120816FEA9021278
:100DF300081631AA02120816A9AA02120816DCAABA
:100E0300021208163DAB021208168DAB0212081629
:100E13005AAC0212081613AD02120816D7AD02120D
:100E2300081651B002120816B3B10212081604B321
:100E33000212081628B4021208162BB4021208165E
:100E43005AB40212081652B60212081611B7021249
:100E5300081640B7021208165EB80212081626B921
:100E630002120816E4BA0212081616BB021208167A
:100E730058BB0212081657BC02120816CABC02124B
:100E83000816F3BE0212081652BF02120816A6BFB6
:100E930002120816D5C102120816B8C202120816A9
:100EA30074C30212081688C3021208169CC30212E6
:100EB3000816C9C302120816F9C302120816B4C5EC
:100EC30002120816C6C6021208161BC7021208161B
:100ED30064C7021208168BC70212081653C80212FF
:100EE3000816F9C8021208167FCA02120816C6CAE3
:100EF3000212081638CB021208168DCC02120816FD
:100F030036CD021208166ACD0212081682CD0212DD
:100F1300081625CE02120816A1D00212081649D2CD
:100F23000212081667D20212081685D20212081698
:100F330051D3021208169FD60212081624810112F9
:100F430008165C81011208165C8601120816A28637
:100F530001120816D887011208163D8801120816D7
:100F6300B28901120816BC8C01120816E58D011214
:100F73000816F89701120816889801120816729B32
:100F8300011208167F9C01120816E29C0112081632
:100F93002A9E0112081698A0011208162AA201120D
:100FA3000816B7A201120816D6A30112081663A4E5
:100FB300011208166DA40112081695A40112081651
:100FC30035A50112081620A601120816EDA6011276
:100FD30008160AA70112081633A70112081660A7FC
:100FE30001120816A7A90112081676AA01120816FB
:100FF300B5AA0112081637AB01120816D8AB0112B5
:1010030008160AAC0112081651AC0112081684AC7A
:1010130001120816C8AC0112081617AD0112081602
:101023001CAD0112081678AD01120816BCAD0112F1
:10103300081696AE01120816FBAE0112081661AF30
:1010430001120816DCAF0112081644B30112081688
:1010530047B401120816C5B501120816DBB8011210
:1010630008167DB901120816C6BB0112081681BC09
:1010730001120816C0BC0112081698BE0112081608
:10108300B5BE01120816BEBE01120816C7BE011274
:101093000816D2BE01120816F1BE0112081695C039
:1010A30001120816F2C001120816FCC0011208163C
:1010B30006C10112081665C101120816AFC101125B
:1010C3000816B0C20112081607C30112081618C485
:1010D3000112081661C4011208161BC50112081675
:1010E30032C60112081607C7011208164EC80112AC
:1010F300081652C9011208164BCA0112081663CA10
:10110300011208169ACA01120816A4CA0112081677
:10111300AFCA01120816CDCA0112081615CB011267
:10112300081673CB011208169ACB01120816ACCB22
:101133000112081661CC011208169ACC0112081686
:10114300BCCD011208160FCE01120816F5CE0112FE
:1011530008161CCF011208168CCF0112081608D0EE
:101163000112081664D1011208168BD20112081657
:101173004DD3011208161BD401120816D9D401123B
:101183000816C1D5011208166BD601120816D3D65C
:101193000112081688D701120816E4D7011208169F
:1011A3003CD80112081602D90112081625D90112DA
:1011B3000816E0D90112081602DA0112081663DADA
:1011C3000112081693DC011208168CDD01120816B1
:1011D30038DE0112081659E001120816A2E00112C6
:1011E3000816EDE00112081649E101120816A7E1FD
:1011F30001120816CBE101120816EFE101120816DD
:1012030024E2011208164CE20112081691E20112BF
:101213000816E5E2011208163EE30112081638E447
:1012230001120816D6E5011208161BE6011208166C
:1012330044E601120816CDE60112081640E7011232
:1012430008164EE70112081672E701120816C8E7DE
:1012530001120816E3E7011208169EE801120816A8
:10126300CAE8011208160DE90112081670E9011205
:1012730008167EEB01120816AAEB0112081665EC9C
:101283000112081649ED01120816DDED01120816C8
:101293005EF30312081696F303120816B7F303124C
:1012A3000816F9F3031208165DF40312081667F41F
:1012B3000312081677F403120816AEF40312081685
:1012C30057F8031208161FFA0312081603FC031239
:1012D3000816A5FC031208162FFD03120816AA2AE6
:1012E30000120816532B00120816322C001208168F
:1012F3003E2D001208165E2D00120816802E0012D5
:1013030008163030001208169D30001208166E3190
:1013130000120816743200120816EC320012081676
:10132300273300120816803300120816BB3300124D
:1013330008160434001208169834001208162E35C5
:1013430000120816033600120816D63600120816C5
:101353006437001208168A3700120816B7370012CE
:101363000816E83700120816B53800120816C538F3
:10137300001208161839001208162539001208162B
:101383003239001208163B39001208169F39001231
:101393000816FD3900120816483A00120816633A77
:1013A300001208168A3A00120816A73A0012081605
:1013B300B33A00120816443C001208165D3C0012B2
:1013C3000816D93C00120816EC3C00120816FC3C27
:1013D30000120816A03D001208160C3F0012081652
:1013E3001F4000120816BF4000120816C940001221
:1013F3000816484100120816594100120816984170
:1014030000120816C641001208169342001208166D
:10141300EA42001208162343001208167943001209
:101423000816974300120816E54300120816B04445
:1014330000120816FE44001208164B450012081647
:10144300CE4500120816F845001208162E46001263
:1014530008163D46001208169C460012081614474B
:1014630000120816554700120816A5470012081661
:10147300D04700120816EA47001208160448001263
:101483000816D94800120816E348001208161E4928
:10149300001208162E49001208167F49001208167A
:1014A300934900120816B54A00120816CA4A0012D8
:1014B30008165D4B00120816D14B00120816764C25
:1014C30000120816814C00120816E44D001208168B
:1014D300004E001208164C4E00120816BA4E0012A7
:1014E3000816EC4E00120816064F00120816664F37
:1014F3000012081605500012081650500012081664
:10150300A352001208163B5300120816B2530012DE
:1015130008160F56001208162756001208162A56E8
:10152300001208163656001208164A5600120816FC
:101533005256001208168956001208167D570012DB
:101543000816075800120816895800120816095978
:1015530000120816E05900120816025A0012081663
:101563009B5A00120816F85A00120816FB5A00126A
:1015730008166A5B00120816B65C00120816C95DED
:1015830000120816545E00120816675F0012081650
:101593002E60001208165F600012081685600012A4
:1015A30008168E6000120816BD60001208166D61E1
:1015B300001208161D620012081690620012081627
:1015C300336300120816A66300120816E5630012BF
:1015D30008162E640012081660F402120816CDF4E1
:1015E3000212081619F5021208166BF502120816F4
:1015F300EBF50212081604F8021208161BFA02127F
:10160300081654FD021208167FFD021208169DFDEE
:101613000212081607FE021208162FFE02120816FF
:1016230066FE021208169AFE02120816FCFE021249
:101633000816DEFD031208160EFE0312081632FE0C
:101643000312081669FE031208168DFE031208160C
:101653009BFE0312081634FF03120816EEFF031253
:101663000816957F00120816D2A60512081640A781
:101673000512081650A70512081625D404120816D9
:10168300A1D404120816CFD40412081614D50412D8
:10169300081675D60412081691D604120816C7D672
:1016A3000412081640D7041208168ED7041208161F
:1016B3001ED804120816F6D80412081647D90412C5
:1016C3000816ACD904120816389A0312081663DAFE
:1016D30004120816BBDA04120816DDDA041208161F
:1016E3006DDB04120816FEDB0412081636DC041246
:1016F30008165FDC04120816A0DC0412081641DE8B
:101703000412081623DF04120816FFDF041208165A
:101713004BB6051208165CB60512081696B60512E6
:101723000816EAFF0412081645B2051208166EA041
:10173300031208166AB205120816F8B20512081643
:10174300FBB20512081642B005120816C6B0051200
:1017530008162CB1051208166DFF0112081691FF29
:1017630001120816F2FF01120816E8B50512081651
:10177300F0B505120816FFB5051208160FB60512C7
:101783000816FAAD0512081617AE0512081634AE80
:10179300051208167EAE051208160EAF05120816BE
:1017A3001FAF05120816B0B505120816C3F80412C8
:1017B3000816EFF80412081685FB04120816C5FB79
:1017C3000412081601FC0412081615FC041208166C
:1017D3002EFC041208161FFD04120816D1FD041274
:1017E3000816E5FD0412081692A805120816B6A8F5
:1017F30005120816CFA8051208160DA9051208161A
:1018030043A90512081676A905120816E2A90512BE
:101813000816E5A905120816EFA905120816FCA972
:1018230005120816B09F05120816D39F0512081655
:101833001EA0051208163CA00512081657A0051293
:101843000816BDA005120816C9A00512081626A180
:10185300051208164AA10512081610A20512081649
:101863001DA2051208162EA205120816DAB30512D8
:101873000816F2B3051208161EB40512081648809E
:1018830005120816A88105120816B6810512081656
:10189300CA8105120816E78105120816FC81051294
:1018A30008160F8205120816918205120816F68291
:1018B300051208168C83051208166584051208168E
:1018C30075840512081684840512081641B305129F
:1018D300081665B3051208168DB305120816B5B3BD
:1018E30005120816A1A405120816C8A405120816A5
:1018F300E6A4051208165BA505120816A09C05129E
:101903000816B99C05120816D09C05120816D99C16
:1019130005120816F79C05120816019D05120816F4
:101923000B9D051208161E9D05120816A89D05128B
:1019330008161D9E051208164B9E051208169F9E3B
:1019430005120816EB9E05120816069F05120816C7
:10195300109F05120816369F051208169B9F051245
:10196300081647FF0212081669FF02120816E57FE0
:1019730000120816D9E00412081605E1041208162D
:1019830028E1041208163BE10412081656E104127A
:101993000816BAE104120816E8E104120816FCE579
:1019A3000412081651E70412081683E704120816F6
:1019B300EEE7041208166EE90412081696E90412FB
:1019C3000816ABE904120816BBE904120816FBE972
:1019D300041208163DEA041208164DEA041208160A
:1019E30069AB0512081679AB051208169DAB0512F3
:1019F3000816C6AB05120816F0AB0512081614AC90
:101A0300051208162BAC0512081659AC0512081658
:101A13007CAC05120816ADB405120816AD95051277
:101A23000816BD9505120816DB96051208160F97C2
:101A3300051208163197051208165997051208164C
:101A4300729705120816AE9705120816109805121C
:101A530008165598051208169A9805120816C7987D
:101A630005120816FF980512081606AA051208168D
:101A730026AA0512081639AB051208163CAB051247
:101A8300081637B5051208166CB505120816A0F12D
:101A930004120816DAF10412081643F204120816A7
:101AA30062F20412081604F3041208160DF304126A
:101AB30008165EF30412081687F30412081694F34B
:101AC3000412081605F40412081693F404120816F7
:101AD300E1F40412081617F50412081678F5041237
:101AE3000816A0F50412081617F60412081673F662
:101AF30004120816B6F604120816F3F604120816B2
:101B030005F70412081617F70412081636F704121D
:101B130008163FF7041208160DF80412081659F8B0
:101B23000412081697F804120816B4AC0512081626
:101B33005CA20512081692A205120816E1A205126C
:101B430008163AA4051208160FC00412081637C166
:101B53000412081673C1041208162DC304120816C2
:101B630057C304120816D0C50412081619C6041266
:101B73000816AEC7041208164DC804120816A5C8E5
:101B8300041208162BC90412081663C90412081696
:101B9300A5C90412081616CB0412081696CC041213
:101BA3000816D7CE0412081605CF0412081631CF33
:101BB300041208163ACF0412081690CF041208161E
:101BC30020D0041208165ED304120816E0D30412C0
:101BD300081676B6051208168CB605120816B98DC6
:101BE30005120816CE8D05120816818E05120816E9
:101BF300C18E05120816DA8E051208160D8F05120E
:101C030008165A8F051208168E8F05120816D08FE4
:101C130005120816C6910512081676B505120816A0
:101C230045B105120816A4B105120816E2B1051252
:101C3300081623B2051208160080041208160C8039
:101C4300041208166E80041208167880041208160F
:101C53000B81041208164781041208160982041224
:101C630008167082041208160A83041208168A835F
:101C73000412081642850412081617870412081660
:101C8300738804120816E089041208168A8A04125B
:101C93000816348F04120816339004120816B990EC
:101CA30004120816DE90041208167891041208161E
:101CB300969104120816B39104120816279204127F
:101CC3000816439204120816709204120816F19330
:101CD3000412081612940412081693940412081698
:101CE300399504120816809504120816F09504120B
:101CF30008168A96041208160297041208166D979E
:101D0300041208160A980412081677980412081683
:101D1300B298041208161599041208166C9A041244
:101D23000816FF9A04120816B69B041208163A9D69
:101D330004120816D39D04120816459E04120816B1
:101D430042A004120816EEA1041208161BA20412E4
:101D53000816FDA304120816ECA504120816F2A631
:101D630004120816B58405120816318605120816E2
:101D73004D86051208164F8805120816928805121B
:101D83000816A48805120816AE88051208160889D5
:101D930005120816BDD6021208165DD702120816E0
:101DA300DED702120816DCD8021208165BD902121B
:101DB3000816A0DA0212081640DB02120816F2DC3B
:101DC30002120816FEDD021208161BDE02120816A6
:101DD30048DF02120816F6E002120816A0E102120A
:101DE3000816EFE402120816F8E60212081680E756
:101DF30002120816DAE7021208162DE80212081674
:101E0300A8E8021208161EE90212081656E9021281
:101E1300081642F0021208168FF2021208166BF32C
:101E230002120816F3B40512081681D60312081617
:101E3300C6D60312081656D703120816CFD80312B4
:101E43000816B1D90312081660DA0312081677DAF6
:101E530003120816C8DA031208163CDB031208162D
:101E630088DB031208169BDB03120816F4DB03124C
:101E73000816B5DE031208164BDF0312081682DFBD
:101E830003120816CBDF03120816D1E1031208165A
:101E930021E203120816FBE20312081634E30312CD
:101EA300081653E3031208169EE303120816B4E35D
:101EB3000312081688E40312081681E503120816B4
:101EC300DCE5031208161CE60312081653E7031297
:101ED3000816CFE903120816F4E90312081690EA6C
:101EE30003120816B5EA0312081639EB0312081693
:101EF30016EC0312081654EC03120816B8EC03127E
:101F030008166CED031208166FED0312081682ED26
:101F1300031208168BED03120816A6ED031208161A
:101F230018EE0312081651EE031208166DEE031293
:101F330008169AEE03120816C1EE03120816E5EE10
:101F43000312081620EF0312081693EF0312081664
:101F5300C7EF0312081608F0031208163DF0031228
:101F630008165DF0031208169AF003120816D1F052
:101F730003120816D4F1031208160CF30312081601
:101F83002BF3031208165FB40512081677B4051273
:101F9300081639AF051208167DEA04120816CCEAB2
:101FA300041208168AEC0412081645EE04120816E9
:101FB30083EE0412081678EF0412081683F0041255
:101FC3000816A5F004120816EFF00412081670F1B3
:101FD30004120816EBAA041208160EAB0412081614
:101FE30011AC0412081663AC04120816C5AC041233
:101FF300081617AD041208165FAD04120816C8AD13
:10200300041208164DAE04120816C9AE04120816BF
:102013000FAF0412081614B30412081678B504128D
:1020230008162AB6041208168AB604120816B2B69F
:102033000412081678B80412081694BA0412081683
:1020430080BB0412081607BC041208163EBD041216
:1020530008166FBE04120816AEBE0412081662BF3D
:10206300041208169EEE011208163EEF011208161E
:10207300ABEF011208163FF00112081693F101129B
:102083000816F2F101120816A0F20112081663F500
:10209300011208167BF601120816F1F60112081652
:1020A300D3F80112081675F9011208163CFA011249
:1020B300081672FB0112081680FC011208160DFDAA
:1020C300011208162FFE0112081663640012081687
:1020D300CE64001208161665001208165A6500121F
:1020E3000816B565001208161266001208164D662A
:1020F30000120816D166001208162B670012081684
:102103009A68001208161269001208162A6A001249
:102113000816526A001208165E6B001208166F6BDF
:1021230000120816876B00120816B06C001208160E
:10213300D36C00120816AC6D00120816D06D001295
:102143000816E76D00120816086E001208162A6EAC
:1021530000120816046F001208165E6F00120816AC
:10216300D870001208163071001208164F71001251
:102173000816A1720012081620730012081657736E
:1021830000120816917300120816FD730012081648
:10219300BC74001208169A76001208169A77001279
:1021A3000816A57800120816B77900120816DF7A08
:1021B30000120816ED7A00120816F27B00120816B8
:1021C300947C00120816DA7C00120816EF7C0012C9
:1021D3000816F77D00120816987E00120816F47E82
:1021E300001208165399051208160E9B05120816BD
:1021F300C59B051208161A9C05120816D3910512E1
:102203000816F191051208163592051208165B920D
:10221300051208168292051208169A9205120816DC
:10222300B29205120816CA92051208166D9305128A
:102233000816AF9305120816D19405120816DA94FE
:1022430005120816E39405120816EC9405120816F5
:10225300F694051208164B89051208163F8D0512D0
:1022630008164D8D05120816528D0512081677FEB5
:10227300041208161FB605120816549903120816FD
:1022830070980312081686950312081643940312D6
:102293000816AA91031208166591031208160B91EA
:1022A300031208166C9003120816179003120816EF
:1022B300448F031208167E8E03120816428E0312F1
:1022C3000816D58D03120816CD8D03120816428DFC
:1022D30003120816D28C03120816238C0312081655
:1022E300188C03120816098C03120816E88B0312C4
:1022F3000816B48B03120816888B031208165A8A21
:10230300031208164E88031208168C9E0312081631
:102313001F8803120816839E03120816769E031263
:102323000816799D03120816069D03120816EA9CE7
:1023330003120816CC9C03120816A79C0312081656
:10234300B79B03120816038803120816AD870312FE
:102353000816748703120816529B03120816EC869C
:1023630003120816A08603120816598603120816CC
:102373008C8503120816BB9A0312081610850312E4
:10238300081655B205120816688403120816C1838D
:102393000312081663830312081638830312081600
:1023A300E98203120816AB8203120816898203120C
:1023B30008166682031208164D8203120816058258
:1023C300031208164F8103120816C380031208165E
:1023D300578003120816008003120816499A031245
:1023E30008161FDA0400000080FB8F0001005A1852
:1023F30087000100141935000400D91825000200D4
:10240300DD1826000200DF1827000200E11828006B
:102413000100EB1829000100EC1884000400ED18FA
:1024230086000100F1182A000100F2182B000100B8
:10243300F3182C000100F7182D00080041182E0096
:102443000100F8182F000100F91830000100FA18F4
:1024530031000100FB18320001004918330001006C
:102463004A1834000100FC18360001004B183800EC
:102473000100FD1839000100F6188300020012194B
:1024830063000100571864000100F418650001009F
:10249300F5186D000100581871000800391866001E
:1024A300010011194300010002194400020003193D
:1024B30045000100051946000200061947000800FF
:1024C3004F184800010008194B00010009190400C6
:1024D30001001519A100010018193700010017198F
:1024E3008800010016193C0001004C183D00010052
:1024F300FE18490002000A196700010059184D002F
:1025030002000C194E0001000E194F0002000F19B2
:102513003E0001004E1851000100FF185200010057
:102523000019530001000119540001004D18000067
:102533000000000000013636010100010201000124
:10254300030100010401060605020000070100342F
:102553000801000F090401010D0100FF0E0800002E
:1025630017020000190100FF1A0100011B0100FE00
:102573001C0100081D0200001F01000120010001D1
:10258300210200002301000F2402000026010001A4
:1025930027010008280200FF2A0100072B0102403F
:1025A3002C0100002D0100012E0100012F0100FF6D
:1025B30030010B1D310800003A0100083B01000FF8
:1025C3003C0100013D0100FF3E0400004204000005
:1025D300460400004A0400004E04000052040000B8
:1025E300560400005A0400000103710301030103B0
:1025F3000103010301032203020301031003000388
:10260300000300030003000300030003420300036D
:102613002403060300030003040312032503230317
:1026230025032303040304030003000300034403FB
:102633000003000323030003650321003503810323
:102643000003050300030003000300032503230322
:1026530003047104020460041104700402040204FC
:1026630001040204100461040004140463047304E9
:102673007204620443040004130406040004000407
:102683000404120400040004000400045104640060
:1026930000040004000444040004000400040004D3
:1026A3006504000435048104640005040004830404
:1026B3000004030271023001600211027002010280
:1026C300020202028002100261023A004100630228
:1026D3007302720262024302000213023800000214
:1026E30000020402120200020002000200020402BD
:1026F3000402370037003C024402000239000002A2
:102703000002650200023502810200020502820214
:1027130083020002030071003001600011007000A9
:1027230031022003500480001000610000001400F7
:102733006300730072006200430000001300060090
:102743000000000004001200000000000000000070
:1027530004000400370037003C024400000000007E
:102763000000000065000000350081000000050046
:102773000000830000000101710101010101110149
:1027830001013101010101018001100161013B00DF
:10279300140063017301720162014301000113011B
:1027A30006013D0135000401120100010001000191
:1027B300000104010401330133013C0144013201EE
:1027C30036000001000165010001350081010001AF
:1027D30005018201830100013600010006000000AB
:1027E3000F0000000000000000000000000003FFD5
:1027F300FF00000403FFFF0000FFFF0FF4010005CB
:10280300C4040320000100000B00000000000000CE
:102813000003010F000000000000000000000000A2
:1028230000000000000000000000000000000000A5
:10283300000000000000101D4C1D161D561C1C1D21
:10284300521D1C1D5E1D221D561C1C1D521D281DC4
:10285300561C2E1D561C341D561C3A1D561C401D5D
:10286300561C461D561C000000000000000000001E
:102873000000000000000000000000000000000055
:102883000000000000000000000000000000000045
:10289300000000000300200122810000000020014D
:1028A30023810000040042015A8000000500420118
:1028B3004980000006004201388000000700200123
:1028C3002181000010004203821800001100200340
:1028D3002F050000120010039318030000002103CA
:1028E3002C0506000000100199160A0000000200E2
:1028F3000000040000000800000010000000200099
:102903000000400000008000000000010000000201
:102913000000000400000008000000100000002078
:102923000000004000000000882013002E201F003C
:1029330034201F803A20010088200200F21F030088
:10294300F81F0400FE1F05000420060010203600B7
:102953002220FFFF000001780F06A20F089C0F0B37
:10296300BA0F10900C027E0F05900F07840F0C60B6
:102973000F0D6C0F64A422FF000007ECFDFDFDECBE
:10298300DCDCCCBCACAC9C9C8C7C7C6C6C5C5C5C04
:102993004C4C3C3C2C2C1C1C00160F00000B150B44
:1029A300020002220F3300000E01030507090B0D7D
:1029B3000F00020406080A0C0D5A69674265654157
:1029C3006C6C69616E63653039150AF4D4C0A595E2
:1029D30082726361555049303017181921301B1D1D
:1029E3001F30303016181920231A1C1E300C0E020B
:1029F3000B040B0A0708000F00034A49434E181A39
:102A030025050200393D3F373C3C362C442D00015F
:102A130019161816161823030002040201010101F6
:102A2300090200BE040AE8030000FA067D2900003B
:102A33000000E803CC297F000E000C0A03080809F4
:102A4300000C0015FF1E1E0905000304040110FFFE
:102A53000C050B04080328E0041232DAA2E792AF54
:102A630022E4F0A3F0A3F022A3122A64A3F0227FAE
:102A73000C02060FE0F508E4F509F50AF50B2274DC
:102A830001F090059FE0640F2274091208617F042E
:102A930002060FA3A3E024F5C39413229005BF12EB
:102AA30055CA7A147B0022C082C083900411743EFD
:102AB300F0A37413F0A37450F0A37413F0900415EF
:102AC3007426F0A37413F0A37420F0A37413F0A37B
:102AD300745CF0A37413F0A37462F0A37413F0A3F3
:102AE3007456F0A37413F0A3740EF0A37413F09050
:102AF30004217432F0A37413F0A37438F0A3741395
:102B0300F0A3742CF0A37413F0A37468F0A37413EC
:102B1300F0900432124B576006124DC1121B4290C3
:102B2300042F1242837408F0A3E4F0A3F09004D2BC
:102B3300F0900434F07C0BFDF97A357B04121A9A79
:102B43007C0B7D0079007A407B04121A9A02428C36
:102B530074F71203B174F71208F5EAFEEBFF1240A3
:102B6300AA7405122C207403F0EE2402FAE43F1237
:102B73002BFA242DFCE43FFD8C828D83122D381219
:102B83002C09600812348274FFF0A3F0EE242BE4C6
:102B93003F1C1CFD8C828D83A3E0C0E08A828B8363
:102BA3001240BBD0E0122C09888289831248B324D7
:102BB30003125394121C327408120B0F7403F09017
:102BC30005B412069874021208D77903EEFAEFFBE4
:102BD3001214FA7402120861E9F5087007EEFAEFAD
:102BE300FB1213E0A9087409023492F582E43FF55D
:102BF30083125FFF1248A8FB8A828B83122C18E88A
:102C0300F0A3E9F0EE221255E8122C18E8F0A3E93C
:102C1300125B64E022122D038A828B8322F0A3E4E9
:102C2300F0122C2822EE240DF582E43FF583227462
:102C3300F11203B1EAFEEBFF8C088D09890A122D0C
:102C43000D8A828B83122D03740F120B0F122D2604
:102C5300E824FF18E934FFF988828983E50A122DF5
:102C6300189005B9122D159005B8122D157411126F
:102C73000B0F122D26EE2404FCE43FFD880B8A8201
:102C83008B83E0F50C8C828D83E0250CC3950B12AE
:102C930055E4E8F0A3E9124017A3A3A3A3A3A3A3B6
:102CA300A3E064037008124373F0A3E480031230BB
:102CB30019122C237409F0750C35750D04750E006B
:102CC300780C12082F12300D121A8E740312086139
:102CD300750CFF750DFF780C120833AC08AD09793C
:102CE30003EEFAEFFB1214FA7402120861E9F50815
:102CF3007007EEFAEFFB1213E0A9087F0702060F35
:102D0300E024FFF8A3E034FFF922EE2402FAE43FC3
:102D1300FB22122D38122D1C22F0E824FF18E9346F
:102D2300FFF922E0F50CA3122D38122D1C8882899D
:102D330083E50CF022E08882898322C082C08390DD
:102D43000451E0C39408400474078001E08A828B35
:102D530083F033333354F8F902428C74F01203B125
:102D6300EAFEEBFF890C8C0E8D0F750A00A2AFE40F
:102D730033F50BC2AF90044B803F122E46503712EF
:102D83002E5764037030EE24F9FEEF34FFFF8508FD
:102D930082850983A3A3E02405FCA3E03400FDEEB0
:102DA300FAEFFB121C32EE24FF1EEF34FFFF741008
:102DB300250AF50A150C123FE4125FFBE50C6006C9
:102DC300E508450970B4E50BA2E092AFA2AFE43386
:102DD300F50BC2AF90044B802C2402FAE43509FBB7
:102DE3008A828B831255D32406F582E438F5831245
:102DF3002E648A828B83122E4CA3A3122E64050A9F
:102E0300150C123FE4123FF96022122E5764027030
:102E1300F1122E46E50840C1123147A2E550E38581
:102E23000E82850F837401F0E50C70D6E50BA2E0EA
:102E330092AF8E828F83E50AF0EE24FFFAEF34FF20
:102E4300FB8035123152A2E622122E50221259C8AB
:102E5300A3A3A3228508828509831259C2124FFCBA
:102E630022E08E828F83F0EE24FF1EEF34FFFF22D9
:102E73001215C674041208617F0802060F74EC125F
:102E830003B174F51208F589138A128B0F85188222
:102E9300851983E4F0041208CF1212F0E9F89005C3
:102EA3009EE0292434F508FA7B00121AAC8A0A8BB7
:102EB3000BAE0AAF0BEE4F7003023001EE2402F5A6
:102EC3000AE43FF50BA808EE28F8E43FF9850A82E7
:102ED300850B83122C022404F510E43FF5118510B1
:102EE30082F583E4F090059EE0FCF8C3E498F8953E
:102EF300E0F9850A82850B83E028F508A3E039F51C
:102F03000990059C12528C750E00780C12082F7DC7
:102F130000AA08AB09121A8E7403120861AC18AD2B
:102F2300197401120B0FE0F9E50824FFFAE50934DF
:102F3300FFFB1212F68A828B83E4F0EA24FFF50882
:102F4300EB34FFF509E50FC454F0F99004D3E0C462
:102F5300333354C0F8900598E0A2E0E433131348E8
:102F630049440F123021E512C454F04513850882F9
:102F7300850983F0A808850A82850B83E0FA85100A
:102F830082851183E02AC398F0850A82850B83E842
:102F9300F0A3E509F0123019122C23E4F0740A129D
:102FA3000B0FE4F0750840750904F50A7808120858
:102FB3002F12300D121A8E74031208618518828540
:102FC3001983E06009EE240E1241404408F0121404
:102FD300E2E9F9E4F508F5097808120833740412F4
:102FE30008D7EEFAEFFB1214FA7402120861E970C3
:102FF30006EEFAEFFB800BEEFAEFFB121AB27A0041
:103003007B00740B120861022A727C0B7D00EE2494
:1030130018FAE43FFB221240AEE4F0A322E0850855
:103023008285098312302B22F01252602274F3122C
:1030330003B18A0A8B0BA2AFE433F50CC2AF750858
:103043000075090090044B802C12326E5024850ABF
:1030530082850B83A3A31264288E828F83A3A3127A
:103063004DC41214E8E9600A123094C2E6F08E08E7
:103073008F0912326312351C70CFE50845096006CB
:1030830012314ED2E6F0E50CA2E092AF7F050206C4
:103093000F12309822125279E02274F01203B1EA2F
:1030A300FEEBFF8C0C8D0D750E00A2AFE433F50F14
:1030B300C2AF75080075090090044B8020850A088B
:1030C300850B0912314ED2E4F0E508123147D2E7FD
:1030D300F0E50A24FBF582E50B34FFF583E0F50AFE
:1030E300A3E0F50BE50A450B6043E50A123ECF3535
:1030F3000BF583E0A2E750D9850A82850B83A3A34E
:10310300120698AC0CAD0DEEFAEFFB1214EE74023E
:10311300120861E960BBE508450960A1E508240DD3
:1031230012315A64017006123163D2E4F0E50FA242
:10313300E092AFE508450960061213DA750E01A99E
:103143000E022E7B123EF912315D2212315222E51C
:1031530008241112315A22F582E43509F583E0225D
:103163008508828509831259C2E02274F21203B1E1
:1031730074FE1208F5750C00750D0085188285190B
:1031830083E4F0A3F0A2AF33F50AC2AF90044BE09F
:10319300FEA3E0FF8035EE24FBF582EF34FF125FE0
:1031A300F9780C120833EEFCEFFD7A4B7B04121A0C
:1031B300E27402120861EEFCEFFDAA18AB19121AB1
:1031C300D0AE08AF09900451E014F0EE4F6027121F
:1031D300326E501DEE240BF8E43FF988828983E0B8
:1031E30024FFF0A3E034FFF088828983124B5760F9
:1031F300A512325F8099E50AA2E092AF900451E0F4
:10320300603190059FE0640F60069004D2E0702364
:103213007A297B041215D29080F21206947A297BC4
:10322300041215C67404120861800874F01244AACB
:103233001213CEAA18AB19121AD68A0A8B0BAE0A2E
:10324300AF0BEE4F6013121302123094A2E28E8280
:103253008F83A350D674E980D40235248E0C8F0D4E
:10326300EE24FBF582EF34FFF58322123098A2E7B8
:103273002274F71203B1EAFEEBFF1213021240B8F5
:10328300120529E964019005BB700AE02401F8A343
:10329300E034008004E0F8A3E0F9124706124AAFD5
:1032A300900451E0702190059FE0640F70197A2912
:1032B3007B041215D29080F21206947A297B0412B1
:1032C30015C67404120861A9A8C2AF900451E004A2
:1032D3001232DAA2E7800DF0E9A2E7E433F8E9223B
:1032E300E508A2E092AF02454674F71203B1EAFE85
:1032F300EBFF123321F0121302EEFCEFFD7A4B7B4E
:1033030004121ADCA9A8C2AF900451122A5A9005DC
:103313009FE0640F7005790812149A024546123033
:1033230098C2E42274F71203B174EA1208F5EAFEB4
:10333300EBFF900598E0604085188285198374013E
:10334300F0120B0FE41233F9120B0FAA82AB8312A4
:103353001C328E828F83123169C0E0740A120B0F04
:10336300D0E01255F9740B120B0FAA82AB8312151E
:1033730012AA18AB19122256741602349274F71259
:1033830003B1EAFEEBFF1212E4E9F974DC69601E93
:1033930074DD69601974E469601474F369600F740F
:1033A300DE69600A74DF69600574DB697007EEFA31
:1033B300EFFB1214A002454674F71203B174EB122B
:1033C30008F5EAFEEBFF851882851983740612332C
:1033D300F9120B0FAA82AB83121C321255FE740A28
:1033E300120B0FAA82AB83121512AA18AB19122261
:1033F300567415023492F0EE2413FCE43FFD74027C
:103403002274F71203B174F71208F5EAFEEBFFEE2C
:10341300242D1241406065123CD1AA18AB19121C2D
:10342300327408120B0F7403F09005B4120698124D
:1034330034821206989005C7E0F974041208D7EE97
:10344300FAEFFB1212EA7404120861E9F974DC69F9
:10345300602374DD69601E74E469601974F3696044
:103463001474DE69600F74DF69600A74E8696005CB
:1034730074DB697007EEFAEFFB1214A0022BE9EE7E
:1034830012348722242BF582E43FF583227403123E
:10349300086102454674F21203B18A088B09750C60
:1034A30000750D00750AE7A2AFE433F50BC2AF90C8
:1034B300044B800312325F12351C603512326E509A
:1034C300F312413D640170ECEE242FF582E43F12C8
:1034D30036CBE06870DE780C120833EEFCEFFD7A31
:1034E3004B7B04121AE27402120861900451E01437
:1034F300F0E50BA2E092AFEE4F6013EEFAEFFB1292
:10350300130279F0EEFAEFFB1214A0750A00A90A70
:10351300AA08AB091214A0800DE0FEA3E0FFEE4F52
:103523002274021208617F0602060F74F41203B1BB
:1035330074F71208F5EAFEEBFF8E828F83A3E06433
:10354300F370030235D88E828F83A3E064DF7003A8
:103553000235D88E828F83A3E064E860788E828FF1
:1035630083A3E064DB606E121344E9F508705EEE3A
:10357300240E12414060561235E212138CEA4B605E
:103583004C7408120B0F1235EC1206987508FF7570
:1035930009FF78081208338E828F83A3A3A3A3A302
:1035A300A3A3A3E0F974041208D71212EA74041255
:1035B3000861E9F50874F36508601274DF65086053
:1035C3000C74E86508600674DB6508700F8E828FE3
:1035D30083A3E508F0EEFAEFFB121350022A8CEEF8
:1035E300240FFAE43FFB7909227402125DC174FFD0
:1035F300F0A31235F9221235FD221248BCA3A322EF
:1036030074F51203B18A088B097E008A828B83A327
:10361300A3A3A3A3A3122A9640027EE88A828B83E4
:10362300A3A3A3A3A3A3A3A3A3A3E0C394104004AE
:103633007EE880138A828B83A3A3A3A3A3A3A3A35C
:10364300A3A3E0640F600A9004AFE0540870027E05
:10365300E8EA240BF582E435091236CBA3A3A3A32E
:10366300A3A3A3A3E0C398500CEA240B12315A641A
:103673000F60027EE89005B8E0F47003A3E0F470F5
:10368300027EEC7A237B00121B3C900432124DD451
:10369300900432124B576029850882850983A3A3BE
:1036A300A982AA8389088A09750A00780812082F53
:1036B3007C237D00124DC1121A8E7403120861809F
:1036C300027E1AEEF9025F62F583E0F88A828B8349
:1036D300A3A32274F51203B1EAFEEBFF8E828F835C
:1036E300A3A3A3A3A3A3A3A3E090059F125CA49009
:1036F30005BA125C8A90059A125CA99004D3F0F97A
:1037030012190E9004D3E06018EE2404FAE43FFB90
:1037130079501218F6EE2406FAE43FFB79E1121809
:10372300F69004D2122A826004740180027400901D
:103733000434125C9012082F7C0B7D007A357B04D5
:10374300121A8E7403120861EE2418F508E43FF58B
:1037530009780812082F7C0B7D007A407B04025FF6
:103763005A74F71203B1EAFEEBFF8E828F83A3E054
:103773007006124DC112134A8E828F83742C124429
:10378300AA1214AC02454674F71203B1EAFEEBFF2A
:10379300900432124B57600D124DC1900432E4F085
:1037A300A3F0121B428E828F8374081244AA122242
:1037B3005602454674F61203B19004D2E0601390AA
:1037C3000434E0700D1237D81212FCEA4B60031276
:1037D30013E002590490059AE0FB9005BAE0FA90D1
:1037E300059FE0F92274F41203B174E71208F5EAB5
:1037F300FEEBFF750B018E828F83A3A3A3A3A3A369
:10380300A3E0A2E25068EE242BF582E43F12642683
:103813001238A6121308E9705590809AE06401707B
:1038230005750B0080481238AE12082F7C0B7D0003
:1038330074111208CF121A8E74031208611214E263
:10384300E9FA740E1208C788088909780812083340
:10385300750830750900780812083312348212068D
:103863009812559A79011215007406120861851889
:103873008285198374101233F9120B0FAA82AB835A
:10388300121C261234821255C6740B120B0F124AE5
:10389300AF740D120B0FE50B12431D122256741950
:1038A300022A8EEE2413FAE43FFB22EE2408125C74
:1038B3009822C082C0839004D3E06003121554029F
:1038C300428CC082C0839004CA7411F0A37404F0C4
:1038D300A37415F0A37404F0A37421F0A37404F08B
:1038E3009018777453F0A37426F09004B474DEF048
:1038F300A37412F09004567414F0A37413F090049C
:1039030058741AF0A37413F09004AFE044028001DA
:10391300E4F002428CC082C083EAFCEBFD7903022F
:103923004928C082C083EAFCEBFD7905024928C01F
:1039330082C0837908025A95C082C08374FE12083C
:10394300F590045E74C8F0A37413F090046074C21D
:10395300F0A37413F0800D7A4B7B04121AD6124332
:10396300131214D090044B124B5770EB90044D126A
:103973004B57600F7A4D7B04121AD612431312145D
:10398300D080E990044BE4F0A3F0900451122A652F
:1039930074028002741112086102428C74F61203DD
:1039A300B1E9FF740629F582E4342AF583E493FE32
:1039B300FA7B00121AACEA4B6011EA2E124AA58A6E
:1039C300828B83A3A3A3A3E4F0802C7A027B00124F
:1039D3001AACEA4B601D74DA2FF582E43429F583BF
:1039E300E4938A828B83F0A3741AF09004AAE0F91B
:1039F300121AB87A007B00025904E9FC740629F80C
:103A0300EAA2E0501EE875F00A84E5F0F960147448
:103A13000A28C399F8E9C394054004740A28F87482
:103A23000B28F8ECC3941340047A1480027A06EA54
:103A33002879002409F85001097A0A7B00120261EF
:103A4300E8F9020813C082C0839004AFE054026017
:103A53000A12225CE9600479018002790002428C37
:103A6300C082C0839004AFE054026016900451E01A
:103A7300700C124B54600BE0C8123FF150047901F3
:103A83008002790002428CC082C083908097E0F864
:103A9300900453E0C3985005121AAC80047A007B5B
:103AA3000002428CC082C0831214D0790002428C7F
:103AB30074F71203B174FE1208F585188285198311
:103AC300EAF0A3EB123C22A3A3A3A3A3E0600A148E
:103AD300606024FE6069023BA390059FE0640F6071
:103AE300181214A6E97012851882851983124DC421
:103AF30090045A1240BB1205299005C7E0C0E08527
:103B03001882851983124886D0E0123C227414125D
:103B13005DBD1264287A4D7B04121AD0A8A8C2AFE7
:103B2300900453E004124DDA792012149A740202BD
:103B330034928518828519831259CA741580D085E9
:103B43001882851983123C05A3A3E060538518826C
:103B5300851983E02402F8A3E03400F9888289837D
:103B63001261FBE0C0E0851882851983E0FCA3E0C5
:103B7300CC2406F582E43CF583D0E0125606888215
:103B83008983124DD4851882851983123EED8518D9
:103B9300828519836013123C0A6005123C1240436C
:103BA300AA18AB191214D08084123C0A60F2123C9A
:103BB30012501C124001FA851882851983123C0C9D
:103BC300F8741B124AA0342AF583E4936A601485BF
:103BD3001882851983123C0A640870C41240016478
:103BE3000870BD12400114123C2A240AC0E0851853
:103BF300828519831240BBD0E0123C2A04023B1297
:103C0300E0F8A31248D322E0F8A3E0123C31228566
:103C130018828519831255D7123C32C3940A221293
:103C23003C3CF583888222123C3C123C3122C8245E
:103C330006F582E438F583E022125DC1E0F8A3E0E3
:103C430022C082C083900462124B5760081259CB82
:103C53001205298002790002428C74F71203B1EA3B
:103C6300FEEBFF122C287401F0EE2430F582E43FC2
:103C7300F583125334122C022432124140C0E0EE79
:103C83002413F582E43FF583D0E0F0EE24331241B0
:103C930040C0E0EE2414F582E43FF583D0E0F0EE7B
:103CA300242CF582E43FF583120698123CD1EE24CE
:103CB3002E124140F91214FA7402120861E9F50850
:103CC3007007EEFAEFFB1213E0A908024546EE2453
:103CD30023FCE43FFD22C082C0831214A6E96004E2
:103CE30079208002790102428CC082C083EA123EAD
:103CF300CF123D90D2E0023914C082C083123D8AB4
:103D030064017011123D95400C8A828B83A3E0F904
:103D13001214A0806FEA2410123D8DA2E650128A7D
:103D2300828B83A3E0F990045C1240BB12052980C7
:103D330053123D8A6401700D123D9550088A828B9F
:103D430083743080368A828B83A3E0641B8A828BE0
:103D530083700474228024A3E0700D123D8AF874EA
:103D6300E5124AA03429800B123D8AF874DA124A0C
:103D7300A03429F583E4938A828B83F09004AAE02C
:103D8300F9121AB802428CEA240DF582E43BF5835A
:103D9300E022EA123EF93BF583E0A2E32274F71234
:103DA30003B1E9FE124B547003023EC6EE60117478
:103DB3001B6E7013E0C8123EC964057003023E9186
:103DC3001259BAE4023E9574E96E7062123EE570D0
:103DD3000B122262E96005123EFF606279EE12184F
:103DE30078900454123EE2900454603B123F0290D8
:103DF3000454700B123EE214F0121A3A023EC61239
:103E03003EEDC2E712400D123EC96403700C125519
:103E1300D0123ECF123C37D2E2F079ED121878126D
:103E23003ED512052980751259BD74E9806474E189
:103E33006E703E122262E96055123EFF705090058B
:103E4300C1E0C0E01255D02412F582E438F583D0E6
:103E5300E0F09005B0E0C0E0900454123C03123C43
:103E630003D0E0F09005B0E004F07901121A22804B
:103E730052741C6E7018900454124DC49004641252
:103E830040BB120529900454E4F0A3F08035125985
:103E9300BAEEF0900454124DC41213CE1255D01240
:103EA30055A2E0548060109005C7E0F912193290D2
:103EB30005C6E0F9121926900454E4F0A3F0791032
:103EC30012149A024546240D123C34222411F58221
:103ED300E422900454124DC89004581259C422E0AD
:103EE300F8A3E0C82412123C3422E0F8A3E0C8127D
:103EF3003EF9123C37222410F582E4229004541236
:103F030055D71255A6E054042274F41203B1750A6E
:103F130000750B00A2AFE433FFC2AF124B54600332
:103F2300023FC91240B8120529E94410F890044B26
:103F3300800985080A85090B123FE4123FF97003D3
:103F4300023FC912314E586870E8780A120833AC40
:103F530008AD097A4B7B04121AE2740212086190CD
:103F63000454E508F0A3E50912400D123FF1405D4A
:103F7300900452E014F0EFA2E092AF900454E024D6
:103F83000EF8A3E03400F9880889098882F58312C2
:103F93004DC4900454124007F9121392E990044F50
:103FA300F0124015E0548090045460261255D32437
:103FB30013123C34F91219321255D02414123C3422
:103FC300F91219268018EFA2E092AF8011900451E4
:103FD30080A1123EEDA2E1B3E433F9121A22022AC0
:103FE30091E50824FBF582E50934FFF583222411CA
:103FF300123C34A2E722125FFFE508450922851827
:1040030082851983122E50A3E022F0900454125596
:10401300D722A3E4F08508828509832274F712036B
:10402300B1EAFEEBFF1214CAEE2410124140A2E3E0
:10403300400C12413D64017005908095800390808F
:1040430096E0F9EEFCEFFD7A4B7B04121AE8E96087
:1040530046EEFAEFFB90045E1240BB120529EE24F4
:104063000E12414054047020A8A8C2AF900452E03D
:1040730004124DBAFAE8A2E792AF1240AAA3E054A1
:104083000170211213DA801CEEFAEFFB9004561232
:1040930040BB120529800D8E828F83A374F11244D5
:1040A300AA1213CE0245461240AE22EE240EF5822A
:1040B300E43FF583229004601259C422C082C08376
:1040C3001213DA02428C74F71203B1EAFEEBFF79A2
:1040D300009004AFE05402700CEE243012414054BF
:1040E30004600279E89004AFE05460700CEE243071
:1040F3001241405402600279E88E828F83A3A3A306
:10410300A3E0F890809BE0C398500279E8EE242E58
:10411300124140700CEE242B124140700479F5805B
:104123000BE970051213BCE9F9E96007EEFAEFFB3E
:104133001214A002454634FFF509EE240DF582E47E
:104143003FF583E022C082C0838A828B83740DF0A3
:1041530012225602428CC082C0838A828B83E4F08F
:10416300A3F0EA2430123D8D54049080957012E040
:10417300F8900452E0C398401279F11214A002425D
:104183008CE0F8900451E0C39850EE9004AAE0F953
:10419300121AB880E974F61203B1E9FE244CFAE46A
:1041A3003400FB121AACEA4B6012EE8A828B83A3B3
:1041B300A3A3A3F0EA244C124AA580047A007B004F
:1041C300025904C082C0839004667428F0A3741457
:1041D300F0A37458F0A37414F0A3742EF0A3741412
:1041E300F0A37434F0A37414F0A37452F0A3741402
:1041F300F0A37446F0A37414F0A37440F0A37414F2
:10420300F0A3745EF0A37414F0A37464F0A37414A5
:10421300F0A3746AF0A37414F0A37476F0A3741477
:10422300F0A3743AF0A37414F0A37422F0A37414EB
:10423300F0A3741CF0A37414F0900482744CF0A3E4
:104243007414F0A37470F0A37414F0A3748AF0A32D
:104253007415F0A3747CF0A37414F0A37482F0A318
:104263007414F09004A6E4F09004A9F09004921260
:1042730042837402F090049B124283740102391446
:10428300749AF0A37414F0A322D083D0820208138B
:1042930074F51203B174F11208F585188285198338
:1042A3007402F07401120B0FE9F060047AFF7BFFD4
:1042B3007402120B0F124DD475089E750904750A0A
:1042C30000780812082F7C0B7D007407120B0FAACD
:1042D30082AB83121A8E7403120861AA18AB1912E7
:1042E3002256740F025F5F74F71203B174FD120854
:1042F300F5851882851983740AF07401120B0FE98E
:10430300F07402120B0FEA12431D1222560234906C
:10431300851882851983EAF0A3EBF0AA18AB19225A
:1043230074F61203B174F71208F5EAFEEBFF1243B9
:1043330073122C20740212449BAA18AB19121C2668
:10434300EE242E122BEE24301253A11208337402E2
:104353001208D779831A1AEFFB1214FA740212089F
:1043630061E9F5087007EEFAEFFB1213E00258FD5E
:104373001240AE74012274F01203B1125E48120AA5
:10438300A07808790C1202C2780812082B7A957B60
:1043930004022E7374F41203B174C61208F5900567
:1043A3009FE0640F6010851882851983742E124371
:1043B3001D1214AC80277A8C7B041215D2122A9F0B
:1043C30012026988088909E4F50AF50B78081208CE
:1043D3002B7A8C7B041215C67404120861743A029A
:1043E3002A8E74F51203B1EAFEEBFF8E828F83A34C
:1043F300E0F86003024484EE242D1241406402601D
:1044030007E06403600278E8EE2423F582E43FF5D5
:1044130083122A98400478E8806AE87064EE2423C3
:10442300FAE43FFB79E11218F6EE242EFAE43FFB9F
:1044330079501218F6EE242D1241406402700E12C8
:1044430055901255C69005AE124AAF80129005AE34
:1044530074FEF0A30412449B7AA57B05121C32EE72
:1044630024181238B112082F7C0B7D007A9E7B042E
:10447300121A8E7403120861EEFAEFFB121416E996
:10448300F8E86011E88E828F83A31257F274171233
:1044930044AA1214AC025F62F0EE2425FCE43FFD53
:1044A300228E828F837429F0EEFAEFFB2274F612C8
:1044B30003B174F71208F59004A9E0703B7401F09E
:1044C300F91219ECAA18AB191214DC75089E7509B8
:1044D3000478081208337508017509007808120872
:1044E300339005B412069874061208D77A03790537
:1044F30012150074061208610258FF74F71203B113
:10450300EAFEEBFF79011219F28E828F83E06420B9
:104513007004A374EBF09004A9E0A2E25003C2E29A
:10452300F0E0A2E15008124748121410800C8E826A
:104533008F83742A1244AA1214AC8007EEFAEFFB9D
:104543001215487F0102060F74F41203B174FE12B0
:1045530008F5EAFEEBFF79011219F27A8C7B04125B
:1045630015D27A957B041215D2124892851882854A
:1045730019831248C6E0F50B700FAA18AB197953CB
:104583001218F6125FEF1218F61238AE12082F7CCB
:104593000B7D007A9E7B04121A8E740312086185C8
:1045A3001882851983124DC4A90B12140A9004A909
:1045B300E0A2E1500C7A008E828F83A3E0F91214FB
:1045C300109004A9E4F07402022A8E74F71203B166
:1045D300EAFEEBFF8E828F83A374EBF09004A9E0D5
:1045E300A2E150077A0079EB121410EEFAEFFB12F6
:1045F300144602454674F71203B1EAFEEBFF790154
:104603001219F27A8C7B041215D27A957B04121557
:10461300D29004A6E4F09004A9F07AFF7BFF8E8287
:104623008F83A3E0F912140A02454674F71203B10B
:10463300EAFEEBFF12144002453F74F71203B1EA9E
:10464300FEEBFF79011219F28E828F83A3A3A3A33A
:10465300E060047400800274EB12468F5003C2E2E0
:10466300F0E0A2E150081247911214108014A2E066
:1046730050108E828F83742AF0A374EB1244AA1213
:1046830014ACEEFAEFFB1213F20245468E828F83CF
:10469300A3F09004A9E0A2E22274F61203B1EAFEA9
:1046A300EBFF9004A9E0D2E1F079011219EC8E82BC
:1046B3008F83A3E0703C1214E2E9FAEE240DF508AF
:1046C300E43FF50978081208337508017509007885
:1046D30008120833124706120698EE2402FCE43F40
:1046E300FD79051215007406120861E98E828F8325
:1046F300A3F08E828F83A3E060067A00F912141070
:1047030002590412470A22EE240BF582E43FF58393
:104713002274F71203B1EAFEEBFF79011219F28E4C
:10472300828F83E064207004A374EBF09004A9E00B
:10473300A2E25003C2E2F0E0A2E15006124748129F
:104743001410024546C2E1F07A008E828F83A3E003
:10475300F92274F71203B1EAFEEBFF79011219F2A1
:104763007A8C7B041215D28E828F83A3A3A3A3E03A
:1047730060047400800274EB12468F5003C2E2F0AF
:10478300E0A2E15006124791121410024685C2E1DD
:104793001235F9A3E0A2E4E433FA8E828F83A3E017
:1047A300F92274F71203B1EAFEEBFF79011219F251
:1047B3008E828F83A374EB1246945003C2E2F0E01F
:1047C300A2E1500612474812141002454674F7122C
:1047D30003B1EAFEEBFF7A8C7B041215D2EEFAEFFB
:1047E300FB12146A02453F74F71203B1EAFEEBFFB2
:1047F3007A8C7B041215D2EEFAEFFB12146A02458F
:104803004674F71203B174EF1208F5EAFEEBFF12D8
:10481300559A7AA57B05121C20E96062851882856A
:1048230019837409F07401120B0F74EFF01248929C
:10483300F87402120B0FE81248C6A3A3E0C0E07499
:1048430004120B0FD0E01248B3640870158E828FE8
:1048530083A3A3124886E0C0E07405120B0FD0E0D7
:1048630080067405120B0FE41255F97406120B0F30
:10487300AA82AB83121512AA18AB1912225674110D
:104883000234921255D72407F582E438F5832212B5
:1048930048A8FB8A828B831255CA88828983E0FCED
:1048A300A3E0F9EC22EE2402F8E43FF9E8FAE92266
:1048B3001248B7221248BCE022F08E828F83A3A352
:1048C300A3A322F0A3E91255E81248D022E0F8A3EB
:1048D3001259CBA3A322C082C08312155402428C67
:1048E300C082C0839004C67466F0A37404F0A374FA
:1048F30082F0A37404F09018717479F0A37427F014
:10490300A374B5F0A37426F09004B27404F0A374F6
:1049130014F09004AFE04401023914C082C083EA6A
:10492300FCEBFD79021214B802428C74F61203B147
:1049330074FE1208F59004AB124B5760077AAB7BF9
:10494300041214D09004B1E4F0900531124B576077
:10495300268007AA18AB191214D09004AAE0F91202
:104963001AC48A088B09A808A9098518828519839E
:10497300124AAFE84970DC740202590174F712035A
:10498300B1E9FA7B009004AAE0F9121AEE02454657
:1049930074F71203B174F01208F5EAFCEBFDE9FEBB
:1049A3008C828D83E0F874F0124AA03429F583E4F5
:1049B30093C0E07401120B0FD0E0F0640B700DEEA6
:1049C3008C828D83A3F0121536024A93E0700302A2
:1049D3004A93640C6003024A84741A6E700B740465
:1049E300120B0FE4F0A3024A837404120B0FECF0D2
:1049F300A3EDF0EC242F124A98C0E07403120B0FBE
:104A0300D0E0125B5B120AC87406120B0F120ABCC9
:104A13008C828D831255BD740A120B0F124AAFECB0
:104A2300240E124A9854106009851882851983E46C
:104A33008013EC2412124A98F89005C1E0C39885BC
:104A43001882851983F0E0C0E0740C120B0FD0E0DC
:104A5300F0EC2415124A98C0E0740D120B0FD0E04D
:104A6300F0EC2416124A98C0E0740E120B0FD0E03B
:104A7300F0EC2417124A98C0E0740F120B0FD0E029
:104A8300F07402120B0FEEF074011208CF122256CB
:104A93007410023492F582E43DF583E02228F58216
:104AA300E422F8E43BF98A828B83A3A3E8F0A3E929
:104AB300F022C082C0839004B1E0640370047901E2
:104AC3008002790002428C74F71203B19004B1E0C2
:104AD300124B411264268A828B83E0C2E7F025E001
:104AE300F8EC124AA03DF583A3E493FE124B41F583
:104AF30083124B576005EE9004B1F08A828B83E0FA
:104B0300124B4DEC28F582ED39F583E493FCC45444
:104B13000F25E0F874C0124AA03404F583124B57F2
:104B230070051215248014EC540F25E0FCE82CF5D5
:104B330082E439F5831240BB120529024546124B24
:104B43004D746F28F5827418392225E0F8E433F99F
:104B5300229004541255CAE8492274F11203B17425
:104B6300FE1208F5890AEAFEEBFF124C59FA7B00A4
:104B7300121AAC8A088B09EA450960388A828B834A
:104B8300E50AF0A3E4F08E0C8F0DF50E780C1208F5
:104B93002FA80A124C66EA2402FAE43509FB121A1A
:104BA3008E7403120861AA08AB099004AAE0F912F3
:104BB3001AB88012851882851983E50AF0791AAA32
:104BC30018AB191214A07402120861022CFE74F2BD
:104BD3001203B174FE1208F5890B8A088B09124C73
:104BE30059F50AFA7B00121AAC8A0C8B0DAE0CAF86
:104BF3000DEE4F604A8E828F83E50BF0A3E4F0A89D
:104C03000AEE28F8E43FF98E828F83124AAD8E8232
:104C13008F83A3A3A3A3E4F0F50A780812082FA8AF
:104C23000B124C66123011121A8E7403120861EEC5
:104C3300FAEFFB9004AAE0F9121AB8790080148500
:104C43001882851983E50BF0791AAA18AB19121487
:104C5300A0791A02352474FB29F582E43429F583FB
:104C6300E49322741128F582E4342AF583E493FC57
:104C73007D0022C082C083E99004AA02391474F62D
:104C83001203B174FE1208F5EAFEEBFFEE54207036
:104C9300378040A8A8C2AF900453E014124DBAF570
:104CA30008E8A2E792AF8A828B83124DB19004ADDC
:104CB300124DD41214AC851882851983E0641560F3
:104CC300077AAD7B041214D07A4D7B04121AD6EA0C
:104CD3004B70C0EF54807012801C9004AD124DD401
:104CE3001214AC7AAD7B041214D09004AAE0F9122A
:104CF3001AC4EA4B70E4EE5410600E8518828519CD
:104D030083742D12431D1214ACEEA2E0500E8518CD
:104D130082851983742412431D1214ACEE5402606D
:104D23000E851882851983742512431D1214ACEE67
:104D33005404600E851882851983742612431D124C
:104D430014ACEE5408600E851882851983742812FA
:104D5300431D1214ACEE544060107401120B0F1279
:104D63005DBC742C12431D1214ACEE54806010749D
:104D730001120B0F125DBC742F12431D1214AC9061
:104D830004AB124B576020A8A8C2AF9004AB124DDE
:104D9300C49004ABE4F0A3124DDA124DD31214AC59
:104DA3007AAD7B041214D07A007B0002497AE08545
:104DB3001882851983F022F0E8A2E7E433229004F5
:104DC30032124DC822E0FAA3E0FB22A3A3A3A3A3BC
:104DD300A3EAF0A3EBF022124DBAFEE8A2E792AFEA
:104DE30022C082C0839004AD1255C6EA687002EBFC
:104DF3006970079004ADE4F0A3F002428C74F712DB
:104E030003B1EAFEEBFFEE4F700312171CA2AFE4EF
:104E130033F508C2AF8E828F83124B576028E82484
:104E2300FBFAE934FFFB9004AD126428E86C7002CE
:104E3300E96D70079004ADE4F0A3F08E828F83E4F4
:104E4300F0A3F0121B420232E3C082C0839004D469
:104E53007418F0A37415F0A3742AF0A37415F0A3C7
:104E63007430F0A37415F0A374ECF0A37413F0A3DF
:104E73007436F0A37415F0A374E6F0A37413F0A3CF
:104E830074F2F0A37413F09004E27466F0A3741543
:104E9300F0A3743CF0A37415F0A37442F0A374154B
:104EA300F0A3744EF0A37415F0A37448F0A3741523
:104EB300F09004D3023913C082C0839005AEE0643E
:104EC300FE7003A3E0F470097CA57D05121C268007
:104ED300158A828B83A3A3A3A3A3A3A3A37402F022
:104EE30012503C124AAF02428CC082C0839005B874
:104EF300C3E094FEA3E094FF4004790380027902A7
:104F030002428CC082C0831250478C828D83124F21
:104F1300FC687039740268701C8A828B83124F5547
:104F2300E06870298A828B83A3124F55A3E06870CF
:104F33001C7901801A7403687013EC2405FC50017A
:104F43000DEA2405FA50010B121C2C800279000291
:104F5300428CA3A3A3A3A3E0F88C828D83A3A3A372
:104F6300A3A32274F61203B17E00740A120B0FE09E
:104F7300124FF0FF8A828B83A3A3A3A3A3A3A3A3AC
:104F8300E06F706474026F704E8A828B83C082C03C
:104F93008388828983A3A3A3A3A3E0F508888289D6
:104FA30083A3A3A3A3A3A3E0FBAA08D083D082E097
:104FB3006A7003A3E06B703088828983A3A3A3E0A4
:104FC300FA88828983A3A3A3A3E0F9EA6C7002E9B8
:104FD3006D70157E01801174036F700CE82405FC5D
:104FE300E439FD121C2CE9FEEEF9025904F8A3E0A2
:104FF300F988828983124FFC22A3E01313543F5490
:105003000322C082C0838A828B83A3A3A3A3A3A307
:10501300A3A3E06402701412503CE0687003A3E0A1
:105023006970047901800F7900800BEAFCEBFD7A4B
:10503300A57B05121C2002428C9005AE1255CA8A2C
:10504300828B83228A828B83124FFCF82274EC12A8
:1050530003B1EAFEEBFF8C128D13750A008C828D6F
:1050630083A3A3A3A3A3A3A3A3E0F510E9A2E750FB
:1050730008750CFF750DFF80069005B412528CE97C
:10508300C2E7F511EE240E1241405420600712527C
:105093006D7408800412526DE41252945404600734
:1050A3001252757480800512527574101252945402
:1050B300106006125245E4800B9005C1E0C0E01277
:1050C3005245D0E0125294A2E05003750A205408CE
:1050D30060067410450AF50A8E828F83A3A3E02429
:1050E300FFF508A3E0124139C39402E0400B640BBF
:1050F3006005E0141230217403450AF50A750B00AC
:105103009005D4E0640170118E828F83A3A3A3A3BF
:10511300E0C394674003750B1085110E750F00747F
:105123000E780E120999E50F450BF50B7414120B4B
:105133000FE0F50EA3E0F50F74026511700E9005F4
:10514300B91230209005B81252838013740365118D
:10515300701212524F7CC87D05AA08FB121C321232
:10516300525C8004E5116028E5106014E50E650CBF
:105173007004E50F650D70087440450AF50A801048
:10518300850882850983E50D12529AE50C123027B2
:1051930085100C750D00740A780C120999E50D45FC
:1051A3000BF50B740265107015851282851383A3AA
:1051B3001230208512828513831252838013740365
:1051C3006510701212524FAC12AD13AA08FB121CD9
:1051D3003212525C8004E5106010850882850983D1
:1051E300E50F12529AE50E123027A808A909E82400
:1051F300FFF508E912413970059005A48003900575
:10520300B0E0FA04F0EA88828983124017E50B12B2
:10521300529AE50AF0EE2404F8E43FF9122D0DAC9E
:10522300088A828B83E0F50A88828983E0250AC392
:105233009C1255E4ECF0A3E509125760E4F0F9027F
:105243002A72EE2412F582E43FF58322E50824F95D
:10525300F508E50934FFF5092212526022E5082416
:10526300FFF508E50934FFF50922EE123EF93FF593
:10527300832212527922EE2411F582E43FF5832230
:10528300E0850882850983F022E0F50CA3E0F50DA3
:1052930022F01240AEE02212302B850882F58322E1
:1052A30074EE1203B1890A8A0B8C108D11750C1AD6
:1052B3007416120B0F125FFBAA08FB12138C8A0ED3
:1052C3008B0FAE0EAF0FEE4F60607414120B0F1204
:1052D3005334E8F0A3E9122C23E50AF085080C8582
:1052E300090D750E00780C12082F12300D121A8E4C
:1052F30074031208617412120B0F120698AC10ADEE
:1053030011A90BEEFAEFFB1214FA7402120861E909
:10531300F50C7016E50A24F9600314700612309434
:10532300D2E5F0EEFAEFFB1213E0A90C7F0A0206B6
:105333000F1259D91240AF2274F61203B174F71247
:1053430008F5EAFEEBFF7801EE242F1241406002DC
:1053530078051240AAE8122C207404125394121CEC
:1053630026EE242C122BEE242E1253A11208337492
:10537300021208D779031A1AEFFB1214FA740212F5
:105383000861E9F5087007EEFAEFFB1213E0025823
:10539300FDF0EE2423FCE43FFDAA18AB1922F582AD
:1053A300E43FF583122D381248B704F078082274CD
:1053B300F21203B18A088B09ECFEEDFF8A828B831C
:1053C3007405F0EE24321241408A828B83A3A3F04A
:1053D300EA2403F50AE43509F50B850A82F58312FD
:1053E300528C125590120AC8E50C123ECF350DF5BA
:1053F30083120ABC12559AAA0CAB0D121C26850AFD
:1054030082850B831259D1FAA3E0FB88828983A397
:10541300A3A3124DCEEE242F124140C0E01255AF8C
:10542300D0E01255EE2415F582E438F583E41255E5
:10543300EE1255A2E41255F9850A82850B83E02406
:1054430016FAA3E03400FB1215128E828F83A3A3F6
:10545300A3A3A3A3A3E0C0E0850A82850B8312550F
:10546300D3240DF582E438F583D0E01255DDFAA399
:10547300E0FB850A82850B831255C6E8240BFCE406
:1054830039FD8A828B83E08C828D83F0A3E41256EC
:1054930006E0F50B8C828D83A3E0450B1255E4A344
:1054A300E0FCA30A0AAB83A2E7E433C0E0E8240FDD
:1054B300F582E439F583D0E0F074075C6004780189
:1054C3008002780075F00374075CA428F8EA28FAD0
:1054D300E43BFBE5082405F8E43509F98A828B836C
:1054E300122D38125606850882850983124DCE88FF
:1054F300828983E0F50A540725E0FCE50AC4540FCA
:105503005407F50A750B007403780A120999EC2500
:105513000AF8EA28F8E43BF9850882850983A3A3FE
:10552300A3A3A3A3A3A3A3E8F0A3E91248B3FA8E0A
:10553300828F83A3A3E02AFAA3E03400FBC3EA9893
:10554300EB9940308E828F83A3A3E0F88508828590
:105553000983A3A3A3A3A3A3A3A3A3E0FA8E828F88
:1055630083A3A3A3A3E0C39A28850882850983A301
:10557300A3A38010850882850983A3A3A3A3A3A360
:10558300A3124015A3A3A3A3A3F0023529EE242558
:10559300F582E43FF58322EE2413FCE43FFD22125F
:1055A30055A622240EF582E438F583221255B32240
:1055B300E82410F582E439F58322A3A3A3A3A3A3CC
:1055C300A3A3A31255CA22E0F8A3E0F9229004543E
:1055D3001255D722E0F8A3E0C8221257F2A3A3E0A2
:1055E300221255E822F08A828B8322F0850A828573
:1055F3000B831255D722F01255FE22EE2408FCE449
:105603003FFD221255E8A3AA82AB832274F512034D
:10561300B18C088D09750A00780812082F7C0B7D60
:1056230000025F5A020813C082C08379181214A0C3
:1056330002428CC082C0838A828B83E0C3940B5066
:105643000312151E02428CC082C083791980DE7456
:10565300F71203B1EAFEEBFF9004AB124B57601055
:105663009004AB124DC412152A7AAB7B041214D0EA
:10567300EEFAEFFB1214CA9004ABEEF0A3EF800234
:10568300F0A3F002454674F71203B174DE1208F575
:10569300EAFEEBFF8E828F83E024FD601124FE601F
:1056A3001524ED600924FA600D14600A803D741618
:1056B300120B0FE480077416120B0F7401F0123CE7
:1056C300D1740B120B0FAA82AB83121C3274131208
:1056D3000B0F125765120B0F124AAF740A120B0FFE
:1056E300125771120B0F124AAF80427416120B0F2E
:1056F3007402F012559A740B120B0FAA82AB831229
:105703001C327413120B0F125765120B0F124AAF90
:10571300740A120B0F125771120B0F122C0212552F
:10572300FF7417120B0FAA82AB831215128518820E
:10573300851983740B125760E0C0E07401120B0FDC
:10574300D0E01255F97417120B0FAA82AB8312150E
:1057530012AA18AB1912225674220234921257F26B
:10576300A3227403F09005B81255CA74022274027E
:10577300F09005B41255CA74142274F71203B1EAF7
:10578300FEEBFF8E828F83A3E0F5087036EE242CA8
:105793001257F87003A3E06960037508E8EE242349
:1057A300FAE43FFB1214F4E96032EE242FF582E4AD
:1057B3003FF583E4F0E508700AEEFAEFFB121506F5
:1057C300E9F508E50860128E828F83A3E508125776
:1057D300F274191244AA1214AC024546EE242F1295
:1057E300414060D19004D2E070CB7508E880D8F0D6
:1057F3008E828F8322F582E43FF5831255CA90058A
:10580300B4E06822C082C08374F11208F5740212F6
:105813000B0F74041255E4A3E0C0E07403120B0FE2
:10582300D0E0F0EA242CF582E43BF5831255C674EC
:105833000D120B0F124AAFEA2423FCE43BFD740460
:10584300120B0FAA82AB83121C267404120B0FAA2D
:1058530082AB831214F4E9600E1258771218F69093
:1058630005AE74FFF0A3F074021208CF122256742F
:105873000F02399985188285198374FFF0A3F0AA62
:1058830018AB1979532274F61203B174E81208F5B0
:105893008A088B097402120B0F7403F0EA2413FEB7
:1058A300E43509FFEEFCEFFD7404120B0FAA82AB83
:1058B30083121C32123163C0E0740C120B0FD0E060
:1058C300F0E5082408FCE43509FD740D120B0FAA5A
:1058D30082AB83121512EEFAEFFB1214F4E9600E99
:1058E3001258771218F69005AE74FFF0A3F0740205
:1058F3001208CF12225674188004A90874091208DA
:10590300617F0202060F74F61203B174D41208F514
:10591300EAFEEBFF8E828F83A3A31259BDE0A2E6BA
:1059230050179005B41259D1687003A3E069700948
:105933009004D3E06041121554740B1208C774032A
:10594300120B0F125F4C12150C8518828519837484
:105953002B12431D1214AC900599E06008740812D1
:105963000B0FE0600E851882851983740512431DA1
:10597300122256742C80879005BDE060BC1238A6B5
:105983001214F4E970B3EE2408F508E43FF509783E
:105993000812083375080175090078081208339056
:1059A30005B41206987CA57D057A037906121500C5
:1059B300740612086180BC9004541259C4A322A334
:1059C300A31259C822E0F8A3E0F583888222125972
:1059D300D9123487E022E0F8A3E0F9EE22C082C0B6
:1059E3008374EF1208F58518828519837409F0749E
:1059F30001120B0F74EE12431D12225602399774D3
:105A0300F71203B1A2AFE433FFC2AFE96003121888
:105A1300E41218729005C7E0F91219329005C6E036
:105A2300F91219269004D3E0F912190E9005B41255
:105A33004DC41219149005B8124DC412191A7AC81C
:105A43007B051219207E00125A86124B57600912E9
:105A53005A861240BB1205290EEEC3940740E81282
:105A630015A21214949004ECE4F01213861214D6C7
:105A73007AB77B0579521218F6EFA2E092AF79005C
:105A8300024546EE124B4D74B228F582740439F583
:105A930083221214B202428CC082C0839004ED743C
:105AA30072F0A37415F0A37490F0A37415F0A374AB
:105AB30096F0A37415F0A37478F0A37415F0A3748F
:105AC30084F0A37415F0A3747EF0A37415F090040E
:105AD300C074D4F0A37404F0A374E2F0A37404F0CC
:105AE300A374EDF0A37404F09004AFE4F0A3F012F8
:105AF300186C02428C02081374F71203B1EAFEEB2E
:105B0300FF8E828F837407125B56E08E828F83A38E
:105B1300A3125B56A3A3E08E828F83A3A3A3125B7E
:105B230064A3A3120AC88E828F83A3A3A3A3120A1A
:105B3300BC8E828F83A3A3A3A3A3A3A3A3E4F0ECAC
