:020000040000FA
:06000000020A7202020672
:03002B0002074782
:0300530002013B6C
:1000830002019A010105030101FF0F10FEFF612523
:1000930000000000352400000000FF000000FF0006
:1000A300011020202020202020202020202020207C
:1000B3002020010020FD000206FF01040151000081
:1000C300056B8001228126162C160000000000001B
:1000D3003816901B00000000000000000000000024
:1000E3000000000000000101010400F216000000FE
:1000F300E8030000FFFFBD17E8030000640064008D
:10010300B801A0BB0D00A0BB0D00020200F8FF0761
:100113000502070401051E02051E020A0A01020860
:100123000803B80B02803E0102FEFFE8030A050044
:1001330001FFFF010A1401E0C0E074F112041DA2E3
:10014300AFE433F509D2AF85A708AFA1EF5508FE99
:1001530074105E60061217DC75A1EF74085E600808
:100163001217E275A1F78024EFA2E092F0E508A24E
:10017300E082F05017906198E0F8900587E0C3980B
:10018300A2D265D0335002E8F075A1FEE509A2E0E2
:1001930092AF7F0202047CC0E074F212041DA2AF8E
:1001A300E433FED2AF9061A4E0F8759B00E591586B
:1001B300540860087591F712182A8023E591585462
:1001C3001060087591EF1218308014E591A2E09247
:1001D300F0E8A2E082F05007E0C2E0F0121962906A
:1001E30061A3E0F8E5E9585404600E12194475E977
:1001F300FB906193E0A2E640F2EEA2E092AF7F01B2
:1002030002047CC0E074F212041DA2AFE433FED2F8
:10021300AF9061A5E0F8E5BF585404600675BFFBD5
:1002230012197480D4C3E498F8E499F9120269802E
:1002330026C3E49AFAE49BFBE920E7E9120269E4A6
:1002430098F8E499F922C3E498F8E499F912026959
:10025300E498F8E499F9C3E49AFAE49BFB22EB20CF
:10026300E7CFE920E7E0B90010BB0008E88AF08493
:10027300F8AAF022E4FBC8FA22EB70227B10C83301
:10028300C8C933C9335007C39AC3DBF280069A50F7
:10029300012ADBEAC833F4C8C933F4C9FA2275F07A
:1002A30008E4C833C8C933C933C99AC99B5004C9C0
:1002B3002AC93BD5F0ECFBC833F4C8E4C9FA2208D9
:1002C3000808EAC0E0EBC0E086F0E7A4FA18098664
:1002D300F0E7A42AFA180986F0E7A42AFA1809868F
:1002E300F0E7A42AFA1986F0E7A4FBE5F02AFA1945
:1002F3000886F0E7A42BFBE5F03AFA190886F0E745
:10030300A42BFBE5F03AFA18180986F0E7A4C5F028
:100313002BFBE43AFA1908E7C5F0C6A426F6E5F084
:100323003BFBE43AFA1886F0E7A4F6E5F00826F674
:10033300E43B08F6E43A08F6D0E0FBD0E0FA22E426
:10034300CFC0E0E4CEC0E0E4CDC0E0E4CCC0E075D3
:10035300F020E626F608E633F608E633F608E63339
:10036300F6181818EC33FCED33FDEE33FEEF33FFD4
:10037300C3EC9709ED9709EE9709EF9719191940FF
:100383000FFFEC97FC09ED97FD09EE97FE1919068F
:10039300D5F0BFECF709EDF709EEF709EFF71919F7
:1003A30019D0E0FCD0E0FDD0E0FED0E0FF2225181C
:1003B300C582C0E0E51934FFC583C0E0E518C395E5
:1003C3008224F810AF0885831985821880088583F5
:1003D30019858218D2AFCEF0A3E520F0A37808E602
:1003E30008F0A3DEFAEFF0A3E58124FAF8E608F0BB
:1003F300A3E608F0A3E608F0A30808E608F0A3E6DE
:1004030008F0A315811581D0E0FED0E0F815811521
:10041300811581E8C0E0EEC0E022C0D02518C58276
:10042300C0E0E51934FFC583C0E0E518C395822415
:10043300F310AF0885831985821880088583198591
:100443008218D2AFC8F0A3E9F0A3EAF0A3EBF0A3BC
:100453007908E709F0A3D8FAECF0A3EDF0A3EEF0E6
:10046300A3EFF0A3D0E0F0A3D0E0F0A3D0E0F0A39B
:10047300E520F0A3E5F0F0A322851983851882E037
:10048300C0E0A3E0F9A3E0FAA3E0FBA37808E0F659
:1004930008A3DFFAE0FCA3E0FDA3E0FEA3E0FFA3D3
:1004A300E0C0E0A3E0C0E0A3E0F5D0A3E0F520A323
:1004B300E0A3F5F010AF08858319858218800885BD
:1004C3008319858218D2AFD082D083D0E0F8D0E0F0
:1004D30032120B04B90003020513E490030178629E
:1004E30079168002F0A3D8FCD9FA7A627B189000BF
:1004F3008678B679018015E493A3AD82AE838A82B0
:100503008B83F0A3AA82AB838D828E83D8E9D9E74C
:100513007582A77583C0740512080D7582327583C1
:1005230022740012080DE4730A75F0108E1A8F1BE3
:1005330085821F85831E851882851983E0CEA3E0FB
:10054300CF851F82851E83EBC9EAC8EDCBECCAC3F6
:10055300E833C8E933C9EA33CAEB33CBC3EA9EF5C0
:100563001DEB9FF51CB35004AB1CAA1DEC33CCED63
:1005730033CDD5F0DAAE1AAF1B22D083D082ECC0D4
:10058300E0EDC0E0E493A3FCE493A3FDED4C600D28
:10059300120655EC24FFFCED34FFFD80EFE493A33A
:1005A300FCE493A3FDED4C600D1206F2EC24FFFC7A
:1005B300ED34FFFD80EFD0E0FDD0E0FCE493A3C079
:1005C300E0E493C0E022D083D082E9C0E0E493A3C7
:1005D300C386F0C5F095F0F908E493A386F0C5F05F
:1005E30095F0700BE493A3C3994005E9048002A33B
:1005F300E475F002A42582F582E5F03583F583D016
:10060300E0F9E493A3C0E0E493C0E0228519838575
:100613001882E0A3FEE0A3F5207808E0A3F608DF44
:10062300FAE0A3FFE0A3C0E0E0A3C0E0E0A3C0E0E2
:10063300E0A3C0E0E0A3C0E010AF08858218858383
:10064300198008858218858319D2AFD083D082029E
:100653000813C0E0C3E49396087401939618400FFF
:10066300E49366700808740193661870007019A308
:10067300A3C3E49396087401939618A3A3400DD0E3
:10068300E0D0E0D0E00205B9A3A3A3A3A3A3D0E0E5
:10069300227404800474028000CCC0E0EDC0E0E565
:1006A30018C39CCCAD1950011D10AF068C188D19C1
:1006B30080068C188D19D2AF12078FD0E0FDD0E0E1
:1006C300FC2274028000CCC0E0EDC0E0E518C39CBE
:1006D300CCAD1950011D10AF068C188D1980068CF6
:1006E300188D19D2AF12076DD0E0FDD0E0FC22C007
:1006F300E0C0F088F0E4936670080874019366180C
:100703007000A8F0A3A3700BD0F0D0E0D0E0D0E04D
:100713000205B9A3A3D0F0D0E022D083D082CCC00D
:10072300E0E493A360061207B01470FAE493A360A5
:10073300061208DF1470FAD0E0FCE493A3C0E0E4EF
:1007430093C0E022C0E0C0D0E8C0E0E9C0E0A9A8BF
:10075300D2AFC2C7E9A2E7E433F8E9A2E792AFD088
:10076300E0F9D0E0F8D0D0D0E032CAC0E0E493A3FF
:10077300C582CCC582C583CDC583F0A3C582CCC554
:1007830082C583CDC583DAE5D0E0CA22CAC0E0E0E2
:10079300A3C582CCC582C583CDC583F0A3C582CC56
:1007A300C582C583CDC583DAE6D0E0CA22C0E0E4C2
:1007B30093A3D39C5010E493A3C39C400AD0E0D0EE
:1007C300E0D0E002073AA3A3A3D0E022C008C3E02D
:1007D30096F50808A3E096420808A3E096420808A5
:1007E300A3E09645087001D3D008227009080808D1
:1007F300226016181818C6C333C608C633C608C6FF
:1008030033C608C633C6D5E0EA22C09FF59FE4731A
:10081300D09F22D083D082C09FE493C0E074019321
:10082300C0E0740293F59F227404800A7403800667
:10083300740280027401C0E0F404120846D0E0128E
:100843000AAF222518F58210AF08F518400C1519C8
:100853008008F51840021519D2AF8519832200C00C
:10086300D0251810AF08F518500C05198008F51895
:1008730050020519D2AFD0D022BB0102E722C082B9
:10088300C08389828A83BB0003E08002E493D08320
:10089300D082226016080808C6C313C618C613C63A
:1008A30018C613C618C613C6D5E0EA22C3E0C69617
:1008B300F608A3E0C696F608A3E0C696F608A3E0FA
:1008C300C696F6222518F8E43519F9222518FAE414
:1008D3003519FB222518FCE43519FD22C0E0E49309
:1008E300A36C7009D0E0D0E0D0E002073AA3A3D014
:1008F300E022251810AF08F518400C15198008F5EB
:100903001840021519D2AF22C3E09608A3E0960857
:10091300A3E09608A3E096A2D265D03322E06670E6
:100923001008A3E066700A08A3E066700408A3E059
:100933006622E76670100809E766700A0809E76629
:1009430070040809E76622C3E096F008A3E096F076
:1009530008A3E096F008A3E096F022C3E697F60812
:1009630009E697F60809E697F60809E697F622C31B
:10097300E49396087401939608740293960874039B
:10098300939622E627F60809E637F60809E637F6CE
:100993000809E637F622700422600D18C6C333C671
:1009A30008C633C6D5E0F41822E493F6087401931D
:1009B300F608740293F608740393F622E657F608D2
:1009C30009E657F60809E657F60809E657F622E05E
:1009D30056F608A3E056F608A3E056F608A3E05639
:1009E300F622E056F008A3E056F008A3E056F0081C
:1009F300A3E056F022E026F008A3E036F008A3E0D7
:100A030036F008A3E036F022E647F60809E647F693
:100A13000809E647F60809E647F622E026F608A3A2
:100A2300E036F608A3E036F608A3E036F622E4C380
:100A330096F608E496F608E496F608E496F622C6D7
:100A4300F4C608C6F4C608C6F4C608C6F4C622C36C
:100A5300E7960809E7960809E7960809E79622C387
:100A6300E09608A3E09608A3E09608A3E096227513
:100A7300D00075813F751801751903000204D4E68F
:100A8300F008A3E6F008A3E6F008A3E6F022600C62
:100A930008C6C313C618C613C6D5E0F422E0F60889
:100AA300A3E0F608A3E0F608A3E0F622CAC0E0E656
:100AB300F0A308DAFAD0E0FA22E8F0A3E9F0A3EA17
:100AC300F0A3EBF022E0F8A3E0F9A3E0FAA3E0FB44
:100AD30022ECF0A3EDF0A3EEF0A3EFF022E0FCA3F1
:100AE300E0FDA3E0FEA3E0FF22EAF0A3EBF0A3EC1A
:100AF300F0A3EDF022E0FAA3E0FBA3E0FCA3E0FD0A
:100B030022E5C754F84401F5C77901222518F58277
:100B1300E43519F58322C2AF75D69F020000221275
:100B2300081690A102120816A0A102120816CEA25E
:100B33000212081652A3021208168EA302120816F6
:100B430068A50212081625A90212081639A902126D
:100B5300081643A9021208164DA90212081657A92E
:100B63000212081670A9021208167AA902120816B0
:100B7300E7A902120816F2A9021208161AAA02120B
:100B8300081625AA021208168AAA0212081695AA9E
:100B930002120816B9AA02120816DDAA02120816D2
:100BA3004FAB0212081698AB02120816B4AB02122E
:100BB300081625AC0212081671AC02120816BAAC5C
:100BC30002120816F8AC0212081679AD02120816C2
:100BD30020AE02120816EFAF0212081654B002122A
:100BE300081682B102120816A8B102120816F0B252
:100BF300021208162AB60212081628B8021208169C
:100C0300F3B9021208168CBA021208168DBC02122E
:100C1300081642BD021208167BBD02120816E1BD7A
:100C230002120816EBBD0212081614C002120816AF
:100C330053C102120816AAC10212081655C20212A3
:100C4300081605C40212081652C50212081672C508
:100C530002120816C7C502120816C8C602120816E1
:100C6300F0C6021208164FC70212081647C802122E
:100C73000816BEC802120816D1C9021208163FCAC6
:100C8300021208163ECB0212081698CD021208165D
:100C9300C1CD0212081627CF02120816A9D00212DC
:100CA300081600D102120816AED10212081653D24A
:100CB30002120816ACD2021208166AD302120816E0
:100CC300FCD3021208165BD4021208169DD402123A
:100CD3000816CED40212081625D602120816AA2820
:100CE30000120816DC28001208161529001208162F
:100CF300D32A00120816A92B00120816082C00127A
:100D030008161E2D001208166A2D00120816F82F59
:100D130000120816D23200120816193400120816EF
:100D2300B13400120816BD3400120816063500123D
:100D330008164836001208163E37001208166837A0
:100D430000120816BE3700120816173800120816CC
:100D53008A3800120816C03A00120816423C0012E4
:100D630008162D3D00120816773E00120816AF40F4
:100D730000120816AC4300120816BB4300120816F3
:100D83004F4400120816FA44001208163D4500129B
:100D93000816864500120816D645001208163A466C
:100DA30000120816AC4600120816C84600120816B0
:100DB300F74600120816364700120816314800128B
:100DC3000816E048001208165D4B001208168F4CF7
:100DD30000120816674D00120816E94D0012081696
:100DE3001E52001208164D5200120816A852001285
:100DF3000816DB52001208165353001208168653C6
:100E030000120816E753001208163754001208168A
:100E1300045500120816BD5500120816815600121B
:100E23000816FB58001208165D5A00120816AE5B2E
:100E330000120816D25C00120816D55C00120816C0
:100E4300045D00120816FC5E00120816BB5F001258
:100E53000816EA5F00120816086100120816D0612E
:100E6300001208168E6300120816C06300120816DB
:100E73000264001208160165001208167465001258
:100E830008169D6700120816FC67001208165068C2
:100E9300001208167F6A00120816626B0012081609
:100EA3001E6C00120816326C00120816466C0012F3
:100EB3000816736C00120816A36C001208165E6EF7
:100EC30000120816706F00120816C56F001208167C
:100ED3000E7000120816357000120816FD7000120D
:100EE3000816A371001208162973001208167073EE
:100EF30000120816E273001208163775001208165E
:100F0300E075001208161476001208162C760012EB
:100F13000816CF76001208164B7900120816F37ADA
:100F230000120816117B001208162F7B00120816F8
:100F3300FB7B00120816497F001208162881011254
:100F43000816608101120816608601120816A6862B
:100F530001120816DC8701120816418801120816CF
:100F6300B68901120816C08C01120816E98D011208
:100F73000816FC97011208168C9801120816769B26
:100F830001120816839C01120816E69C011208162A
:100F93002E9E011208169CA0011208162EA2011201
:100FA3000816BBA201120816DAA30112081667A4D9
:100FB3000112081671A40112081699A40112081649
:100FC30039A50112081624A601120816F1A601126A
:100FD30008160EA70112081637A70112081664A7F0
:100FE30001120816ABA9011208167AAA01120816F3
:100FF300B9AA011208163BAB01120816DCAB0112A9
:1010030008160EAC0112081655AC0112081688AC6E
:1010130001120816CCAC011208161BAD01120816FA
:1010230020AD011208167CAD01120816C0AD0112E5
:1010330008169AAE01120816FFAE0112081665AF24
:1010430001120816E0AF0112081648B30112081680
:101053004BB401120816C9B501120816DFB8011204
:10106300081681B901120816CABB0112081685BCFD
:1010730001120816C4BC011208169CBE0112081600
:10108300B9BE01120816C2BE01120816CBBE011268
:101093000816D6BE01120816F5BE0112081699C02D
:1010A30001120816F6C00112081600C10112081633
:1010B3000AC10112081669C101120816B3C101124F
:1010C3000816B4C2011208160BC3011208161CC479
:1010D3000112081665C4011208161FC5011208166D
:1010E30036C6011208160BC70112081652C80112A0
:1010F300081656C9011208164FCA0112081667CA04
:10110300011208169ECA01120816A8CA011208166F
:10111300B3CA01120816D1CA0112081619CB01125B
:10112300081677CB011208169ECB01120816B0CB16
:101133000112081665CC011208169ECC011208167E
:10114300C0CD0112081613CE01120816F9CE0112F2
:10115300081620CF0112081690CF011208160CD0E2
:101163000112081668D1011208168FD2011208164F
:1011730051D3011208161FD401120816DDD401122F
:101183000816C5D5011208166FD601120816D7D650
:10119300011208168CD701120816E8D70112081697
:1011A30040D80112081606D90112081629D90112CE
:1011B3000816E4D90112081606DA0112081667DACE
:1011C3000112081697DC0112081690DD01120816A9
:1011D3003CDE011208165DE001120816A6E00112BA
:1011E3000816F1E0011208164DE101120816ABE1F1
:1011F30001120816CFE101120816F3E101120816D5
:1012030028E20112081650E20112081695E20112B3
:101213000816E9E20112081642E3011208163CE43B
:1012230001120816DAE5011208161FE60112081664
:1012330048E601120816D1E60112081644E7011226
:10124300081652E70112081676E701120816CCE7D2
:1012530001120816E7E701120816A2E801120816A0
:10126300CEE80112081611E90112081674E90112F9
:10127300081682EB01120816AEEB0112081669EC90
:10128300011208164DED01120816E1ED01120816C0
:1012930000800512081638800512081659800512B9
:1012A30008169B8005120816FF800512081609818F
:1012B3000512081619810512081650810512081621
:1012C300F98405120816C18605120816A5880512A9
:1012D3000816478905120816D18905120816508089
:1012E30003120816F98003120816D8810312081690
:1012F300E4820312081604830312081626840312D9
:101303000816D68503120816438603120816148797
:10131300031208161A880312081692880312081675
:10132300CD88031208162689031208166189031251
:101333000816AA89031208163E8A03120816D48ACD
:1013430003120816A98B031208167C8C03120816C5
:101353000A8D03120816308D031208165D8D0312D1
:1013630008168E8D031208165B8E031208166B8EF9
:1013730003120816BE8E03120816CB8E031208162C
:10138300D88E03120816E18E03120816458F031236
:101393000816A38F03120816EE8F0312081609907E
:1013A300031208163090031208164D900312081604
:1013B300599003120816EA910312081603920312B6
:1013C30008167F9203120816929203120816A2922D
:1013D30003120816469303120816B2940312081652
:1013E300C595031208166596031208166F96031225
:1013F3000816EE9603120816FF96031208163E9778
:10140300031208166C97031208163998031208166C
:10141300909803120816C998031208161F9903120D
:1014230008163D99031208168B9903120816569A4B
:1014330003120816A49A03120816F19A0312081647
:10144300749B031208169E9B03120816D49B031267
:101453000816E39B03120816429C03120816BA9C53
:1014630003120816FB9C031208164B9D0312081661
:10147300769D03120816909D03120816AA9D031267
:1014830008167F9E03120816899E03120816C49E2F
:1014930003120816D49E03120816259F031208167A
:1014A300399F031208165BA00312081670A00312DB
:1014B300081603A10312081677A1031208161CA22B
:1014C3000312081627A2031208168AA3031208168A
:1014D300A6A303120816F2A30312081660A40312AC
:1014E300081692A403120816ACA4031208160CA53E
:1014F30003120816ABA503120816F6A50312081665
:1015030049A803120816E1A80312081658A90312E2
:101513000816B5AB03120816CDAB03120816D0ABF1
:1015230003120816DCAB03120816F0AB03120816FD
:10153300F8AB031208162FAC0312081623AD0312DF
:101543000816ADAD031208162FAE03120816AFAE80
:101553000312081686AF03120816A8AF0312081663
:1015630041B0031208169EB003120816A1B003126D
:10157300081610B1031208165CB2031208166FB3F3
:1015830003120816FAB3031208160DB50312081650
:10159300D4B50312081605B6031208162BB60312A8
:1015A300081634B60312081663B60312081613B7E7
:1015B30003120816C3B70312081636B80312081627
:1015C300D9B8031208164CB9031208168BB90312C3
:1015D3000816D4B9031208168CEF0312081624F068
:1015E300031208168FF003120816389A021208160F
:1015F300DBF303120816FEF5031208166AF9031249
:101603000816A5F90312081622FA0312081664FA3B
:101613000312081690FA03120816CAFA03120816E0
:1016230025FB0312081641BC0512081671BC0512EE
:101633000816BABC05120816F1BC0512081615BD2A
:1016430005120816AEBD0512081696CF0512081628
:101653006EA0021208160BC3051208161BC305124F
:101663000816A2EE0112081617EF0112081651EF21
:10167300011208162FF1011208163EF10112081685
:1016830078F10112081614F201120816E9F2011298
:101693000816CEF30112081646F401120816D2F406
:1016A3000112081651F50112081689F501120816E0
:1016B300E1F50112081603F60112081691F601125C
:1016C300081618F7011208166AF701120816C6F76A
:1016D3000112081608F801120816B9F901120816C2
:1016E300A2FA0112081661FB01120816AAD105120B
:1016F3000816BBD105120816F4FF03120816EC7F77
:10170300001208165ACD051208166ACD05120816DE
:101713007FCD051208160DCE0512081610CE051240
:10172300081655CC05120816DBCC0512081641CD58
:101733000512081684FF01120816A2FF01120816EB
:10174300F0FF01120816EACE05120816F2CE0512B2
:10175300081611CF0512081633CF0512081605CA4D
:101763000512081622CA051208163FCA05120816E2
:1017730070CA05120816FDCA0512081646D10512CD
:101783000816BF9B05120816EA9B05120816A09EB1
:10179300051208167F9F05120816A09F051208164A
:1017A300BC9F05120816D59F0512081622A1051223
:1017B300081623FE0212081654FE021208168BFEA8
:1017C30002120816C9FE021208162DFF021208168D
:1017D30060FF02120816CCFF02120816CFFF021296
:1017E3000816E2FF02120816EEFF021208161FB7D0
:1017F3000512081642B70512081674B70512081623
:101803009BB705120816F3B70512081659B8051247
:10181300081665B805120816C2B805120816EAB804
:1018230005120816B0B905120816BDB90512081637
:10183300CEB905120816677F001208167F7F0012C3
:101843000816AB7F0012081691A205120816FAA318
:101853000512081608A4051208161CA4051208167A
:1018630039A4051208164EA40512081661A4051220
:101873000816E3A40512081648A505120816DEA5E6
:1018830005120816B7A605120816C7A605120816EC
:10189300D6A6051208164FCE0512081674CE0512E9
:1018A30008169DCE05120816C5CE0512081678BE79
:1018B300051208169FBE051208161BBF051208164F
:1018C30039FC0112081652FC011208165FFC0112C2
:1018D300081673FC0112081691FC011208169BFCF2
:1018E30001120816A5FC01120816B8FC011208160D
:1018F3008DFD0112081601FE0112081632FE0112B7
:10190300081680FE01120816CDFE01120816ECFE21
:1019130001120816F6FE0112081641FF01120816FD
:101923004BCF05120816808A05120816AA8A0512DB
:101933000816CD8A05120816E78A05120816018BC8
:1019430005120816728B05120816A08B05120816CD
:101953001C9005120816A29105120816249205126E
:1019630008167E9305120816999305120816029419
:1019730005120816779405120816DBC5051208161A
:10198300EBC5051208160DC6051208162CC605125E
:1019930008165FC60512081683C605120816BBC6CD
:1019A3000512081614C7051208162EC705120816C5
:1019B3007DD005120816BAFB04120816C1FB0412E7
:1019C3000816FBFC0412081626FD041208164FFD28
:1019D30004120816BBFD041208165EFE0412081654
:1019E300A3FE041208161FFF0412081675FF041243
:1019F3000816A3FF041208165AC7051208167AC759
:101A0300051208168DC80512081690C80512081687
:101A130007D1051208163CD1051208160CF602125E
:101A230008164BF602120816B0F602120816CFF685
:101A3300021208167BF70212081685F7021208161F
:101A4300D6F702120816F7F70212081612F8021256
:101A53000816FEF802120816E8F9021208163AFAF6
:101A63000212081693FA02120816E7FA021208166F
:101A73000FFB021208169DFB02120816E1FB02126D
:101A830008161DFC021208166AFC021208167CFCDA
:101A9300021208168EFC02120816ADFC021208167A
:101AA300B6FC021208166FFD02120816BBFD0212E5
:101AB3000816F9FD021208165BC405120816FCB9D4
:101AC3000512081632BA0512081681BA051208164D
:101AD300DABB0512081649B8041208169EB9041297
:101AE300081600BD041208162CBD0412081697C070
:101AF30004120816DEC00412081612C304120816D4
:101B030000C4041208165AC404120816EDC40412C1
:101B1300081662C50412081636C70412081662C9ED
:101B230004120816CECB04120816FACB04120816B8
:101B330056CC041208165FCC04120816B5CC041256
:101B4300081638CD0412081698D0041208162AD1A4
:101B530004120816D5D105120816EBD10512081682
:101B63003AAB0512081653AB0512081627AC05123B
:101B730008165AAC05120816A7AC0512081601ADD3
:101B8300051208168CAD0512081658AF0512081673
:101B9300E6CF05120816BDC80512081651C905126D
:101BA3000816A7C905120816E6C90512081609BAC8
:101BB3000312081615BA031208169FBA0312081661
:101BC30020BB031208165CBB031208160BBC0312DE
:101BD300081676BC0312081620BD031208161ABE97
:101BE30003120816E5BF0312081678C2031208167B
:101BF300EBC30312081651C503120816EBC50312F3
:101C030008163BCB031208161BCC031208169ACCFA
:101C13000312081614CD03120816ACCE03120816CD
:101C230027CF031208161ED00312081656D103122B
:101C33000816C7D10312081665D2031208161AD361
:101C4300031208164DD303120816C5D30312081640
:101C5300C9D4031208161AD603120816DAD60312C9
:101C630008168FD90312081633DA03120816A2DAFC
:101C73000312081630DE0312081657E10312081682
:101C83007FE103120816EFE3031208163BE6031283
:101C9300081699E80312081607A705120816D1A813
:101CA30005120816E7A805120816FBAA051208165E
:101CB300008004120816BB8004120816BF810412A8
:101CC3000816E08104120816DA8204120816C48486
:101CD300041208167285041208164F8B0412081694
:101CE300138D04120816B38D041208160D8E0412F8
:101CF30008166E8E04120816F68E041208164D99F5
:101D030004120816869B04120816239C0412081654
:101D1300C3D00512081681D602120816C6D60212BF
:101D2300081656D70212081629D9021208160BDA1A
:101D330002120816F4DA0212081645DB021208161C
:101D430010DC021208167ADC02120816D3DC021227
:101D530008161BE002120816AFE002120816E6E0AE
:101D6300021208162FE1021208161BE502120816CA
:101D73006BE50212081645E60212081694E60212F3
:101D83000816D9E702120816BEE80212081633E94C
:101D93000212081677EA02120816E5EC0212081678
:101DA3000BED02120816ABED02120816D3ED021268
:101DB300081659EE0212081636EF0212081687EFBC
:101DC30002120816EAEF0212081686F0021208162B
:101DD30089F00212081692F002120816A0F00212FD
:101DE3000816BBF00212081639F10212081655F153
:101DF3000212081691F102120816CCF1021208160B
:101E03003FF20212081673F202120816AFF2021220
:101E13000816DEF2021208160FF30212081659F31F
:101E2300021208169AF402120816EAF502120816AC
:101E330033D0051208164CCB0512081698940512D8
:101E43000816E79405120816F89605120816C8989E
:101E530005120816B09905120816C49A0512081639
:101E63000E9B051208168F9B051208166FD10412DC
:101E7300081692D10412081695D204120816E7D256
:101E83000412081687D304120816CFD304120816B7
:101E930037D404120816BCD40412081634D504121D
:101EA30008165FD504120816CCDA04120816FFDCF4
:101EB30004120816A8DD041208160CDE0412081614
:101EC3004CDE041208161CE00412081643E2041246
:101ED300081628E304120816ABE304120816FCE400
:101EE30004120816E5E50412081626E6041208167D
:101EF300CDE60412081678E704120816DBE704128D
:101F03000816ADE804120816BCE90412081653EBD0
:101F1300041208160AEC04120816A7EC0412081699
:101F230060EF04120816C8F00412081698F10412A0
:101F33000816E4F30412081694F40412081694F530
:101F4300041208168DF704120816ABF804120816CB
:101F53004EF90412081673FA041208166C9D041243
:101F63000816C19D041208162E9E04120816B29E6E
:101F73000412081675A00412081690A1041208167C
:101F8300EEA104120816FBA20412081633A40412CD
:101F9300081660A40412081647A50412081669A5BA
:101FA300041208166DA604120816CDA6041208160C
:101FB300EEA8041208163BA90412081652A904122B
:101FC3000816B9AA041208168BAB0412081610AC33
:101FD300041208165CAC04120816C8AC04120816E6
:101FE30095AD0412081695AF0412081677B00412C3
:101FF300081687B10412081684B204120816B2B385
:1020030004120816AEB4041208164EB504120816CC
:1020130094B504120816A9B504120816ABB6041237
:1020230008164CB704120816A8B70412081665AFB1
:1020330005120816B3B1051208166AB2051208167E
:10204300BFB20512081645B30512081663B305128D
:102053000816A7B305120816CDB305120816F4B374
:10206300051208160CB40512081624B40512081636
:102073003CB405120816E1B40512081623B505127F
:10208300081645B6051208164EB60512081657B6B9
:102093000512081660B6051208166AB60512081668
:1020A3007FFB031208167AFF0312081688FF031238
:1020B30008168DFF0312081628C1051208167ED1D3
:1020C300051208165499021208167098021208167F
:1020D300869502120816439402120816AA91021258
:1020E30008166591021208160B91021208166C90DD
:1020F30002120816179002120816448F02120816CD
:102103007E8E02120816428E02120816D58D021216
:102113000816CD8D02120816428D02120816D28CB3
:1021230002120816238C02120816188C02120816C3
:10213300098C02120816E88B02120816B48B0212DD
:102143000816888B021208165A8A021208164E883D
:10215300021208168C9E021208161F880212081615
:10216300839E02120816769E02120816799D0212A9
:102173000816069D02120816EA9C02120816CC9C49
:1021830002120816A79C02120816B79B0212081621
:10219300038802120816AD8702120816748702120A
:1021A3000816529B02120816EC8602120816A08625
:1021B300021208165986021208168C850212081696
:1021C300BB9A021208161085021208169DC2051248
:1021D3000816688402120816C18302120816638364
:1021E30002120816388302120816E9820212081630
:1021F300AB82021208168982021208166682021244
:1022030008164D82021208160582021208164F8123
:1022130002120816C380021208165780021208160B
:10222300008002120816499A0212081621F10300CF
:10223300000080FB8F00010058188700010012196D
:1022430035000400D71825000200DB182600020021
:10225300DD1827000200DF1828000100E918290013
:102263000100EA1884000400EB1886000100EF184F
:102273002A000100F0182B000100F1182C000100C6
:10228300F5182D0008003F182E000100F6182F0046
:102293000100F71830000100F81831000100F918A7
:1022A30032000100471833000100481834000100D0
:1022B300FA1836000100491838000100FB183900EC
:1022C3000100F4188300020010196300010055187F
:1022D30064000100F21865000100F3186D000100AD
:1022E3005618710008003718660001000F194300E3
:1022F30001000019440002000119450001000319FF
:10230300460002000419470008004D184800010068
:1023130006194B0001000719040001001319A1005D
:10232300010016193700010015198800010014195E
:102333003C0001004A183D000100FC18490002005E
:1023430008196700010057184D0002000A194E00D2
:1023530001000C194F0002000D193E0001004C183A
:1023630051000100FD1852000100FE185300010046
:10237300FF18540001004B1800000000000000018A
:1023830036360101000102010001030100010401CD
:10239300060605020000070100340801000F0904C6
:1023A30001010D0100FF0E080000170200001901D2
:1023B30000FF1A0100011B0100FE1C0100081D02A1
:1023C30000001F0100012001000121020000230180
:1023D300000F240200002601000127010008280243
:1023E30000FF2A0100072B0102402C0100002D01F0
:1023F30000012E0100012F0100FF30010B1D3108E8
:1024030000003A0100083B01000F3C0100013D01BF
:1024130000FF3E04000042040000460400004A049A
:1024230000004E04000052040000560400005A0449
:10243300000001037103010301030103010301030D
:10244300220302030103100300030003000300033C
:1024530000030003000342030003240306030003F5
:1024630000030403120325032303250323030403A7
:1024730004030003000300034403000300032303D6
:1024830000036503210035038103000305030003F3
:102493000003000300032503230303047104020460
:1024A3006004110470040204020401040204100411
:1024B3006104000414046304730472046204430497
:1024C30000041304060400040004040412040004BA
:1024D3000004000400045104640000040004000428
:1024E30044040004000400040004650400043504EB
:1024F30081046400050400048304000403027102E0
:102503003001600211027002010202020202800223
:10251300100261023A004100630273027202620216
:1025230043020002130238000002000204021202F6
:102533000002000200020002040204023700370016
:102543003C0244020002390000020002650200025C
:1025530035028102000205028202830200020300A7
:10256300710030016000110070003102200350043B
:10257300800010006100000014006300730072000B
:102583006200430000001300060000000000040086
:1025930012000000000000000000040004003700E7
:1025A30037003C024400000000000000000065000A
:1025B30000003500810000000500000083000000DA
:1025C3000101710101010101110101013101010148
:1025D30001018001100161013B00140063017301DB
:1025E3007201620143010001130106013D0135003F
:1025F30004011201000100010001000104010401B2
:10260300330133013C014401320136000001000172
:10261300650100013500810100010501820183018B
:10262300000136000100060000000F00000000005A
:10263300000000000000000003FFFF00000403FF90
:10264300FF0000FFFF0FF4010005C4040320000195
:1026530000000B000000000000000003010F000059
:102663000000000000000000000000000000000067
:102673000000000000000000000000000000000057
:10268300441C801C4A1CC61B501C861C501C921CDC
:10269300561CC61B501C861C5C1CC61B621CC61B1E
:1026A300681CC61B6E1CC61B741CC61B7A1CC61B6F
:1026B3000000000000000000000000000000000017
:1026C3000000000000000000000000000000000007
:1026D30000000000000000000000000000000300F4
:1026E3002001268100000000200127810000040052
:1026F30042015A80000005004201498000000600A3
:1027030042013880000007002001258100001000ED
:10271300420380180000110020032F05000012005F
:10272300100391180300000021032C05060000008C
:10273300100197160A0000000200000004000000C8
:10274300080000001000000020000000400000000E
:1027530080000000000100000002000000040000EF
:1027630000080000001000000020000000400000EE
:1027730000001A1F1300C01E1F00C61E1F80CC1EA0
:1027830001001A1F0200841E03008A1E0400901E0B
:102793000500961E0600A21E3600B41EFFFF0000B1
:1027A30001780F06A20F089C0F0BBA0F10900C02B2
:1027B3007E0F05900F07840F0C600F0D6C0F64EEF6
:1027C30020FF000007ECFDFDFDECDCDCCCBCACAC79
:1027D3009C9C8C7C7C6C6C5C5C5C4C4C3C3C2C2CE6
:1027E3001C1C03EAF5E5D5D5C5B5A5959585857575
:1027F300756565555545453535252515150500166A
:102803000F00000B150B020002220F3300000E5ABB
:102813006967426565416C6C69616E636530390156
:10282300030507090B0D0F00020406080A0C0D30FF
:102833003017181921301B1D1F303030161819207E
:10284300231A1C1E300C0E020B040B0A0708000F80
:1028530000034A49434E181A25050200393D3F3704
:102863003C3C362C442D0001191618161618230368
:1028730000020402010101010902E803000000BE95
:10288300040AE80300007F0000000E0003030809A8
:1028930001040C03FF1E1E08050C0C0404001005A4
:1028A30008150B28090010C082C08312166290031A
:1028B3002874F6F0A3740CF090032A74FCF0A3744C
:1028C3000CF090032C7402F0A3740DF090032E749B
:1028D30008F0A3740DF0025FE374F71203B1E9FE8D
:1028E30090031AE4F0EE900319F090190412537F49
:1028F300125CCE7C4D7D187A1D7B03121BA89019A8
:1029030006E0900325F09003267437F0A3741802B1
:1029130037BA74F01203B18A088B09EB5480700341
:10292300022A6D900319E0F9121A528A0A8B0BAE30
:102933000AAF0BEE4F7003022A64125154707EEEFD
:10294300241F1254C964137002A3E070708E828F27
:1029530083A3A3E0F50EA3E0F50F9003381259CF3C
:10296300750A00750B00800D123631125CCE121AF7
:10297300D0AA0CAB0DEA4B60448A828B83E0650ED0
:102983007004A3E0650F70288A828B83A3A3A3A39B
:10299300125167E50A450B8A828B83A3A3A3A36025
:1029A300C712469E850A82850B83A3A3A3A380BB7C
:1029B3008A0A8B0B8A828B831259CB80B8EE242A26
:1029C3001254C9F9126A48900338123AACA3A3A36C
:1029D300A3A3A3A3A3E0640270378A828B83125953
:1029E300CF80078C828D83123D0CEC4D60208C824E
:1029F3008D83E06A7003A3E06B70E88C828D83A300
:102A0300A3E06970DE90190C124AECF0804C120DB1
:102A1300328E828F83E064017034EE2418122ACB45
:102A2300120837124434120694EE2412122ACB12DF
:102A330008371244281208331264E0120698EE2471
:102A43001712443C12222C740A120861800CE064B1
:102A5300027007EEFAEFFB120E76EEFAEFFB121A94
:102A630040AA08E5096480FB805BEAA2E050149069
:102A730003301258E66006126E1B120529E508643E
:102A83000180395402600C9018677401F0EA640203
:102A9300FA8032EA54086029120D2C8B0BEA450B9D
:102AA300701690033AE4F0A3F0A3F0A3F07A08FBC6
:102AB300900319E0F9121B78E5086408FAAB098062
:102AC300047A007B00023E721251D5F50A780A227D
:102AD30074F41203B18A088B098A828B8312673CD0
:102AE30012432C38F583E02409FA7B00121A3A8A40
:102AF3000A8B0BAE0AAF0BEE4F7003022B978E823D
:102B03008F837402F0A3E4126F61A3A3A3A3E8F07D
:102B1300A3E9126A70A3A3A3A3A3A3A3F0E50824C4
:102B230003F8E43509125C7112432C3AF583123A27
:102B3300A5F0EE2409FAE43FFB8E828F83A3A31250
:102B43006377F5838882E0A2E58E828F83A3A3A3B4
:102B5300A3A3500474018001E4F0E5082403F8887A
:102B63008289831259CFEA1243203BF583122B9CAF
:102B730012082FEA24101264E88E828F831259CD33
:102B8300121A1C7403120861EEFAEFFB900319E0AA
:102B9300F9121A46023501A3A3E0F508A3E0F509EB
:102BA300750A0078082274F21203B18A088B09ECC3
:102BB300FAEDFB740E120B0FE0FC1216868A0C8BD7
:102BC3000DAE0CAF0DEE4F6030AC08AD0912167AA6
:102BD300E96026AC08AD09EEFAEFFB121680E97046
:102BE300148E828F831245CFFAEFFB121674AA0854
:102BF300AB0912169E7900800279B4800312086132
:102C03007F0602060F74EE1203B174F71208F58AF9
:102C13000A8B0BECFEEDFF750CB3750D00750E0002
:102C23008002050E90289EE493F8E50EC3984003B6
:102C3300022D17AA0E7B001216C28A088B09EA45D9
:102C43000960DF8A828B83A3A3A3A3A3E0250DF5E9
:102C53000DF8C3E50A98E50B940050C67C157D007A
:102C63007900EEFAEFFB121A28850882850983A3FF
:102C7300A3A3A3A3E0F8E50AC3950D2825E0F8E490
:102C830033F9E50828F582E50939F58312387B1213
:102C93005CCE12107A8A0A8B0BAC0AAD0BEEFAEFFC
:102CA300FB121BA8850882850983A3E06401700BCE
:102CB3001244347401127ADEA3803DAC18AD198539
:102CC30008828509831259CD1216AAE9602D74086A
:102CD300120B0FE0C0E0124434D0E0F07408120B82
:102CE3000FE06403700CAC18AD19123A9D121BA8C7
:102CF3008009851882851983125CC285088285093B
:102D030083123E54A3A3126F1FC0E0124063D0E0AE
:102D1300F0750C00A90C740902730874F71203B15F
:102D2300E9FE8A828B83A3A3A3A3A3A3E054086031
:102D3300338A828B83A3A3A3A3A3A3E054026021BA
:102D43008A828B83A3A3A3A3A3A3A3A3A3E0640661
:102D5300600F74E96E600A74CD6E600574F06E7076
:102D630003120D14024D6274E81203B174F81208D1
:102D7300F57406120B0F1251A6ECFEEDFF891775C1
:102D83001500122FDC1216928A0A8B0BEA450B7080
:102D930003022F89EE24101254C9FAA90A120B9ABE
:102DA3008A128B13EA45137003022F89EE2403F56D
:102DB3000CE43FF50DEE2406F508E43FF5097C002D
:102DC3008508821243801216988A108B11850C8213
:102DD300850D83122FD1125A50851282851383A336
:102DE300A3A3A31255B6122FD1A3A3A3A31258F6DC
:102DF300851282851383A3A3A3A3A3A31273001233
:102E03006F0412082FEE12432C3F1264EC851282DA
:102E1300851383A31259C7121A1C74031208617411
:102E230028120B0F12469EE512124ADE3513125C6E
:102E3300CC742A120B0FE0C0E0E5121243203513C5
:102E4300F583D0E0F07514007423120B0FE0F51630
:102E53007424120B0F780C120AA0022F1085108213
:102E63008511831259CD1216B0850882850983A373
:102E7300EAF0A3EB122FF3A3A3126B31122FEDA2EF
:102E8300E6500F850882850983A3A3A3A3A3E0D2F9
:102E9300E1F0E515706685088285098312469D90E9
:102EA300036EE0687003A3E06970518508828509A9
:102EB30083A3A3A3123C3C75100078101208377843
:102EC3000C12082BE516F510781012083774261229
:102ED3000B0F12069890037B120698790074101258
:102EE3000B0F126A50120EB8740A12086185088219
:102EF300850983A3A3A3A3A3E04405F074012514C8
:102F0300FC122FDC1216988A108B110514E510455C
:102F130011604EC3E514950AE4950B5044E514750E
:102F2300F006A4F8A9F0E51228F8E51339F9E82426
:102F33000FF508E439F509850882F583E4127EFE6E
:102F4300E064016003022E6075150185088285091E
:102F5300837401122FF3125429A3E8F0A3E9022E7C
:102F630077AA12AB13120BA07812120833AD1674A2
:102F730024120B0FE0FCA917EEFAEFFB120D0E74EF
:102F830002120861803E8E828F83A3A3A3E0C0E078
:102F93007403120B0FD0E0F0EE24121254C9C0E0F8
:102FA3007404120B0FD0E0F0E50A450B70097405A9
:102FB300120B0F74B980077405120B0F741012648F
:102FC300F5120EB274081208617F1002060FE08535
:102FD3001282851383A3A3A3228E828F831259D3D4
:102FE3008E828F83A3A3A3E0F922A3126BEFE022C7
:102FF300127F02A32274E81203B174F21208F5E9F6
:10300300851882851983F08A0C8B0D8C168D1774A5
:1030130026120B0F1258B4AA08FB120B8EE9F514F3
:10302300AA08AB09120B94E9F515E51470030232F3
:10303300B5751300800F8E828F83A3A3A3A3A3E090
:10304300D2E3F0051312406DE0F8E513C398400393
:103053000232ACE51470030232ACE51375F006A43A
:10306300F8A9F0E50828F8E50939F9E8240FFEE4A2
:1030730039FF8E828F83A3A3A3A3A3E0A2E040C35F
:10308300750E008E828F83E070431259CE12213069
:103093008A0A8B0BA80AA90BE849603188828983C5
:1030A300A3A3A3A3E06401600D88828983A3A3A3E0
:1030B300A3E0640370178E828F83A3A3A3A3A3E06B
:1030C300D2E7F0750E01E5157003023046750F0067
:1030D300750A08750B00E5176003750F207C087DE2
:1030E30000790074011208CF121A288E828F83E0B0
:1030F30060449003BEE06401701CE50FD2E3F50F5A
:10310300750B101246997401120B0FE8F0A3E91224
:10311300481E74FF803E430F0C750A0C8E828F830A
:10312300A31232C8A3A3A3A3125CCE7401120B0F84
:1031330074FFF0A3801E851882851983E06009E57A
:103143000FD2E6F50F750A0A1246997401120B0F96
:10315300E8F0A3E9F07403120B0FE50FF012432A12
:10316300350DF583E0C0E07405120B0FD0E0F07469
:1031730006120B0F7401F01208CF120E7C740D129D
:103183000B0FE060030232877409120B0F125A3CD3
:103193008E828F83A3A3A3A3F07409120B0F125182
:1031A3008FE50AF0A3E50BF012514AE516122FEE54
:1031B30060119003BEE0C0E07409120B0F12517F3F
:1031C300D0E0F07409120B0F12407DA3A3A31232B7
:1031D300BA241C1251A01273681232BA125141EA76
:1031E300F0A3EB126E48C0E0125137D0E0126F101B
:1031F300C0E07409120B0F124C7ED0E0126792C02C
:10320300E07409120B0F124C72D0E0F07409120B28
:103213000F1232C8124C611234091232BA242C1222
:1032230051A0E50C124ABE350DF583E0C0E0124C07
:1032330059D0E0F07409120B0F1259CF850C828517
:103243000D831232BF2428F582E43B125CCCE50CDB
:10325300124320350DF5831273187512007810127E
:10326300082F12432A350D1264ECEA1267113BF55D
:10327300831259CF121A1C740312086174011208C5
:10328300CF120E828E828F83A3A3A3A3A3E0D2E0E7
:10329300F0740D120B0FE06003023039E50EA2E06B
:1032A3005002151515140230467900AA08AB09120D
:1032B3000D1A740E022FC91259D9E822A3A3A3A38E
:1032C3001246A2EA221246A2850C82850D8322743D
:1032D300EE1203B174E91208F58A088B09890A8A88
:1032E300828B83A3A3A3A3A3A3A3A3E0F9120BB885
:1032F3008A0C8B0DEA450D70030233981258801225
:103303003D27E50A600302339D7C04850882850915
:1033130083A3A3A3A3A3A3A3A3E0F9120BBEEE4F1E
:1033230060738E828F83A3A3A312469D7406120B30
:103333000F12635A12469D7408120B0F1261C7C015
:10334300E07410120B0FD0E012340912469D740E74
:10335300120B0F125CCE7411120B0FE4125A41C8F8
:10336300241FF582E438F58312567DC413135403E6
:10337300FC70027C048E828F83E0F9780C12083390
:10338300742059FD744059F974021208CF120D0EBE
:10339300740212086174170273087C088508828519
:1033A3000983A3A3A3A3A3A3A3A3E0F9120BBE8B37
:1033B3000FEA450F7003023321EE4F60D8E50AF59B
:1033C3000B780B120837850C82850D83A3A3A3A367
:1033D300A3A3A3E0F50B780B1208378A828B83A390
:1033E300A3A3E0FB8A82850F83123D0F8A82850F98
:1033F30083E0FA8E828F83A3A3E0F91215E47402AB
:10340300120861023325F0850C82850D83A3A3A3E3
:10341300A3A3A3A3A32274F71203B174FA1208F5AA
:10342300E9FE7C017D017F0080037D000F1254BE05
:10343300E0F8EFC3985028EF75F006A4F885F0087C
:10344300A908EA28F8EB39F9E82414125E5CA2E033
:1034530050D8540C60D4E0A2E250D17C0080CD8AD5
:10346300828B83A3A3A3A3A3A3E0703DEDA2E040BB
:103473000574016E70338A828B83A3A3A3A3A3A3D2
:103483007401124B26E0C0E07403120B0FD0E0125C
:103493004B1EE0C0E07404120B0FD0E0F074051271
:1034A3000B0FEC1264F5120EB27406024D5FC0826C
:1034B300C0837901120D1A025FE374F41203B1EAB7
:1034C3004B9018676022E4F08A088B09F50AF50B24
:1034D300780812082B7A027B00900319E0F9121B7B
:1034E3006C7404120861800F7401F07A027B0090FF
:1034F3000319E0F9121B78800574021208617F0436
:1035030002060F74E81203B174FC1208F574021278
:103513000B0FE4F0A3F0900338123D278518828542
:103523001983E4F0A3F0751401900368E0A2E3505B
:10353300030235BD121B8A8A088B098C0A8D0B8AFC
:103543000C8B0D8C0E8D0F90033A780C1208AF1272
:1035530036387810790C120A5250077A017B000230
:10356300362C850C14850D15850E16850F177814CA
:103573007910120342A814A91590190CE0C398E41A
:10358300995003E08001E8F514123638780C79106D
:10359300120342E4F512F5137808791012095E90CC
:1035A300033A7808120A828011123631125CCEEE89
:1035B300FAEFFB121AD0AE08AF09EE4F60638E82AA
:1035C3008F83A3A3A3E0F8E514C3985029EE240343
:1035D300F582E43FF583A814E0C398F060217402F8
:1035E300120B0F124815125200EEF0A3EF12679759
:1035F300FEA3E0FF80C48E828F83A3A3A3E4F08E97
:10360300828F831258B08518828519831258E68EEB
:10361300828F83A3A3A3A36090126A62125C8C803F
:103623008B7402120B0F1259CF7404022FC9124666
:10363300A29003382290190AE0F510A3E0F511E4F3
:10364300F512F5132274F21203B18A0A8B0BE9FE09
:103653007A007B009003381258B49003381258E66E
:10366300601E0A850882850983A3A3A3A31258E6D3
:10367300600E0AEA70010B88088909E8450970E3BE
:1036830090190D12469EC3EA98EB99400302373B0B
:103693007A067B00121ACA8A0C8B0DA80CA90DE8B6
:1036A30049700302373B88828983E50AF0A3E50B5F
:1036B300F0EE88828983A3A3F090190C125ECEA347
:1036C300A3A3124B4EA3A3A3E4F0A3F090033812D9
:1036D30046A6600F850882850983A3A3A3A3125C72
:1036E300CE801F900338125CCE900368E0A2E340C3
:1036F30011121B8AEAF8EBF9ECFAEDFB90033A128C
:103703000ABC900368E0A2E3502E7A087B00900382
:1037130019E0F9121B7EEA4B4C4D701C90190A12EA
:103723007942780812082B7A087B00900319E0F994
:10373300121B727404120861022C03C082C083E955
:10374300901868F09003327450F0A3740DF0900356
:10375300347462F0A3740DF09003367474F0A374A0
:103763000DF0025FE374F71203B1EAFEEBFF890881
:10377300EE4F70031216F890033E1258E67008904D
:10378300033E802212469E88828983A3A3A3A3A318
:10379300A3A3A3A31246A688828983A3A3A3A3A357
:1037A300A3A3A3A370DEEEF0A3EF126B4DA3A3A319
:1037B300E4F0126B4CE508F0024D6274F71203B1AA
:1037C30090033E800D8E828F83A3A3A3A3A3A3A301
:1037D300A3A3123D27EE4F60348E828F83A3A3A34E
:1037E300A3A3A3A3E06970DD8E828F83A3A3A3A306
:1037F300E06A7003A3E06B70CC8E828F83A3A3A3D4
:10380300A3A3A3E06C70BEEEFAEFFB80047A007B07
:1038130000024D6274F71203B190033E123D2790EC
:10382300033E1232C3687002EB69701EE0C82409BC
:10383300F582E438F58312469E90033E125CCE90E7
:10384300033E123D278027123D1AEE4F60208E82E1
:103853008F83A3A3A3A3A31232BF687002EB697083
:10386300E68A828B83A3A3A312387B125CCE121A3F
:10387300D0EEFAEFFB024D62A3A3A3A3A3A31240CE
:1038830089A3A3A3A3A32274F01203B174FA1208A9
:10389300F58A088B098A828B83A3A3A3A3A3A3A37B
:1038A300A3E060336401602F8A828B831259CF12A5
:1038B3001116E97022850882850983A3A3A3A3A314
:1038C300A3A3A3E06403701474041208D7AA08AB7B
:1038D30009120E04E970167902023A868508828578
:1038E300098312469E7404120B0F125CCE1270E70A
:1038F3002434126345121ACA8A0A8B0BAE0AAF0B21
:10390300EE4F7003023A847C347D007900121A284A
:1039130074021208CF850882850983A3A3A3A3A3F6
:10392300A3A3A3A3E0F91216207402120B0FE0C0A5
:10393300E0123A95D0E0F0EE242EF50AE43FF50BC1
:103943007403120B0FE0850A82850B83F07901EE75
:10395300FAEFFB120D3E85080C85090D750E0078F4
:103963000C12082F7C1E7D00123A9D121A1C740340
:10397300120861EE2432123E4A2434F8E43FF98AF5
:10398300828B83125CCEE5082411F8E43509F9E84B
:10399300FCE9FD8C828D8312519B2430125CC8128A
:1039A3003E42127BF512082F8C828D83123AAC12A1
:1039B30059CF121A1C74031208617404120B0F12EC
:1039C3004085125CCE90031A123AA5A3A3A3F090EC
:1039D300031AE004F0121B8A8E828F831251EA24A9
:1039E3002C124355750D00850A82850B83E0780CF4
:1039F3001209998A828B83E50CF0123A8BE50C123B
:103A03005200E4F0E50824151270EBA2E0740150B3
:103A130007120B0F74018004120B0FE4F0EE24293C
:103A23001258A7AA18AB19121608E924FE850882B2
:103A3300850983F0EE2430F8E43FF9E8FCE9FD1250
:103A43003AB4120269E88E828F83A3A3A3A3A3A32C
:103A5300A3A3F0123AB41202698B09EA4509600F75
:103A63008E828F83A3A3A3A3A3A3A3A3E004F0EE57
:103A730024201254C944081243A1121A7C790080ED
:103A83000279107406023E6FEE242BF582E43FF5B3
:103A93008322EE1267113FF58322EE240BFAE43FF3
:103AA300FB22126A78A3A3A322123D148A828B837A
:103AB300228C828D8312542DE0FA7B002274F4123F
:103AC30003B1EAFEEBFF121B8A8E828F831251A68B
:103AD300901900E0F8EE242D1254C9C39840030254
:103AE3003C211243617012EE242D1254C904125466
:103AF300FCC0E0123A8BD0E0F0EE242A1254C9FC49
:103B03007900800109EE242E1254C9F8E9C39850B4
:103B130026750801750900E97808120999124361AD
:103B2300550860E0E92CFC750801750900E978087F
:103B3300120999E04508F0EE24291254C9FAEE243B
:103B430030F582E43FF583EC8AF0A4F8ABF0E42B84
:103B5300F9E098F8A3E099F9C3E89AE99400EE40F4
:103B63003124291254C9F8124361602C123A951278
:103B73003C3CA3E4F0EC7047EE24201254C94420EB
:103B83001261CBC0E01254EAD0E01254F4FAA3E07D
:103B93008052123A8C74FFF090035EE0FA9019039E
:103BA300123C33ABF075F064A4FAADF075F064EB3E
:103BB300A42DFB8E828F83A3A3EAF0A3EB80B5EE43
:103BC30024201254C954DF1254E5ECF0FAEE2429F0
:103BD300F582E43FF583123C33FAABF0EE12513138
:103BE3003F124377FB126EE8EAF0A3EB126B5CC063
:103BF300E0EE2425F582E43FF583D0E01251B7E8E7
:103C03001258F69003401258E6600BECF9126E1B43
:103C1300120529E97017123A9D120DDA800F7BE91C
:103C2300123E601215DEEEFAEFFB120D4A02350169
:103C3300E0F508EA8508F0A422126A78A3F022745A
:103C4300F41203B190033E123D27121B8A8A0A8B9A
:103C53000B78FF79FF8020E0C39AFCA3E09BFDC3B0
:103C6300EC98ED99500E8E828F83A3A3E0C39AF84C
:103C7300A3E09BF9123D1AEE4F605C8E828F831294
:103C830059CFE50AC39AFAE50B9BFB8E828F831209
:103C93003D0EC3EA9CEB9D8E828F83A3A340B8A302
:103CA300A3A3A3E06402701AEE240B124364600919
:103CB3001243401259CF121A40EEFAEFFB120D4A8B
:103CC3008007EEFAEFFB120D567A017B009018681D
:103CD300E0F9121A7C802974FF68700374FF69602D
:103CE3001F88088909E4F50AF50B780812082B7A6E
:103CF300017B00901868E0F9121B6C7404120861D0
:103D0300023501A3A3A3A3A3A3A3A3A3A3123D14B7
:103D130022E0FCA3E0FD228E828F83A3A3A3A3A3AF
:103D2300A3A3A3A3E0FEA3E0FF2274F01203B18ACE
:103D3300088B09ECFAEDFB890A7C011270E7F91292
:103D43000D448A0C8B0DAE0CAF0DEE4F7003023E8B
:103D530036E50A6003023E36123E42123E58686060
:103D630003023E36123E42E0FAEE242E1254C9F804
:103D7300EA28FAE43400FB8E828F83A3A3A3A3A3D0
:103D8300A3A3A3E0F8EA98EB9400C365D033401CE7
:103D9300E50824141270EBF470127B00123E6012DB
:103DA30015DEEEFAEFFB120D4A023E36E508241447
:103DB3001270EBF47042EE242B123E4A242EF8E4E8
:103DC3003FF9E8FCE9FD7508FF7509008C828D83D6
:103DD300E078081209998A828B83E508F0123E384D
:103DE300E508F08C828D83123E5828F0EE242DF5E1
:103DF30082E43FF583E4801BE5082414F8E43509E5
:103E0300F9E0C0E0123E38D0E012636CC0E0123A31
:103E13008BD0E0F0121B8A8E828F831251EA123A02
:103E230096123E54A31258F67A01FB901868E0F9F3
:103E3300121A7C803AEE242CF582E43FF58322E5C6
:103E430008241312407522F8E43FF9E8FAE9FBEE7F
:103E530022126A7822E0F8EE125E73E022EE242248
:103E63001251D5FAEE24141251D5F9221208617FAA
:103E73000802060F74EC1203B174FE1208F58A0AE5
:103E83008B0B8C0E8D0F89108A828B83A3A3E0F991
:103E93001215FC8A088B09AE08AF09EE4F70077A3A
:103EA300007B000240597A127B00121ACA8A088BDF
:103EB30009EA450970030240557C127D007900121E
:103EC3001A28AA18AB19850A82850B83A3A3E0F9E4
:103ED300121620E508240FF50CE43509F50D7401DD
:103EE300120B0FE0850C82850D83F07902AA08ABD3
:103EF30009120D3E850E82850F8312407D12409B71
:103F0300124314126B28F07512FF751300850C828F
:103F1300850D83E07812120999127368E512124C29
:103F23008A126E19E0C0E012406DD0E0F012433601
:103F3300F50CE508240D12736CE50CF0E50A124349
:103F430048850CF0A4A9F02427FAE439FB121A3AA5
:103F53008A0C8B0DAE0CAF0DE508126DF1EEF0A3DC
:103F6300EFF0EE4F70030240488E828F83741A1273
:103F730058F68E828F83A3A3F0A31240A11240852B
:103F8300125CCEAC0EAD0F126EF212161A850A82B7
:103F9300850B83A3A3A3E0C0E0125673D0E0F09097
:103FA300037B12519B2410124095125189350B1239
:103FB30051991264D7E8F0A3E91240A1A3A3A3A3E4
:103FC30012519B2412125CC8850A82850B83A3A31A
:103FD300E0C0E0124063D0E0F0E50A124ADE12438B
:103FE3001BE0C0E0126848D0E0F07416120B0F1209
:103FF3006E21C0E01270D5D0E0126B47C0E0126DA5
:10400300F7D0E0126E2AC0E0126E01D0E01251AC7C
:10401300E510F07418120B0F120AC8EE241AF58279
:10402300E43FF583120ABCEE2427F8E43FF9EE24BB
:104033002212409512633112431BE0C0E0126EFA64
:10404300D0E0F0800DAA08AB09120D4A750800757F
:104053000900AA08AB0974021208617F0C02060F5B
:10406300EE2414F582E43FF5832212407122E50821
:10407300240BF582E43509F5832212542DA3A3A35F
:10408300A32212408922126C048E828F83A3A3A3DE
:10409300A322F582E43FF583125218E50A22F08544
:1040A3000A82850B83A3A3A3A3A3A32274ED120304
:1040B300B18A0A8B0B8C108D118912750900EA12D3
:1040C3004348F5089003401258E6600EA908126EA3
:1040D3001B120529E9600302430F7C0285108285C8
:1040E30011831259CFE50A124314E0F9120D448AE1
:1040F3000C8B0DAE0CAF0DEE4F7054850A82850B01
:1041030083A3E0A2E0400302430F7415120B0F12C6
:1041130006947417120B0F120698A912AC10AD1166
:10412300AA0AAB0B120D6874061208618A0C8B0D78
:10413300AE0CAF0DEE4F700302430F8E828F83A33D
:10414300A3A3A3A3A3A3A3E5081243A1121A7CA8C4
:10415300088E828F83A3A3A3A3A3A3A3A3E024FF17
:10416300FAE434FFFBEA684B7003750901EE240B94
:1041730012436470030242C4850A82850B83A3E061
:10418300A2E0500375080012438EE5089AE49BC32E
:1041930065D033401CE0F8EE240E1254C928F075A4
:1041A3000CFF750D00E8780C1209991260E7E50C15
:1041B300F0E50A12432012431B126F3812082FE551
:1041C3000A12432C350B1264ECEE240D1254C9F57C
:1041D3000CE508850CF0A4FAABF012434012673FDC
:1041E3002422F582E438124377FB121A1C7403125B
:1041F3000861750C01124369780C1209991254C6AF
:10420300450CF0E509A2E05063EE240C124355126D
:10421300436904780C1209998A828B83E0450C1256
:1042230051CA85080C850CF0A4F8A9F0124336FC9A
:10423300E82CFCE439FD12434012673F2420F58249
:10424300E438F583ECF0A3ED1251F1F4701EEE2483
:104253000BF50CE43FF50DEE12432C3F1243801295
:104263001A46850C82850D8374FF8054121B8A8E37
:10427300828F831251A690035EE0FA901903E0F552
:104283000CEA850CF0A4FAABF0F8EBF9901900E016
:10429300F50CE8850CF0A4F8ACF0850CF0E9A42C3F
:1042A300F9EA28F8EB39F9E875F064A4F8AAF0758F
:1042B300F064E9A42AF98E828F83A3A3E8F0A3E92B
:1042C300F0A80812438EEA24FF1AEB34FFFBEA68D6
:1042D3007001EB600EEE240C1243646006E509A244
:1042E300E05029E50A12434DECF01254C6C0E0E554
:1042F3000A2414F582E412431BD0E0F0AC0AAD0BA0
:104303008510828511831259CF120DC87F0B0206C7
:104313000F124ABE12431B22350BF583221243248C
:1043230022240EF582E422E50C124330222410F5F8
:1043330082E422E50A12433012431BE022EE1243C9
:10434300303FF5832212434DE022124AB8350BF574
:104353008322F8E43FF9E8FAE9FB750CFF22EE2427
:104363002B1251D5F422750D001251D2F5F0E50848
:1043730084E5F022F583E02AFAA3E03B22F58312D9
:1043830059D9850C82850D83E0F922EE240E125152
:10439300D5FC1251D2FAEC2AFAE43400FB22F07A6B
:1043A300017B00901868E0F922C082C083901868EE
:1043B300E0F9121A46025FE374F41203B18A088B20
:1043C30009EB5480703BEAA2E05053120D5CE50800
:1043D3006401FAAB09804B8E828F83E06401701A0B
:1043E300124434120694124428120833EE24121293
:1043F300443C120D6E7406120861EEFAEFFB121ABA
:1044030040901868E0F9121A528A0A8B0BAE0AAF71
:104413000BEE4F70C2AA08E5096480FB80047A00A2
:104423007B00023501EE240FF50AE43FF50B780A11
:1044330022EE124AB83FF583221251D5F9EE240237
:10444300FCE43FFDEE2419FAE43FFB2274F112036E
:10445300B1890A8A088B098A828B831259CF120D7C
:10446300868B0DEA450D600579B80244F7120DA459
:10447300E9F89028A1E493F9E8C399400479B2805C
:10448300737A157B00121ACA8A0C8B0DAE0CAF0D12
:10449300EE4F70047910805C8E828F83E4F0A31258
:1044A3006BEAA3E50A126E3B12082F7C127D00EE25
:1044B3002403FAE43FFB121A1C74031208619003ED
:1044C300421258E69003427006EEF0A3EF801FE01D
:1044D300FAA3E08003E8FAE9FB8A828B831258E6A9
:1044E30070F3EEF8EFF98A828B83E8F0A3E9F01218
:1044F3000DB67900025BA4C082C08390034280049E
:104503008C828D83123D10EC4D60288C828D83A3A9
:10451300A3E069600574FF6970E68C828D83A3A3B1
:10452300A3E06A7003A3E06B70D6EC2403FAE43DC6
:10453300FB80047A007B00025FE374F71203B1E9A6
:10454300FD74FE6D70047C0180027C009003428048
:10455300096D70027C01888289831258E6601F8886
:10456300828983A3A3A3E06A7003A3E06B70E7ECE3
:10457300A2E088828983A3A3E050D6F9800279FE62
:10458300024D6274F61203B1E9FF7E00900342E02C
:10459300FCA3E0802D8C828D83A3A3E06F701E8C1F
:1045A300828D83A31245CF25E0F8E433F9EA28F599
:1045B30082EB39F583E508F0A3E509F00E1258C044
:1045C300FCE9FDEC4D70CEEEF9024B58A3A3125853
:1045D300B8EE2274F71203B1E9FE90034212469E2D
:1045E3007C007D00800BE8FCE9FD8882898312460C
:1045F3009EE849603D88828983A3A3E06E70E788C3
:10460300828983A3A3A3E06A7003A3E06B70D7EC52
:104613004D8882898370081259CF90034280031218
:104623004D4E126387FAE9FB121AD0120DB67901C7
:1046330080027900024D6274F51203B1890A900376
:10464300421259CF7508007509008015125429E8E4
:10465300F0A3E91251F1FEA3E0FF121AD0EEFAEF34
:10466300FBEA4B602B8A828B83A3A3E0650A70125B
:10467300E50845098A828B8370D212469E900342D5
:1046830080CD8A088B098A828B83E0FAA3E080D0ED
:10469300120DB60273DD8E828F83A31246A22212FD
:1046A3006C04221259D9EA4B22C082C0837900904C
:1046B30003428001091259CF8A828B83E5824583A5
:1046C30070F2025FE374F61203B1E4F508F50978BA
:1046D300081208339028A1E49375F013A4A9F012EB
:1046E300480A121B367402120861E9FE6003120DB8
:1046F300B00245CA74F61203B174FE1208F58518A8
:1047030082851983E4F0A3F0A818A91988088909F8
:1047130078081208337508027509007808120833FF
:104723007C007D007A427B00121B427404120861F4
:10473300024B5374F51203B174EB1208F58518821A
:10474300851983E4F0A3F0900342E0FEA3E0807EAA
:104753008E828F83A3A3E0C0E07402120B0FD0E01C
:1047630012481EA982AA8389088A09750A00780853
:1047730012082F7C127D007406120B0FAA82AB83E2
:10478300121A1C740312086174021208C78808897C
:104793000978081208337508137509007808120898
:1047A300337404120B0F1258C475F013A4F8AAF053
:1047B30075F013E9124806121B427404120861854E
:1047C3001882851983124815127003E8FEE9FFEE7B
:1047D3004F6003024753A818A91988088909780864
:1047E30012083375080275090078081208337C0033
:1047F3007D007A427B00121B427404120861741517
:104803000273DAA42AF9E82402FCE439FD7A427B34
:104813000022E02401F0A3E03400221248222212F5
:1048230048262212482A22126BEFA3A3A32274F470
:104833001203B174EB1208F57E007F00A818A919C2
:104843008808890978081208337508028E097808E0
:104853001208337C007D007A427B00121B487404EB
:10486300120861E9706E8E08805874021208C788B6
:104873000A890B780A120833750A13750B00780A34
:10488300120833E50875F013A4F8AAF075F013E5E0
:1048930009124806121B487404120861E9701B745C
:1048A30003120B0FAA82AB837402120B0FE0F912EF
:1048B3000D80E970050EEE70010F0508E508700222
:1048C300050985188285198312469EC3E50898E574
:1048D30009994096EEFAEFFB74150234FE74F61252
:1048E30003B18C828D83A3A3124B14F0EA2417F532
:1048F30082E43BF583E0C0E0124AE4D0E0F0124AE0
:10490300C412469E124ACE124B14A3F0A3F0EA241B
:104913001FF582E43BF583123D27EC1251893DF5E7
:1049230083EEF0A3EFF0EA1260E13BF583124AF560
:10493300A3A3A3A3A3A3EEF0A3EF12636CFE8C8245
:104943008D83124B3E74035EFEC394034003024AFD
:10495300ABEE600574026E70798C828D83E0540C2B
:10496300FE740C6E7003024A12E0A2E4400D8882CA
:104973008983E08C828D83A3124B4674086E600397
:10498300024A12124AD67401F08A828B83A3A3A32C
:10499300A3A3125B9970148C828D83E0440C124B99
:1049A3001EA3A3124AF5EEF0A3EFF08C828D83E0F1
:1049B300A2E4401E124B03124B2F500109124B036A
:1049C300A3A3124B2F50010988828983124AEC1248
:1049D3004B3E88828983E0C0E0EC124ABE3DF583FA
:1049E300D0E0124B3E8C828D83E0A2E75078888220
:1049F3008983E0FE8C828D83124B4674FC5E700CBF
:104A03008C828D83A3E054036403701B024AAB12B0
:104A13004AD6E4F0740C6E600302498C124B031205
:104A23004B3150870980848C828D83A3E0540360CB
:104A33003888828983E0C0E0EC124AB83DF583D020
:104A4300E0124B478C828D83E054036402701A8812
:104A5300828983E0C0E0EC2414F582E43DF583D041
:104A6300E0124B478003A3E4F0EC1243203D125CB9
:104A7300CCEC2410FEE43DFF124AC4E0F5088E821C
:104A83008F83E0C3982508F508F0EA2417F8E43B80
:104A9300F988828983E0C39508C0E0124ACED0E04A
:104AA30012636CC39508500A124ACEE4F0124AE42A
:104AB300E4F0024B582413F582E4222411F582E436
:104AC30022EA241DF582E43BF58322EC1260E13DEA
:104AD300F58322EC124ADE3DF58322240CF582E4B1
:104AE30022EC1243303DF58322E08C828D83A3A315
:104AF300A322E0FEA3E0FF8C828D83A3A3A3A322C2
:104B030088828983E0F508A3E0FFE5088C828D8322
:104B130022E4F08C828D83A3A3A322124B26A3A3AA
:104B2300A3A322F08A828B83A3A3A322A3A3A3A379
:104B3300A3A3F0A3EFF0E82402F822124B4EA882BD
:104B4300A98322A3124B4E08A98322126371A322C5
:104B530074021208617F0202060F74F41203B17427
:104B6300F31208F58A0A8B0BECFEEDFF8E828F831E
:104B7300E0540CF508E0A2E75006E508D2E7F50893
:104B8300E508D2E1F508125B997006E508D2E4F571
:104B930008E0A2E55006E508D2E5F5087C087D00AB
:104BA3007900AA18AB19121A287402120B0FE50820
:104BB300124C8AC0E07403120B0FD0E0125200E5CE
:104BC3000AF0A3E50BF07405120B0F1264F3120E37
:104BD3007C740C120B0FE070787408120B0F1267C1
:104BE3003F12633138126C14C0E07408120B0F12B9
:104BF3004C7ED0E0126792C0E07408120B0F124C87
:104C030072D0E0F07408120B0F12534B124C611266
:104C130061CB1251DD24111254C9C0E0124C59D09A
:104C2300E0F0EE24141254C9C0E07408120B0F1202
:104C3300673F2435F582E438F583D0E01251C2C0D2
:104C4300E07408120B0F125173D0E01264F5120EC8
:104C530082740D0234FEE812513139F58322125960
:104C6300D3E8242AF582E439F583EAF0A3EB221290
:104C7300678D2427F582E438F5832212678D242675
:104C8300F582E438F58322126BEAE02274F712030B
:104C9300B17E008A828B83A3A3A3A3A3A3A3A3A30D
:104CA300E064046003024D3B125A55E06003024D79
:104CB3003B124D3F3B1258E4607E88828983E05467
:104CC300037075E8240C125E5CFA8C828D83A3A3B7
:104CD300E0FBA3E0CB124ABE3BF583E06A70598840
:104CE300828983A3A3A3A3A3124D4AE06A7003A3FB
:104CF300E06B704488828983124D4AA3A3125E89B4
:104D030024061254C96A7003A3E06B702B8882894E
:104D130083A3A3E0F88C828D83A3A3E0F9A3E0F53A
:104D2300838982A3A3E068600D8C828D8312567BF6
:104D3300540C640470027E01EEF98023EA124D44A0
:104D430022240FF582E422A3A3A3A31259D98C82B0
:104D53008D8322740C120B0FE0F9740D1208617F1E
:104D63000102060F74F61203B174FC1208F5EAFE91
:104D7300EBFFECFAEDFB8A828B83A3E0540360160E
:104D83009003341258E660597900EEFCEFFD126E81
:104D93001B120529804B851882851983EEF0A3EF3A
:104DA300F07402120B0F1251A6AC18AD197ACE7B18
:104DB3000D1210148A088B09A808A909E849602173
:104DC30088828983A3A3A3A3A3A3A3A3A37406F0A5
:104DD3007A008882898312673F126717E0F9120FFE
:104DE300547404024B5574F21203B174F31208F5B0
:104DF300EAFEEBFF8E828F83A3A3A3A3A3A3A3A3A4
:104E0300A3A3E0F50A901867E0700579BA02512C64
:104E1300750801750900750C00750D007C087D008F
:104E23007900AA18AB19121A287405120B0F740112
:104E33001251F8540460127402120B0FE0D2E612FE
:104E430051F854087003750803E054106006744069
:104E53004508F508E0540860227402120B0FE04481
:104E6300C01251F85420600A7403120B0FE0D2E011
:104E730080087403120B0FE0D2E1F0EE24151254F4
:104E8300C912515B7003740169700674084508F513
:104E9300088E828F83A3A3A3A3A3A3A3A3E0701667
:104EA3001210808518828519831251A67402120B81
:104EB3000FE0D2E2802C640F70107402120B0F12F9
:104EC300520874044508F508807B8E828F83A3A360
:104ED300A3A3A3A3A3A3E064028E828F837006120D
:104EE30061BFF08060A3A3A3A3A3A3A3A3E0640370
:104EF300700DAC18AD19EEFAEFFB120E0480468E5E
:104F0300828F83A3A3A3A3A3A3A3A3E06401703508
:104F13009003BEE060107402120B0F125208750961
:104F230010750AFF80187402120B0FE0440C125222
:104F33000074FDF0A374FFF074044508F5088E8235
:104F43008F83125167EE24151254C9A2E0503F74A7
:104F530002120B0FE0540C701B8E828F831259CFF9
:104F6300121FC2E9700579BB02512C7402120B0F98
:104F7300E0D2E5F0EE24151254C9A2E050107402F9
:104F8300120B0FE0540C64047004E0D2E5F0EE243D
:104F9300111254C9C0E07404120B0FD0E01264F56F
:104FA300120E7C740C120B0FE0600302512574087F
:104FB300120B0F12518FE508F0A3E509F0EE241848
:104FC3001254C9C0E012514AD0E01251ACE0C0E023
:104FD3007408120B0F12673F124AB838F583D0E0FA
:104FE3001261CB640170119003BEE0C0E07408123B
:104FF3000B0F12517FD0E0F07408120B0F12519B6C
:1050030024171254C9FAE8241CF582E439F583EA1B
:105013001258F6EE2415FAE43FFB8A828B83123D85
:1050230010E8125141ECF0A3ED1251B7E0C0E012C9
:105033005137D0E01251F112515B70037401697062
:10504300137408120B0F125A3CFAEE241D1254C9A2
:10505300F9120BC48E828F83A3A3A3A3A3A3A3A339
:10506300A3E0C0E07408120B0F124C7ED0E0F07482
:1050730008120B0F124C72E50AF07408120B0F1290
:1050830058C42428F582E439F583E50CF0A3E50D33
:105093001251CAFAA3E0FBE8242A1251E4240F12A6
:1050A30054C91251DD24171254C9C0E0E82433F562
:1050B30082E439F583D0E0F0125154C0E074081251
:1050C3000B0F125173D0E0F0EE241A1254C9C0E052
:1050D3007408120B0F12673F12513138F583D0E079
:1050E3001251C2122B9D12082F126DE9123D10743A
:1050F3000B120B0F12619D121A1C7403120861EE3E
:1051030024151254C95440601290034E1258E6609D
:105113000AAA18AB19126E1B120529AA18AB191289
:105123000E82740C120B0FE0F9740D022C00243262
:10513300F582E422E82420F582E439F58322241E53
:10514300F582E439F58322E82412F582E439F58304
:1051530022EE241B1251D5225480F8A3E05401F906
:105163007480682212516B22E0F50CA3E0F50D2246
:1051730012678D2434F582E438F5832212678D1289
:10518300518938F583222415F582E4221258C81276
:105193004D4439F58322F5831246A2EE22F582E4CB
:1051A30039F583EAF0A3EBF022F0EE2419F582E45B
:1051B3003FF58322F0EE241CF582E43FF58322F0D1
:1051C300EE24131251D522F0EE240D1251D522EE06
:1051D300240FF582E43FF583E022FAA3E0FBE82401
:1051E3002CF582E439F583EAF0A3EBF0EE22F08AA2
:1051F300828B83E022F0EE24151251D522F085181C
:105203008285198322E0D2E312700712521222859B
:105213001882851983E8F0A3E9F02274F71203B129
:105223007E638A828B83E0600C7905120F24E9F890
:105233007456C398FE900366E0600CF9120F24E9DC
:10524300F8EEC39824F2FE024D3B74F61203B174D8
:10525300FE1208F58518828519831251A6E9FEEC22
:10526300FAEDFB9005361258E66035A818A919889F
:1052730008890978081208337D01740E120B0FE0B8
:10528300FCEEF990053612673312052974021208F1
:10529300618B09EA450960047900800679B28002CE
:1052A30079B6024B5374F71203B1E9FE9003281247
:1052B30058E6601F7409120B0FE0F508780812080E
:1052C30037EEF99003281267331205297401120887
:1052D30061800279B6024D6274F71203B18908EC5A
:1052E300FEEDFF79B5E508245F600C1460311460AE
:1052F3001224F86045804E90031B12534BE8F0A331
:10530300E980199005381246A6603A90053812676D
:10531300331205298E828F83EAF0A3EBF080249069
:10532300032A123D10EC4D601CEEFCEFFD90032AA6
:10533300126733120529E9F9800B900326126A508C
:10534300121BA87900024D621246A28E828F83221D
:1053530074F71203B1E979B5245F600624F6600E91
:1053630080178C828D8312537F125CCE8009900349
:10537300261259CF121BA87900024D621246A29041
:10538300031B2274F21203B18A088B09ECFEEDFFB2
:10539300750A0190036EE065087004A3E065097067
:1053A3001412107A8A088B09AC08AD09EEFAEFFBE8
:1053B300121BA8802A1210868A0C8B0DE508650C37
:1053C3007004E509650D7009EEFAEFFB12108C808D
:1053D3000EEEFCEFFDAA08AB091221F0E9F50AA9CC
:1053E3000A022C0374F21203B1EAFEEBFF8C088D60
:1053F30009750A0112107A8A0C8B0DAC0CAD0DEEF7
:10540300FAEFFB121BA2E96401700B90036E1254B6
:1054130029125CCE800EAC08AD09EEFAEFFB122127
:10542300EAE9F50A80B912542D22126C0485088228
:105433008509832274F61203B1EAFEEBFF7A0D7B32
:1054430000121ACAEA4B6070EE2424127029F0EE9F
:105453002425127029A31254E512702FA3A3126EF0
:10546300301254CDF0EE125E6F12469E8A828B8309
:10547300A3A3A3A3E8F0A3E91254FC1254D6125C2D
:10548300CEEE242EF582E43FF5831254CDA3A3A3DD
:10549300A3A3F0EE24331254C9C0E01254BED0E0EB
:1054A300126C181254D6A3A3A3E8F0A3E91254F480
:1054B300C0E0125A55D0E0F0024B58EA125E693B45
:1054C300F58322EE240C1251D522E08A828B83A32A
:1054D300A3A322F8A3E0F98A828B83A3A3A3A3A3A4
:1054E300A322F01254EA22EE2426F582E43FF58348
:1054F30022F0EE24321251D522F0EE242C1251D593
:105503002274F41203B174FE1208F5ECFEEDFFEE03
:1055130024161254C964057010EE2406FCE43FFD02
:10552300120DFEE970030255B1AC18AD19126EF2FB
:10553300121FC88518828519831258E6606C8E8203
:105543008F83E064017059E875F009A4F8AAF07537
:10555300F009E9A42AF9740E28F8740639F9E8FA6F
:10556300E9FB8A828B837808120AA0126E0B7808F3
:10557300120A62402785188285198312519B12569D
:10558300741255B67808120AA09080AE7808120AF1
:105593001E8A828B837808120A82800A79A280107D
:1055A300EE240F125CC87900800679A1800279C8C5
:1055B3000234FC125218126E0F2274F01203B18AD5
:1055C300088B09ECFEEDFF125673E4F0A3F0908014
:1055D300C6780C120AA0126E0B780C120920700305
:1055E30002566BEE240E1254C96401703678B390E0
:1055F3000365E0702A900397E064017022EE2411A2
:105603001254C9F9120F0C8A088B09A808A909EECC
:10561300240F125CC8E84960047800800278A188EE
:105623000A8048E07017120E10E9F50A603D8E8279
:105633008F83A3A312567B5403700E802E640270D3
:1056430015120E10E9F50A6022EEFCEFFDAA08AB75
:1056530009121FF28008E064037008120E10E9F5C6
:105663000A8008750AA18003750AA3A90A023E727B
:10567300EE124D443FF58322A3A31265692274F011
:105683001203B174F51208F5EAFEEBFFEE240AF5F6
:1056930008E43F850882F5831258B41258887403CE
:1056A3001208D78E828F831259CF120DFEE9700331
:1056B30002577074011208D774031208CF121FC85F
:1056C3007401120B0F1258E67003025770E875F05D
:1056D30009A4F8AAF075F009E9A42AF9740A28F8CC
:1056E300740639F9E8FCE9FD127310E4F004120BB7
:1056F3000F12469EE508124D403509125CCC8C8290
:105703008D83120AC8125894120ABC9080AE78088E
:10571300120AA08C828D8378081209F88C828D83FB
:105723007808120AA09080CA780C120AA078087927
:105733000C120342E50C450D450E450F702F740105
:10574300120B0F1258C475F009A4F8AAF075F009EA
:10575300E9A42AF9741228F582740639F5837401D1
:10576300F07A007B089016F2E0F9121A7C12589C2A
:10577300E02406FCA3E03400FD8E828F831259CF10
:10578300120DFE8508828509831258DB7052125A66
:1057930010121BA2E9701D12107A8A088B09AC083B
:1057A300AD099003261259CF121BA2E97006120EFF
:1057B300A6E9602C8E828F83123D068E828F831220
:1057C30059CF121FF8E960138E828F83A3A3126748
:1057D30037124D4038F583E4F0A3F0125CA5E4F0F2
:1057E3001258CD600302587B8E828F83A3A3A3A399
:1057F300A3A31258B0900365E07072900397E0641E
:1058030001706A750A3A750B00780A12083374023C
:105813001208C7880A890B780A1208337C017D00B5
:105823007A007B001212607404120861E9703B1263
:1058330073107401125200E0C0E0E50824111273E2
:105843006CD0E0F0125880743A1258F6900350125C
:105853000AC8125894120ABC9080AE7808120AA0A3
:1058630090035078081209F880031258881258CD13
:1058730070061260E774A1F0740B023E6FE5082412
:105883000F12407522E508240F124075E4F0A3F0CF
:1058930022E508241212407522EE240A1258A78822
:1058A30082F58322F8E43FF98808890922A3A3A398
:1058B300A31258B822E0F508A3E0F509228C828DE3
:1058C300831258C822126C04E8228E828F83A3A30A
:1058D300A3A3A3A3A3A3A3A312678D240FF582E419
:1058E30038F5831258C8492212678D124D4438F592
:1058F300837404F0A3E4F02274F61203B1EAFEEB1E
:10590300FFEE240A1258A77A187B00121ACA8508D8
:1059130082850983EAF0A3EB125A50E84970030227
:1059230059BCEEFAEFFB120E1C1258CD6074125ADA
:105933002E64018E828F83A3A3A3A3A3A370071254
:105943005A00740E80201258E6700F125A10121B60
:10595300A2E97006120EA6E960071259F6740D80CB
:10596300051259F67405126C18540364017007127A
:1059730059DF7405800B900366E0C0E01259DFD055
:10598300E0125A41F5838882A3E0F9120F248508B7
:105993008285098312673F2417F582E438F583E98A
:1059A300801A8508828509831259CF121AD0850877
:1059B30082850983E4F0A3800312671EF0024B582B
:1059C3008E828F83A3A3A3A3A3A3A3A31259D92234
:1059D300A3A3A3A3A3A3E0FAA3E0FB228E828F8356
:1059E300A3A3A3A3A3A3A3A31259EF22A3A3126167
:1059F30000A3228E828F83A3A3A3A3A3A3A3A3A302
:105A0300A312678D2416F582E438F58322900326CA
:105A1300123D148E828F83A3A3A3A3A3A3A3A3A343
:105A2300A3E02406FAA3E03400FB228E828F83A333
:105A3300A3A3A3A3A3A3A3A3A3125CB7E022125A15
:105A43004522125A49221270F4F8A3E022125A4551
:105A5300F922EA124ADE3BF5832274F11203B18A7A
:105A63000A8B0B8C088D097A187B00121ACA8A0CD0
:105A73008B0DAE0CAF0DEE4F7003025B92121080D4
:105A83008A0C8B0DA80CA90DE50824151270EB6880
:105A93007003A3E0698E828F8370047402800274A2
:105AA30001F0E508240DF8E43509F988828983E0DB
:105AB300FAC3E49AFA95E0FBE5081243203509128C
:105AC3004377FB8E828F83A3A3A3A31263688E8283
:105AD3008F83A3A3F0EEFAEFFB120ED6850882851F
:105AE3000983125B9970098E828F83A374058006E4
:105AF300900366123E54F0EE2417F8E43FF9880C45
:105B0300890D8E828F83A3E0F9120F24E9850C821D
:105B1300850D83F0EE2416F8E43FF9E508240EFA28
:105B2300E43509FB8882898312674FE5082410FA5C
:105B3300E43509FB850C82850D83E0FC888289832B
