:020000040000FA
:06000000020ACA02025EC2
:03002B0002079F2A
:0300530002019314
:100083000201F2010105030101FF0F10FEFF8727A3
:10009300000000005B2600000000FF000000FF00DE
:1000A300011020202020202020202020202020207C
:1000B3002020010020FD000206FF010401000100D1
:1000C3000575800132818A16901600000000000039
:1000D3009C167E1C000000000000000000000000D1
:1000E300000000000000020401000100057F800100
:1000F30034818A1690160000000000009C16841CB0
:1001030000000000000000000000000000000000EC
:100113000000030401000100056B800136818A168B
:1001230090160000000000009C168A1C00000000CE
:1001330000000000000000000000000000000101BA
:10014300010400F616000000E8030000FFFFC117DA
:10015300E803000064006400B801A0BB0D00A0BB6D
:100163000D00020200F8FF070502070401051E0245
:10017300051E020A0A0102080803B80B02803E01A9
:1001830002FEFFE8030A050001FFFF010A1401E074
:10019300C0E074F1120475A2AFE433F509D2AF8560
:1001A300A708AFA1EF5508FE74105E60061218761B
:1001B30075A1EF74085E600812187C75A1F780249E
:1001C300EFA2E092F0E508A2E082F0501790619868
:1001D300E0F8900587E0C398A2D265D0335002E8D7
:1001E300F075A1FEE509A2E092AF7F020204D4C03C
:1001F300E074F2120475A2AFE433FED2AF9061A4AF
:10020300E0F8759B00E59158540860087591F71262
:1002130018C48023E59158541060087591EF1218A3
:10022300CA8014E591A2E092F0E8A2E082F05007C0
:10023300E0C2E0F0121A209061A3E0F8E5E9585417
:1002430004600E1219F675E9FB906193E0A2E64093
:10025300F2EEA2E092AF7F010204D4C0E074F21286
:100263000475A2AFE433FED2AF9061A5E0F8E5BF19
:10027300585404600675BFFB121A3880D4C3E4983F
:10028300F8E499F91202C18026C3E49AFAE49BFBCD
:10029300E920E7E91202C1E498F8E499F922C3E4FA
:1002A30098F8E499F91202C1E498F8E499F9C3E4DF
:1002B3009AFAE49BFB22EB20E7CFE920E7E0B900C1
:1002C30010BB0008E88AF084F8AAF022E4FBC8FA1D
:1002D30022EB70227B10C833C8C933C9335007C31C
:1002E3009AC3DBF280069A50012ADBEAC833F4C8CA
:1002F300C933F4C9FA2275F008E4C833C8C933C94D
:1003030033C99AC99B5004C92AC93BD5F0ECFBC831
:1003130033F4C8E4C9FA22080808EAC0E0EBC0E0F5
:1003230086F0E7A4FA180986F0E7A42AFA180986E2
:10033300F0E7A42AFA180986F0E7A42AFA1986F046
:10034300E7A4FBE5F02AFA190886F0E7A42BFBE5FE
:10035300F03AFA190886F0E7A42BFBE5F03AFA180D
:10036300180986F0E7A4C5F02BFBE43AFA1908E76D
:10037300C5F0C6A426F6E5F03BFBE43AFA1886F08E
:10038300E7A4F6E5F00826F6E43B08F6E43A08F6B7
:10039300D0E0FBD0E0FA22E4CFC0E0E4CEC0E0E45A
:1003A300CDC0E0E4CCC0E075F020E626F608E633E5
:1003B300F608E633F608E633F6181818EC33FCEDC6
:1003C30033FDEE33FEEF33FFC3EC9709ED9709EEF0
:1003D3009709EF97191919400FFFEC97FC09ED974F
:1003E300FD09EE97FE191906D5F0BFECF709EDF7F5
:1003F30009EEF709EFF7191919D0E0FCD0E0FDD0A9
:10040300E0FED0E0FF222518C582C0E0E51934FFE5
:10041300C583C0E0E518C3958224F810AF0885832F
:10042300198582188008858319858218D2AFCEF08A
:10043300A3E520F0A37808E608F0A3DEFAEFF0A323
:10044300E58124FAF8E608F0A3E608F0A3E608F04D
:10045300A30808E608F0A3E608F0A315811581D0E8
:10046300E0FED0E0F8158115811581E8C0E0EEC00B
:10047300E022C0D02518C582C0E0E51934FFC5834A
:10048300C0E0E518C3958224F310AF08858319856E
:1004930082188008858319858218D2AFC8F0A3E932
:1004A300F0A3EAF0A3EBF0A37908E709F0A3D8FAE5
:1004B300ECF0A3EDF0A3EEF0A3EFF0A3D0E0F0A3F4
:1004C300D0E0F0A3D0E0F0A3E520F0A3E5F0F0A3A3
:1004D30022851983851882E0C0E0A3E0F9A3E0FA3E
:1004E300A3E0FBA37808E0F608A3DFFAE0FCA3E0AF
:1004F300FDA3E0FEA3E0FFA3E0C0E0A3E0C0E0A310
:10050300E0F5D0A3E0F520A3E0A3F5F010AF088554
:1005130083198582188008858319858218D2AFD004
:1005230082D083D0E0F8D0E032120B5CB900030232
:10053300056BE4900301786679168002F0A3D8FC7A
:10054300D9FA7A667B18900086780E79028015E4D2
:1005530093A3AD82AE838A828B83F0A3AA82AB83FB
:100563008D828E83D8E9D9E77582DE7583FD7403A6
:100573001208657582587583247400120865E47344
:100583000A75F0108E1A8F1B85821F85831E8518AE
:1005930082851983E0CEA3E0CF851F82851E83EB7E
:1005A300C9EAC8EDCBECCAC3E833C8E933C9EA33B7
:1005B300CAEB33CBC3EA9EF51DEB9FF51CB3500486
:1005C300AB1CAA1DEC33CCED33CDD5F0DAAE1AAFAC
:1005D3001B22D083D082ECC0E0EDC0E0E493A3FC07
:1005E300E493A3FDED4C600D1206ADEC24FFFCED8E
:1005F30034FFFD80EFE493A3FCE493A3FDED4C6093
:100603000D12074AEC24FFFCED34FFFD80EFD0E030
:10061300FDD0E0FCE493A3C0E0E493C0E022D083E8
:10062300D082E9C0E0E493A3C386F0C5F095F0F966
:1006330008E493A386F0C5F095F0700BE493A3C38D
:10064300994005E9048002A3E475F002A42582F52C
:1006530082E5F03583F583D0E0F9E493A3C0E0E4C9
:1006630093C0E022851983851882E0A3FEE0A3F5F9
:10067300207808E0A3F608DFFAE0A3FFE0A3C0E0D8
:10068300E0A3C0E0E0A3C0E0E0A3C0E0E0A3C0E0DB
:1006930010AF0885821885831980088582188583A1
:1006A30019D2AFD083D08202086BC0E0C3E4939623
:1006B300087401939618400FE49366700808740158
:1006C30093661870007019A3A3C3E493960874018A
:1006D300939618A3A3400DD0E0D0E0D0E00206111A
:1006E300A3A3A3A3A3A3D0E0227404800474028071
:1006F30000CCC0E0EDC0E0E518C39CCCAD195001BF
:100703001D10AF068C188D1980068C188D19D2AF69
:100713001207E7D0E0FDD0E0FC2274028000CCC0D9
:10072300E0EDC0E0E518C39CCCAD1950011D10AF3E
:10073300068C188D1980068C188D19D2AF1207C537
:10074300D0E0FDD0E0FC22C0E0C0F088F0E4936686
:1007530070080874019366187000A8F0A3A3700BC7
:10076300D0F0D0E0D0E0D0E0020611A3A3D0F0D0C7
:10077300E022D083D082CCC0E0E493A360061208C9
:10078300081470FAE493A360061209371470FAD0C0
:10079300E0FCE493A3C0E0E493C0E022C0E0C0D057
:1007A300E8C0E0E9C0E0A9A8D2AFC2C7E9A2E7E484
:1007B30033F8E9A2E792AFD0E0F9D0E0F8D0D0D097
:1007C300E032CAC0E0E493A3C582CCC582C583CD21
:1007D300C583F0A3C582CCC582C583CDC583DAE5C5
:1007E300D0E0CA22CAC0E0E0A3C582CCC582C583DB
:1007F300CDC583F0A3C582CCC582C583CDC583DABD
:10080300E6D0E0CA22C0E0E493A3D39C5010E49363
:10081300A3C39C400AD0E0D0E0D0E0020792A3A398
:10082300A3D0E022C008C3E096F50808A3E09642EF
:100833000808A3E096420808A3E09645087001D390
:10084300D008227009080808226016181818C6C3B1
:1008530033C608C633C608C633C608C633C6D5E092
:10086300EA22C09FF59FE473D09F22D083D082C039
:100873009FE493C0E0740193C0E0740293F59F2258
:100883007404800A74038006740280027401C0E059
:10089300F40412089ED0E0120B07222518F58210EB
:1008A300AF08F518400C15198008F5184002151902
:1008B300D2AF8519832200C0D0251810AF08F518D0
:1008C300500C05198008F51850020519D2AFD0D085
:1008D30022BB0102E722C082C08389828A83BB00D4
:1008E30003E08002E493D083D082226016080808D4
:1008F300C6C313C618C613C618C613C618C613C66E
:10090300D5E0EA22C3E0C696F608A3E0C696F60849
:10091300A3E0C696F608A3E0C696F6222518F8E4E7
:100923003519F9222518FAE43519FB222518FCE4B8
:100933003519FD22C0E0E493A36C7009D0E0D0E048
:10094300D0E0020792A3A3D0E022251810AF08F548
:1009530018400C15198008F51840021519D2AF225A
:10096300C3E09608A3E09608A3E09608A3E096A246
:10097300D265D03322E066701008A3E066700A08DF
:10098300A3E066700408A3E06622E7667010080916
:10099300E766700A0809E76670040809E76622C378
:1009A300E096F008A3E096F008A3E096F008A3E031
:1009B30096F022C3E697F60809E697F60809E69744
:1009C300F60809E697F622C3E49396087401939612
:1009D3000874029396087403939622E627F608098F
:1009E300E637F60809E637F60809E637F622700413
:1009F30022600D18C6C333C608C633C6D5E0F41843
:100A030022E493F608740193F608740293F60874CB
:100A13000393F622E657F60809E657F60809E65760
:100A2300F60809E657F622E056F608A3E056F6085C
:100A3300A3E056F608A3E056F622E056F008A3E03A
:100A430056F008A3E056F008A3E056F022E026F0A3
:100A530008A3E036F008A3E036F008A3E036F0225E
:100A6300E647F60809E647F60809E647F60809E601
:100A730047F622E026F608A3E036F608A3E036F6AA
:100A830008A3E036F622E4C396F608E496F608E4F3
:100A930096F608E496F622C6F4C608C6F4C608C657
:100AA300F4C608C6F4C622C3E7960809E796080900
:100AB300E7960809E79622C3E09608A3E09608A301
:100AC300E09608A3E0962275D00075813F75180162
:100AD3007519030002052CE6F008A3E6F008A3E667
:100AE300F008A3E6F022600C08C6C313C618C613A9
:100AF300C6D5E0F422E0F608A3E0F608A3E0F60882
:100B0300A3E0F622CAC0E0E6F0A308DAFAD0E0FADE
:100B130022E8F0A3E9F0A3EAF0A3EBF022E0F8A3C4
:100B2300E0F9A3E0FAA3E0FB22ECF0A3EDF0A3EEDF
:100B3300F0A3EFF022E0FCA3E0FDA3E0FEA3E0FFBF
:100B430022EAF0A3EBF0A3ECF0A3EDF022E0FAA38A
:100B5300E0FBA3E0FCA3E0FD22E5C754F84401F564
:100B6300C77901222518F582E43519F58322C2AF2E
:100B730075D69F0200002212086E90A10312086E20
:100B8300A0A10312086ECEA20312086E52A3031291
:100B9300086E8EA30312086E68A50312086E25A9BA
:100BA3000312086E39A90312086E43A90312086ED3
:100BB3004DA90312086E57A90312086E70A90312F8
:100BC300086E7AA90312086EE7A90312086EF2A948
:100BD3000312086E1AAA0312086E25AA0312086EDE
:100BE3008AAA0312086E95AA0312086EB9AA031201
:100BF300086EDDAA0312086E4FAB0312086E98ABA2
:100C03000312086EB4AB0312086E25AC0312086E10
:100C130071AC0312086EBAAC0312086EF8AC03127F
:100C2300086E79AD0312086E20AE0312086EEFAFA3
:100C33000312086E54B00312086E82B10312086ED9
:100C4300A8B10312086EF0B20312086E2AB603129B
:100C5300086E28B80312086EF3B90312086E8CBA33
:100C63000312086E8DBC0312086E42BD0312086E98
:100C73007BBD0312086EE1BD0312086EEBBD0312C8
:100C8300086E14C00312086E53C10312086EAAC182
:100C93000312086E55C20312086E05C40312086ED0
:100CA30052C50312086E72C50312086EC7C503123C
:100CB300086EC8C60312086EF0C60312086E4FC74B
:100CC3000312086E47C80312086EBEC80312086EEB
:100CD300D1C90312086E3FCA0312086E3ECB03123A
:100CE300086E98CD0312086EC1CD0312086E27CF8C
:100CF3000312086EA9D00312086E00D10312086E06
:100D0300AED10312086E53D20312086EACD2031293
:100D1300086E6AD30312086EFCD30312086E5BD409
:100D23000312086E9DD40312086ECED40312086E0C
:100D330025D60312086E00800212086E328002125A
:100D4300086E6B800212086E29820212086EFF82FF
:100D53000212086E5E830212086E74840212086E19
:100D6300C0840212086E4E870212086E288A02128D
:100D7300086E6F8B0212086E078C0212086E138CBA
:100D83000212086E5C8C0212086E9E8D0212086EAF
:100D9300948E0212086EBE8E0212086E148F021217
:100DA300086E6D8F0212086EE08F0212086E1692A3
:100DB3000212086E98930212086E83940212086E50
:100DC300CD950212086E05980212086E029B02125C
:100DD300086E119B0212086EA59B0212086E509CAE
:100DE3000212086E939C0212086EDC9C0212086EBB
:100DF3002C9D0212086E909D0212086E029E021232
:100E0300086E1E9E0212086E4D9E0212086E8C9E84
:100E13000212086E879F0212086E36A00212086E35
:100E2300B3A20212086EE5A30212086EBDA4021259
:100E3300086E3FA50212086E74A90212086EA3A9D8
:100E43000212086EFEA90212086E31AA0212086E7F
:100E5300A9AA0212086EDCAA0212086E3DAB0212A6
:100E6300086E8DAB0212086E5AAC0212086E13ADF7
:100E73000212086ED7AD0212086E51B00212086E4C
:100E8300B3B10212086E04B30212086E28B4021240
:100E9300086E2BB40212086E5AB40212086E52B6D0
:100EA3000212086E11B70212086E40B70212086EE2
:100EB3005EB80212086E26B90212086EE4BA021274
:100EC300086E16BB0212086E58BB0212086E57BC9E
:100ED3000212086ECABC0212086EF3BE0212086E3A
:100EE30052BF0212086EA6BF0212086ED5C10212CB
:100EF300086EB8C20212086E74C30212086E88C369
:100F03000212086E9CC30212086EC9C30212086E55
:100F1300F9C30212086EB4C50212086EC6C60212E5
:100F2300086E1BC70212086E64C70212086E8BC7D5
:100F33000212086E53C80212086EF9C80212086E34
:100F43007FCA0212086EC6CA0212086E38CB02129A
:100F5300086E8DCC0212086E36CD0212086E6ACD71
:100F63000212086E82CD0212086E25CE0212086E9E
:100F7300A1D00212086E49D20212086E67D2021281
:100F8300086E85D20212086E51D30212086E9FD6E4
:100F93000212086E40810112086E78810112086EF8
:100FA30078860112086EBE860112086EF48701125C
:100FB300086E59880112086ECE890112086ED88C0A
:100FC3000112086E018E0112086E14980112086E48
:100FD300A4980112086E8E9B0112086E9B9C01124D
:100FE300086EFE9C0112086E469E0112086EB4A0A4
:100FF3000112086E46A20112086ED3A20112086EF6
:10100300F2A30112086E7FA40112086E89A40112D3
:10101300086EB1A40112086E51A50112086E3CA618
:101023000112086E09A70112086E26A70112086EA5
:101033004FA70112086E7CA70112086EC3A9011203
:10104300086E92AA0112086ED1AA0112086E53AB60
:101053000112086EF4AB0112086E26AC0112086E81
:101063006DAC0112086EA0AC0112086EE4AC011263
:10107300086E33AD0112086E38AD0112086E94ADDF
:101083000112086ED8AD0112086EB2AE0112086EDD
:1010930017AF0112086E7DAF0112086EF8AF01128F
:1010A300086E60B30112086E63B40112086EE1B5F5
:1010B3000112086EF7B80112086E99B90112086E91
:1010C300E2BB0112086E9DBC0112086EDCBC01126A
:1010D300086EB4BE0112086ED1BE0112086EDABEEC
:1010E3000112086EE3BE0112086EEEBE0112086E15
:1010F3000DBF0112086EB1C00112086E0EC10112BC
:10110300086E18C10112086E22C10112086E81C156
:101113000112086ECBC10112086ECCC20112086E17
:1011230023C30112086E34C40112086E7DC4011278
:10113300086E37C50112086E4EC60112086E23C72A
:101143000112086E6AC80112086E6EC90112086E98
:1011530067CA0112086E7FCA0112086EB6CA01126D
:10116300086EC0CA0112086ECBCA0112086EE9CA22
:101173000112086E31CB0112086E8FCB0112086E7B
:10118300B6CB0112086EC8CB0112086E7DCC0112DA
:10119300086EB6CC0112086ED8CD0112086E2BCEA4
:1011A3000112086E11CF0112086E38CF0112086EBA
:1011B300A8CF0112086E24D00112086E80D101124B
:1011C300086EA7D20112086E69D30112086E37D4D4
:1011D3000112086EF5D40112086EDDD50112086EF6
:1011E30087D60112086EEFD60112086EA4D701123A
:1011F300086E00D80112086E58D80112086E1ED965
:101203000112086E41D90112086EFCD90112086E51
:101213001EDA0112086E7FDA0112086EAFDC0112CA
:10122300086EA8DD0112086E54DE0112086E75E027
:101233000112086EBEE00112086E09E10112086E88
:1012430065E10112086EC3E10112086EE7E10112C4
:10125300086E0BE20112086E40E20112086E68E2AA
:101263000112086EADE20112086E01E30112086E6D
:101273005AE30112086E54E40112086EF2E50112FA
:10128300086E37E60112086E60E60112086EE9E6A1
:101293000112086E5CE70112086E6AE70112086E1C
:1012A3008EE70112086EE4E70112086EFFE70112F0
:1012B300086EBAE80112086EE6E80112086E29E921
:1012C3000112086E8CE90112086E9AEB0112086E86
:1012D300C6EB0112086E81EC0112086E65ED011276
:1012E300086EF9ED0112086E5EF30312086E96F3B1
:1012F3000312086EB7F30312086EF9F30312086EB4
:101303005DF40312086E67F40312086E77F4031298
:10131300086EAEF40312086E57F80312086E1FFA34
:101323000312086E03FC0312086EA5FC0312086E79
:101333002FFD0312086ECC2B0012086E752C0012C1
:10134300086E542D0012086E602E0012086E802E57
:101353000012086EA22F0012086E52310012086E9E
:10136300BF310012086E90320012086E96330012DD
:10137300086E0E340012086E49340012086EA2344F
:101383000012086EDD340012086E26350012086E56
:10139300BA350012086E50360012086E2537001257
:1013A300086EF8370012086E86380012086EAC38E3
:1013B3000012086ED9380012086E0A390012086E3E
:1013C300D7390012086EE7390012086E3A3A001254
:1013D300086E473A0012086E543A0012086E5D3ADE
:1013E3000012086EC13A0012086E1F3B0012086E0D
:1013F3006A3B0012086E853B0012086EAC3B00127C
:10140300086EC93B0012086ED53B0012086E663D9C
:101413000012086E7F3D0012086EFB3D0012086E3D
:101423000E3E0012086E1E3E0012086EC23E0012EF
:10143300086E2E400012086E41410012086EE14111
:101443000012086EEB410012086E6A420012086E29
:101453007B420012086EBA420012086EE842001284
:10146300086EB5430012086E0C440012086E454422
:101473000012086E9B440012086EB9440012086EF5
:1014830007450012086ED2450012086E204600126E
:10149300086E6D460012086EF0460012086E1A4779
:1014A3000012086E50470012086E5F470012086E64
:1014B300BE470012086E36480012086E77480012C5
:1014C300086EC7480012086EF2480012086E0C49F5
:1014D3000012086E26490012086EFB490012086EBE
:1014E300054A0012086E404A0012086E504A001264
:1014F300086EA14A0012086EB54A0012086ED74B57
:101503000012086EEC4B0012086E7F4C0012086E3E
:10151300F34C0012086E984D0012086EA34D001292
:10152300086E064F0012086E224F0012086E6E4FAF
:101533000012086EDC4F0012086E0E500012086E87
:1015430028500012086E88500012086E27510012AE
:10155300086E72510012086EC5530012086E5D5476
:101563000012086ED4540012086E31570012086E30
:1015730049570012086E4C570012086E5857001254
:10158300086E6C570012086E74570012086EAB5742
:101593000012086E9F580012086E29590012086E37
:1015A300AB590012086E2B5A0012086E025B001230
:1015B300086E245B0012086EBD5B0012086E1A5C95
:1015C3000012086E1D5C0012086E8C5C0012086E1F
:1015D300D85D0012086EEB5E0012086E765F001293
:1015E300086E89600012086E50610012086E8161F6
:1015F3000012086EA7610012086EB0610012086E37
:10160300DF610012086E8F620012086E3F630012E2
:10161300086EB2630012086E55640012086EC86447
:101623000012086E07650012086E50650012086EFE
:1016330060F40212086ECDF40212086E19F502125C
:10164300086E6BF50212086EEBF50212086E04F8D1
:101653000212086E1BFA0212086E54FD0212086E83
:101663007FFD0212086E9DFD0212086E07FE021234
:10167300086E2FFE0212086E66FE0212086E9AFEB4
:101683000212086EFCFE0212086EEDA60512086E29
:101693001DA70512086E41A70512086E78A705124B
:1016A300086E9CA70512086EAAA70512086E43A828
:1016B3000512086E0CA90512086E89FF0112086E47
:1016C3005CA20512086E08A30512086E18A3051282
:1016D300086E16A40512086E33DA0412086EAFDA28
:1016E3000412086EDDDA0412086E22DB0412086E9F
:1016F30083DC0412086E9FDC0412086ED5DC04122E
:10170300086E4EDD0412086E9CDD0412086E2CDE9A
:101713000412086E04DF0412086E55DF0412086E0B
:10172300BADF0412086E2DE00412086E389A031211
:10173300086EC9E00412086EEBE00412086E7BE148
:101743000412086E0CE20412086E44E20412086EDE
:101753006DE20412086EAEE20412086E4FE4041246
:10176300086E31E50412086E0DE60412086E86B9A0
:101773000512086E97B90512086EF3FF0112086E81
:10178300DAFF0412086E0BB40512086E1BB40512BF
:10179300086E6EA00312086EBEB40512086EC1B4C3
:1017A3000512086E08B20512086E8CB20512086E97
:1017B300F2B20512086E00B50512086E30B50512B7
:1017C300086E56B50512086EB1B50512086EC0B5A0
:1017D3000512086ED2B50512086E05B60512086E1D
:1017E3003BB60512086EC9B00512086EE6B00512C5
:1017F300086E03B10512086E4DB10512086EDDB116
:101803000512086EEEB10512086E4EB90512086E88
:10181300A97A0012086ED57A0012086E6B7D001249
:10182300086EAB7D0012086EE77D0012086EFB7D2B
:101833000012086E147E0012086E057F0012086EF7
:10184300B77F0012086ECB7F0012086E61AB0512E2
:10185300086E85AB0512086E9EAB0512086EDCABF5
:101863000512086E12AC0512086E45AC0512086E1F
:10187300B1AC0512086EB4AC0512086EBEAC05120D
:10188300086ECBAC0512086EB09F0512086ED39F8D
:101893000512086E1EA00512086E3CA00512086E04
:1018A30057A00512086EBDA00512086EC9A0051247
:1018B300086E26A10512086E4AA10512086E10A231
:1018C3000512086E1DA20512086E2EA20512086EDF
:1018D30004B70512086E1CB70512086E48B7051247
:1018E300086E48800512086EA8810512086EB6813D
:1018F3000512086ECA810512086EE7810512086E8B
:10190300FC810512086E0F820512086E9182051282
:10191300086EF6820512086E8C830512086E6584C4
:101923000512086E75840512086E84840512086E0C
:101933006BB60512086E8FB60512086EB7B60512A0
:10194300086EDFB60512086E30A90512086E57A996
:101953000512086E75A90512086EEAA90512086E2C
:10196300A09C0512086EB99C0512086ED09C051246
:10197300086ED99C0512086EF79C0512086E019D2E
:101983000512086E0B9D0512086E1E9D0512086E4A
:10199300A89D0512086E1D9E0512086E4B9E05122A
:1019A300086E9F9E0512086EEB9E0512086E069F39
:1019B3000512086E109F0512086E369F0512086EF9
:1019C3009B9F0512086E47FF0212086E69FF021201
:1019D300086ED9FF0112086EE7E60412086E13E7DA
:1019E3000412086E36E70412086E49E70412086E03
:1019F30064E70412086EC8E70412086EF6E70412DF
:101A0300086E0AEC0412086E5FED0412086E91ED85
:101A13000412086EFCED0412086E7CEF0412086ECB
:101A2300A4EF0412086EB9EF0412086EC9EF041292
:101A3300086E09F00412086E4BF00412086E5BF096
:101A43000412086E38AE0512086E48AE0512086E11
:101A53006CAE0512086E95AE0512086EBFAE051288
:101A6300086EE3AE0512086EFAAE0512086E28AFD3
:101A73000512086E4BAF0512086ED7B70512086E34
:101A8300AD950512086EBD950512086EDB9605121D
:101A9300086E0F970512086E31970512086E599755
:101AA3000512086E72970512086EAE970512086E3E
:101AB30010980512086E55980512086E9A9805122B
:101AC300086EC7980512086EFF980512086ED5AC0C
:101AD3000512086EF5AC0512086E08AE0512086E05
:101AE3000BAE0512086E61B80512086E96B80512A2
:101AF300086E8BF00412086EC5F00412086E2EF106
:101B03000412086E4DF10412086EEFF10412086E10
:101B1300F8F10412086E49F20412086E72F204120C
:101B2300086E7FF20412086EF0F20412086E7EF360
:101B33000412086ECCF30412086E02F40412086E49
:101B430063F40412086E8BF40412086E02F5041297
:101B5300086E5EF50412086EA1F50412086EDEF538
:101B63000412086EF0F50412086E02F60412086EF1
:101B730021F60412086E2AF60412086EF8F604120F
:101B8300086E44F70412086E82F70412086E83AFDE
:101B93000512086EA8A40512086EDEA40512086ECD
:101BA3002DA50512086E86A60512086E1DC6041221
:101BB300086E45C70412086E81C70412086E3BC93C
:101BC3000412086E65C90412086EDECB0412086E97
:101BD30027CC0412086EBCCD0412086E5BCE04122F
:101BE300086EB3CE0412086E39CF0412086E71CF9B
:101BF3000412086EB3CF0412086E24D10412086EC7
:101C0300A4D20412086EE5D40412086E13D504128C
:101C1300086E3FD50412086E48D50412086E9ED58F
:101C23000412086E2ED60412086E6CD90412086EC4
:101C3300EED90412086EDF7F0012086EF57F0012E2
:101C4300086EB98D0512086ECE8D0512086E818E51
:101C53000512086EC18E0512086EDA8E0512086E23
:101C63000D8F0512086E5A8F0512086E8E8F05129E
:101C7300086ED08F0512086EC6910512086E14B94E
:101C83000512086EDAB80512086EA0B80512086EC0
:101C93000BB30512086E6AB30512086EA8B30512DA
:101CA300086EE9B30512086E00800412086E0C80FA
:101CB3000412086E6E800412086E78800412086E97
:101CC3000B810412086E47810412086E0982041204
:101CD300086E70820412086E0A830412086E8A83E7
:101CE3000412086E42850412086E17870412086EE8
:101CF30073880412086EE0890412086E8A8A04123B
:101D0300086E348F0412086E33900412086EB99073
:101D13000412086EDE900412086E78910412086EA5
:101D230096910412086EB3910412086E279204125E
:101D3300086E43920412086E70920412086EF193B7
:101D43000412086E12940412086E93940412086E1F
:101D530039950412086E80950412086EF0950412EA
:101D6300086E8A960412086E02970412086E6D9725
:101D73000412086E0A980412086E77980412086E0B
:101D8300B2980412086E15990412086E6C9A041224
:101D9300086EFF9A0412086EB69B0412086E3A9DF1
:101DA3000412086ED39D0412086E459E0412086E39
:101DB30042A00412086EEEA10412086E1BA20412C4
:101DC300086EFDA30412086EECA50412086EF2A6B9
:101DD3000412086EB5840512086E31860512086E6A
:101DE3004D860512086E4F880512086E92880512FB
:101DF300086EA4880512086EAE880512086E08895D
:101E03000512086EBDD60212086E5DD70212086E67
:101E1300DED70212086EDCD80212086E5BD90212FA
:101E2300086EA0DA0212086E40DB0212086EF2DCC2
:101E33000212086EFEDD0212086E1BDE0212086E2D
:101E430048DF0212086EF6E00212086EA0E10212E9
:101E5300086EEFE40212086EF8E60212086E80E7DD
:101E63000212086EDAE70212086E2DE80212086EFB
:101E7300A8E80212086E1EE90212086E56E9021261
:101E8300086E42F00212086E8FF20212086E6BF3B4
:101E93000212086E1DB80512086E81D60312086E71
:101EA300C6D60312086E56D70312086ECFD8031294
:101EB300086EB1D90312086E60DA0312086E77DA7E
:101EC3000312086EC8DA0312086E3CDB0312086EB5
:101ED30088DB0312086E9BDB0312086EF4DB03122C
:101EE300086EB5DE0312086E4BDF0312086E82DF45
:101EF3000312086ECBDF0312086ED1E10312086EE2
:101F030021E20312086EFBE20312086E34E30312AC
:101F1300086E53E30312086E9EE30312086EB4E3E4
:101F23000312086E88E40312086E81E50312086E3B
:101F3300DCE50312086E1CE60312086E53E7031276
:101F4300086ECFE90312086EF4E90312086E90EAF3
:101F53000312086EB5EA0312086E39EB0312086E1A
:101F630016EC0312086E54EC0312086EB8EC03125D
:101F7300086E6CED0312086E6FED0312086E82EDAE
:101F83000312086E8BED0312086EA6ED0312086EA2
:101F930018EE0312086E51EE0312086E6DEE031273
:101FA300086E9AEE0312086EC1EE0312086EE5EE98
:101FB3000312086E20EF0312086E93EF0312086EEC
:101FC300C7EF0312086E08F00312086E3DF0031208
:101FD300086E5DF00312086E9AF00312086ED1F0DA
:101FE3000312086ED4F10312086E0CF30312086E89
:101FF3002BF30312086E89B70512086EA1B70512F9
:10200300086ED1FE0412086EAEF70412086EFDF7D7
:102013000412086EBBF90412086E76FB0412086EF4
:10202300B4FB0412086EA9FC0412086EB4FD04127A
:10203300086ED6FD0412086E20FE0412086EA1FE7F
:102043000412086E85650012086EA8650012086EFA
:10205300AB660012086EFD660012086E5F67001221
:10206300086EB1670012086EF9670012086E6268A5
:102073000012086EE7680012086E63690012086EAA
:10208300A9690012086EAE6D0012086E127000127C
:10209300086EC4700012086E24710012086E4C7131
:1020A3000012086E12730012086E2E750012086E6D
:1020B3001A760012086EA1760012086ED877001205
:1020C300086E09790012086E48790012086EFC79CF
:1020D3000012086EBAEE0112086E5AEF0112086E72
:1020E300C7EF0112086E5BF00112086EAFF1011227
:1020F300086E0EF20112086EBCF20112086E7FF533
:102103000112086E97F60112086E0DF70112086EA0
:10211300EFF80112086E91F90112086E58FA0112D4
:10212300086E8EFB0112086E9CFC0112086E29FDDD
:102133000112086E4BFE0112086EEBAA0412086E20
:1021430056AB0412086E9EAB0412086EE2AB041287
:10215300086E3DAC0412086E9AAC0412086ED5AC3E
:102163000412086E59AD0412086EB3AD0412086E62
:1021730022AF0412086E9AAF0412086EB2B00412B2
:10218300086EDAB00412086EE6B10412086EF7B1F5
:102193000412086E0FB20412086E38B30412086EEC
:1021A3005BB30412086E34B40412086E58B40412FC
:1021B300086E6FB40412086E90B40412086EB2B4C1
:1021C3000412086E8CB50412086EE6B50412086E8C
:1021D30060B70412086EB8B70412086ED7B70412BA
:1021E300086E29B90412086EA8B90412086EDFB983
:1021F3000412086E19BA0412086E85BA0412086E26
:1022030044BB0412086E22BD0412086E22BE0412DF
:10221300086E2DBF0412086E3FC00412086E67C11A
:102223000412086E75C10412086E7AC20412086E95
:102233001CC30412086E62C30412086E77C304122F
:10224300086E7FC40412086E20C50412086E7CC594
:102253000412086E53990512086E0E9B0512086E40
:10226300C59B0512086E1A9C0512086ED3910512C0
:10227300086EF1910512086E35920512086E5B9295
:102283000512086E82920512086E9A920512086E64
:10229300B2920512086ECA920512086E6D9305126A
:1022A300086EAF930512086ED1940512086EDA9486
:1022B3000512086EE3940512086EEC940512086E7D
:1022C300F6940512086E4B890512086E3F8D0512B0
:1022D300086E4D8D0512086E528D0512086E5CFE58
:1022E3000312086ECFFF0312086E54990312086E8F
:1022F30070980312086E86950312086E43940312B6
:10230300086EAA910312086E65910312086E0B9171
:102313000312086E6C900312086E17900312086E76
:10232300448F0312086E7E8E0312086E428E0312D0
:10233300086ED58D0312086ECD8D0312086E428D83
:102343000312086ED28C0312086E238C0312086EDC
:10235300188C0312086E098C0312086EE88B0312A3
:10236300086EB48B0312086E888B0312086E5A8AA8
:102373000312086E4E880312086E8C9E0312086EB9
:102383001F880312086E839E0312086E769E031243
:10239300086E799D0312086E069D0312086EEA9C6F
:1023A3000312086ECC9C0312086EA79C0312086EDE
:1023B300B79B0312086E03880312086EAD870312DE
:1023C300086E74870312086E529B0312086EEC8624
:1023D3000312086EA0860312086E59860312086E54
:1023E3008C850312086EBB9A0312086E10850312C4
:1023F300086E30B40512086E68840312086EC18338
:102403000312086E63830312086E38830312086E87
:10241300E9820312086EAB820312086E89820312EB
:10242300086E66820312086E4D820312086E0582DF
:102433000312086E4F810312086EC3800312086EE5
:1024430057800312086E00800312086E499A031224
:10245300086E71E00400000080FB8F0001005C182F
:10246300870001006E1935000400331925000200AE
:102473003719260002003919270002003B192800EA
:102483000100451929000100461984000400471979
:10249300860001004B192A0001004C192B00010092
:1024A3004D192C00010051192D00080043182E006E
:1024B300010052192F000100531930000100541973
:1024C300310001005519320001004B18330001009F
:1024D3004C18340001005619360001004D1838001D
:1024E30001005719390001005019830002006C19CB
:1024F300630001005918640001004E1965000100D2
:102503004F196D0001005A18710008003B1866004E
:1025130001006B19430001005C19440002005D19BE
:10252300450001005F1946000200601947000800DA
:1025330051184800010062194B000100631904009F
:1025430001006F19A1000100721937000100711910
:102553008800010070193C0001004E183D00010085
:102563005819490002006419670001005B184D0007
:10257300020066194E00010068194F000200691934
:102583003E0001005018510001005919520001008A
:102593005A19530001005B19540001004F18000041
:1025A30000000000000136360101000102010001B4
:1025B30003010001040106060502000007010034BF
:1025C3000801000F090401010D0100FF0E080000BE
:1025D30017020000190100FF1A0100011B0100FE90
:1025E3001C0100081D0200001F0100012001000161
:1025F300210200002301000F240200002601000134
:1026030027010008280200FF2A0100072B010240CE
:102613002C0100002D0100012E0100012F0100FFFC
:1026230030010B1D310800003A0100083B01000F87
:102633003C0100013D0100FF3E0400004204000094
:10264300460400004A0400004E0400005204000047
:10265300560400005A04000001037103010301033F
:102663000103010301032203020301031003000317
:1026730000030003000300030003000342030003FD
:1026830024030603000300030403120325032303A7
:10269300250323030403040300030003000344038B
:1026A30000030003230300036503210035038103B3
:1026B30000030503000300030003000325032303B2
:1026C300030471040204600411047004020402048C
:1026D3000104020410046104000414046304730479
:1026E3007204620443040004130406040004000497
:1026F30004041204000400040004000451046400F0
:102703000004000400044404000400040004000462
:102713006504000435048104640005040004830493
:10272300000403027102300160021102700201020F
:10273300020202028002100261023A0041006302B7
:1027430073027202620243020002130238000002A3
:10275300000204021202000200020002000204024C
:102763000402370037003C02440200023900000231
:1027730000026502000235028102000205028202A4
:102783008302000203007100300160001100700039
:102793003102200350048000100061000000140087
:1027A3006300730072006200430000001300060020
:1027B3000000000004001200000000000000000000
:1027C30004000400370037003C024400000000000E
:1027D30000000000650000003500810000000500D6
:1027E30000008300000001017101010101011101D9
:1027F30001013101010101018001100161013B006F
:1028030014006301730172016201430100011301AA
:1028130006013D0135000401120100010001000120
:10282300000104010401330133013C01440132017D
:10283300360000010001650100013500810100013E
:10284300050182018301000136000100060000003A
:102853000F0000000000000000000000000003FF64
:10286300FF00000403FFFF0000FFFF0FF40100055A
:10287300C4040320000100000B000000000000005E
:102883000003010F00000000000000000000000032
:102893000000000000000000000000000000000035
:1028A300000000000000801DBC1D861DC61C8C1D81
:1028B300C21D8C1DCE1D921DC61C8C1DC21D981DD4
:1028C300C61C9E1DC61CA41DC61CAA1DC61CB01D6D
:1028D300C61CB61DC61C000000000000000000005E
:1028E30000000000000000000000000000000000E5
:1028F30000000000000000000000000000000000D5
:1029030000000000030020013981000000002001C5
:1029130038810000040042015A8000000500420192
:1029230049800000060042013880000007002001B2
:102933003E810000100042038418000011002003B0
:102943002F05000012001003951803000000210357
:102953002C050600000010019A1600000300200158
:102963003C810000000020013B8100000400420183
:102973005A80000005004201498000000600420120
:1029830038800000070020013E8100001000420350
:1029930084180000110020032F050000120010030B
:1029A30095180300000021032C0506000000100108
:1029B30099160000030020013F8100000000200160
:1029C3003A810000040042015A80000005004201E0
:1029D3004980000006004201388000000700200102
:1029E3003E81000010004203841800001100200300
:1029F3002F050000120010039518030000002103A7
:102A03002C050600000010019B160A0000000200BE
:102A13000000040000000800000010000000200077
:102A230000004000000080000000000100000002E0
:102A33000000000400000008000000100000002057
:102A43000000004000000000F82013009E201F003B
:102A5300A4201F80AA200100F820020062200300A6
:102A6300682004006E2005007420060080203600D4
:102A73009220FFFF000001D00F06FA0F08F40F0B9E
:102A8300121010E80C02D60F05E80F07DC0F0CB884
:102A93000F0DC40F641423FF000007ECFDFDFDECD4
:102AA300DCDCCCBCACAC9C9C8C7C7C6C6C5C5C5CE3
:102AB3004C4C3C3C2C2C1C1C00160F00000B150B23
:102AC300020002220F3300000E01030507090B0D5C
:102AD3000F00020406080A0C0D5A69674265654136
:102AE3006C6C69616E63653039150AF4D4C0A595C1
:102AF30082726361555049303016181920231A1C0D
:102B03001E300C0E020B040B0A0708000F3030179F
:102B1300181921301B1D1F3000034A49434E181A50
:102B2300250502000119161816161823030000398B
:102B33003D3F373C3C362C442D0204020101010188
:102B43000902E803000000BE040A000000000E00B2
:102B53007F009D2AFA06E803EC2A030308090C0404
:102B63000010FF1E1E0C05280904040310010C05A8
:102B73000B080B150B00FF0008E0041233FCA2E75F
:102B830092AF22E4F0A3F0A3F022A3122B86A3F0CA
:102B9300227F0C020667E0F508E4F509F50AF50B58
:102BA300227401F090059FE0640F2274091208B9A2
:102BB3007F04020667A3A3E024F5C39413229005C0
:102BC300BF1256EC7A147B0022C082C0839004119A
:102BD3007496F0A37413F0A374A8F0A37413F09085
:102BE3000415747EF0A37413F0A37478F0A3741324
:102BF300F0A374B4F0A37413F0A374BAF0A3741322
:102C0300F0A374AEF0A37413F0A37466F0A374136B
:102C1300F0900421748AF0A37413F0A37490F0A3CA
:102C23007413F0A37484F0A37413F0A374C0F0A31B
:102C33007413F0900432124C796006124EE3121BA7
:102C4300A690042F1243A57408F0A3E4F0A3F09018
:102C530004D2F0900434F07C0BFDF97A357B041236
:102C63001AFE7C0B7D0079007A407B04121AFE0267
:102C730043AE74F712040974F712094DEAFEEBFF31
:102C83001241CC7405122D427403F0EE2402FAE4CF
:102C93003F122D1C242DFCE43FFD8C828D83122ECC
:102CA3005A122D2B60081235A474FFF0A3F0EE2402
:102CB3002BE43F1C1CFD8C828D83A3E0C0E08A8241
:102CC3008B831241DDD0E0122D2B88828983124938
:102CD300D524031254B6121CA27408120B67740392
:102CE300F09005B41206F0740212092F7903EEFA7C
:102CF300EFFB12155274021208B9E9F5087007EEDA
:102D0300FAEFFB121438A90874090235B4F582E40A
:102D13003FF5831261211249CAFB8A828B83122DEC
:102D23003AE8F0A3E9F0EE2212570A122D3AE8F03E
:102D3300A3E9125C86E022122E258A828B8322F07D
:102D4300A3E4F0122D4A22EE240DF582E43FF5832D
:102D53002274F1120409EAFEEBFF8C088D09890A3B
:102D6300122E2F8A828B83122E25740F120B671259
:102D73002E48E824FF18E934FFF988828983E50A9D
:102D8300122E3A9005B9122E379005B8122E3774C9
:102D930011120B67122E48EE2404FCE43FFD880B4E
:102DA3008A828B83E0F50C8C828D83E0250CC3959E
:102DB3000B125706E8F0A3E9124139A3A3A3A3A377
:102DC300A3A3A3E064037008124495F0A3E4800373
:102DD30012313B122D457409F0750C35750D0475D0
:102DE3000E00780C12088712312F121AF274031294
:102DF30008B9750CFF750DFF780C12088BAC08AD84
:102E0300097903EEFAEFFB12155274021208B9E9BD
:102E1300F5087007EEFAEFFB121438A9087F0702D2
:102E23000667E024FFF8A3E034FFF922EE2402FA58
:102E3300E43FFB22122E5A122E3E22F0E824FF1802
:102E4300E934FFF922E0F50CA3122E5A122E3E8824
:102E5300828983E50CF022E08882898322C082C0C4
:102E630083900451E0C39408400474078001E08A0E
:102E7300828B83F033333354F8F90243AE74F01288
:102E83000409EAFEEBFF890C8C0E8D0F750A00A274
:102E9300AFE433F50BC2AF90044B803F122F685061
:102EA30037122F7964037030EE24F9FEEF34FFFFFD
:102EB300850882850983A3A3E02405FCA3E03400ED
:102EC300FDEEFAEFFB121CA2EE24FF1EEF34FFFF10
:102ED3007410250AF50A150C12410612611DE50C42
:102EE3006006E508450970B4E50BA2E092AFA2AF16
:102EF300E433F50BC2AF90044B802C2402FAE43583
:102F030009FB8A828B831256F52406F582E438F591
:102F130083122F868A828B83122F6EA3A3122F868E
:102F2300050A150C12410612411B6022122F796407
:102F33000270F1122F68E50840C1123269A2E55010
:102F4300E3850E82850F837401F0E50C70D6E50BE3
:102F5300A2E092AF8E828F83E50AF0EE24FFFAEFB0
:102F630034FFFB8035123274A2E622122F72221232
:102F73005AEAA3A3A322850882850983125AE4127D
:102F8300511E22E08E828F83F0EE24FF1EEF34FF6A
:102F9300FF2212161E74041208B97F080206677412
:102FA300EC12040974F512094D89138A128B0F85EB
:102FB3001882851983E4F004120927121348E9F8EB
:102FC30090059EE0292434F508FA7B00121B108A31
:102FD3000A8B0BAE0AAF0BEE4F7003023123EE24C4
:102FE30002F50AE43FF50BA808EE28F8E43FF9855B
:102FF3000A82850B83122D242404F510E43FF51176
:10300300851082F583E4F090059EE0FCF8C3E49814
:10301300F895E0F9850A82850B83E028F508A3E09B
:1030230039F50990059C1253AE750E00780C120801
:10303300877D00AA08AB09121AF274031208B9AC0F
:1030430018AD197401120B67E0F9E50824FFFAE5DE
:103053000934FFFB12134E8A828B83E4F0EA24FFC8
:10306300F508EB34FFF509E50FC454F0F99004D3E8
:10307300E0C4333354C0F8900598E0A2E0E433137E
:10308300134849440F123143E512C454F0451385E4
:103093000882850983F0A808850A82850B83E0FAF4
:1030A300851082851183E02AC398F0850A82850BF7
:1030B30083E8F0A3E509F012313B122D45E4F074E7
:1030C3000A120B67E4F0750840750904F50A7808DD
:1030D30012088712312F121AF274031208B98518D5
:1030E30082851983E06009EE240E1242624408F0DF
:1030F30012153AE9F9E4F508F509780812088B7412
:103103000412092FEEFAEFFB12155274021208B9DA
:10311300E97006EEFAEFFB800BEEFAEFFB121B16DB
:103123007A007B00740B1208B9022B947C0B7D0090
:10313300EE2418FAE43FFB221241D0E4F0A322E08C
:1031430085088285098312314D22F012538222743D
:10315300F31204098A0A8B0BA2AFE433F50CC2AF56
:1031630075080075090090044B802C12339050248D
:10317300850A82850B83A3A312654A8E828F83A35C
:10318300A3124EE6121540E9600A1231B6C2E6F008
:103193008E088F0912338512363E70CFE508450934
:1031A3006006123270D2E6F0E50CA2E092AF7F0522
:1031B3000206671231BA2212539BE02274F0120402
:1031C30009EAFEEBFF8C0C8D0D750E00A2AFE43304
:1031D300F50FC2AF75080075090090044B80208578
:1031E3000A08850B09123270D2E4F0E5081232693D
:1031F300D2E7F0E50A24FBF582E50B34FFF583E023
:10320300F50AA3E0F50BE50A450B6043E50A123F17
:10321300F1350BF583E0A2E750D9850A82850B834C
:10322300A3A31206F0AC0CAD0DEEFAEFFB1215469C
:1032330074021208B9E960BBE508450960A1E50815
:10324300240D12327C64017006123285D2E4F0E55B
:103253000FA2E092AFE50845096006121432750E1D
:1032630001A90E022F9D12401B12327F22123274CB
:1032730022E508241112327C22F582E43509F58314
:10328300E022850882850983125AE4E02274F2124F
:10329300040974FE12094D750C00750D0085188222
:1032A300851983E4F0A3F0A2AF33F50AC2AF90040B
:1032B3004BE0FEA3E0FF8035EE24FBF582EF34FF05
:1032C30012611B780C12088BEEFCEFFD7A4B7B042A
:1032D300121B4674021208B9EEFCEFFDAA18AB19D3
:1032E300121B34AE08AF09900451E014F0EE4F60A6
:1032F30027123390501DEE240BF8E43FF98882899E
:1033030083E024FFF0A3E034FFF088828983124C2A
:103313007960A51233818099E50AA2E092AF900407
:1033230051E0603190059FE0640F60069004D2E0A5
:1033330070237A297B0412162A9081121206EC7AE2
:10334300297B0412161E74041208B9800874F01243
:1033530045CC121426AA18AB19121B3A8A0A8B0BF6
:10336300AE0AAF0BEE4F601312135A1231B6A2E23C
:103373008E828F83A350D674E980D40236468E0C96
:103383008F0DEE24FBF582EF34FFF583221231BA61
:10339300A2E72274F7120409EAFEEBFF12135A1292
:1033A30041DA120581E964019005BB700AE024014A
:1033B300F8A3E034008004E0F8A3E0F912482812EF
:1033C3004BD1900451E0702190059FE0640F701978
:1033D3007A297B0412162A9081121206EC7A297B31
:1033E3000412161E74041208B9A9A8C2AF9004519E
:1033F300E0041233FCA2E7800DF0E9A2E7E433F81E
:10340300E922E508A2E092AF02466874F7120409C4
:10341300EAFEEBFF123443F012135AEEFCEFFD7A8F
:103423004B7B04121B40A9A8C2AF900451122B7C02
:1034330090059FE0640F700579081214F202466844
:103443001231BAC2E42274F712040974EA12094D64
:10345300EAFEEBFF900598E06040851882851983AA
:103463007401F0120B67E412351B120B67AA82ABCF
:1034730083121CA28E828F8312328BC0E0740A12D5
:103483000B67D0E012571B740B120B67AA82AB8336
:1034930012156AAA18AB191222C674160235B4742F
:1034A300F7120409EAFEEBFF12133CE9F974DC6935
:1034B300601E74DD69601974E469601474F36960F3
:1034C3000F74DE69600A74DF69600574DB69700775
:1034D300EEFAEFFB1214F802466874F7120409744B
:1034E300EB12094DEAFEEBFF8518828519837406FA
:1034F30012351B120B67AA82AB83121CA212572030
:10350300740A120B67AA82AB8312156AAA18AB1945
:103513001222C674150235B4F0EE2413FCE43FFD09
:1035230074022274F712040974F712094DEAFEEBD0
:10353300FFEE242D1242626065123DF3AA18AB1907
:10354300121CA27408120B677403F09005B41206E0
:10355300F01235A41206F09005C7E0F974041209BD
:103563002FEEFAEFFB12134274041208B9E9F9744F
:10357300DC69602374DD69601E74E469601974F3A7
:1035830069601474DE69600F74DF69600A74E86946
:10359300600574DB697007EEFAEFFB1214F8022D75
:1035A3000BEE1235A922242BF582E43FF583227416
:1035B300031208B902466874F21204098A088B09D7
:1035C300750C00750D00750AE7A2AFE433F50BC265
:1035D300AF90044B800312338112363E60351233B1
:1035E3009050F312425F640170ECEE242FF582E4F5
:1035F3003F1237EDE06870DE780C12088BEEFCEFBB
:10360300FD7A4B7B04121B4674021208B9900451D5
:10361300E014F0E50BA2E092AFEE4F6013EEFAEF89
:10362300FB12135A79F0EEFAEFFB1214F8750A0045
:10363300A90AAA08AB091214F8800DE0FEA3E0FF63
:10364300EE4F2274021208B97F0602066774F41261
:10365300040974F712094DEAFEEBFF8E828F83A3F0
:10366300E064F370030236FA8E828F83A3E064DF93
:1036730070030236FA8E828F83A3E064E860788E4B
:10368300828F83A3E064DB606E12139CE9F50870FC
:103693005EEE240E12426260561237041213E4EAFD
:1036A3004B604C7408120B6712370E1206F0750844
:1036B300FF7509FF780812088B8E828F83A3A3A35B
:1036C300A3A3A3A3A3E0F9740412092F1213427452
:1036D300041208B9E9F50874F36508601274DF652C
:1036E30008600C74E86508600674DB6508700F8E6B
:1036F300828F83A3E508F0EEFAEFFB1213A8022BE7
:10370300AEEE240FFAE43FFB7909227402125EE362
:1037130074FFF0A312371B2212371F221249DEA3B4
:10372300A32274F51204098A088B097E008A828B0E
:1037330083A3A3A3A3A3A3122BB840027EE88A8288
:103743008B83A3A3A3A3A3A3A3A3A3A3E0C39410C3
:1037530040047EE880138A828B83A3A3A3A3A3A33D
:10376300A3A3A3A3E0640F600A9004AFE05408701E
:10377300027EE8EA240BF582E435091237EDA3A3B0
:10378300A3A3A3A3A3A3E0C398500CEA240B123270
:103793007C640F60027EE89005B8E0F47003A3E058
:1037A300F470027EEC7A237B00121BA09004321289
:1037B3004EF6900432124C7960298508828509837C
:1037C300A3A3A982AA8389088A09750A0078081223
:1037D30008877C237D00124EE3121AF27403120849
:1037E300B980027E1AEEF9026084F583E0F88A82DA
:1037F3008B83A3A32274F5120409EAFEEBFF8E82E6
:103803008F83A3A3A3A3A3A3A3A3E090059F125D08
:10381300C69005BA125DAC90059A125DCB9004D3A5
:10382300F0F91219729004D3E06018EE2404FAE45C
:103833003FFB795012195AEE2406FAE43FFB79E173
:1038430012195A9004D2122BA460047401800274DA
:1038530000900434125DB21208877C0B7D007A3528
:103863007B04121AF274031208B9EE2418F508E463
:103873003FF50978081208877C0B7D007A407B04AA
:1038830002607C74F7120409EAFEEBFF8E828F83D9
:10389300A3E07006124EE31213A28E828F83742C60
:1038A3001245CC12150402466874F7120409EAFEA5
:1038B300EBFF900432124C79600D124EE390043208
:1038C300E4F0A3F0121BA68E828F8374081245CCFA
:1038D3001222C602466874F61204099004D2E0600C
:1038E30013900434E0700D1238FA121354EA4B604B
:1038F30003121438025A2690059AE0FB9005BAE0A9
:10390300FA90059FE0F92274F412040974E712098E
:103913004DEAFEEBFF750B018E828F83A3A3A3A356
:10392300A3A3A3E0A2E25068EE242BF582E43F12A6
:1039330065481239C8121360E970559080AEE0648F
:10394300017005750B0080481239D01208877C0B73
:103953007D007411120927121AF274031208B912A6
:10396300153AE9FA740E12091F88088909780812B2
:10397300088B750830750900780812088B1235A476
:103983001206F01256BC790112155874061208B9C2
:10399300851882851983741012351B120B67AA824E
:1039A300AB83121C961235A41256E8740B120B67E4
:1039B300124BD1740D120B67E50B12443F1222C652
:1039C3007419022BB0EE2413FAE43FFB22EE240811
:1039D300125DBA22C082C0839004D3E06003121543
:1039E300AC0243AEC082C0839004CA7411F0A374C6
:1039F30004F0A37415F0A37404F0A37421F0A3746A
:103A030004F090187974C3F0A37426F09004B4748E
:103A130036F0A37413F0900456746CF0A37413F08F
:103A23009004587472F0A37413F09004AFE044024E
:103A33008001E4F00243AEC082C083EAFCEBFD796F
:103A430003024A4AC082C083EAFCEBFD7905024ABD
:103A53004AC082C0837908025BB7C082C08374FE08
:103A630012094D90045E7420F0A37414F090046066
:103A7300741AF0A37414F0800D7A4B7B04121B3A72
:103A830012443512152890044B124C7970EB9004B4
:103A93004D124C79600F7A4D7B04121B3A12443558
:103AA30012152880E990044BE4F0A3F0900451121E
:103AB3002B877402800274111208B90243AE74F6A4
:103AC300120409E9FF743129F582E4342BF583E408
:103AD30093FEFA7B00121B10EA4B6011EA2E124B85
:103AE300C78A828B83A3A3A3A3E4F0802C7A027BEF
:103AF30000121B10EA4B601D74102FF582E4342B67
:103B0300F583E4938A828B83F0A3741AF09004AA5A
:103B1300E0F9121B1C7A007B00025A26E9FC7406AA
:103B230029F8EAA2E0501EE875F00A84E5F0F9608E
:103B330014740A28C399F8E9C394054004740A2845
:103B4300F8740B28F8ECC3941340047A1480027AB7
:103B530006EA2879002409F85001097A0A7B001241
:103B630002B9E8F902086BC082C0839004AFE05445
:103B730002600A1222CCE960047901800279000212
:103B830043AEC082C0839004AFE054026016900439
:103B930051E0700C124C76600BE0C81241135004D4
:103BA3007901800279000243AEC082C0839080AB6A
:103BB300E0F8900453E0C3985005121B1080047A78
:103BC300007B000243AEC082C08312152879000235
:103BD30043AE74F712040974FE12094D85188285E9
:103BE3001983EAF0A3EB123D44A3A3A3A3A3E060CC
:103BF3000A14606024FE6069023CC590059FE0647E
:103C03000F60181214FEE970128518828519831249
:103C13004EE690045A1241DD1205819005C7E0C0BB
:103C2300E08518828519831249A8D0E0123D4474B7
:103C330014125EDF12654A7A4D7B04121B34A8A866
:103C4300C2AF900453E004124EFC79201214F274B4
:103C5300020235B4851882851983125AEC741580D3
:103C6300D0851882851983123D27A3A3E06053856D
:103C73001882851983E02402F8A3E03400F98882CE
:103C8300898312631DE0C0E0851882851983E0FCF7
:103C9300A3E0CC2406F582E43CF583D0E012572858
:103CA30088828983124EF685188285198312400F04
:103CB3008518828519836013123D2C6005123D34EB
:103CC3004043AA18AB191215288084123D2C60F2C8
:103CD300123D34501C124123FA8518828519831230
:103CE3003D2EF8743B124BC2342BF583E4936A6088
:103CF30014851882851983123D2C640870C41241FF
:103D030023640870BD12412314123D4C240AC0E001
:103D13008518828519831241DDD0E0123D4C0402DF
:103D23003C34E0F8A31249F522E0F8A3E0123D5336
:103D3300228518828519831256F9123D54C3940AB9
:103D430022123D5EF583888222123D5E123D53228C
:103D5300C82406F582E438F583E022125EE3E0F836
:103D6300A3E022C082C083900462124C79600812DF
:103D73005AED120581800279000243AE74F71204F2
:103D830009EAFEEBFF122D4A7401F0EE2430F582AE
:103D9300E43FF583125456122D242432124262C09A
:103DA300E0EE2413F582E43FF583D0E0F0EE243314
:103DB300124262C0E0EE2414F582E43FF583D0E0C2
:103DC300F0EE242CF582E43FF5831206F0123DF366
:103DD300EE242E124262F912155274021208B9E946
:103DE300F5087007EEFAEFFB121438A908024668CB
:103DF300EE2423FCE43FFD22C082C0831214FEE9BB
:103E030060047920800279010243AEC082C083EA54
:103E1300123FF1123EB2D2E0023A36C082C08312A0
:103E23003EAC64017011123EB7400C8A828B83A3AF
:103E3300E0F91214F8806FEA2410123EAFA2E650A4
:103E4300128A828B83A3E0F990045C1241DD120590
:103E5300818053123EAC6401700D123EB750088A44
:103E6300828B83743080368A828B83A3E0641B8ABF
:103E7300828B83700474228024A3E0700D123EAC05
:103E8300F874FA124BC2342A800B123EACF8741049
:103E9300124BC2342BF583E4938A828B83F0900414
:103EA300AAE0F9121B1C0243AEEA240DF582E43B9F
:103EB300F583E022EA12401B3BF583E0A2E3227480
:103EC300F7120409E9FE124C767003023FE8EE6034
:103ED30011741B6E7013E0C8123FEB64057003028C
:103EE3003FB3125ADCE4023FB774E96E70621240CA
:103EF30007700B1222D2E96005124021606279EE4D
:103F03001218DC900454124004900454603B124095
:103F130024900454700B12400414F0121A9E023FB2
:103F2300E812400FC2E712412F123FEB6403700CFB
:103F33001256F2123FF1123D59D2E2F079ED121806
:103F4300DC123FF71205818075125ADF74E9806431
:103F530074E16E703E1222D2E96055124021705016
:103F63009005C1E0C0E01256F22412F582E438F560
:103F730083D0E0F09005B0E0C0E0900454123D25FA
:103F8300123D25D0E0F09005B0E004F07901121A5B
:103F9300868052741C6E7018900454124EE690047E
:103FA300641241DD120581900454E4F0A3F08035DE
:103FB300125ADCEEF0900454124EE61214261256F6
:103FC300F21256C4E0548060109005C7E0F912194C
:103FD300969005C6E0F912198A900454E4F0A3F010
:103FE30079101214F2024668240D123D5622241150
:103FF300F582E422900454124EEA900458125AE6D1
:1040030022E0F8A3E0C82412123D5622E0F8A3E010
:10401300C812401B123D59222410F582E422900459
:10402300541256F91256C8E054042274F4120409C7
:10403300750A00750B00A2AFE433FFC2AF124C76D2
:1040430060030240EB1241DA120581E94410F89053
:10405300044B800985080A85090B12410612411B8E
:1040630070030240EB123270586870E8780A120845
:104073008BAC08AD097A4B7B04121B467402120801
:10408300B9900454E508F0A3E50912412F12411336
:10409300405D900452E014F0EFA2E092AF9004541C
:1040A300E0240EF8A3E03400F9880889098882F532
:1040B30083124EE6900454124129F91213EAE9904F
:1040C300044FF0124137E054809004546026125696
:1040D300F52413123D56F91219961256F2241412AE
:1040E3003D56F912198A8018EFA2E092AF80119021
:1040F300045180A112400FA2E1B3E433F9121A86EE
:10410300022BB3E50824FBF582E50934FFF583228E
:104113002411123D56A2E722126121E50845092226
:10412300851882851983122F72A3E022F09004541C
:104133001256F922A3E4F08508828509832274F7D5
:10414300120409EAFEEBFF121522EE24101242625A
:10415300A2E3400C12425F640170059080A98003C2
:104163009080AAE0F9EEFCEFFD7A4B7B04121B4C26
:10417300E96046EEFAEFFB90045E1241DD12058121
:10418300EE240E12426254047020A8A8C2AF900419
:1041930052E004124EDCFAE8A2E792AF1241CCA33C
:1041A300E054017021121432801CEEFAEFFB9004EC
:1041B300561241DD120581800D8E828F83A374F127
:1041C3001245CC1214260246681241D022EE240E68
:1041D300F582E43FF58322900460125AE622C082FE
:1041E300C0831214320243AE74F7120409EAFEEBE1
:1041F300FF79009004AFE05402700CEE24301242B9
:10420300625404600279E89004AFE05460700CEEED
:1042130024301242625402600279E88E828F83A3B3
:10422300A3A3A3E0F89080AFE0C398500279E8EE2F
:10423300242E124262700CEE242B12426270047917
:10424300F5800BE97005121414E9F9E96007EEFA39
:10425300EFFB1214F802466834FFF509EE240DF55E
:1042630082E43FF583E022C082C0838A828B837419
:104273000DF01222C60243AEC082C0838A828B83B2
:10428300E4F0A3F0EA2430123EAF54049080A97006
:1042930012E0F8900452E0C398401279F11214F836
:1042A3000243AEE0F8900451E0C39850EE9004AAA4
:1042B300E0F9121B1C80E974F6120409E9FE244C90
:1042C300FAE43400FB121B10EA4B6012EE8A828B75
:1042D30083A3A3A3A3F0EA244C124BC780047A0060
:1042E3007B00025A26C082C0839004667480F0A3C8
:1042F3007414F0A374B0F0A37414F0A37486F0A341
:104303007414F0A3748CF0A37414F0A374AAF0A330
:104313007414F0A3749EF0A37414F0A37498F0A320
:104323007414F0A374B6F0A37414F0A374BCF0A3D4
:104333007414F0A374C2F0A37414F0A374CEF0A3A6
:104343007414F0A37492F0A37414F0A3747AF0A31A
:104353007414F0A37474F0A37414F090048274A41E
:10436300F0A37414F0A374C8F0A37414F0A374E25C
:10437300F0A37415F0A374D4F0A37414F0A374DA47
:10438300F0A37414F09004A6E4F09004A9F0900450
:10439300921243A57402F090049B1243A574010288
:1043A3003A3674F2F0A37414F0A322D083D08202BD
:1043B300086B74F512040974F112094D851882858E
:1043C30019837402F07401120B67E9F060047AFF39
:1043D3007BFF7402120B67124EF675089E75090473
:1043E300750A0078081208877C0B7D007407120B8E
:1043F30067AA82AB83121AF274031208B9AA18AB24
:10440300191222C6740F02608174F712040974FD35
:1044130012094D851882851983740AF07401120BF1
:1044230067E9F07402120B67EA12443F1222C602D4
:1044330035B2851882851983EAF0A3EBF0AA18AB8D
:10444300192274F612040974F712094DEAFEEBFF00
:10445300124495122D4274021245BDAA18AB1912CB
:104463001C96EE242E122D1024301254C312088BE6
:10447300740212092F79831A1AEFFB121552740270
:104483001208B9E9F5087007EEFAEFFB12143802C7
:104493005A1F1241D074012274F0120409125F6A88
:1044A300120AF87808790C12031A78081208837A2A
:1044B300957B04022F9574F412040974C612094DF6
:1044C30090059FE0640F6010851882851983742E10
:1044D30012443F12150480277A8C7B0412162A1289
:1044E3002BC11202C188088909E4F50AF50B780883
:1044F3001208837A8C7B0412161E74041208B97492
:104503003A022BB074F5120409EAFEEBFF8E828F98
:1045130083A3E0F860030245A6EE242D12426264F1
:10452300026007E06403600278E8EE2423F582E486
:104533003FF583122BBA400478E8806AE87064EE92
:104543002423FAE43FFB79E112195AEE242EFAE40C
:104553003FFB795012195AEE242D12426264027005
:104563000E1256B21256E89005AE124BD18012903D
:1045730005AE74FEF0A3041245BD7AA57B05121C9B
:10458300A2EE24181239D31208877C0B7D007A9E81
:104593007B04121AF274031208B9EEFAEFFB121439
:1045A3006EE9F8E86011E88E828F83A312591474C0
:1045B300171245CC121504026084F0EE2425FCE4A6
:1045C3003FFD228E828F837429F0EEFAEFFB227473
:1045D300F612040974F712094D9004A9E0703B74B4
:1045E30001F0F9121A50AA18AB1912153475089E66
:1045F300750904780812088B750801750900780895
:1046030012088B9005B41206F0740612092F7A0370
:10461300790512155874061208B9025A2174F71253
:104623000409EAFEEBFF7901121A568E828F83E0AA
:1046330064207004A374EBF09004A9E0A2E2500399
:10464300C2E2F0E0A2E1500812486A121468800C3A
:104653008E828F83742A1245CC1215048007EEFADA
:10466300EFFB1215A07F0102066774F412040974AC
:10467300FE12094DEAFEEBFF7901121A567A8C7B82
:104683000412162A7A957B0412162A1249B4851845
:10469300828519831249E8E0F50B700FAA18AB194C
:1046A300795312195A12611112195A1239D0120878
:1046B300877C0B7D007A9E7B04121AF27403120826
:1046C300B9851882851983124EE6A90B12146290DC
:1046D30004A9E0A2E1500C7A008E828F83A3E0F953
:1046E3001214689004A9E4F07402022BB074F71258
:1046F3000409EAFEEBFF8E828F83A374EBF0900430
:10470300A9E0A2E150077A0079EB121468EEFAEF00
:10471300FB12149E02466874F7120409EAFEEBFFCB
:104723007901121A567A8C7B0412162A7A957B0425
:1047330012162A9004A6E4F09004A9F07AFF7BFFF6
:104743008E828F83A3E0F912146202466874F71213
:104753000409EAFEEBFF12149802466174F712048F
:1047630009EAFEEBFF7901121A568E828F83A3A307
:10477300A3A3E060047400800274EB1247B15003FA
:10478300C2E2F0E0A2E150081248B31214688014A8
:10479300A2E050108E828F83742AF0A374EB12452B
:1047A300CC121504EEFAEFFB12144A0246688E820D
:1047B3008F83A3F09004A9E0A2E22274F612040905
:1047C300EAFEEBFF9004A9E0D2E1F07901121A505E
:1047D3008E828F83A3E0703C12153AE9FAEE240D22
:1047E300F508E43FF509780812088B750801750987
:1047F30000780812088B1248281206F0EE2402FCF7
:10480300E43FFD790512155874061208B9E98E8242
:104813008F83A3F08E828F83A3E060067A00F91260
:104823001468025A2612482C22EE240BF582E43F28
:10483300F5832274F7120409EAFEEBFF7901121AD9
:10484300568E828F83E064207004A374EBF090048F
:10485300A9E0A2E25003C2E2F0E0A2E1500612484E
:104863006A121468024668C2E1F07A008E828F836E
:10487300A3E0F92274F7120409EAFEEBFF790112AF
:104883001A567A8C7B0412162A8E828F83A3A3A3D3
:10489300A3E060047400800274EB1247B15003C2BA
:1048A300E2F0E0A2E150061248B31214680247A7EF
:1048B300C2E112371BA3E0A2E4E433FA8E828F83B2
:1048C300A3E0F92274F7120409EAFEEBFF7901125F
:1048D3001A568E828F83A374EB1247B65003C2E23B
:1048E300F0E0A2E1500612486A12146802466874A6
:1048F300F7120409EAFEEBFF7A8C7B0412162AEE08
:10490300FAEFFB1214C202466174F7120409EAFEBD
:10491300EBFF7A8C7B0412162AEEFAEFFB1214C219
:1049230002466874F712040974EF12094DEAFEEBAC
:10493300FF1256BC7AA57B05121C90E960628518AC
:10494300828519837409F07401120B6774EFF012F6
:1049530049B4F87402120B67E81249E8A3A3E0C054
:10496300E07404120B67D0E01249D5640870158E09
:10497300828F83A3A31249A8E0C0E07405120B67DA
:10498300D0E080067405120B67E412571B740612FD
:104993000B67AA82AB8312156AAA18AB191222C637
:1049A30074110235B41256F92407F582E438F583FD
:1049B300221249CAFB8A828B831256EC888289832E
:1049C300E0FCA3E0F9EC22EE2402F8E43FF9E8FA74
:1049D300E9221249D9221249DEE022F08E828F8326
:1049E300A3A3A3A322F0A3E912570A1249F222E0D8
:1049F300F8A3125AEDA3A322C082C0831215AC02FE
:104A030043AEC082C0839004C67466F0A37404F0FE
:104A1300A37482F0A37404F090187374E9F0A37480
:104A230027F0A37425F0A37427F09004B2745CF00C
:104A3300A37414F09004AFE04401023A36C082C07C
:104A430083EAFCEBFD79021215100243AE74F612F1
:104A5300040974FE12094D9004AB124C7960077A75
:104A6300AB7B041215289004B1E4F0900531124C8D
:104A73007960268007AA18AB191215289004AAE0BA
:104A8300F9121B288A088B09A808A90985188285A9
:104A93001983124BD1E84970DC7402025A2374F76C
:104AA300120409E9FA7B009004AAE0F9121B5202EE
:104AB300466874F712040974F012094DEAFCEBFD21
:104AC300E9FE8C828D83E0F87405124BC2342BF51A
:104AD30083E493C0E07401120B67D0E0F0640B70C1
:104AE3000DEE8C828D83A3F012158E024BB5E07010
:104AF30003024BB5640C6003024BA6741A6E700B71
:104B03007404120B67E4F0A3024BA57404120B6741
:104B1300ECF0A3EDF0EC242F124BBAC0E0740312B7
:104B23000B67D0E0125C7D120B207406120B671228
:104B33000B148C828D831256DF740A120B67124B8F
:104B4300D1EC240E124BBA541060098518828519D2
:104B530083E48013EC2412124BBAF89005C1E0C32E
:104B630098851882851983F0E0C0E0740C120B67F6
:104B7300D0E0F0EC2415124BBAC0E0740D120B67B1
:104B8300D0E0F0EC2416124BBAC0E0740E120B679F
:104B9300D0E0F0EC2417124BBAC0E0740F120B678D
:104BA300D0E0F07402120B67EEF0740112092712C1
:104BB30022C674100235B4F582E43DF583E0222861
:104BC300F582E422F8E43BF98A828B83A3A3E8F01D
:104BD300A3E9F022C082C0839004B1E064037004AF
:104BE3007901800279000243AE74F712040990043C
:104BF300B1E0124C631265488A828B83E0C2E7F00E
:104C030025E0F8EC124BC23DF583A3E493FE124C6E
:104C130063F583124C796005EE9004B1F08A828BC0
:104C230083E0124C6FEC28F582ED39F583E493FCB5
:104C3300C4540F25E0F874C0124BC23404F5831238
:104C43004C79700512157C8014EC540F25E0FCE8B8
:104C53002CF582E439F5831241DD120581024668A1
:104C6300124C6F747128F5827418392225E0F8E428
:104C730033F9229004541256ECE8492274F11204D9
:104C83000974FE12094D890AEAFEEBFF124D7BFA05
:104C93007B00121B108A088B09EA450960388A8257
:104CA3008B83E50AF0A3E4F08E0C8F0DF50E780CE0
:104CB300120887A80A124D88EA2402FAE43509FB90
:104CC300121AF274031208B9AA08AB099004AAE0F5
:104CD300F9121B1C8012851882851983E50AF07965
:104CE3001AAA18AB191214F874021208B9022E206A
:104CF30074F212040974FE12094D890B8A088B0998
:104D0300124D7BF50AFA7B00121B108A0C8B0DAE39
:104D13000CAF0DEE4F604A8E828F83E50BF0A3E458
:104D2300F0A80AEE28F8E43FF98E828F83124BCF66
:104D33008E828F83A3A3A3A3E4F0F50A7808120855
:104D430087A80B124D88123133121AF2740312081A
:104D5300B9EEFAEFFB9004AAE0F9121B1C7900806C
:104D630014851882851983E50BF0791AAA18AB19F3
:104D73001214F8791A023646741B29F582E4342B8F
:104D8300F583E49322742628F582E4342BF583E437
:104D930093FC7D0022C082C083E99004AA023A36C4
:104DA30074F612040974FE12094DEAFEEBFFEE5489
:104DB3002070378040A8A8C2AF900453E014124E6D
:104DC300DCF508E8A2E792AF8A828B83124ED39078
:104DD30004AD124EF6121504851882851983E0641A
:104DE3001560077AAD7B041215287A4D7B04121BDC
:104DF3003AEA4B70C0EF54807012801C9004AD12DD
:104E03004EF61215047AAD7B041215289004AAE01D
:104E1300F9121B28EA4B70E4EE5410600E851882D9
:104E2300851983742D12443F121504EEA2E0500E2F
:104E3300851882851983742412443F121504EE5495
:104E430002600E851882851983742512443F12155A
:104E530004EE5404600E8518828519837426124467
:104E63003F121504EE5408600E8518828519837469
:104E73002812443F121504EE544060107401120BC3
:104E830067125EDE742C12443F121504EE548060E8
:104E9300107401120B67125EDE742F12443F121559
:104EA300049004AB124C796020A8A8C2AF9004AB65
:104EB300124EE69004ABE4F0A3124EFC124EF51230
:104EC30015047AAD7B041215287A007B00024A9CF4
:104ED300E0851882851983F022F0E8A2E7E4332203
:104EE300900432124EEA22E0FAA3E0FB22A3A3A32A
:104EF300A3A3A3EAF0A3EBF022124EDCFEE8A2E7A1
:104F030092AF22C082C0839004AD1256E8EA687063
:104F130002EB6970079004ADE4F0A3F00243AE74B2
:104F2300F7120409EAFEEBFFEE4F700312177AA2A1
:104F3300AFE433F508C2AF8E828F83124C796028B9
:104F4300E824FBFAE934FFFB9004AD12654AE86CF0
:104F53007002E96D70079004ADE4F0A3F08E828FC8
:104F630083E4F0A3F0121BA6023405C082C0839031
:104F730004D47470F0A37415F0A37482F0A37415B1
:104F8300F0A37488F0A37415F0A37444F0A374140D
:104F9300F0A3748EF0A37415F0A3743EF0A37414FD
:104FA300F0A3744AF0A37414F09004E274BEF0A367
:104FB3007415F0A37494F0A37415F0A3749AF0A37A
:104FC3007415F0A374A6F0A37415F0A374A0F0A352
:104FD3007415F09004D3023A35C082C0839005AEB5
:104FE300E064FE7003A3E0F470097CA57D05121C48
:104FF3009680158A828B83A3A3A3A3A3A3A3A374DD
:1050030002F012515E124BD10243AEC082C08390B4
:1050130005B8C3E094FEA3E094FF40047903800243
:1050230079020243AEC082C0831251698C828D83A0
:1050330012511E687039740268701C8A828B831245
:105043005077E06870298A828B83A3125077A3E09C
:1050530068701C7901801A7403687013EC2405FCD2
:1050630050010DEA2405FA50010B121C9C800279B1
:10507300000243AEA3A3A3A3A3E0F88C828D83A372
:10508300A3A3A3A32274F61204097E00740A120BCD
:1050930067E0125112FF8A828B83A3A3A3A3A3A366
:1050A300A3A3E06F706474026F704E8A828B83C017
:1050B30082C08388828983A3A3A3A3A3E0F508887E
:1050C300828983A3A3A3A3A3A3E0FBAA08D083D0CD
:1050D30082E06A7003A3E06B703088828983A3A3A4
:1050E300A3E0FA88828983A3A3A3A3E0F9EA6C70FF
:1050F30002E96D70157E01801174036F700CE82452
:1051030005FCE439FD121C9CE9FEEEF9025A26F86F
:10511300A3E0F98882898312511E22A3E01313545A
:105123003F540322C082C0838A828B83A3A3A3A399
:10513300A3A3A3A3E06402701412515EE06870039A
:10514300A3E06970047901800F7900800BEAFCEB1E
:10515300FD7AA57B05121C900243AE9005AE125654
:10516300EC8A828B83228A828B8312511EF82274EB
:10517300EC120409EAFEEBFF8C128D13750A008C06
:10518300828D83A3A3A3A3A3A3A3A3E0F510E9A202
:10519300E75008750CFF750DFF80069005B4125398
:1051A300AEE9C2E7F511EE240E1242625420600705
:1051B30012538F7408800412538FE41253B65404AD
:1051C300600712539774808005125397741012531B
:1051D300B654106006125367E4800B9005C1E0C01B
:1051E300E0125367D0E01253B6A2E05003750A20D1
:1051F300540860067410450AF50A8E828F83A3A3B0
:10520300E024FFF508A3E012425BC39402E0400BE5
:10521300640B6005E0141231437403450AF50A7503
:105223000B009005D4E0640170118E828F83A3A3D9
:10523300A3A3E0C394674003750B1085110E750F8C
:1052430000740E780E1209F1E50F450BF50B74147B
:10525300120B67E0F50EA3E0F50F74026511700EF3
:105263009005B91231429005B81253A58013740307
:10527300651170121253717CC87D05AA08FB121CBC
:10528300A212537E8004E5116028E5106014E50E38
:10529300650C7004E50F650D70087440450AF50A46
:1052A3008010850882850983E50D1253BCE50C1235
:1052B300314985100C750D00740A780C1209F1E55B
:1052C3000D450BF50B74026510701585128285135D
:1052D30083A31231428512828513831253A580134F
:1052E300740365107012125371AC12AD13AA08FB4C
:1052F300121CA212537E8004E5106010850882857B
:105303000983E50F1253BCE50E123149A808A90918
:10531300E824FFF508E912425B70059005A48003B9
:105323009005B0E0FA04F0EA88828983124139E5F6
:105333000B1253BCE50AF0EE2404F8E43FF9122EF5
:105343002FAC088A828B83E0F50A88828983E02563
:105353000AC39C125706ECF0A3E509125882E4F045
:10536300F9022B94EE2412F582E43FF58322E5083B
:1053730024F9F508E50934FFF5092212538222E5E1
:105383000824FFF508E50934FFF50922EE12401B56
:105393003FF5832212539B22EE2411F582E43FF55D
:1053A3008322E0850882850983F022E0F50CA3E0DF
:1053B300F50D22F01241D0E02212314D850882F51D
:1053C300832274EE120409890A8A0B8C108D1175DD
:1053D3000C1A7416120B6712611DAA08FB1213E450
:1053E3008A0E8B0FAE0EAF0FEE4F60607414120B6C
:1053F30067125456E8F0A3E9122D45E50AF0850833
:105403000C85090D750E00780C12088712312F12C6
:105413001AF274031208B97412120B671206F0AC75
:1054230010AD11A90BEEFAEFFB121552740212081C
:10543300B9E9F50C7016E50A24F960031470061235
:1054430031B6D2E5F0EEFAEFFB121438A90C7F0A5D
:10545300020667125AFB1241D12274F61204097430
:10546300F712094DEAFEEBFF7801EE242F12426298
:10547300600278051241CCE8122D4274041254B62E
:10548300121C96EE242C122D10242E1254C3120833
:105493008B740212092F79031A1AEFFB1215527437
:1054A300021208B9E9F5087007EEFAEFFB12143897
:1054B300025A1FF0EE2423FCE43FFDAA18AB192285
:1054C300F582E43FF583122E5A1249D904F0780885
:1054D3002274F21204098A088B09ECFEEDFF8A821A
:1054E3008B837405F0EE24321242628A828B83A38B
:1054F300A3F0EA2403F50AE43509F50B850A82F5DE
:10550300831253AE1256B2120B20E50C123FF13543
:105513000DF583120B141256BCAA0CAB0D121C967C
:10552300850A82850B83125AF3FAA3E0FB888289EA
:1055330083A3A3A3124EF0EE242F124262C0E01203
:1055430056D1D0E01257102415F582E438F583E4E0
:105553001257101256C4E412571B850A82850B8317
:10556300E02416FAA3E03400FB12156A8E828F83BF
:10557300A3A3A3A3A3A3A3E0C0E0850A82850B830F
:105583001256F5240DF582E438F583D0E01256FF68
:10559300FAA3E0FB850A82850B831256E8E8240B05
:1055A300FCE439FD8A828B83E08C828D83F0A3E453
:1055B300125728E0F50B8C828D83A3E0450B12571D
:1055C30006A3E0FCA30A0AAB83A2E7E433C0E0E846
:1055D300240FF582E439F583D0E0F074075C6004AE
:1055E30078018002780075F00374075CA428F8EA58
:1055F30028FAE43BFBE5082405F8E43509F98A8237
:105603008B83122E5A125728850882850983124EDE
:10561300F088828983E0F50A540725E0FCE50AC493
:10562300540F5407F50A750B007403780A1209F135
:10563300EC250AF8EA28F8E43BF985088285098312
:10564300A3A3A3A3A3A3A3A3A3E8F0A3E91249D508
:10565300FA8E828F83A3A3E02AFAA3E03400FBC36C
:10566300EA98EB9940308E828F83A3A3E0F88508F4
:1056730082850983A3A3A3A3A3A3A3A3A3E0FA8E71
:10568300828F83A3A3A3A3E0C39A288508828509F5
:1056930083A3A3A38010850882850983A3A3A3A35F
:1056A300A3A3A3124137A3A3A3A3A3F002364BEEF4
:1056B3002425F582E43FF58322EE2413FCE43FFD29
:1056C300221256C822240EF582E438F5832212569C
:1056D300D522E82410F582E439F58322A3A3A3A3FA
:1056E300A3A3A3A3A31256EC22E0F8A3E0F922900C
:1056F30004541256F922E0F8A3E0C822125914A365
:10570300A3E02212570A22F08A828B8322F0850AB1
:1057130082850B831256F922F012572022EE2408B9
:10572300FCE43FFD2212570AA3AA82AB832274F53D
:105733001204098C088D09750A0078081208877C01
:105743000B7D0002607C02086BC082C08379181253
:1057530014F80243AEC082C0838A828B83E0C39471
:105763000B50031215760243AEC082C083791980B1
:10577300DE74F7120409EAFEEBFF9004AB124C79D6
:1057830060109004AB124EE61215827AAB7B0412C2
:105793001528EEFAEFFB1215229004ABEEF0A3EFFF
:1057A3008002F0A3F002466874F712040974DE1253
:1057B300094DEAFEEBFF8E828F83E024FD60112406
:1057C300FE601524ED600924FA600D14600A803D23
:1057D3007416120B67E480077416120B677401F0DA
:1057E300123DF3740B120B67AA82AB83121CA274D3
:1057F30013120B67125887120B67124BD1740A12DC
:105803000B67125893120B67124BD1804274161216
:105813000B677402F01256BC740B120B67AA82ABAF
:1058230083121CA27413120B67125887120B671290
:105833004BD1740A120B67125893120B67122D2463
:105843001257217417120B67AA82AB8312156A854C
:105853001882851983740B125882E0C0E074011218
:105863000B67D0E012571B7417120B67AA82AB8326
:1058730012156AAA18AB191222C674220235B41281
:105883005914A3227403F09005B81256EC74022243
:105893007402F09005B41256EC74142274F71204D7
:1058A30009EAFEEBFF8E828F83A3E0F5087036EEE4
:1058B300242C12591A7003A3E06960037508E8EEFB
:1058C3002423FAE43FFB12154CE96032EE242FF552
:1058D30082E43FF583E4F0E508700AEEFAEFFB1289
:1058E300155EE9F508E50860128E828F83A3E5084B
:1058F30012591474191245CC121504024668EE2489
:105903002F12426260D19004D2E070CB7508E88018
:10591300D8F08E828F8322F582E43FF5831256EC12
:105923009005B4E06822C082C08374F112094D74FB
:1059330002120B677404125706A3E0C0E07403124B
:105943000B67D0E0F0EA242CF582E43BF583125692
:10595300E8740D120B67124BD1EA2423FCE43BFDE0
:105963007404120B67AA82AB83121C967404120B85
:1059730067AA82AB8312154CE9600E12599912196A
:105983005A9005AE74FFF0A3F07402120927122295
:10599300C6740F023ABB85188285198374FFF0A37E
:1059A300F0AA18AB1979532274F612040974E81299
:1059B300094D8A088B097402120B677403F0EA24F9
:1059C30013FEE43509FFEEFCEFFD7404120B67AA26
:1059D30082AB83121CA2123285C0E0740C120B67D7
:1059E300D0E0F0E5082408FCE43509FD740D120B42
:1059F30067AA82AB8312156AEEFAEFFB12154CE924
:105A0300600E12599912195A9005AE74FFF0A3F063
:105A130074021209271222C674188004A908740993
:105A23001208B97F0202066774F612040974D412CD
:105A3300094DEAFEEBFF8E828F83A3A3125ADFE0A8
:105A4300A2E650179005B4125AF3687003A3E069F5
:105A530070099004D3E060411215AC740B12091F56
:105A63007403120B6712606E121564851882851910
:105A730083742B12443F121504900599E060087457
:105A830008120B67E0600E8518828519837405126E
:105A9300443F1222C6742C80879005BDE060BC127F
:105AA30039C812154CE970B3EE2408F508E43FF544
:105AB30009780812088B750801750900780812081F
:105AC3008B9005B41206F07CA57D057A0379061246
:105AD300155874061208B980BC900454125AE6A3F0
:105AE30022A3A3125AEA22E0F8A3E0F583888222D4
:105AF300125AFB1235A9E022E0F8A3E0F9EE22C026
:105B030082C08374EF12094D851882851983740945
:105B1300F07401120B6774EE12443F1222C6023A6C
:105B2300B974F7120409A2AFE433FFC2AFE960030B
:105B33001219481218D69005C7E0F9121996900564
