:020000040000FA
:06000000020A9E0202321A
:03002B0002077356
:0300530002016740
:100083000201C6010105030101FF0F10FEFF49270D
:10009300000000001D2600000000FF000000FF001C
:1000A300011020202020202020202020202020207C
:1000B3002020010020FD000206FF010401000100D1
:1000C300057580012A815E16641600000000000099
:1000D3007016461C00000000000000000000000035
:1000E300000000000000020401000100056B800114
:1000F30028815E16641600000000000070164C1C78
:1001030000000000000000000000000000000000EC
:1001130000000101010400F516000000E8030000DF
:10012300FFFFC017E803000064006400B801A0BB30
:100133000D00A0BB0D00020200F8FF070502070433
:1001430001051E02051E020A0A0102080803B80B74
:1001530002803E0102FEFFE8030A050001FFFF01E2
:100163000A1401E0C0E074F1120449A2AFE433F5CC
:1001730009D2AF85A708AFA1EF5508FE74105E60E2
:100183000612183E75A1EF74085E600812184475D4
:10019300A1F78024EFA2E092F0E508A2E082F050FC
:1001A30017906198E0F8900587E0C398A2D265D0D4
:1001B300335002E8F075A1FEE509A2E092AF7F0299
:1001C3000204A8C0E074F2120449A2AFE433FED2E1
:1001D300AF9061A4E0F8759B00E59158540860085E
:1001E3007591F712188C8023E591585410600875A7
:1001F30091EF1218928014E591A2E092F0E8A2E048
:1002030082F05007E0C2E0F01219E89061A3E0F831
:10021300E5E9585404600E1219BE75E9FB90619329
:10022300E0A2E640F2EEA2E092AF7F010204A8C092
:10023300E074F2120449A2AFE433FED2AF9061A599
:10024300E0F8E5BF585404600675BFFB121A00803E
:10025300D4C3E498F8E499F91202958026C3E49A8A
:10026300FAE49BFBE920E7E9120295E498F8E499A4
:10027300F922C3E498F8E499F9120295E498F8E4B2
:1002830099F9C3E49AFAE49BFB22EB20E7CFE92038
:10029300E7E0B90010BB0008E88AF084F8AAF0226E
:1002A300E4FBC8FA22EB70227B10C833C8C933C9F8
:1002B300335007C39AC3DBF280069A50012ADBEA64
:1002C300C833F4C8C933F4C9FA2275F008E4C83353
:1002D300C8C933C933C99AC99B5004C92AC93BD574
:1002E300F0ECFBC833F4C8E4C9FA22080808EAC0F2
:1002F300E0EBC0E086F0E7A4FA180986F0E7A42A49
:10030300FA180986F0E7A42AFA180986F0E7A42A5E
:10031300FA1986F0E7A4FBE5F02AFA190886F0E754
:10032300A42BFBE5F03AFA190886F0E7A42BFBE5CA
:10033300F03AFA18180986F0E7A4C5F02BFBE43A63
:10034300FA1908E7C5F0C6A426F6E5F03BFBE43A44
:10035300FA1886F0E7A4F6E5F00826F6E43B08F67B
:10036300E43A08F6D0E0FBD0E0FA22E4CFC0E0E4C0
:10037300CEC0E0E4CDC0E0E4CCC0E075F020E626DA
:10038300F608E633F608E633F608E633F6181818E7
:10039300EC33FCED33FDEE33FEEF33FFC3EC970993
:1003A300ED9709EE9709EF97191919400FFFEC978D
:1003B300FC09ED97FD09EE97FE191906D5F0BFEC80
:1003C300F709EDF709EEF709EFF7191919D0E0FC72
:1003D300D0E0FDD0E0FED0E0FF222518C582C0E0CA
:1003E300E51934FFC583C0E0E518C3958224F810EE
:1003F300AF0885831985821880088583198582183B
:10040300D2AFCEF0A3E520F0A37808E608F0A3DE90
:10041300FAEFF0A3E58124FAF8E608F0A3E608F082
:10042300A3E608F0A30808E608F0A3E608F0A3157E
:10043300811581D0E0FED0E0F8158115811581E8A2
:10044300C0E0EEC0E022C0D02518C582C0E0E519A7
:1004530034FFC583C0E0E518C3958224F310AF08C9
:100463008583198582188008858319858218D2AF00
:10047300C8F0A3E9F0A3EAF0A3EBF0A37908E70936
:10048300F0A3D8FAECF0A3EDF0A3EEF0A3EFF0A302
:10049300D0E0F0A3D0E0F0A3D0E0F0A3E520F0A3F8
:1004A300E5F0F0A322851983851882E0C0E0A3E07C
:1004B300F9A3E0FAA3E0FBA37808E0F608A3DFFAC8
:1004C300E0FCA3E0FDA3E0FEA3E0FFA3E0C0E0A304
:1004D300E0C0E0A3E0F5D0A3E0F520A3E0A3F5F0AE
:1004E30010AF088583198582188008858319858252
:1004F30018D2AFD082D083D0E0F8D0E032120B30E4
:10050300B9000302053FE490030178657916800280
:10051300F0A3D8FCD9FA7A657B1890008678E27943
:10052300018015E493A3AD82AE838A828B83F0A30B
:10053300AA82AB838D828E83D8E9D9E7758204754D
:1005430083A9740512083975821A758324740012FD
:100553000839E4730C75F0108E1A8F1B85821F8582
:10056300831E851882851983E0CEA3E0CF851F8281
:10057300851E83EBC9EAC8EDCBECCAC3E833C8E9EF
:1005830033C9EA33CAEB33CBC3EA9EF51DEB9FF5C0
:100593001CB35004AB1CAA1DEC33CCED33CDD5F00A
:1005A300DAAE1AAF1B22D083D082ECC0E0EDC0E0FC
:1005B300E493A3FCE493A3FDED4C600D120681ECE0
:1005C30024FFFCED34FFFD80EFE493A3FCE493A34D
:1005D300FDED4C600D12071EEC24FFFCED34FFFD16
:1005E30080EFD0E0FDD0E0FCE493A3C0E0E493C04F
:1005F300E022D083D082E9C0E0E493A3C386F0C5B0
:10060300F095F0F908E493A386F0C5F095F0700B2C
:10061300E493A3C3994005E9048002A3E475F002BF
:10062300A42582F582E5F03583F583D0E0F9E493E0
:10063300A3C0E0E493C0E022851983851882E0A378
:10064300FEE0A3F5207808E0A3F608DFFAE0A3FFB5
:10065300E0A3C0E0E0A3C0E0E0A3C0E0E0A3C0E00B
:10066300E0A3C0E010AF0885821885831980088550
:100673008218858319D2AFD083D08202083FC0E0AD
:10068300C3E49396087401939618400FE49366703D
:100693000808740193661870007019A3A3C3E49348
:1006A30096087401939618A3A3400DD0E0D0E0D030
:1006B300E00205E5A3A3A3A3A3A3D0E022740480CF
:1006C3000474028000CCC0E0EDC0E0E518C39CCC0C
:1006D300AD1950011D10AF068C188D1980068C18AA
:1006E3008D19D2AF1207BBD0E0FDD0E0FC2274021B
:1006F3008000CCC0E0EDC0E0E518C39CCCAD195040
:10070300011D10AF068C188D1980068C188D19D217
:10071300AF120799D0E0FDD0E0FC22C0E0C0F08822
:10072300F0E4936670080874019366187000A8F0EB
:10073300A3A3700BD0F0D0E0D0E0D0E00205E5A396
:10074300A3D0F0D0E022D083D082CCC0E0E493A346
:1007530060061207DC1470FAE493A3600612090B17
:100763001470FAD0E0FCE493A3C0E0E493C0E02269
:10077300C0E0C0D0E8C0E0E9C0E0A9A8D2AFC2C7DA
:10078300E9A2E7E433F8E9A2E792AFD0E0F9D0E0D9
:10079300F8D0D0D0E032CAC0E0E493A3C582CCC580
:1007A30082C583CDC583F0A3C582CCC582C583CD65
:1007B300C583DAE5D0E0CA22CAC0E0E0A3C582CC93
:1007C300C582C583CDC583F0A3C582CCC582C5834D
:1007D300CDC583DAE6D0E0CA22C0E0E493A3D39C7C
:1007E3005010E493A3C39C400AD0E0D0E0D0E002D1
:1007F3000766A3A3A3D0E022C008C3E096F50808C8
:10080300A3E096420808A3E096420808A3E09645B1
:10081300087001D3D008227009080808226016184E
:100823001818C6C333C608C633C608C633C608C6B7
:1008330033C6D5E0EA22C09FF59FE473D09F22D050
:1008430083D082C09FE493C0E0740193C0E074023C
:1008530093F59F227404800A740380067402800255
:100863007401C0E0F404120872D0E0120ADB2225FE
:1008730018F58210AF08F518400C15198008F51803
:1008830040021519D2AF8519832200C0D025181054
:10089300AF08F518500C05198008F5185002051912
:1008A300D2AFD0D022BB0102E722C082C0838982AB
:1008B3008A83BB0003E08002E493D083D08222606A
:1008C30016080808C6C313C618C613C618C613C627
:1008D30018C613C6D5E0EA22C3E0C696F608A3E01D
:1008E300C696F608A3E0C696F608A3E0C696F622D7
:1008F3002518F8E43519F9222518FAE43519FB22ED
:100903002518FCE43519FD22C0E0E493A36C7009BB
:10091300D0E0D0E0D0E0020766A3A3D0E022251800
:1009230010AF08F518400C15198008F5184002158A
:1009330019D2AF22C3E09608A3E09608A3E0960875
:10094300A3E096A2D265D03322E066701008A3E03C
:1009530066700A08A3E066700408A3E06622E766EF
:1009630070100809E766700A0809E7667004080949
:10097300E76622C3E096F008A3E096F008A3E096AA
:10098300F008A3E096F022C3E697F60809E697F687
:100993000809E697F60809E697F622C3E493960852
:1009A300740193960874029396087403939622E64F
:1009B30027F60809E637F60809E637F60809E637A1
:1009C300F622700422600D18C6C333C608C633C6A8
:1009D300D5E0F41822E493F608740193F608740240
:1009E30093F608740393F622E657F60809E657F6DA
:1009F3000809E657F60809E657F622E056F608A373
:100A0300E056F608A3E056F608A3E056F622E056B1
:100A1300F008A3E056F008A3E056F008A3E056F070
:100A230022E026F008A3E036F008A3E036F008A39E
:100A3300E036F022E647F60809E647F60809E647F6
:100A4300F60809E647F622E026F608A3E036F6089C
:100A5300A3E036F608A3E036F622E4C396F608E4EC
:100A630096F608E496F608E496F622C6F4C608C697
:100A7300F4C608C6F4C608C6F4C622C3E796080936
:100A8300E7960809E7960809E79622C3E09608A3C4
:100A9300E09608A3E09608A3E0962275D00075813E
:100AA3003F75180175190300020500E6F008A3E677
:100AB300F008A3E6F008A3E6F022600C08C6C3130F
:100AC300C618C613C6D5E0F422E0F608A3E0F6087C
:100AD300A3E0F608A3E0F622CAC0E0E6F0A308DA32
:100AE300FAD0E0FA22E8F0A3E9F0A3EAF0A3EBF0EE
:100AF30022E0F8A3E0F9A3E0FAA3E0FB22ECF0A3E1
:100B0300EDF0A3EEF0A3EFF022E0FCA3E0FDA3E001
:100B1300FEA3E0FF22EAF0A3EBF0A3ECF0A3EDF0D9
:100B230022E0FAA3E0FBA3E0FCA3E0FD22E5C75427
:100B3300F84401F5C77901222518F582E43519F542
:100B43008322C2AF75D69F0200002212084290A1F1
:100B530003120842A0A103120842CEA203120842C4
:100B630052A3031208428EA30312084268A503127C
:100B7300084225A90312084239A90312084243A9CE
:100B8300031208424DA90312084257A9031208424F
:100B930070A9031208427AA903120842E7A90312B3
:100BA3000842F2A9031208421AAA0312084225AA0C
:100BB300031208428AAA0312084295AA03120842A2
:100BC300B9AA03120842DDAA031208424FAB03126B
:100BD300084298AB03120842B4AB0312084225AC97
:100BE3000312084271AC03120842BAAC0312084262
:100BF300F8AC0312084279AD0312084220AE031287
:100C03000842EFAF0312084254B00312084282B104
:100C130003120842A8B103120842F0B203120842B9
:100C23002AB60312084228B803120842F3B9031282
:100C330008428CBA031208428DBC0312084242BD1B
:100C4300031208427BBD03120842E1BD03120842AE
:100C5300EBBD0312084214C00312084253C103122E
:100C63000842AAC10312084255C20312084205C42E
:100C73000312084252C50312084272C50312084206
:100C8300C7C503120842C8C603120842F0C60312BE
:100C930008424FC70312084247C803120842BEC89E
:100CA30003120842D1C9031208423FCA0312084281
:100CB3003ECB0312084298CD03120842C1CD031262
:100CC300084227CF03120842A9D00312084200D1D9
:100CD30003120842AED10312084253D20312084250
:100CE300ACD2031208426AD303120842FCD30312A4
:100CF30008425BD4031208429DD403120842CED4A7
:100D03000312084225D60312084200800212084249
:100D13003280021208426B800212084229820212B8
:100D23000842FF82021208425E8302120842748460
:100D330002120842C084021208424E87021208427D
:100D4300288A021208426F8B02120842078C021291
:100D53000842138C021208425C8C021208429E8DD8
:100D630002120842948E02120842BE8E02120842F8
:100D7300148F021208426D8F02120842E08F021292
:100D83000842169202120842989302120842839470
:100D930002120842CD950212084205980212084237
:100DA300029B02120842119B02120842A59B0212E7
:100DB3000842509C02120842939C02120842DC9C97
:100DC300021208422C9D02120842909D0212084210
:100DD300029E021208421E9E021208424D9E0212F9
:100DE30008428C9E02120842879F0212084236A0D4
:100DF30002120842B3A202120842E5A302120842F9
:100E0300BDA4021208423FA50212084274A90212AD
:100E13000842A3A902120842FEA90212084231AAFB
:100E230002120842A9AA02120842DCAA02120842CC
:100E33003DAB021208428DAB021208425AAC0212B9
:100E4300084213AD02120842D7AD0212084251B054
:100E530002120842B3B10212084204B3021208425A
:100E630028B4021208422BB4021208425AB40212E6
:100E7300084252B60212084211B70212084240B7A2
:100E8300021208425EB80212084226B90212084250
:100E9300E4BA0212084216BB0212084258BB0212FD
:100EA300084257BC02120842CABC02120842F3BEEF
:100EB3000212084252BF02120842A6BF021208429F
:100EC300D5C102120842B8C20212084274C3021208
:100ED300084288C3021208429CC302120842C9C3D3
:100EE30002120842F9C302120842B4C502120842B0
:100EF300C6C6021208421BC70212084264C7021286
:100F030008428BC70212084253C802120842F9C8AA
:100F1300021208427FCA02120842C6CA02120842DB
:100F230038CB021208428DCC0212084236CD02128F
:100F330008426ACD0212084282CD0212084225CE2F
:100F430002120842A1D00212084249D202120842F8
:100F530067D20212084285D20212084251D302120A
:100F630008429FD6021208423281011208426A8166
:100F7300011208426A8601120842B0860112084231
:100F8300E687011208424B8801120842C089011208
:100F93000842CA8C01120842F38D011208420698D6
:100FA30001120842969801120842809B01120842DE
:100FB3008D9C01120842F09C01120842389E0112D6
:100FC3000842A6A00112084238A201120842C5A293
:100FD30001120842E4A30112084271A4011208425B
:100FE3007BA401120842A3A40112084243A50112E3
:100FF30008422EA601120842FBA60112084218A7B6
:101003000112084241A7011208426EA701120842C9
:10101300B5A90112084284AA01120842C3AA011207
:10102300084245AB01120842E6AB0112084218AC74
:10103300011208425FAC0112084292AC011208424D
:10104300D6AC0112084225AD011208422AAD0112A5
:10105300084286AD01120842CAAD01120842A4AE8D
:101063000112084209AF011208426FAF0112084290
:10107300EAAF0112084252B30112084255B40112F9
:101083000842D3B501120842E9B8011208428BB9EC
:1010930001120842D4BB011208428FBC011208425C
:1010A300CEBC01120842A6BE01120842C3BE011201
:1010B3000842CCBE01120842D5BE01120842E0BE6E
:1010C30001120842FFBE01120842A3C001120842E6
:1010D30000C1011208420AC10112084214C10112DF
:1010E300084273C101120842BDC101120842BEC2C7
:1010F3000112084215C30112084226C40112084214
:101103006FC40112084229C50112084240C60112E8
:10111300084215C7011208425CC80112084260C99F
:101123000112084259CA0112084271CA0112084247
:10113300A8CA01120842B2CA01120842BDCA01126A
:101143000842DBCA0112084223CB0112084281CBB9
:1011530001120842A8CB01120842BACB011208427D
:101163006FCC01120842A8CC01120842CACD011269
:1011730008421DCE0112084203CF011208422ACFB2
:10118300011208429ACF0112084216D001120842F6
:1011930072D10112084299D2011208425BD30112A3
:1011A300084229D401120842E7D401120842CFD5DC
:1011B3000112084279D601120842E1D6011208420F
:1011C30096D701120842F2D7011208424AD80112F7
:1011D300084210D90112084233D901120842EED94C
:1011E3000112084210DA0112084271DA01120842B0
:1011F300A1DC011208429ADD0112084246DE011207
:10120300084267E001120842B0E001120842FBE025
:101213000112084257E101120842B5E101120842E6
:10122300D9E101120842FDE10112084232E2011242
:1012330008425AE2011208429FE201120842F3E215
:10124300011208424CE30112084246E4011208422B
:10125300E4E50112084229E60112084252E60112AE
:101263000842DBE6011208424EE7011208425CE73E
:101273000112084280E701120842D6E70112084230
:10128300F1E701120842ACE801120842D8E8011262
:1012930008421BE9011208427EE9011208428CEB65
:1012A30001120842B8EB0112084273EC0112084222
:1012B30057ED01120842EBED011208425EF30312EF
:1012C300084296F303120842B7F303120842F9F3F4
:1012D300031208425DF40312084267F40312084242
:1012E30077F403120842AEF40312084257F80312CC
:1012F30008421FFA0312084203FC03120842A5FC2A
:10130300031208422FFD03120842352B0012084234
:10131300DE2B00120842BD2C00120842C92D001218
:101323000842E92D001208420B2F00120842BB307D
:1013330000120842283100120842F9310012084213
:10134300FF3200120842773300120842B233001210
:1013530008420B34001208424634001208428F340C
:1013630000120842233500120842B9350012084220
:101373008E3600120842613700120842EF3700121E
:1013830008421538001208424238001208427338E6
:101393000012084240390012084250390012084234
:1013A300A33900120842B03900120842BD390012B5
:1013B3000842C639001208422A3A00120842883A03
:1013C30000120842D33A00120842EE3A00120842D1
:1013D300153B00120842323B001208423E3B00120A
:1013E3000842CF3C00120842E83C00120842643D28
:1013F30000120842773D00120842873D001208425E
:101403002B3E00120842973F00120842AA400012E6
:1014130008424A4100120842544100120842D34193
:1014230000120842E441001208422342001208421B
:101433005142001208421E43001208427543001233
:101443000842AE43001208420444001208422244F8
:10145300001208427044001208423B450012084241
:10146300894500120842D645001208425946001227
:101473000842834600120842B94600120842C84691
:10148300001208422747001208429F4700120842F1
:10149300E047001208423048001208425B4800123D
:1014A30008427548001208428F48001208426449F6
:1014B300001208426E4900120842A949001208426C
:1014C300B949001208420A4A001208421E4A001291
:1014D3000842404B00120842554B00120842E84BA9
:1014E300001208425C4C00120842014D00120842EF
:1014F3000C4D001208426F4E001208428B4E001230
:101503000842D74E00120842454F00120842774F57
:1015130000120842914F00120842F14F0012084294
:10152300905000120842DB50001208422E53001262
:101533000842C653001208423D54001208429A560C
:1015430000120842B25600120842B5560012084271
:10155300C15600120842D55600120842DD56001249
:1015630008421457001208420858001208429258C1
:1015730000120842145900120842945900120842FA
:101583006B5A001208428D5A00120842265B001261
:101593000842835B00120842865B00120842F55B37
:1015A30000120842415D00120842545E00120842D4
:1015B300DF5E00120842F25F00120842B9600012B7
:1015C3000842EA60001208421061001208421961E1
:1015D30000120842486100120842F86100120842F2
:1015E300A862001208421B6300120842BE63001285
:1015F3000842316400120842706400120842B96460
:101603000012084260F402120842CDF402120842AA
:1016130019F5021208426BF502120842EBF50212A9
:10162300084204F8021208421BFA0212084254FD4F
:10163300021208427FFD021208429DFD0212084277
:1016430007FE021208422FFE0212084266FE021231
:1016530008429AFE02120842FCFE02120842A1A4AA
:1016630005120842D1A405120842F5A40512084246
:101673002CA50512084250A5051208425EA50512C5
:101683000842F7A505120842B9A605120842ADB5EE
:1016930005120842DEFD031208426BFE03120842E4
:1016A3007BFE0312084233DA04120842AFDA041253
:1016B3000842DDDA0412084222DB0412084283DC0A
:1016C300041208429FDC04120842D5DC04120842CB
:1016D3004EDD041208429CDD041208422CDE041283
:1016E300084204DF0412084255DF04120842BADF3D
:1016F30004120842389A0312084271E004120842A5
:10170300C9E004120842EBE0041208427BE1041230
:1017130008420CE20412084244E2041208426DE259
:1017230004120842AEE2041208424FE404120842D3
:1017330031E5041208420DE604120842C0B705124F
:101743000842D1B70512084205B805120842E8FF5E
:10175300021208429FB3051208426EA00312084208
:10176300C4B30512084252B40512084255B4051217
:1017730008429CB10512084220B20512084286B203
:101783000512084247FF0212084271FF0212084283
:10179300DAFF0212084234B50512084241B50512B8
:1017A300084266B5051208428DB5051208425DB0C0
:1017B300051208427AB00512084297B00512084292
:1017C300E1B00512084271B10512084282B1051257
:1017D300084288B705120842127A001208423E7A7C
:1017E30000120842D47C00120842147D0012084201
:1017F300507D00120842647D001208427D7D001274
:1018030008426E7E00120842207F00120842347F95
:1018130000120842F5AA0512084219AB0512084244
:1018230032AB0512084270AB05120842A6AB051293
:101833000842D9AB0512084245AC0512084248AC30
:101843000512084252AC051208425FAC0512084269
:10185300B09F05120842D39F051208421EA005122D
:1018630008423CA00512084257A005120842BDA039
:1018730005120842C9A00512084226A10512084212
:101883004AA10512084210A2051208421DA2051220
:1018930008422EA2051208427BFF0112084293FF61
:1018A30001120842BFFF0112084248800512084294
:1018B300A88105120842B68105120842CA810512A1
:1018C3000842E78105120842FC81051208420F8293
:1018D30005120842918205120842F6820512084257
:1018E3008C8305120842658405120842758405122B
:1018F30008428484051208429BB405120842BFB40F
:1019030005120842E7B4051208420FB50512084252
:10191300D3A605120842FAA60512084218A7051213
:1019230008428DA705120842A09C05120842B99CE3
:1019330005120842D09C05120842D99C05120842A0
:10194300F79C05120842019D051208420B9D0512E2
:1019530008421E9D05120842A89D051208421D9EBD
:10196300051208424B9E051208429F9E051208422B
:10197300EB9E05120842069F05120842109F0512AE
:101983000842369F051208429B9F05120842487F72
:10199300001208426A7F00120842EBB705120842A0
:1019A300E7E60412084213E70412084236E704127A
:1019B300084249E70412084264E704120842C8E7F0
:1019C30004120842F6E7041208420AEC0412084221
:1019D3005FED0412084291ED04120842FCED04127B
:1019E30008427CEF04120842A4EF04120842B9EF44
:1019F30004120842C9EF0412084209F00412084213
:101A03004BF0041208425BF004120842CCAD0512FD
:101A13000842DCAD0512084200AE0512084229AEA9
:101A23000512084253AE0512084277AE051208426A
:101A33008EAE05120842BCAE05120842DFAE051297
:101A430008424BB605120842AD9505120842BD95F2
:101A530005120842DB96051208420F970512084249
:101A630031970512084259970512084272970512D9
:101A73000842AE970512084210980512084255987D
:101A8300051208429A9805120842C798051208429F
:101A9300FF980512084269AC0512084289AC051289
:101AA30008429CAD051208429FAD05120842D5B607
:101AB300051208420AB7051208428BF004120842C5
:101AC300C5F0041208422EF1041208424DF104122B
:101AD3000842EFF104120842F8F10412084249F2F5
:101AE3000412084272F2041208427FF204120842FE
:101AF300F0F2041208427EF304120842CCF30412FB
:101B0300084202F40412084263F4041208428BF4FC
:101B13000412084202F5041208425EF50412084258
:101B2300A1F504120842DEF504120842F0F504128E
:101B3300084202F60412084221F6041208422AF669
:101B430004120842F8F60412084244F70412084249
:101B530082F70412084217AF051208425CA205126D
:101B6300084292A205120842E1A2051208423AA4D1
:101B7300051208421DC60412084245C70412084252
:101B830081C7041208423BC90412084265C9041202
:101B93000842DECB0412084227CC04120842BCCD13
:101BA300041208425BCE04120842B3CE0412084268
:101BB30039CF0412084271CF04120842B3CF041282
:101BC300084224D104120842A4D204120842E5D4E4
:101BD3000412084213D5041208423FD504120842E6
:101BE30048D5041208429ED5041208422ED6041288
:101BF30008426CD904120842EED904120842DAFFF3
:101C030004120842F0FF04120842B98D051208427B
:101C1300CE8D05120842818E05120842C18E05122F
:101C23000842DA8E051208420D8F051208425A8FB8
:101C3300051208428E8F05120842D08F0512084202
:101C4300C691051208424EB70512084214B7051291
:101C530008429FB205120842FEB2051208423CB385
:101C6300051208427DB3051208420080041208429F
:101C73000C80041208426E80041208427880041219
:101C830008420B8104120842478104120842098268
:101C9300041208427082041208420A8304120842A2
:101CA3008A830412084242850412084217870412E9
:101CB3000842738804120842E089041208428A8A9F
:101CC30004120842348F041208423390041208426B
:101CD300B99004120842DE9004120842789104126B
:101CE3000842969104120842B391041208422792C3
:101CF30004120842439204120842709204120842EA
:101D0300F1930412084212940412084293940412A9
:101D13000842399504120842809504120842F0954E
:101D2300041208428A9604120842029704120842D7
:101D33006D97041208420A98041208427798041215
:101D43000842B298041208421599041208426C9A88
:101D530004120842FF9A04120842B69B0412084276
:101D63003A9D04120842D39D04120842459E041270
:101D7300084242A004120842EEA1041208421BA228
:101D830004120842FDA304120842ECA504120842FF
:101D9300F2A604120842B5840512084231860512E0
:101DA30008424D86051208424F8805120842928860
:101DB30005120842A48805120842AE88051208429B
:101DC300088905120842BDD6021208425DD70212E5
:101DD3000842DED702120842DCD8021208425BD95D
:101DE30002120842A0DA0212084240DB0212084241
:101DF300F2DC02120842FEDD021208421BDE02126E
:101E0300084248DF02120842F6E002120842A0E14B
:101E130002120842EFE402120842F8E602120842F4
:101E230080E702120842DAE7021208422DE80212A2
:101E33000842A8E8021208421EE90212084256E9C3
:101E43000212084242F0021208428FF202120842C2
:101E53006BF30212084291B60512084281D60312AF
:101E63000842C6D60312084256D703120842CFD8F7
:101E730003120842B1D90312084260DA031208427E
:101E830077DA03120842C8DA031208423CDB031272
:101E9300084288DB031208429BDB03120842F4DB8F
:101EA30003120842B5DE031208424BDF0312084255
:101EB30082DF03120842CBDF03120842D1E103128F
:101EC300084221E203120842FBE20312084234E310
:101ED3000312084253E3031208429EE3031208422B
:101EE300B4E30312084288E40312084281E50312B3
:101EF3000842DCE5031208421CE60312084253E7DA
:101F030003120842CFE903120842F4E9031208421C
:101F130090EA03120842B5EA0312084239EB0312AE
:101F2300084216EC0312084254EC03120842B8ECC0
:101F3300031208426CED031208426FED03120842CC
:101F430082ED031208428BED03120842A6ED031241
:101F5300084218EE0312084251EE031208426DEED6
:101F6300031208429AEE03120842C1EE031208421A
:101F7300E5EE0312084220EF0312084293EF031227
:101F83000842C7EF0312084208F0031208423DF06B
:101F9300031208425DF0031208429AF0031208424A
:101FA300D1F003120842D4F1031208420CF30312D6
:101FB30008422BF303120842FDB50512084215B679
:101FC30005120842D1FE04120842AEF70412084279
:101FD300FDF704120842BBF90412084276FB04120F
:101FE3000842B4FB04120842A9FC04120842B4FDDF
:101FF30004120842D6FD0412084220FE04120842CD
:10200300A1FE04120842EE64001208421165001298
:102013000842146600120842666600120842C86647
:10202300001208421A67001208426267001208424F
:10203300CB6700120842506800120842CC680012B5
:102043000842126900120842176D001208427B6FA2
:10205300001208422D70001208428D7000120842CF
:10206300B570001208427B72001208429774001286
:1020730008428375001208420A760012084241772B
:1020830000120842727800120842B1780012084226
:10209300657900120842ACEE011208424CEF0112BE
:1020A3000842B9EF011208424DF001120842A1F1B2
:1020B3000112084200F201120842AEF20112084274
:1020C30071F50112084289F601120842FFF6011266
:1020D3000842E1F80112084283F9011208424AFA60
:1020E3000112084280FB011208428EFC01120842D1
:1020F3001BFD011208423DFE01120842EBAA041225
:10210300084256AB041208429EAB04120842E2ABEB
:10211300041208423DAC041208429AAC041208426D
:10212300D5AC0412084259AD04120842B3AD0412EF
:10213300084222AF041208429AAF04120842B2B016
:1021430004120842DAB004120842E6B1041208424B
:10215300F7B1041208420FB20412084238B3041252
:1021630008425BB30412084234B40412084258B460
:10217300041208426FB40412084290B404120842D5
:10218300B2B4041208428CB504120842E6B5041234
:10219300084260B704120842B8B704120842D7B71E
:1021A3000412084229B904120842A8B904120842C9
:1021B300DFB90412084219BA0412084285BA04129C
:1021C300084244BB0412084222BD0412084222BE44
:1021D300041208422DBF041208423FC004120842F1
:1021E30067C10412084275C1041208427AC204127C
:1021F30008421CC30412084262C30412084277C394
:10220300041208427FC40412084220C50412084283
:102213007CC5041208425399051208420E9B05120D
:102223000842C59B051208421A9C05120842D39125
:1022330005120842F191051208423592051208422F
:102243005B92051208428292051208429A92051285
:102253000842B29205120842CA92051208426D93CF
:1022630005120842AF9305120842D19405120842A1
:10227300DA9405120842E39405120842EC9405121D
:102283000842F694051208424B89051208423F8D15
:10229300051208424D8D05120842528D051208425F
:1022A30082A905120842D4FF03120842549903126B
:1022B3000842709803120842869503120842439419
:1022C30003120842AA9103120842659103120842BD
:1022D3000B91031208426C900312084217900312E9
:1022E3000842448F031208427E8E03120842428E34
:1022F30003120842D58D03120842CD8D0312084202
:10230300428D03120842D28C03120842238C03121B
:102313000842188C03120842098C03120842E88B06
:1023230003120842B48B03120842888B031208423B
:102333005A8A031208424E88031208428C9E0312E3
:1023430008421F8803120842839E03120842769EA6
:1023530003120842799D03120842069D03120842A4
:10236300EA9C03120842CC9C03120842A79C031266
:102373000842B79B03120842038803120842AD8741
:1023830003120842748703120842529B0312084245
:10239300EC8603120842A0860312084259860312F0
:1023A30008428C8503120842BB9A03120842108527
:1023B30003120842AFB305120842688403120842AD
:1023C300C183031208426383031208423883031252
:1023D3000842E98203120842AB820312084289824F
:1023E300031208426682031208424D820312084216
:1023F3000582031208424F8103120842C38003126D
:102403000842578003120842008003120842499A87
:10241300031208422DE00400000080FB8F0001003E
:102423005B188700010041193500040006192500D7
:1024330002000A19260002000C19270002000E19D7
:10244300280001001819290001001919840004004B
:102453001A19860001001E192A0001001F192B00FA
:10246300010020192C00010024192D000800421836
:102473002E00010025192F0001002619300001004C
:102483002719310001002819320001004A183300CE
:1024930001004B18340001002919360001004C18C3
:1024A300380001002A1939000100231983000200B2
:1024B3003F196300010058186400010021196500E9
:1024C300010022196D0001005918710008003A1823
:1024D300660001003E19430001002F194400020069
:1024E3003019450001003219460002003319470034
:1024F300080050184800010035194B000100361937
:10250300040001004219A100010045193700010030
:1025130044198800010043193C0001004D183D0097
:1025230001002B19490002003719670001005A18EE
:102533004D00020039194E0001003B194F00020003
:102543003C193E0001004F18510001002C195200A4
:1025530001002D19530001002E19540001004E18DB
:1025630000000000000000013636010100010201F5
:102573000001030100010401060605020000070132
:1025830000340801000F090401010D0100FF0E08CA
:10259300000017020000190100FF1A0100011B01CE
:1025A30000FE1C0100081D0200001F0100012001A4
:1025B3000001210200002301000F24020000260174
:1025C300000127010008280200FF2A0100072B0150
:1025D30002402C0100002D0100012E0100012F01FA
:1025E30000FF30010B1D310800003A0100083B01D8
:1025F300000F3C0100013D0100FF3E0400004204C6
:102603000000460400004A0400004E040000520487
:102613000000560400005A04000001037103010383
:102623000103010301030103220302030103100356
:10263300000300030003000300030003000342033D
:10264300000324030603000300030403120325030A
:1026530023032503230304030403000300030003EC
:102663004403000300032303000365032100350330
:102673008103000305030003000300030003250394
:1026830023030304710402046004110470040204AC
:10269300020401040204100461040004140463042A
:1026A3007304720462044304000413040604000464
:1026B3000004040412040004000400040004510490
:1026C3006400000400040004440400040004000443
:1026D3000004650400043504810464000504000457
:1026E30083040004030271023001600211027002CC
:1026F3000102020202028002100261023A0041005A
:102703006302730272026202430200021302380080
:102713000002000204021202000200020002000290
:1027230004020402370037003C024402000239006D
:102733000002000265020002350281020002050266
:102743008202830200020300710030016000110065
:10275300700031022003500480001000610000006B
:102763001400630073007200620043000000130052
:10277300060000000000040012000000000000003A
:10278300000004000400370037003C02440000004E
:10279300000000000000650000003500810000001B
:1027A3000500000083000000010171010101010126
:1027B30011010101310101010101800110016101D8
:1027C3003B001400630173017201620143010001C4
:1027D300130106013D01350004011201000100014E
:1027E3000001000104010401330133013C014401F0
:1027F300320136000001000165010001350081014D
:102803000001050182018301000136000100060079
:1028130000000F00000000000000000000000000A6
:1028230003FFFF00000403FFFF0000FFFF0FF4019D
:102833000005C4040320000100000B000000000099
:1028430000000003010F0000000000000000000072
:102853000000000000000000000000000000000075
:102863000000000000000000421D7E1D481D881C62
:102873004E1D841D4E1D901D541D881C4E1D841D10
:102883005A1D881C601D881C661D881C6C1D881CB5
:10289300721D881C781D881C0000000000000000C9
:1028A3000000000000000000000000000000000025
:1028B3000000000000000000000000000000000015
:1028C300000000000000030020012D810000000033
:1028D300200130810000040042015A8000000500FD
:1028E30042014980000006004201388000000700D1
:1028F30020012F8100001000420383180000110003
:1029030020032F0500001200100394180300000099
:1029130021032C0506000000100199160000030096
:10292300200131810000000020012C8100000400FF
:1029330042015A8000000500420149800000060060
:10294300420138800000070020012F8100001000A1
:10295300420383180000110020032F05000012001A
:10296300100394180300000021032C050600000047
:1029730010019A160A000000020000000400000083
:1029830008000000100000002000000040000000CC
:1029930080000000000100000002000000040000AD
:1029A30000080000001000000020000000400000AC
:1029B3000000BA20130060201F0066201F806C20D7
:1029C3000100BA200200242003002A200400302042
:1029D300050036200600422036005420FFFF000089
:1029E30001A40F06CE0F08C80F0BE60F10BC0C0294
:1029F300AA0F05BC0F07B00F0C8C0F0D980F64D6F0
:102A030022FF000007ECFDFDFDECDCDCCCBCACAC34
:102A13009C9C8C7C7C6C6C5C5C5C4C4C3C3C2C2CA3
:102A23001C1C00160F00000B150B020002220F33B3
:102A330000000E01030507090B0D0F000204060831
:102A43000A0C0D5A6967426565416C6C69616E6376
:102A5300653039150AF4D4C0A59582726361555067
:102A63004900034A49434E181A2505023030171806
:102A73001921301B1D1F30303016181920231A1C42
:102A83001E30000119161816161823030000393DCD
:102A93003F373C3C362C442D0C0E020B040B0A072B
:102AA30008000F020402010101010902E80300000A
:102AB30000BE040A072A00000000562A0E00FA0688
:102AC3007F00E8030A0303081500040010FF1E1E1D
:102AD300080508280404091000FF030B010B0C056B
:102AE300090CE004123365A2E792AF22E4F0A3F0ED
:102AF300A3F022A3122AEFA3F0227F0C02063BE0ED
:102B0300F508E4F509F50AF50B227401F090059F29
:102B1300E0640F22740912088D7F0402063BA3A30D
:102B2300E024F5C39413229005BF1256557A147B03
:102B33000022C082C083900411746AF0A37413F05E
:102B4300A3747CF0A37413F09004157452F0A3746F
:102B530013F0A3744CF0A37413F0A37488F0A3745C
:102B630013F0A3748EF0A37413F0A37482F0A37410
:102B730013F0A3743AF0A37413F0900421745EF07D
:102B8300A37413F0A37464F0A37413F0A37458F044
:102B9300A37413F0A37494F0A37413F0900432128B
:102BA3004BE26006124E4C121B6E90042F12430E22
:102BB3007408F0A3E4F0A3F09004D2F0900434F08E
:102BC3007C0BFDF97A357B04121AC67C0B7D0079E8
:102BD300007A407B04121AC602431774F71203DD0E
:102BE30074F7120921EAFEEBFF1241357405122C2A
:102BF300AB7403F0EE2402FAE43F122C85242DFC7F
:102C0300E43FFD8C828D83122DC3122C9460081235
:102C1300350D74FFF0A3F0EE242BE43F1C1CFD8C58
:102C2300828D83A3E0C0E08A828B83124146D0E089
:102C3300122C948882898312493E240312541F1252
:102C43001C647408120B3B7403F09005B41206C4A1
:102C530074021209037903EEFAEFFB1215267402CC
:102C630012088DE9F5087007EEFAEFFB12140CA9B0
:102C730008740902351DF582E43FF58312608A1258
:102C83004933FB8A828B83122CA3E8F0A3E9F0EE8D
:102C930022125673122CA3E8F0A3E9125BEFE02291
:102CA300122D8E8A828B8322F0A3E4F0122CB3229E
:102CB300EE240DF582E43FF5832274F11203DDEA7D
:102CC300FEEBFF8C088D09890A122D988A828B836B
:102CD300122D8E740F120B3B122DB1E824FF18E94D
:102CE30034FFF988828983E50A122DA39005B9126E
:102CF3002DA09005B8122DA07411120B3B122DB10B
:102D0300EE2404FCE43FFD880B8A828B83E0F50C00
:102D13008C828D83E0250CC3950B12566FE8F0A3CC
:102D2300E91240A2A3A3A3A3A3A3A3A3E0640370F4
:102D3300081243FEF0A3E480031230A4122CAE74F5
:102D430009F0750C35750D04750E00780C12085BCF
:102D5300123098121ABA740312088D750CFF750D90
:102D6300FF780C12085FAC08AD097903EEFAEFFBAC
:102D7300121526740212088DE9F5087007EEFAEFB2
:102D8300FB12140CA9087F0702063BE024FFF8A3FB
:102D9300E034FFF922EE2402FAE43FFB22122DC3B2
:102DA300122DA722F0E824FF18E934FFF922E0F5F9
:102DB3000CA3122DC3122DA788828983E50CF02260
:102DC300E08882898322C082C083900451E0C39447
:102DD30008400474078001E08A828B83F033333325
:102DE30054F8F902431774F01203DDEAFEEBFF898E
:102DF3000C8C0E8D0F750A00A2AFE433F50BC2AF36
:102E030090044B803F122ED15037122EE264037090
:102E130030EE24F9FEEF34FFFF850882850983A392
:102E2300A3E02405FCA3E03400FDEEFAEFFB121C43
:102E330064EE24FF1EEF34FFFF7410250AF50A1514
:102E43000C12406F126086E50C6006E508450970B8
:102E5300B4E50BA2E092AFA2AFE433F50BC2AF909F
:102E6300044B802C2402FAE43509FB8A828B8312FB
:102E7300565E2406F582E438F583122EEF8A828BA0
:102E830083122ED7A3A3122EEF050A150C12406F3F
:102E93001240846022122EE2640270F1122ED1E5F8
:102EA3000840C11231D2A2E550E3850E82850F831B
:102EB3007401F0E50C70D6E50BA2E092AF8E828F21
:102EC30083E50AF0EE24FFFAEF34FFFB803512317D
:102ED300DDA2E622122EDB22125A53A3A3A32285DC
:102EE3000882850983125A4D12508722E08E828F01
:102EF30083F0EE24FF1EEF34FFFF221215F2740459
:102F030012088D7F0802063B74EC1203DD74F51280
:102F1300092189138A128B0F851882851983E4F09E
:102F2300041208FB12131CE9F890059EE0292434CF
:102F3300F508FA7B00121AD88A0A8B0BAE0AAF0B7C
:102F4300EE4F700302308CEE2402F50AE43FF50BDA
:102F5300A808EE28F8E43FF9850A82850B83122C32
:102F63008D2404F510E43FF511851082F583E4F018
:102F730090059EE0FCF8C3E498F895E0F9850A8291
:102F8300850B83E028F508A3E039F50990059C1229
:102F93005317750E00780C12085B7D00AA08AB0965
:102FA300121ABA740312088DAC18AD197401120BFE
:102FB3003BE0F9E50824FFFAE50934FFFB1213228D
:102FC3008A828B83E4F0EA24FFF508EB34FFF509EA
:102FD300E50FC454F0F99004D3E0C4333354C0F87C
:102FE300900598E0A2E0E43313134849440F1230EC
:102FF300ACE512C454F04513850882850983F0A813
:1030030008850A82850B83E0FA851082851183E0A7
:103013002AC398F0850A82850B83E8F0A3E509F0BB
:103023001230A4122CAEE4F0740A120B3BE4F075D8
:103033000840750904F50A780812085B12309812E3
:103043001ABA740312088D851882851983E0600902
:10305300EE240E1241CB4408F012150EE9F9E4F503
:1030630008F509780812085F7404120903EEFAEFF1
:10307300FB121526740212088DE97006EEFAEFFBB7
:10308300800BEEFAEFFB121ADE7A007B00740B1250
:10309300088D022AFD7C0B7D00EE2418FAE43FFB29
:1030A30022124139E4F0A322E085088285098312C4
:1030B30030B622F01252EB2274F31203DD8A0A8B2C
:1030C3000BA2AFE433F50CC2AF750800750900908D
:1030D300044B802C1232F95024850A82850B83A37A
:1030E300A31264B38E828F83A3A3124E4F121514BF
:1030F300E9600A12311FC2E6F08E088F091232EE20
:103103001235A770CFE508450960061231D9D2E61A
:10311300F0E50CA2E092AF7F0502063B12312322B9
:10312300125304E02274F01203DDEAFEEBFF8C0C71
:103133008D0D750E00A2AFE433F50FC2AF75080015
:1031430075090090044B8020850A08850B0912310C
:10315300D9D2E4F0E5081231D2D2E7F0E50A24FB34
:10316300F582E50B34FFF583E0F50AA3E0F50BE503
:103173000A450B6043E50A123F5A350BF583E0A27B
:10318300E750D9850A82850B83A3A31206C4AC0C2E
:10319300AD0DEEFAEFFB12151A740212088DE960F9
:1031A300BBE508450960A1E508240D1231E564017A
:1031B30070061231EED2E4F0E50FA2E092AFE5081B
:1031C30045096006121406750E01A90E022F061298
:1031D3003F841231E8221231DD22E5082411123135
:1031E300E522F582E43509F583E022850882850925
:1031F30083125A4DE02274F21203DD74FE12092188
:10320300750C00750D00851882851983E4F0A3F011
:10321300A2AF33F50AC2AF90044BE0FEA3E0FF80F8
:1032230035EE24FBF582EF34FF126084780C12082C
:103233005FEEFCEFFD7A4B7B04121B0E7402120847
:103243008DEEFCEFFDAA18AB19121AFCAE08AF09FC
:10325300900451E014F0EE4F60271232F9501DEE46
:10326300240BF8E43FF988828983E024FFF0A3E08C
:1032730034FFF088828983124BE260A51232EA8020
:1032830099E50AA2E092AF900451E0603190059F66
:10329300E0640F60069004D2E070237A297B041265
:1032A30015FE9080FC1206C07A297B041215F27475
:1032B3000412088D800874F01245351213FAAA1807
:1032C300AB19121B028A0A8B0BAE0AAF0BEE4F60CF
:1032D3001312132E12311FA2E28E828F83A350D6B4
:1032E30074E980D40235AF8E0C8F0DEE24FBF5828A
:1032F300EF34FFF58322123123A2E72274F712037E
:10330300DDEAFEEBFF12132E124143120555E96469
:10331300019005BB700AE02401F8A3E034008004A7
:10332300E0F8A3E0F9124791124B3A900451E07090
:103333002190059FE0640F70197A297B041215FE12
:103343009080FC1206C07A297B041215F2740412D1
:10335300088DA9A8C2AF900451E004123365A2E717
:10336300800DF0E9A2E7E433F8E922E508A2E09250
:10337300AF0245D174F71203DDEAFEEBFF1233AC63
:10338300F012132EEEFCEFFD7A4B7B04121B08A9FF
:10339300A8C2AF900451122AE590059FE0640F7014
:1033A3000579081214C60245D1123123C2E42274EE
:1033B300F71203DD74EA120921EAFEEBFF90059888
:1033C300E060408518828519837401F0120B3BE499
:1033D300123484120B3BAA82AB83121C648E828F3D
:1033E300831231F4C0E0740A120B3BD0E01256840E
:1033F300740B120B3BAA82AB8312153EAA18AB19AE
:10340300122288741602351D74F71203DDEAFEEBEF
:10341300FF121310E9F974DC69601E74DD69601929
:1034230074E469601474F369600F74DE69600A748C
:10343300DF69600574DB697007EEFAEFFB1214CCE9
:103443000245D174F71203DD74EB120921EAFEEB96
:10345300FF8518828519837406123484120B3BAAE4
:1034630082AB83121C64125689740A120B3BAA8224
:10347300AB8312153EAA18AB1912228874150235B4
:103483001DF0EE2413FCE43FFD74022274F71203D3
:10349300DD74F7120921EAFEEBFFEE242D1241CB76
:1034A3006065123D5CAA18AB19121C647408120BF8
:1034B3003B7403F09005B41206C412350D1206C412
:1034C3009005C7E0F97404120903EEFAEFFB121337
:1034D30016740412088DE9F974DC69602374DD69DC
:1034E300601E74E469601974F369601474DE6960C2
:1034F3000F74DF69600A74E869600574DB6970073B
:10350300EEFAEFFB1214CC022C74EE1235122224C5
:103513002BF582E43FF58322740312088D0245D113
:1035230074F21203DD8A088B09750C00750D0075A2
:103533000AE7A2AFE433F50BC2AF90044B8003124A
:1035430032EA1235A760351232F950F31241C864DA
:103553000170ECEE242FF582E43F123756E06870D9
:10356300DE780C12085FEEFCEFFD7A4B7B04121B36
:103573000E740212088D900451E014F0E50BA2E0E2
:1035830092AFEE4F6013EEFAEFFB12132E79F0EECB
:10359300FAEFFB1214CC750A00A90AAA08AB0912A8
:1035A30014CC800DE0FEA3E0FFEE4F22740212085C
:1035B3008D7F0602063B74F41203DD74F7120921B2
:1035C300EAFEEBFF8E828F83A3E064F3700302367F
:1035D300638E828F83A3E064DF70030236638E827F
:1035E3008F83A3E064E860788E828F83A3E064DB3B
:1035F300606E121370E9F508705EEE240E1241CB73
:10360300605612366D1213B8EA4B604C7408120BF5
:103613003B1236771206C47508FF7509FF78081246
:10362300085F8E828F83A3A3A3A3A3A3A3A3E0F91D
:103633007404120903121316740412088DE9F508B1
:1036430074F36508601274DF6508600C74E865083C
:10365300600674DB6508700F8E828F83A3E508F024
:10366300EEFAEFFB12137C022B17EE240FFAE43F62
:10367300FB7909227402125E4C74FFF0A3123684A4
:103683002212368822124947A3A32274F51203DDBE
:103693008A088B097E008A828B83A3A3A3A3A3A397
:1036A300122B2140027EE88A828B83A3A3A3A3A3C8
:1036B300A3A3A3A3A3E0C3941040047EE880138ACA
:1036C300828B83A3A3A3A3A3A3A3A3A3A3E0640FB6
:1036D300600A9004AFE0540870027EE8EA240BF518
:1036E30082E43509123756A3A3A3A3A3A3A3A3E09C
:1036F300C398500CEA240B1231E5640F60027EE894
:103703009005B8E0F47003A3E0F470027EEC7A2332
:103713007B00121B68900432124E5F900432124BEE
:10372300E26029850882850983A3A3A982AA8389E4
:10373300088A09750A00780812085B7C237D001249
:103743004E4C121ABA740312088D80027E1AEEF9D7
:10375300025FEDF583E0F88A828B83A3A32274F5DD
:103763001203DDEAFEEBFF8E828F83A3A3A3A3A341
:10377300A3A3A3E090059F125D2F9005BA125D15D8
:1037830090059A125D349004D3F0F912193A90041B
:10379300D3E06018EE2404FAE43FFB7950121922B7
:1037A300EE2406FAE43FFB79E11219229004D212C7
:1037B3002B0D6004740180027400900434125D1BAD
:1037C30012085B7C0B7D007A357B04121ABA7403F2
:1037D30012088DEE2418F508E43FF509780812085D
:1037E3005B7C0B7D007A407B04025FE574F7120378
:1037F300DDEAFEEBFF8E828F83A3E07006124E4C50
:103803001213768E828F83742C1245351214D802CC
:1038130045D174F71203DDEAFEEBFF900432124B3D
:10382300E2600D124E4C900432E4F0A3F0121B6ED2
:103833008E828F8374081245351222880245D17413
:10384300F61203DD9004D2E06013900434E0700DAF
:10385300123863121328EA4B600312140C02598FB7
:1038630090059AE0FB9005BAE0FA90059FE0F922F3
:1038730074F41203DD74E7120921EAFEEBFF750B02
:10388300018E828F83A3A3A3A3A3A3A3E0A2E250E9
:1038930068EE242BF582E43F1264B112393112131E
:1038A30034E970559080A4E064017005750B0080C5
:1038B3004812393912085B7C0B7D0074111208FB26
:1038C300121ABA740312088D12150EE9FA740E1245
:1038D30008F388088909780812085F7508307509A4
:1038E30000780812085F12350D1206C412562579A6
:1038F3000112152C740612088D851882851983749C
:1039030010123484120B3BAA82AB83121C5812355B
:103913000D125651740B120B3B124B3A740D120BD2
:103923003BE50B1243A81222887419022B19EE24CB
:1039330013FAE43FFB22EE2408125D2322C082C067
:10394300839004D3E06003121580024317C082C042
:10395300839004CA7411F0A37404F0A37415F0A344
:103963007404F0A37421F0A37404F09018787485A0
:10397300F0A37426F09004B4740AF0A37413F090C7
:1039830004567440F0A37413F09004587446F0A3E3
:103993007413F09004AFE044028001E4F002431793
:1039A300C082C083EAFCEBFD79030249B3C082C045
:1039B30083EAFCEBFD79050249B3C082C083790831
:1039C300025B20C082C08374FE12092190045E74DE
:1039D300F4F0A37413F090046074EEF0A37413F086
:1039E300800D7A4B7B04121B0212439E1214FC902F
:1039F300044B124BE270EB90044D124BE2600F7AD2
:103A03004D7B04121B0212439E1214FC80E99004A6
:103A13004BE4F0A3F0900451122AF0740280027474
:103A23001112088D02431774F61203DDE9FF749037
:103A330029F582E4342AF583E493FEFA7B00121A13
:103A4300D8EA4B6011EA2E124B308A828B83A3A3F0
:103A5300A3A3E4F0802C7A027B00121AD8EA4B600D
:103A63001D746F2FF582E4342AF583E4938A828BE5
:103A730083F0A3741AF09004AAE0F9121AE47A000E
:103A83007B0002598FE9FC740629F8EAA2E0501E74
:103A9300E875F00A84E5F0F96014740A28C399F80C
:103AA300E9C394054004740A28F8740B28F8ECC39E
:103AB300941340047A1480027A06EA2879002409D0
:103AC300F85001097A0A7B0012028DE8F902083FD7
:103AD300C082C0839004AFE05402600A12228EE9D0
:103AE3006004790180027900024317C082C0839089
:103AF30004AFE054026016900451E0700C124BDFE7
:103B0300600BE0C812407C50047901800279000206
:103B13004317C082C0839080A1E0F8900453E0C3B0
:103B2300985005121AD880047A007B00024317C00C
:103B330082C0831214FC790002431774F71203DD69
:103B430074FE120921851882851983EAF0A3EB120A
:103B53003CADA3A3A3A3A3E0600A14606024FE60AA
:103B630069023C2E90059FE0640F60181214D2E99D
:103B73007012851882851983124E4F90045A124190
:103B8300461205559005C7E0C0E085188285198364
:103B9300124911D0E0123CAD7414125E481264B3A2
:103BA3007A4D7B04121AFCA8A8C2AF900453E00418
:103BB300124E6579201214C6740202351D851882CF
:103BC300851983125A55741580D0851882851983F7
:103BD300123C90A3A3E06053851882851983E024E7
:103BE30002F8A3E03400F988828983126286E0C078
:103BF300E0851882851983E0FCA3E0CC2406F582D6
:103C0300E43CF583D0E012569188828983124E5F9B
:103C1300851882851983123F7885188285198360F8
:103C230013123C956005123C9D4043AA18AB191230
:103C330014FC8084123C9560F2123C9D501C12408F
:103C43008CFA851882851983123C97F874A5124B58
:103C53002B342AF583E4936A6014851882851983CB
:103C6300123C95640870C412408C640870BD124005
:103C73008C14123CB5240AC0E0851882851983127E
:103C83004146D0E0123CB504023B9DE0F8A3124943
:103C93005E22E0F8A3E0123CBC22851882851983DA
:103CA300125662123CBDC3940A22123CC7F58388A4
:103CB3008222123CC7123CBC22C82406F582E43897
:103CC300F583E022125E4CE0F8A3E022C082C083B9
:103CD300900462124BE26008125A56120555800294
:103CE300790002431774F71203DDEAFEEBFF122C8F
:103CF300B37401F0EE2430F582E43FF5831253BF31
:103D0300122C8D24321241CBC0E0EE2413F582E451
:103D13003FF583D0E0F0EE24331241CBC0E0EE2434
:103D230014F582E43FF583D0E0F0EE242CF582E431
:103D33003FF5831206C4123D5CEE242E1241CBF9EB
:103D4300121526740212088DE9F5087007EEFAEFD2
:103D5300FB12140CA9080245D1EE2423FCE43FFD19
:103D630022C082C0831214D2E960047920800279D0
:103D730001024317C082C083EA123F5A123E1BD28C
:103D8300E002399FC082C083123E15640170111294
:103D93003E20400C8A828B83A3E0F91214CC806FFF
:103DA300EA2410123E18A2E650128A828B83A3E003
:103DB300F990045C1241461205558053123E156476
:103DC30001700D123E2050088A828B837430803636
:103DD3008A828B83A3E0641B8A828B8370047422A0
:103DE3008024A3E0700D123E15F8747A124B2B3425
:103DF3002A800B123E15F8746F124B2B342AF5836D
:103E0300E4938A828B83F09004AAE0F9121AE40205
:103E13004317EA240DF582E43BF583E022EA123FDF
:103E2300843BF583E0A2E32274F71203DDE9FE127B
:103E33004BDF7003023F51EE6011741B6E7013E091
:103E4300C8123F5464057003023F1C125A45E40232
:103E53003F2074E96E7062123F70700B122294E976
:103E63006005123F8A606279EE1218A4900454121E
:103E73003F6D900454603B123F8D900454700B12BD
:103E83003F6D14F0121A66023F51123F78C2E712D7
:103E93004098123F546403700C12565B123F5A123F
:103EA3003CC2D2E2F079ED1218A4123F601205551C
:103EB3008075125A4874E9806474E16E703E122270
:103EC30094E96055123F8A70509005C1E0C0E0123A
:103ED300565B2412F582E438F583D0E0F09005B008
:103EE300E0C0E0900454123C8E123C8ED0E0F0907F
:103EF30005B0E004F07901121A4E8052741C6E7002
:103F030018900454124E4F90046412414612055502
:103F1300900454E4F0A3F08035125A45EEF0900477
:103F230054124E4F1213FA12565B12562DE0548060
:103F330060109005C7E0F912195E9005C6E0F9120A
:103F43001952900454E4F0A3F079101214C60245F8
:103F5300D1240D123CBF222411F582E42290045493
:103F6300124E53900458125A4F22E0F8A3E0C8248B
:103F730012123CBF22E0F8A3E0C8123F84123CC2F5
:103F8300222410F582E42290045412566212563110
:103F9300E054042274F41203DD750A00750B00A2C9
:103FA300AFE433FFC2AF124BDF6003024054124150
:103FB30043120555E94410F890044B800985080A1B
:103FC30085090B12406F1240847003024054123172
:103FD300D9586870E8780A12085FAC08AD097A4BC3
:103FE3007B04121B0E740212088D900454E508F032
:103FF300A3E50912409812407C405D900452E014FE
:10400300F0EFA2E092AF900454E0240EF8A3E03462
:1040130000F9880889098882F583124E4F90045469
:10402300124092F91213BEE990044FF01240A0E03F
:104033005480900454602612565E2413123CBFF938
:1040430012195E12565B2414123CBFF912195280E6
:1040530018EFA2E092AF801190045180A1123F7833
:10406300A2E1B3E433F9121A4E022B1CE50824FB38
:10407300F582E50934FFF583222411123CBFA2E740
:104083002212608AE5084509228518828519831260
:104093002EDBA3E022F090045412566222A3E4F034
:1040A3008508828509832274F71203DDEAFEEBFF9C
:1040B3001214F6EE24101241CBA2E3400C1241C8B5
:1040C3006401700590809F80039080A0E0F9EEFC6E
:1040D300EFFD7A4B7B04121B14E96046EEFAEFFB0B
:1040E30090045E124146120555EE240E1241CB5444
:1040F300047020A8A8C2AF900452E004124E45FAFF
:10410300E8A2E792AF124135A3E0540170211214E3
:1041130006801CEEFAEFFB90045612414612055539
:10412300800D8E828F83A374F11245351213FA0228
:1041330045D112413922EE240EF582E43FF5832264
:10414300900460125A4F22C082C0831214060243A5
:104153001774F71203DDEAFEEBFF79009004AFE07A
:104163005402700CEE24301241CB5404600279E8FF
:104173009004AFE05460700CEE24301241CB540233
:10418300600279E88E828F83A3A3A3A3E0F89080D3
:10419300A5E0C398500279E8EE242E1241CB700CAF
:1041A300EE242B1241CB700479F5800BE9700512D4
:1041B30013E8E9F9E96007EEFAEFFB1214CC0245C4
:1041C300D134FFF509EE240DF582E43FF583E022B7
:1041D300C082C0838A828B83740DF01222880243CB
:1041E30017C082C0838A828B83E4F0A3F0EA243071
:1041F300123E18540490809F7012E0F8900452E02D
:10420300C398401279F11214CC024317E0F89004DA
:1042130051E0C39850EE9004AAE0F9121AE480E941
:1042230074F61203DDE9FE244CFAE43400FB121A9F
:10423300D8EA4B6012EE8A828B83A3A3A3A3F0EA8E
:10424300244C124B3080047A007B0002598FC082C9
:10425300C0839004667454F0A37414F0A37484F0C0
:10426300A37414F0A3745AF0A37414F0A37460F04D
:10427300A37414F0A3747EF0A37414F0A37472F007
:10428300A37414F0A3746CF0A37414F0A3748AF0F1
:10429300A37414F0A37490F0A37414F0A37496F0B1
:1042A300A37414F0A374A2F0A37414F0A37466F0BF
:1042B300A37414F0A3744EF0A37414F0A37448F021
:1042C300A37414F09004827478F0A37414F0A374AC
:1042D3009CF0A37414F0A374B6F0A37415F0A37444
:1042E300A8F0A37414F0A374AEF0A37414F09004B4
:1042F300A6E4F09004A9F090049212430E7402F025
:1043030090049B12430E740102399F74C6F0A37488
:1043130014F0A322D083D08202083F74F51203DD88
:1043230074F11209218518828519837402F07401CE
:10433300120B3BE9F060047AFF7BFF7402120B3B24
:10434300124E5F75089E750904750A0078081208F5
:104353005B7C0B7D007407120B3BAA82AB83121AA2
:10436300BA740312088DAA18AB19122288740F02AB
:104373005FEA74F71203DD74FD1209218518828543
:104383001983740AF07401120B3BE9F07402120BE7
:104393003BEA1243A812228802351B85188285192D
:1043A30083EAF0A3EBF0AA18AB192274F61203DD2B
:1043B30074F7120921EAFEEBFF1243FE122CAB74D1
:1043C30002124526AA18AB19121C58EE242E122CE1
:1043D30079243012542C12085F7402120903798372
:1043E3001A1AEFFB121526740212088DE9F50870EC
:1043F30007EEFAEFFB12140C0259881241397401CB
:104403002274F01203DD125ED3120ACC7808790C01
:104413001202EE78081208577A957B04022EFE7476
:10442300F41203DD74C612092190059FE0640F6046
:1044330010851882851983742E1243A81214D8800C
:10444300277A8C7B041215FE122B2A1202958808F8
:104453008909E4F50AF50B78081208577A8C7B046E
:104463001215F2740412088D743A022B1974F512A2
:1044730003DDEAFEEBFF8E828F83A3E0F860030285
:10448300450FEE242D1241CB64026007E064036004
:104493000278E8EE2423F582E43FF583122B2340D0
:1044A3000478E8806AE87064EE2423FAE43FFB7939
:1044B300E1121922EE242EFAE43FFB79501219225D
:1044C300EE242D1241CB6402700E12561B1256516C
:1044D3009005AE124B3A80129005AE74FEF0A30421
:1044E3001245267AA57B05121C64EE241812393C6A
:1044F30012085B7C0B7D007A9E7B04121ABA74034C
:1045030012088DEEFAEFFB121442E9F8E86011E8A5
:104513008E828F83A312587D74171245351214D8D7
:10452300025FEDF0EE2425FCE43FFD228E828F83B3
:104533007429F0EEFAEFFB2274F61203DD74F7121E
:1045430009219004A9E0703B7401F0F9121A18AA2A
:1045530018AB1912150875089E7509047808120816
:104563005F750801750900780812085F9005B41299
:1045730006C474061209037A03790512152C74060E
:1045830012088D02598A74F71203DDEAFEEBFF79F4
:1045930001121A1E8E828F83E064207004A374EBD1
:1045A300F09004A9E0A2E25003C2E2F0E0A2E150DD
:1045B300081247D312143C800C8E828F83742A1204
:1045C30045351214D88007EEFAEFFB1215747F01FC
:1045D30002063B74F41203DD74FE120921EAFEEBBA
:1045E300FF7901121A1E7A8C7B041215FE7A957BD1
:1045F300041215FE12491D8518828519831249512B
:10460300E0F50B700FAA18AB197953121922126037
:104613007A12192212393912085B7C0B7D007A9EBB
:104623007B04121ABA740312088D851882851983C4
:10463300124E4FA90B1214369004A9E0A2E1500CBC
:104643007A008E828F83A3E0F912143C9004A9E4CC
:10465300F07402022B1974F71203DDEAFEEBFF8EEE
:10466300828F83A374EBF09004A9E0A2E150077A50
:104673000079EB12143CEEFAEFFB1214720245D1EF
:1046830074F71203DDEAFEEBFF7901121A1E7A8C2E
:104693007B041215FE7A957B041215FE9004A6E4A2
:1046A300F09004A9F07AFF7BFF8E828F83A3E0F959
:1046B3001214360245D174F71203DDEAFEEBFF1242
:1046C300146C0245CA74F71203DDEAFEEBFF7901AD
:1046D300121A1E8E828F83A3A3A3A3E06004740027
:1046E300800274EB12471A5003C2E2F0E0A2E150D9
:1046F3000812481C12143C8014A2E050108E828FC2
:1047030083742AF0A374EB1245351214D8EEFAEF32
:10471300FB12141E0245D18E828F83A3F09004A94D
:10472300E0A2E22274F61203DDEAFEEBFF9004A995
:10473300E0D2E1F07901121A188E828F83A3E07020
:104743003C12150EE9FAEE240DF508E43FF509785D
:104753000812085F750801750900780812085F12CE
:1047630047911206C4EE2402FCE43FFD79051215BD
:104773002C740612088DE98E828F83A3F08E828FAC
:1047830083A3E060067A00F912143C02598F1247A2
:104793009522EE240BF582E43FF5832274F712038E
:1047A300DDEAFEEBFF7901121A1E8E828F83E0642D
:1047B300207004A374EBF09004A9E0A2E25003C2BA
:1047C300E2F0E0A2E150061247D312143C0245D1B5
:1047D300C2E1F07A008E828F83A3E0F92274F7128C
:1047E30003DDEAFEEBFF7901121A1E7A8C7B0412B9
:1047F30015FE8E828F83A3A3A3A3E06004740080BD
:104803000274EB12471A5003C2E2F0E0A2E1500631
:1048130012481C12143C024710C2E1123684A3E072
:10482300A2E4E433FA8E828F83A3E0F92274F712B1
:1048330003DDEAFEEBFF7901121A1E8E828F83A33A
:1048430074EB12471F5003C2E2F0E0A2E1500612DC
:1048530047D312143C0245D174F71203DDEAFEEB91
:10486300FF7A8C7B041215FEEEFAEFFB121496020C
:1048730045CA74F71203DDEAFEEBFF7A8C7B041260
:1048830015FEEEFAEFFB1214960245D174F71203EC
:10489300DD74EF120921EAFEEBFF1256257AA57BA0
:1048A30005121C52E960628518828519837409F028
:1048B3007401120B3B74EFF012491DF87402120BD2
:1048C3003BE8124951A3A3E0C0E07404120B3BD0B0
:1048D300E012493E640870158E828F83A3A31249A8
:1048E30011E0C0E07405120B3BD0E08006740512A2
:1048F3000B3BE41256847406120B3BAA82AB831261
:10490300153EAA18AB19122288741102351D1256CE
:10491300622407F582E438F58322124933FB8A8245
:104923008B8312565588828983E0FCA3E0F9EC223D
:10493300EE2402F8E43FF9E8FAE92212494222128E
:104943004947E022F08E828F83A3A3A3A322F0A37F
:10495300E912567312495B22E0F8A3125A56A3A335
:1049630022C082C083121580024317C082C0839085
:1049730004C67466F0A37404F0A37482F0A37404F1
:10498300F090187274ABF0A37427F0A374E7F0A34C
:104993007426F09004B27430F0A37414F09004AF52
:1049A300E0440102399FC082C083EAFCEBFD790237
:1049B3001214E402431774F61203DD74FE12092184
:1049C3009004AB124BE260077AAB7B041214FC90A9
:1049D30004B1E4F0900531124BE260268007AA1877
:1049E300AB191214FC9004AAE0F9121AF08A088B8E
:1049F30009A808A909851882851983124B3AE84941
:104A030070DC740202598C74F71203DDE9FA7B003F
:104A13009004AAE0F9121B1A0245D174F71203DDC0
:104A230074F0120921EAFCEBFDE9FE8C828D83E030
:104A3300F8749B124B2B342AF583E493C0E0740182
:104A4300120B3BD0E0F0640B700DEE8C828D83A3D0
:104A5300F0121562024B1EE07003024B1E640C60E1
:104A630003024B0F741A6E700B7404120B3BE4F0C9
:104A7300A3024B0E7404120B3BECF0A3EDF0EC24F9
:104A83002F124B23C0E07403120B3BD0E0125BE602
:104A9300120AF47406120B3B120AE88C828D8312FD
:104AA3005648740A120B3B124B3AEC240E124B235A
:104AB30054106009851882851983E48013EC24124D
:104AC300124B23F89005C1E0C3988518828519839A
:104AD300F0E0C0E0740C120B3BD0E0F0EC241512B4
:104AE3004B23C0E0740D120B3BD0E0F0EC24161204
:104AF3004B23C0E0740E120B3BD0E0F0EC241712F2
:104B03004B23C0E0740F120B3BD0E0F07402120B86
:104B13003BEEF074011208FB122288741002351D5B
:104B2300F582E43DF583E02228F582E422F8E43BB4
:104B3300F98A828B83A3A3E8F0A3E9F022C082C0A1
:104B4300839004B1E0640370047901800279000268
:104B5300431774F71203DD9004B1E0124BCC1264D7
:104B6300B18A828B83E0C2E7F025E0F8EC124B2B8D
:104B73003DF583A3E493FE124BCCF583124BE26025
:104B830005EE9004B1F08A828B83E0124BD8EC28B7
:104B9300F582ED39F583E493FCC4540F25E0F874F2
:104BA300C0124B2B3404F583124BE27005121550DF
:104BB3008014EC540F25E0FCE82CF582E439F583EE
:104BC3001241461205550245D1124BD8747028F58F
:104BD300827418392225E0F8E433F9229004541240
:104BE3005655E8492274F11203DD74FE1209218936
:104BF3000AEAFEEBFF124CE4FA7B00121AD88A0889
:104C03008B09EA450960388A828B83E50AF0A3E4BD
:104C1300F08E0C8F0DF50E780C12085BA80A124C5F
:104C2300F1EA2402FAE43509FB121ABA74031208F2
:104C33008DAA08AB099004AAE0F9121AE480128540
:104C43001882851983E50AF0791AAA18AB19121488
:104C5300CC740212088D022D8974F21203DD74FEE6
:104C6300120921890B8A088B09124CE4F50AFA7B95
:104C730000121AD88A0C8B0DAE0CAF0DEE4F604AA2
:104C83008E828F83E50BF0A3E4F0A80AEE28F8E404
:104C93003FF98E828F83124B388E828F83A3A3A317
:104CA300A3E4F0F50A780812085BA80B124CF11282
:104CB300309C121ABA740312088DEEFAEFFB9004BB
:104CC300AAE0F9121AE47900801485188285198301
:104CD300E50BF0791AAA18AB191214CC791A02351C
:104CE300AF746429F582E4342AF583E4932274854E
:104CF30028F582E4342AF583E493FC7D0022C08204
:104D0300C083E99004AA02399F74F61203DD74FE8E
:104D1300120921EAFEEBFFEE542070378040A8A869
:104D2300C2AF900453E014124E45F508E8A2E7928F
:104D3300AF8A828B83124E3C9004AD124E5F1214E5
:104D4300D8851882851983E0641560077AAD7B04E2
:104D53001214FC7A4D7B04121B02EA4B70C0EF5411
:104D6300807012801C9004AD124E5F1214D87AAD7D
:104D73007B041214FC9004AAE0F9121AF0EA4B70B7
:104D8300E4EE5410600E851882851983742D124346
:104D9300A81214D8EEA2E0500E85188285198374E8
:104DA300241243A81214D8EE5402600E851882858B
:104DB300198374251243A81214D8EE5404600E8587
:104DC300188285198374261243A81214D8EE540846
:104DD300600E85188285198374281243A81214D88B
:104DE300EE544060107401120B3B125E47742C1298
:104DF30043A81214D8EE548060107401120B3B12B6
:104E03005E47742F1243A81214D89004AB124BE2DE
:104E13006020A8A8C2AF9004AB124E4F9004ABE43D
:104E2300F0A3124E65124E5E1214D87AAD7B0412B3
:104E330014FC7A007B00024A05E0851882851983F9
:104E4300F022F0E8A2E7E43322900432124E532218
:104E5300E0FAA3E0FB22A3A3A3A3A3A3EAF0A3EB9B
:104E6300F022124E45FEE8A2E792AF22C082C08331
:104E73009004AD125651EA687002EB697007900412
:104E8300ADE4F0A3F002431774F71203DDEAFEEB7F
:104E9300FFEE4F7003121748A2AFE433F508C2AF19
:104EA3008E828F83124BE26028E824FBFAE934FFF9
:104EB300FB9004AD1264B3E86C7002E96D70079067
:104EC30004ADE4F0A3F08E828F83E4F0A3F0121B11
:104ED3006E02336EC082C0839004D47444F0A37412
:104EE30015F0A37456F0A37415F0A3745CF0A374C7
:104EF30015F0A37418F0A37414F0A37462F0A374F0
:104F030015F0A37412F0A37414F0A3741EF0A37429
:104F130014F09004E27492F0A37415F0A37468F093
:104F2300A37415F0A3746EF0A37415F0A3747AF050
:104F3300A37415F0A37474F0A37415F09004D30252
:104F4300399EC082C0839005AEE064FE7003A3E087
:104F5300F470097CA57D05121C5880158A828B8309
:104F6300A3A3A3A3A3A3A3A37402F01250C7124B3A
:104F73003A024317C082C0839005B8C3E094FEA3EE
:104F8300E094FF4004790380027902024317C08250
:104F9300C0831250D28C828D83125087687039740B
:104FA3000268701C8A828B83124FE0E06870298A42
:104FB300828B83A3124FE0A3E068701C7901801AEF
:104FC3007403687013EC2405FC50010DEA2405FA00
:104FD30050010B121C5E80027900024317A3A3A3A6
:104FE300A3A3E0F88C828D83A3A3A3A3A32274F6C7
:104FF3001203DD7E00740A120B3BE012507BFF8A22
:10500300828B83A3A3A3A3A3A3A3A3E06F7064745E
:10501300026F704E8A828B83C082C08388828983A9
:10502300A3A3A3A3A3E0F50888828983A3A3A3A3CF
:10503300A3A3E0FBAA08D083D082E06A7003A3E0B5
:105043006B703088828983A3A3A3E0FA8882898363
:10505300A3A3A3A3E0F9EA6C7002E96D70157E01C6
:10506300801174036F700CE82405FCE439FD121CF5
:105073005EE9FEEEF902598FF8A3E0F9888289838D
:1050830012508722A3E01313543F540322C082C05B
:10509300838A828B83A3A3A3A3A3A3A3A3E0640212
:1050A30070141250C7E0687003A3E06970047901BB
:1050B300800F7900800BEAFCEBFD7AA57B05121CBF
:1050C300520243179005AE1256558A828B83228A69
:1050D300828B83125087F82274EC1203DDEAFEEB15
:1050E300FF8C128D13750A008C828D83A3A3A3A357
:1050F300A3A3A3A3E0F510E9A2E75008750CFF757D
:105103000DFF80069005B4125317E9C2E7F511EEBF
:10511300240E1241CB542060071252F87408800405
:105123001252F8E412531F540460071253007480A0
:105133008005125300741012531F5410600612524C
:10514300D0E4800B9005C1E0C0E01252D0D0E01251
:10515300531FA2E05003750A2054086006741045DB
:105163000AF50A8E828F83A3A3E024FFF508A3E048
:105173001241C4C39402E0400B640B6005E01412B7
:1051830030AC7403450AF50A750B009005D4E0644E
:105193000170118E828F83A3A3A3A3E0C3946740FE
:1051A30003750B1085110E750F00740E780E12091E
:1051B300C5E50F450BF50B7414120B3BE0F50EA37D
:1051C300E0F50F74026511700E9005B91230AB90C3
:1051D30005B812530E80137403651170121252DA5C
:1051E3007CC87D05AA08FB121C641252E78004E503
:1051F300116028E5106014E50E650C7004E50F6579
:105203000D70087440450AF50A80108508828509E7
:1052130083E50D125325E50C1230B285100C750D84
:1052230000740A780C1209C5E50D450BF50B7402E1
:1052330065107015851282851383A31230AB851216
:105243008285138312530E80137403651070121238
:1052530052DAAC12AD13AA08FB121C641252E78097
:1052630004E5106010850882850983E50F12532534
:10527300E50E1230B2A808A909E824FFF508E912DF
:1052830041C470059005A480039005B0E0FA04F0D2
:10529300EA888289831240A2E50B125325E50AF0BE
:1052A300EE2404F8E43FF9122D98AC088A828B832C
:1052B300E0F50A88828983E0250AC39C12566FECC5
:1052C300F0A3E5091257EBE4F0F9022AFDEE2412EC
:1052D300F582E43FF58322E50824F9F508E509346E
:1052E300FFF509221252EB22E50824FFF508E50930
:1052F30034FFF50922EE123F843FF5832212530453
:1053030022EE2411F582E43FF58322E085088285AD
:105313000983F022E0F50CA3E0F50D22F0124139E8
:10532300E0221230B6850882F5832274EE1203DD83
:10533300890A8A0B8C108D11750C1A7416120B3B8B
:10534300126086AA08FB1213B88A0E8B0FAE0EAF3B
:105353000FEE4F60607414120B3B1253BFE8F0A3BF
:10536300E9122CAEE50AF085080C85090D750E00CF
:10537300780C12085B123098121ABA740312088D53
:105383007412120B3B1206C4AC10AD11A90BEEFA4A
:10539300EFFB121526740212088DE9F50C7016E561
:1053A3000A24F9600314700612311FD2E5F0EEFAF5
:1053B300EFFB12140CA90C7F0A02063B125A64126B
:1053C300413A2274F61203DD74F7120921EAFEEB67
:1053D300FF7801EE242F1241CB600278051241358C
:1053E300E8122CAB740412541F121C58EE242C1216
:1053F3002C79242E12542C12085F7402120903799B
:10540300031A1AEFFB121526740212088DE9F50828
:105413007007EEFAEFFB12140C025988F0EE242306
:10542300FCE43FFDAA18AB1922F582E43FF5831291
:105433002DC312494204F078082274F21203DD8A64
:10544300088B09ECFEEDFF8A828B837405F0EE2452
:10545300321241CB8A828B83A3A3F0EA2403F50A99
:10546300E43509F50B850A82F58312531712561B8F
:10547300120AF4E50C123F5A350DF583120AE812AD
:105483005625AA0CAB0D121C58850A82850B831274
:105493005A5CFAA3E0FB88828983A3A3A3124E5923
:1054A300EE242F1241CBC0E012563AD0E0125679C7
:1054B3002415F582E438F583E412567912562DE467
:1054C300125684850A82850B83E02416FAA3E034FE
:1054D30000FB12153E8E828F83A3A3A3A3A3A3A3D2
:1054E300E0C0E0850A82850B8312565E240DF582A7
:1054F300E438F583D0E0125668FAA3E0FB850A820C
:10550300850B83125651E8240BFCE439FD8A828B08
:1055130083E08C828D83F0A3E4125691E0F50B8C2B
:10552300828D83A3E0450B12566FA3E0FCA30A0A06
:10553300AB83A2E7E433C0E0E8240FF582E439F556
:1055430083D0E0F074075C60047801800278007512
:10555300F00374075CA428F8EA28FAE43BFBE508A7
:105563002405F8E43509F98A828B83122DC3125678
:1055730091850882850983124E5988828983E0F5D3
:105583000A540725E0FCE50AC4540F5407F50A75CD
:105593000B007403780A1209C5EC250AF8EA28F807
:1055A300E43BF9850882850983A3A3A3A3A3A3A34B
:1055B300A3A3E8F0A3E912493EFA8E828F83A3A343
:1055C300E02AFAA3E03400FBC3EA98EB9940308E5B
:1055D300828F83A3A3E0F8850882850983A3A3A30D
:1055E300A3A3A3A3A3A3E0FA8E828F83A3A3A3A35E
:1055F300E0C39A28850882850983A3A3A380108525
:105603000882850983A3A3A3A3A3A3A31240A0A3F2
:10561300A3A3A3A3F00235B4EE2425F582E43FF55A
:105623008322EE2413FCE43FFD2212563122240E82
:10563300F582E438F5832212563E22E82410F582DF
:10564300E439F58322A3A3A3A3A3A3A3A3A312567D
:105653005522E0F8A3E0F92290045412566222E0A6
:10566300F8A3E0C82212587DA3A3E02212567322A6
:10567300F08A828B8322F0850A82850B831256621D
:1056830022F012568922EE2408FCE43FFD22125632
:1056930073A3AA82AB832274F51203DD8C088D09F0
:1056A300750A00780812085B7C0B7D00025FE50237
:1056B300083FC082C08379181214CC024317C082FA
:1056C300C0838A828B83E0C3940B500312154A0272
:1056D3004317C082C083791980DE74F71203DDEAB1
:1056E300FEEBFF9004AB124BE260109004AB124E42
:1056F3004F1215567AAB7B041214FCEEFAEFFB1231
:1057030014F69004ABEEF0A3EF8002F0A3F0024591
:10571300D174F71203DD74DE120921EAFEEBFF8E6A
:10572300828F83E024FD601124FE601524ED60095F
:1057330024FA600D14600A803D7416120B3BE4805A
:10574300077416120B3B7401F0123D5C740B120BC1
:105753003BAA82AB83121C647413120B3B1257F0E7
:10576300120B3B124B3A740A120B3B1257FC120BEF
:105773003B124B3A80427416120B3B7402F01256E2
:1057830025740B120B3BAA82AB83121C6474131295
:105793000B3B1257F0120B3B124B3A740A120B3BA2
:1057A3001257FC120B3B122C8D12568A7417120BD4
:1057B3003BAA82AB8312153E851882851983740B2D
:1057C3001257EBE0C0E07401120B3BD0E012568499
:1057D3007417120B3BAA82AB8312153EAA18AB199E
:1057E300122288742202351D12587DA3227403F0FD
:1057F3009005B81256557402227402F09005B41243
:10580300565574142274F71203DDEAFEEBFF8E8201
:105813008F83A3E0F5087036EE242C1258837003AF
:10582300A3E06960037508E8EE2423FAE43FFB1262
:105833001520E96032EE242FF582E43FF583E4F08E
:10584300E508700AEEFAEFFB121532E9F508E508F0
:1058530060128E828F83A3E50812587D7419124556
:10586300351214D80245D1EE242F1241CB60D190CA
:1058730004D2E070CB7508E880D8F08E828F832243
:10588300F582E43FF5831256559005B4E06822C0D3
:1058930082C08374F11209217402120B3B74041247
:1058A300566FA3E0C0E07403120B3BD0E0F0EA2490
:1058B3002CF582E43BF583125651740D120B3B1207
:1058C3004B3AEA2423FCE43BFD7404120B3BAA820B
:1058D300AB83121C587404120B3BAA82AB831215C0
:1058E30020E9600E1259021219229005AE74FFF0DE
:1058F300A3F074021208FB122288740F023A248563
:10590300188285198374FFF0A3F0AA18AB19795391
:105913002274F61203DD74E81209218A088B0974D4
:1059230002120B3B7403F0EA2413FEE43509FFEE85
:10593300FCEFFD7404120B3BAA82AB83121C6412AE
:1059430031EEC0E0740C120B3BD0E0F0E508240804
:10595300FCE43509FD740D120B3BAA82AB831215CF
:105963003EEEFAEFFB121520E9600E1259021219EE
:10597300229005AE74FFF0A3F074021208FB12220A
:105983008874188004A908740912088D7F0202061E
:105993003B74F61203DD74D4120921EAFEEBFF8E89
:1059A300828F83A3A3125A48E0A2E650179005B44E
:1059B300125A5C687003A3E06970099004D3E06035
:1059C30041121580740B1208F37403120B3B125F20
:1059D300D7121538851882851983742B1243A812A0
:1059E30014D8900599E060087408120B3BE0600E30
:1059F30085188285198374051243A8122288742C92
:105A030080879005BDE060BC123931121520E97022
:105A1300B3EE2408F508E43FF509780812085F752A
:105A23000801750900780812085F9005B41206C4CE
:105A33007CA57D057A03790612152C740612088D50
:105A430080BC900454125A4FA322A3A3125A532288
:105A5300E0F8A3E0F583888222125A64123512E03B
:105A630022E0F8A3E0F9EE22C082C08374EF1209AA
:105A7300218518828519837409F07401120B3B7414
:105A8300EE1243A8122288023A2274F71203DDA20F
:105A9300AFE433FFC2AFE9600312191012189E90EE
:105AA30005C7E0F912195E9005C6E0F91219529084
:105AB30004D3E0F912193A9005B4124E4F1219406B
:105AC3009005B8124E4F1219467AC87B0512194C2D
:105AD3007E00125B11124BE26009125B1112414608
:105AE3001205550EEEC3940740E81215CE1214C0EA
:105AF3009004ECE4F01213B21215027AB77B057925
:105B030052121922EFA2E092AF79000245D1EE12B0
:105B13004BD874B228F582740439F583221214DE4B
:105B2300024317C082C0839004ED749EF0A37415E2
:105B3300F0A374BCF0A37415F0A374C2F0A374159E
